{
	"Lab5/array.sol": {
		"Array": {
			"abi": [
				{
					"inputs": [
						{
							"internalType": "uint256",
							"name": "",
							"type": "uint256"
						}
					],
					"name": "arr",
					"outputs": [
						{
							"internalType": "uint256",
							"name": "",
							"type": "uint256"
						}
					],
					"stateMutability": "view",
					"type": "function"
				},
				{
					"inputs": [
						{
							"internalType": "uint256",
							"name": "",
							"type": "uint256"
						}
					],
					"name": "arr2",
					"outputs": [
						{
							"internalType": "uint256",
							"name": "",
							"type": "uint256"
						}
					],
					"stateMutability": "view",
					"type": "function"
				},
				{
					"inputs": [
						{
							"internalType": "uint256",
							"name": "i",
							"type": "uint256"
						}
					],
					"name": "get",
					"outputs": [
						{
							"internalType": "uint256",
							"name": "",
							"type": "uint256"
						}
					],
					"stateMutability": "view",
					"type": "function"
				},
				{
					"inputs": [],
					"name": "getArr",
					"outputs": [
						{
							"internalType": "uint256[]",
							"name": "",
							"type": "uint256[]"
						}
					],
					"stateMutability": "view",
					"type": "function"
				},
				{
					"inputs": [],
					"name": "getLength",
					"outputs": [
						{
							"internalType": "uint256",
							"name": "",
							"type": "uint256"
						}
					],
					"stateMutability": "view",
					"type": "function"
				},
				{
					"inputs": [
						{
							"internalType": "uint256",
							"name": "",
							"type": "uint256"
						}
					],
					"name": "myFixedSizeArr",
					"outputs": [
						{
							"internalType": "uint256",
							"name": "",
							"type": "uint256"
						}
					],
					"stateMutability": "view",
					"type": "function"
				},
				{
					"inputs": [],
					"name": "pop",
					"outputs": [],
					"stateMutability": "nonpayable",
					"type": "function"
				},
				{
					"inputs": [
						{
							"internalType": "uint256",
							"name": "i",
							"type": "uint256"
						}
					],
					"name": "push",
					"outputs": [],
					"stateMutability": "nonpayable",
					"type": "function"
				},
				{
					"inputs": [
						{
							"internalType": "uint256",
							"name": "index",
							"type": "uint256"
						}
					],
					"name": "remove",
					"outputs": [],
					"stateMutability": "nonpayable",
					"type": "function"
				}
			],
			"devdoc": {
				"kind": "dev",
				"methods": {},
				"version": 1
			},
			"evm": {
				"assembly": "    /* \"Lab5/array.sol\":61:1236  contract Array {\r... */\n  mstore(0x40, 0x80)\n    /* \"Lab5/array.sol\":151:179  uint[] public arr2 = [1,2,3] */\n  mload(0x40)\n  dup1\n  0x60\n  add\n  0x40\n  mstore\n  dup1\n    /* \"Lab5/array.sol\":173:174  1 */\n  0x01\n    /* \"Lab5/array.sol\":151:179  uint[] public arr2 = [1,2,3] */\n  0xff\n  and\n  dup2\n  mstore\n  0x20\n  add\n    /* \"Lab5/array.sol\":175:176  2 */\n  0x02\n    /* \"Lab5/array.sol\":151:179  uint[] public arr2 = [1,2,3] */\n  0xff\n  and\n  dup2\n  mstore\n  0x20\n  add\n    /* \"Lab5/array.sol\":177:178  3 */\n  0x03\n    /* \"Lab5/array.sol\":151:179  uint[] public arr2 = [1,2,3] */\n  0xff\n  and\n  dup2\n  mstore\n  pop\n  0x01\n  swap1\n  0x03\n  tag_1\n  swap3\n  swap2\n  swap1\n  tag_2\n  jump\t// in\ntag_1:\n  pop\n    /* \"Lab5/array.sol\":61:1236  contract Array {\r... */\n  callvalue\n  dup1\n  iszero\n  tag_3\n  jumpi\n  0x00\n  dup1\n  revert\ntag_3:\n  pop\n  jump(tag_4)\ntag_2:\n  dup3\n  dup1\n  sload\n  dup3\n  dup3\n  sstore\n  swap1\n  0x00\n  mstore\n  keccak256(0x00, 0x20)\n  swap1\n  dup2\n  add\n  swap3\n  dup3\n  iszero\n  tag_5\n  jumpi\n  swap2\n  0x20\n  mul\n  dup3\n  add\ntag_6:\n  dup3\n  dup2\n  gt\n  iszero\n  tag_7\n  jumpi\n  dup3\n  mload\n  dup3\n  swap1\n  0xff\n  and\n  swap1\n  sstore\n  swap2\n  0x20\n  add\n  swap2\n  swap1\n  0x01\n  add\n  swap1\n  jump(tag_6)\ntag_7:\ntag_5:\n  pop\n  swap1\n  pop\n  tag_8\n  swap2\n  swap1\n  tag_9\n  jump\t// in\ntag_8:\n  pop\n  swap1\n  jump\t// out\ntag_9:\ntag_10:\n  dup1\n  dup3\n  gt\n  iszero\n  tag_11\n  jumpi\n  0x00\n  dup2\n  0x00\n  swap1\n  sstore\n  pop\n  0x01\n  add\n  jump(tag_10)\ntag_11:\n  pop\n  swap1\n  jump\t// out\ntag_4:\n  dataSize(sub_0)\n  dup1\n  dataOffset(sub_0)\n  0x00\n  codecopy\n  0x00\n  return\nstop\n\nsub_0: assembly {\n        /* \"Lab5/array.sol\":61:1236  contract Array {\r... */\n      mstore(0x40, 0x80)\n      callvalue\n      dup1\n      iszero\n      tag_1\n      jumpi\n      0x00\n      dup1\n      revert\n    tag_1:\n      pop\n      jumpi(tag_2, lt(calldatasize, 0x04))\n      shr(0xe0, calldataload(0x00))\n      dup1\n      0x959ac484\n      gt\n      tag_12\n      jumpi\n      dup1\n      0x959ac484\n      eq\n      tag_7\n      jumpi\n      dup1\n      0xa4ece52c\n      eq\n      tag_8\n      jumpi\n      dup1\n      0xbe1c766b\n      eq\n      tag_9\n      jumpi\n      dup1\n      0xedf0099b\n      eq\n      tag_10\n      jumpi\n      dup1\n      0xfb8cbced\n      eq\n      tag_11\n      jumpi\n      jump(tag_2)\n    tag_12:\n      dup1\n      0x38a067ce\n      eq\n      tag_3\n      jumpi\n      dup1\n      0x4cc82215\n      eq\n      tag_4\n      jumpi\n      dup1\n      0x71e5ee5f\n      eq\n      tag_5\n      jumpi\n      dup1\n      0x9507d39a\n      eq\n      tag_6\n      jumpi\n    tag_2:\n      0x00\n      dup1\n      revert\n        /* \"Lab5/array.sol\":242:272  uint[10] public myFixedSizeArr */\n    tag_3:\n      tag_13\n      0x04\n      dup1\n      calldatasize\n      sub\n      0x20\n      dup2\n      lt\n      iszero\n      tag_14\n      jumpi\n      0x00\n      dup1\n      revert\n    tag_14:\n      dup2\n      add\n      swap1\n      dup1\n      dup1\n      calldataload\n      swap1\n      0x20\n      add\n      swap1\n      swap3\n      swap2\n      swap1\n      pop\n      pop\n      pop\n      tag_15\n      jump\t// in\n    tag_13:\n      mload(0x40)\n      dup1\n      dup3\n      dup2\n      mstore\n      0x20\n      add\n      swap2\n      pop\n      pop\n      mload(0x40)\n      dup1\n      swap2\n      sub\n      swap1\n      return\n        /* \"Lab5/array.sol\":1002:1233  function remove(uint index) public {\r... */\n    tag_4:\n      tag_16\n      0x04\n      dup1\n      calldatasize\n      sub\n      0x20\n      dup2\n      lt\n      iszero\n      tag_17\n      jumpi\n      0x00\n      dup1\n      revert\n    tag_17:\n      dup2\n      add\n      swap1\n      dup1\n      dup1\n      calldataload\n      swap1\n      0x20\n      add\n      swap1\n      swap3\n      swap2\n      swap1\n      pop\n      pop\n      pop\n      tag_18\n      jump\t// in\n    tag_16:\n      stop\n        /* \"Lab5/array.sol\":127:144  uint[] public arr */\n    tag_5:\n      tag_19\n      0x04\n      dup1\n      calldatasize\n      sub\n      0x20\n      dup2\n      lt\n      iszero\n      tag_20\n      jumpi\n      0x00\n      dup1\n      revert\n    tag_20:\n      dup2\n      add\n      swap1\n      dup1\n      dup1\n      calldataload\n      swap1\n      0x20\n      add\n      swap1\n      swap3\n      swap2\n      swap1\n      pop\n      pop\n      pop\n      tag_21\n      jump\t// in\n    tag_19:\n      mload(0x40)\n      dup1\n      dup3\n      dup2\n      mstore\n      0x20\n      add\n      swap2\n      pop\n      pop\n      mload(0x40)\n      dup1\n      swap2\n      sub\n      swap1\n      return\n        /* \"Lab5/array.sol\":281:361  function get(uint i) public view returns (uint) {\r... */\n    tag_6:\n      tag_22\n      0x04\n      dup1\n      calldatasize\n      sub\n      0x20\n      dup2\n      lt\n      iszero\n      tag_23\n      jumpi\n      0x00\n      dup1\n      revert\n    tag_23:\n      dup2\n      add\n      swap1\n      dup1\n      dup1\n      calldataload\n      swap1\n      0x20\n      add\n      swap1\n      swap3\n      swap2\n      swap1\n      pop\n      pop\n      pop\n      tag_24\n      jump\t// in\n    tag_22:\n      mload(0x40)\n      dup1\n      dup3\n      dup2\n      mstore\n      0x20\n      add\n      swap2\n      pop\n      pop\n      mload(0x40)\n      dup1\n      swap2\n      sub\n      swap1\n      return\n        /* \"Lab5/array.sol\":607:748  function push(uint i) public {\r... */\n    tag_7:\n      tag_25\n      0x04\n      dup1\n      calldatasize\n      sub\n      0x20\n      dup2\n      lt\n      iszero\n      tag_26\n      jumpi\n      0x00\n      dup1\n      revert\n    tag_26:\n      dup2\n      add\n      swap1\n      dup1\n      dup1\n      calldataload\n      swap1\n      0x20\n      add\n      swap1\n      swap3\n      swap2\n      swap1\n      pop\n      pop\n      pop\n      tag_27\n      jump\t// in\n    tag_25:\n      stop\n        /* \"Lab5/array.sol\":756:902  function pop() public {\r... */\n    tag_8:\n      tag_28\n      tag_29\n      jump\t// in\n    tag_28:\n      stop\n        /* \"Lab5/array.sol\":910:994  function getLength() public view returns (uint) {\r... */\n    tag_9:\n      tag_30\n      tag_31\n      jump\t// in\n    tag_30:\n      mload(0x40)\n      dup1\n      dup3\n      dup2\n      mstore\n      0x20\n      add\n      swap2\n      pop\n      pop\n      mload(0x40)\n      dup1\n      swap2\n      sub\n      swap1\n      return\n        /* \"Lab5/array.sol\":151:179  uint[] public arr2 = [1,2,3] */\n    tag_10:\n      tag_32\n      0x04\n      dup1\n      calldatasize\n      sub\n      0x20\n      dup2\n      lt\n      iszero\n      tag_33\n      jumpi\n      0x00\n      dup1\n      revert\n    tag_33:\n      dup2\n      add\n      swap1\n      dup1\n      dup1\n      calldataload\n      swap1\n      0x20\n      add\n      swap1\n      swap3\n      swap2\n      swap1\n      pop\n      pop\n      pop\n      tag_34\n      jump\t// in\n    tag_32:\n      mload(0x40)\n      dup1\n      dup3\n      dup2\n      mstore\n      0x20\n      add\n      swap2\n      pop\n      pop\n      mload(0x40)\n      dup1\n      swap2\n      sub\n      swap1\n      return\n        /* \"Lab5/array.sol\":516:599  function getArr() public view returns (uint[] memory) {\r... */\n    tag_11:\n      tag_35\n      tag_36\n      jump\t// in\n    tag_35:\n      mload(0x40)\n      dup1\n      dup1\n      0x20\n      add\n      dup3\n      dup2\n      sub\n      dup3\n      mstore\n      dup4\n      dup2\n      dup2\n      mload\n      dup2\n      mstore\n      0x20\n      add\n      swap2\n      pop\n      dup1\n      mload\n      swap1\n      0x20\n      add\n      swap1\n      0x20\n      mul\n      dup1\n      dup4\n      dup4\n      0x00\n    tag_37:\n      dup4\n      dup2\n      lt\n      iszero\n      tag_39\n      jumpi\n      dup1\n      dup3\n      add\n      mload\n      dup2\n      dup5\n      add\n      mstore\n      0x20\n      dup2\n      add\n      swap1\n      pop\n      jump(tag_37)\n    tag_39:\n      pop\n      pop\n      pop\n      pop\n      swap1\n      pop\n      add\n      swap3\n      pop\n      pop\n      pop\n      mload(0x40)\n      dup1\n      swap2\n      sub\n      swap1\n      return\n        /* \"Lab5/array.sol\":242:272  uint[10] public myFixedSizeArr */\n    tag_15:\n      0x02\n      dup2\n      0x0a\n      dup2\n      lt\n      tag_40\n      jumpi\n      invalid\n    tag_40:\n      add\n      0x00\n      swap2\n      pop\n      swap1\n      pop\n      sload\n      dup2\n      jump\t// out\n        /* \"Lab5/array.sol\":1002:1233  function remove(uint index) public {\r... */\n    tag_18:\n        /* \"Lab5/array.sol\":1215:1218  arr */\n      0x00\n        /* \"Lab5/array.sol\":1219:1224  index */\n      dup2\n        /* \"Lab5/array.sol\":1215:1225  arr[index] */\n      dup2\n      sload\n      dup2\n      lt\n      tag_43\n      jumpi\n      invalid\n    tag_43:\n      swap1\n      0x00\n      mstore\n      keccak256(0x00, 0x20)\n      add\n        /* \"Lab5/array.sol\":1208:1225  delete arr[index] */\n      0x00\n      swap1\n      sstore\n        /* \"Lab5/array.sol\":1002:1233  function remove(uint index) public {\r... */\n      pop\n      jump\t// out\n        /* \"Lab5/array.sol\":127:144  uint[] public arr */\n    tag_21:\n      0x00\n      dup2\n      dup2\n      sload\n      dup2\n      lt\n      tag_45\n      jumpi\n      invalid\n    tag_45:\n      swap1\n      0x00\n      mstore\n      keccak256(0x00, 0x20)\n      add\n      0x00\n      swap2\n      pop\n      swap1\n      pop\n      sload\n      dup2\n      jump\t// out\n        /* \"Lab5/array.sol\":281:361  function get(uint i) public view returns (uint) {\r... */\n    tag_24:\n        /* \"Lab5/array.sol\":323:327  uint */\n      0x00\n        /* \"Lab5/array.sol\":347:350  arr */\n      dup1\n        /* \"Lab5/array.sol\":351:352  i */\n      dup3\n        /* \"Lab5/array.sol\":347:353  arr[i] */\n      dup2\n      sload\n      dup2\n      lt\n      tag_48\n      jumpi\n      invalid\n    tag_48:\n      swap1\n      0x00\n      mstore\n      keccak256(0x00, 0x20)\n      add\n      sload\n        /* \"Lab5/array.sol\":340:353  return arr[i] */\n      swap1\n      pop\n        /* \"Lab5/array.sol\":281:361  function get(uint i) public view returns (uint) {\r... */\n      swap2\n      swap1\n      pop\n      jump\t// out\n        /* \"Lab5/array.sol\":607:748  function push(uint i) public {\r... */\n    tag_27:\n        /* \"Lab5/array.sol\":729:732  arr */\n      0x00\n        /* \"Lab5/array.sol\":738:739  i */\n      dup2\n        /* \"Lab5/array.sol\":729:740  arr.push(i) */\n      swap1\n      dup1\n      0x01\n      dup2\n      sload\n      add\n      dup1\n      dup3\n      sstore\n      dup1\n      swap2\n      pop\n      pop\n      0x01\n      swap1\n      sub\n      swap1\n      0x00\n      mstore\n      keccak256(0x00, 0x20)\n      add\n      0x00\n      swap1\n      swap2\n      swap1\n      swap2\n      swap1\n      swap2\n      pop\n      sstore\n        /* \"Lab5/array.sol\":607:748  function push(uint i) public {\r... */\n      pop\n      jump\t// out\n        /* \"Lab5/array.sol\":756:902  function pop() public {\r... */\n    tag_29:\n        /* \"Lab5/array.sol\":885:888  arr */\n      0x00\n        /* \"Lab5/array.sol\":885:894  arr.pop() */\n      dup1\n      sload\n      dup1\n      tag_53\n      jumpi\n      invalid\n    tag_53:\n      0x01\n      swap1\n      sub\n      dup2\n      dup2\n      swap1\n      0x00\n      mstore\n      keccak256(0x00, 0x20)\n      add\n      0x00\n      swap1\n      sstore\n      swap1\n      sstore\n        /* \"Lab5/array.sol\":756:902  function pop() public {\r... */\n      jump\t// out\n        /* \"Lab5/array.sol\":910:994  function getLength() public view returns (uint) {\r... */\n    tag_31:\n        /* \"Lab5/array.sol\":952:956  uint */\n      0x00\n        /* \"Lab5/array.sol\":976:979  arr */\n      dup1\n        /* \"Lab5/array.sol\":976:986  arr.length */\n      dup1\n      sload\n      swap1\n      pop\n        /* \"Lab5/array.sol\":969:986  return arr.length */\n      swap1\n      pop\n        /* \"Lab5/array.sol\":910:994  function getLength() public view returns (uint) {\r... */\n      swap1\n      jump\t// out\n        /* \"Lab5/array.sol\":151:179  uint[] public arr2 = [1,2,3] */\n    tag_34:\n      0x01\n      dup2\n      dup2\n      sload\n      dup2\n      lt\n      tag_56\n      jumpi\n      invalid\n    tag_56:\n      swap1\n      0x00\n      mstore\n      keccak256(0x00, 0x20)\n      add\n      0x00\n      swap2\n      pop\n      swap1\n      pop\n      sload\n      dup2\n      jump\t// out\n        /* \"Lab5/array.sol\":516:599  function getArr() public view returns (uint[] memory) {\r... */\n    tag_36:\n        /* \"Lab5/array.sol\":555:568  uint[] memory */\n      0x60\n        /* \"Lab5/array.sol\":588:591  arr */\n      0x00\n        /* \"Lab5/array.sol\":581:591  return arr */\n      dup1\n      sload\n      dup1\n      0x20\n      mul\n      0x20\n      add\n      mload(0x40)\n      swap1\n      dup2\n      add\n      0x40\n      mstore\n      dup1\n      swap3\n      swap2\n      swap1\n      dup2\n      dup2\n      mstore\n      0x20\n      add\n      dup3\n      dup1\n      sload\n      dup1\n      iszero\n      tag_59\n      jumpi\n      0x20\n      mul\n      dup3\n      add\n      swap2\n      swap1\n      0x00\n      mstore\n      keccak256(0x00, 0x20)\n      swap1\n    tag_60:\n      dup2\n      sload\n      dup2\n      mstore\n      0x20\n      add\n      swap1\n      0x01\n      add\n      swap1\n      dup1\n      dup4\n      gt\n      tag_60\n      jumpi\n    tag_59:\n      pop\n      pop\n      pop\n      pop\n      pop\n      swap1\n      pop\n        /* \"Lab5/array.sol\":516:599  function getArr() public view returns (uint[] memory) {\r... */\n      swap1\n      jump\t// out\n\n    auxdata: 0xa264697066735822122003f84c92aeb2ff3a15df33ce0322cd35c484971b48daeff9c67b31bc061f09a964736f6c634300060c0033\n}\n",
				"bytecode": {
					"linkReferences": {},
					"object": "60806040526040518060600160405280600160ff168152602001600260ff168152602001600360ff16815250600190600361003b92919061004e565b5034801561004857600080fd5b506100bd565b82805482825590600052602060002090810192821561008f579160200282015b8281111561008e578251829060ff1690559160200191906001019061006e565b5b50905061009c91906100a0565b5090565b5b808211156100b95760008160009055506001016100a1565b5090565b610404806100cc6000396000f3fe608060405234801561001057600080fd5b50600436106100935760003560e01c8063959ac48411610066578063959ac4841461018c578063a4ece52c146101ba578063be1c766b146101c4578063edf0099b146101e2578063fb8cbced1461022457610093565b806338a067ce146100985780634cc82215146100da57806371e5ee5f146101085780639507d39a1461014a575b600080fd5b6100c4600480360360208110156100ae57600080fd5b8101908080359060200190929190505050610283565b6040518082815260200191505060405180910390f35b610106600480360360208110156100f057600080fd5b810190808035906020019092919050505061029b565b005b6101346004803603602081101561011e57600080fd5b81019080803590602001909291905050506102b9565b6040518082815260200191505060405180910390f35b6101766004803603602081101561016057600080fd5b81019080803590602001909291905050506102da565b6040518082815260200191505060405180910390f35b6101b8600480360360208110156101a257600080fd5b81019080803590602001909291905050506102fa565b005b6101c2610326565b005b6101cc610349565b6040518082815260200191505060405180910390f35b61020e600480360360208110156101f857600080fd5b8101908080359060200190929190505050610355565b6040518082815260200191505060405180910390f35b61022c610376565b6040518080602001828103825283818151815260200191508051906020019060200280838360005b8381101561026f578082015181840152602081019050610254565b505050509050019250505060405180910390f35b600281600a811061029057fe5b016000915090505481565b600081815481106102a857fe5b906000526020600020016000905550565b600081815481106102c657fe5b906000526020600020016000915090505481565b60008082815481106102e857fe5b90600052602060002001549050919050565b600081908060018154018082558091505060019003906000526020600020016000909190919091505550565b600080548061033157fe5b60019003818190600052602060002001600090559055565b60008080549050905090565b6001818154811061036257fe5b906000526020600020016000915090505481565b606060008054806020026020016040519081016040528092919081815260200182805480156103c457602002820191906000526020600020905b8154815260200190600101908083116103b0575b505050505090509056fea264697066735822122003f84c92aeb2ff3a15df33ce0322cd35c484971b48daeff9c67b31bc061f09a964736f6c634300060c0033",
					"opcodes": "PUSH1 0x80 PUSH1 0x40 MSTORE PUSH1 0x40 MLOAD DUP1 PUSH1 0x60 ADD PUSH1 0x40 MSTORE DUP1 PUSH1 0x1 PUSH1 0xFF AND DUP2 MSTORE PUSH1 0x20 ADD PUSH1 0x2 PUSH1 0xFF AND DUP2 MSTORE PUSH1 0x20 ADD PUSH1 0x3 PUSH1 0xFF AND DUP2 MSTORE POP PUSH1 0x1 SWAP1 PUSH1 0x3 PUSH2 0x3B SWAP3 SWAP2 SWAP1 PUSH2 0x4E JUMP JUMPDEST POP CALLVALUE DUP1 ISZERO PUSH2 0x48 JUMPI PUSH1 0x0 DUP1 REVERT JUMPDEST POP PUSH2 0xBD JUMP JUMPDEST DUP3 DUP1 SLOAD DUP3 DUP3 SSTORE SWAP1 PUSH1 0x0 MSTORE PUSH1 0x20 PUSH1 0x0 KECCAK256 SWAP1 DUP2 ADD SWAP3 DUP3 ISZERO PUSH2 0x8F JUMPI SWAP2 PUSH1 0x20 MUL DUP3 ADD JUMPDEST DUP3 DUP2 GT ISZERO PUSH2 0x8E JUMPI DUP3 MLOAD DUP3 SWAP1 PUSH1 0xFF AND SWAP1 SSTORE SWAP2 PUSH1 0x20 ADD SWAP2 SWAP1 PUSH1 0x1 ADD SWAP1 PUSH2 0x6E JUMP JUMPDEST JUMPDEST POP SWAP1 POP PUSH2 0x9C SWAP2 SWAP1 PUSH2 0xA0 JUMP JUMPDEST POP SWAP1 JUMP JUMPDEST JUMPDEST DUP1 DUP3 GT ISZERO PUSH2 0xB9 JUMPI PUSH1 0x0 DUP2 PUSH1 0x0 SWAP1 SSTORE POP PUSH1 0x1 ADD PUSH2 0xA1 JUMP JUMPDEST POP SWAP1 JUMP JUMPDEST PUSH2 0x404 DUP1 PUSH2 0xCC PUSH1 0x0 CODECOPY PUSH1 0x0 RETURN INVALID PUSH1 0x80 PUSH1 0x40 MSTORE CALLVALUE DUP1 ISZERO PUSH2 0x10 JUMPI PUSH1 0x0 DUP1 REVERT JUMPDEST POP PUSH1 0x4 CALLDATASIZE LT PUSH2 0x93 JUMPI PUSH1 0x0 CALLDATALOAD PUSH1 0xE0 SHR DUP1 PUSH4 0x959AC484 GT PUSH2 0x66 JUMPI DUP1 PUSH4 0x959AC484 EQ PUSH2 0x18C JUMPI DUP1 PUSH4 0xA4ECE52C EQ PUSH2 0x1BA JUMPI DUP1 PUSH4 0xBE1C766B EQ PUSH2 0x1C4 JUMPI DUP1 PUSH4 0xEDF0099B EQ PUSH2 0x1E2 JUMPI DUP1 PUSH4 0xFB8CBCED EQ PUSH2 0x224 JUMPI PUSH2 0x93 JUMP JUMPDEST DUP1 PUSH4 0x38A067CE EQ PUSH2 0x98 JUMPI DUP1 PUSH4 0x4CC82215 EQ PUSH2 0xDA JUMPI DUP1 PUSH4 0x71E5EE5F EQ PUSH2 0x108 JUMPI DUP1 PUSH4 0x9507D39A EQ PUSH2 0x14A JUMPI JUMPDEST PUSH1 0x0 DUP1 REVERT JUMPDEST PUSH2 0xC4 PUSH1 0x4 DUP1 CALLDATASIZE SUB PUSH1 0x20 DUP2 LT ISZERO PUSH2 0xAE JUMPI PUSH1 0x0 DUP1 REVERT JUMPDEST DUP2 ADD SWAP1 DUP1 DUP1 CALLDATALOAD SWAP1 PUSH1 0x20 ADD SWAP1 SWAP3 SWAP2 SWAP1 POP POP POP PUSH2 0x283 JUMP JUMPDEST PUSH1 0x40 MLOAD DUP1 DUP3 DUP2 MSTORE PUSH1 0x20 ADD SWAP2 POP POP PUSH1 0x40 MLOAD DUP1 SWAP2 SUB SWAP1 RETURN JUMPDEST PUSH2 0x106 PUSH1 0x4 DUP1 CALLDATASIZE SUB PUSH1 0x20 DUP2 LT ISZERO PUSH2 0xF0 JUMPI PUSH1 0x0 DUP1 REVERT JUMPDEST DUP2 ADD SWAP1 DUP1 DUP1 CALLDATALOAD SWAP1 PUSH1 0x20 ADD SWAP1 SWAP3 SWAP2 SWAP1 POP POP POP PUSH2 0x29B JUMP JUMPDEST STOP JUMPDEST PUSH2 0x134 PUSH1 0x4 DUP1 CALLDATASIZE SUB PUSH1 0x20 DUP2 LT ISZERO PUSH2 0x11E JUMPI PUSH1 0x0 DUP1 REVERT JUMPDEST DUP2 ADD SWAP1 DUP1 DUP1 CALLDATALOAD SWAP1 PUSH1 0x20 ADD SWAP1 SWAP3 SWAP2 SWAP1 POP POP POP PUSH2 0x2B9 JUMP JUMPDEST PUSH1 0x40 MLOAD DUP1 DUP3 DUP2 MSTORE PUSH1 0x20 ADD SWAP2 POP POP PUSH1 0x40 MLOAD DUP1 SWAP2 SUB SWAP1 RETURN JUMPDEST PUSH2 0x176 PUSH1 0x4 DUP1 CALLDATASIZE SUB PUSH1 0x20 DUP2 LT ISZERO PUSH2 0x160 JUMPI PUSH1 0x0 DUP1 REVERT JUMPDEST DUP2 ADD SWAP1 DUP1 DUP1 CALLDATALOAD SWAP1 PUSH1 0x20 ADD SWAP1 SWAP3 SWAP2 SWAP1 POP POP POP PUSH2 0x2DA JUMP JUMPDEST PUSH1 0x40 MLOAD DUP1 DUP3 DUP2 MSTORE PUSH1 0x20 ADD SWAP2 POP POP PUSH1 0x40 MLOAD DUP1 SWAP2 SUB SWAP1 RETURN JUMPDEST PUSH2 0x1B8 PUSH1 0x4 DUP1 CALLDATASIZE SUB PUSH1 0x20 DUP2 LT ISZERO PUSH2 0x1A2 JUMPI PUSH1 0x0 DUP1 REVERT JUMPDEST DUP2 ADD SWAP1 DUP1 DUP1 CALLDATALOAD SWAP1 PUSH1 0x20 ADD SWAP1 SWAP3 SWAP2 SWAP1 POP POP POP PUSH2 0x2FA JUMP JUMPDEST STOP JUMPDEST PUSH2 0x1C2 PUSH2 0x326 JUMP JUMPDEST STOP JUMPDEST PUSH2 0x1CC PUSH2 0x349 JUMP JUMPDEST PUSH1 0x40 MLOAD DUP1 DUP3 DUP2 MSTORE PUSH1 0x20 ADD SWAP2 POP POP PUSH1 0x40 MLOAD DUP1 SWAP2 SUB SWAP1 RETURN JUMPDEST PUSH2 0x20E PUSH1 0x4 DUP1 CALLDATASIZE SUB PUSH1 0x20 DUP2 LT ISZERO PUSH2 0x1F8 JUMPI PUSH1 0x0 DUP1 REVERT JUMPDEST DUP2 ADD SWAP1 DUP1 DUP1 CALLDATALOAD SWAP1 PUSH1 0x20 ADD SWAP1 SWAP3 SWAP2 SWAP1 POP POP POP PUSH2 0x355 JUMP JUMPDEST PUSH1 0x40 MLOAD DUP1 DUP3 DUP2 MSTORE PUSH1 0x20 ADD SWAP2 POP POP PUSH1 0x40 MLOAD DUP1 SWAP2 SUB SWAP1 RETURN JUMPDEST PUSH2 0x22C PUSH2 0x376 JUMP JUMPDEST PUSH1 0x40 MLOAD DUP1 DUP1 PUSH1 0x20 ADD DUP3 DUP2 SUB DUP3 MSTORE DUP4 DUP2 DUP2 MLOAD DUP2 MSTORE PUSH1 0x20 ADD SWAP2 POP DUP1 MLOAD SWAP1 PUSH1 0x20 ADD SWAP1 PUSH1 0x20 MUL DUP1 DUP4 DUP4 PUSH1 0x0 JUMPDEST DUP4 DUP2 LT ISZERO PUSH2 0x26F JUMPI DUP1 DUP3 ADD MLOAD DUP2 DUP5 ADD MSTORE PUSH1 0x20 DUP2 ADD SWAP1 POP PUSH2 0x254 JUMP JUMPDEST POP POP POP POP SWAP1 POP ADD SWAP3 POP POP POP PUSH1 0x40 MLOAD DUP1 SWAP2 SUB SWAP1 RETURN JUMPDEST PUSH1 0x2 DUP2 PUSH1 0xA DUP2 LT PUSH2 0x290 JUMPI INVALID JUMPDEST ADD PUSH1 0x0 SWAP2 POP SWAP1 POP SLOAD DUP2 JUMP JUMPDEST PUSH1 0x0 DUP2 DUP2 SLOAD DUP2 LT PUSH2 0x2A8 JUMPI INVALID JUMPDEST SWAP1 PUSH1 0x0 MSTORE PUSH1 0x20 PUSH1 0x0 KECCAK256 ADD PUSH1 0x0 SWAP1 SSTORE POP JUMP JUMPDEST PUSH1 0x0 DUP2 DUP2 SLOAD DUP2 LT PUSH2 0x2C6 JUMPI INVALID JUMPDEST SWAP1 PUSH1 0x0 MSTORE PUSH1 0x20 PUSH1 0x0 KECCAK256 ADD PUSH1 0x0 SWAP2 POP SWAP1 POP SLOAD DUP2 JUMP JUMPDEST PUSH1 0x0 DUP1 DUP3 DUP2 SLOAD DUP2 LT PUSH2 0x2E8 JUMPI INVALID JUMPDEST SWAP1 PUSH1 0x0 MSTORE PUSH1 0x20 PUSH1 0x0 KECCAK256 ADD SLOAD SWAP1 POP SWAP2 SWAP1 POP JUMP JUMPDEST PUSH1 0x0 DUP2 SWAP1 DUP1 PUSH1 0x1 DUP2 SLOAD ADD DUP1 DUP3 SSTORE DUP1 SWAP2 POP POP PUSH1 0x1 SWAP1 SUB SWAP1 PUSH1 0x0 MSTORE PUSH1 0x20 PUSH1 0x0 KECCAK256 ADD PUSH1 0x0 SWAP1 SWAP2 SWAP1 SWAP2 SWAP1 SWAP2 POP SSTORE POP JUMP JUMPDEST PUSH1 0x0 DUP1 SLOAD DUP1 PUSH2 0x331 JUMPI INVALID JUMPDEST PUSH1 0x1 SWAP1 SUB DUP2 DUP2 SWAP1 PUSH1 0x0 MSTORE PUSH1 0x20 PUSH1 0x0 KECCAK256 ADD PUSH1 0x0 SWAP1 SSTORE SWAP1 SSTORE JUMP JUMPDEST PUSH1 0x0 DUP1 DUP1 SLOAD SWAP1 POP SWAP1 POP SWAP1 JUMP JUMPDEST PUSH1 0x1 DUP2 DUP2 SLOAD DUP2 LT PUSH2 0x362 JUMPI INVALID JUMPDEST SWAP1 PUSH1 0x0 MSTORE PUSH1 0x20 PUSH1 0x0 KECCAK256 ADD PUSH1 0x0 SWAP2 POP SWAP1 POP SLOAD DUP2 JUMP JUMPDEST PUSH1 0x60 PUSH1 0x0 DUP1 SLOAD DUP1 PUSH1 0x20 MUL PUSH1 0x20 ADD PUSH1 0x40 MLOAD SWAP1 DUP2 ADD PUSH1 0x40 MSTORE DUP1 SWAP3 SWAP2 SWAP1 DUP2 DUP2 MSTORE PUSH1 0x20 ADD DUP3 DUP1 SLOAD DUP1 ISZERO PUSH2 0x3C4 JUMPI PUSH1 0x20 MUL DUP3 ADD SWAP2 SWAP1 PUSH1 0x0 MSTORE PUSH1 0x20 PUSH1 0x0 KECCAK256 SWAP1 JUMPDEST DUP2 SLOAD DUP2 MSTORE PUSH1 0x20 ADD SWAP1 PUSH1 0x1 ADD SWAP1 DUP1 DUP4 GT PUSH2 0x3B0 JUMPI JUMPDEST POP POP POP POP POP SWAP1 POP SWAP1 JUMP INVALID LOG2 PUSH5 0x6970667358 0x22 SLT KECCAK256 SUB 0xF8 0x4C SWAP3 0xAE 0xB2 SELFDESTRUCT GASPRICE ISZERO 0xDF CALLER 0xCE SUB 0x22 0xCD CALLDATALOAD 0xC4 DUP5 SWAP8 SHL 0x48 0xDA 0xEF 0xF9 0xC6 PUSH28 0x31BC061F09A964736F6C634300060C00330000000000000000000000 "
				},
				"gasEstimates": {
					"creation": {
						"codeDepositCost": "205600",
						"executionCost": "infinite",
						"totalCost": "infinite"
					},
					"external": {
						"arr(uint256)": "2025",
						"arr2(uint256)": "2046",
						"get(uint256)": "2047",
						"getArr()": "infinite",
						"getLength()": "1065",
						"myFixedSizeArr(uint256)": "1130",
						"pop()": "26067",
						"push(uint256)": "41151",
						"remove(uint256)": "6140"
					}
				},
				"methodIdentifiers": {
					"arr(uint256)": "71e5ee5f",
					"arr2(uint256)": "edf0099b",
					"get(uint256)": "9507d39a",
					"getArr()": "fb8cbced",
					"getLength()": "be1c766b",
					"myFixedSizeArr(uint256)": "38a067ce",
					"pop()": "a4ece52c",
					"push(uint256)": "959ac484",
					"remove(uint256)": "4cc82215"
				}
			},
			"storageLayout": {
				"storage": [
					{
						"astId": 4,
						"contract": "Lab5/array.sol:Array",
						"label": "arr",
						"offset": 0,
						"slot": "0",
						"type": "t_array(t_uint256)dyn_storage"
					},
					{
						"astId": 11,
						"contract": "Lab5/array.sol:Array",
						"label": "arr2",
						"offset": 0,
						"slot": "1",
						"type": "t_array(t_uint256)dyn_storage"
					},
					{
						"astId": 15,
						"contract": "Lab5/array.sol:Array",
						"label": "myFixedSizeArr",
						"offset": 0,
						"slot": "2",
						"type": "t_array(t_uint256)10_storage"
					}
				],
				"types": {
					"t_array(t_uint256)10_storage": {
						"base": "t_uint256",
						"encoding": "inplace",
						"label": "uint256[10]",
						"numberOfBytes": "320"
					},
					"t_array(t_uint256)dyn_storage": {
						"base": "t_uint256",
						"encoding": "dynamic_array",
						"label": "uint256[]",
						"numberOfBytes": "32"
					},
					"t_uint256": {
						"encoding": "inplace",
						"label": "uint256",
						"numberOfBytes": "32"
					}
				}
			},
			"userdoc": {
				"kind": "user",
				"methods": {},
				"version": 1
			}
		}
	}
}