{
	"Lab7/myContractModifier1.sol": {
		"MyContractModifier1": {
			"abi": [
				{
					"inputs": [
						{
							"internalType": "string",
							"name": "_fname",
							"type": "string"
						},
						{
							"internalType": "string",
							"name": "_lname",
							"type": "string"
						}
					],
					"name": "addPerson",
					"outputs": [],
					"stateMutability": "nonpayable",
					"type": "function"
				},
				{
					"inputs": [
						{
							"internalType": "uint256",
							"name": "",
							"type": "uint256"
						}
					],
					"name": "people",
					"outputs": [
						{
							"internalType": "uint256",
							"name": "_id",
							"type": "uint256"
						},
						{
							"internalType": "string",
							"name": "_firstname",
							"type": "string"
						},
						{
							"internalType": "string",
							"name": "_lastname",
							"type": "string"
						}
					],
					"stateMutability": "view",
					"type": "function"
				},
				{
					"inputs": [],
					"name": "peopleCount",
					"outputs": [
						{
							"internalType": "uint256",
							"name": "",
							"type": "uint256"
						}
					],
					"stateMutability": "view",
					"type": "function"
				}
			],
			"devdoc": {
				"kind": "dev",
				"methods": {},
				"version": 1
			},
			"evm": {
				"assembly": "    /* \"Lab7/myContractModifier1.sol\":57:522  contract MyContractModifier1 {... */\n  mstore(0x40, 0x80)\n    /* \"Lab7/myContractModifier1.sol\":121:122  0 */\n  0x00\n    /* \"Lab7/myContractModifier1.sol\":92:122  uint256 public peopleCount = 0 */\n  dup1\n  sstore\n    /* \"Lab7/myContractModifier1.sol\":57:522  contract MyContractModifier1 {... */\n  callvalue\n  dup1\n  iszero\n  tag_1\n  jumpi\n  0x00\n  dup1\n  revert\ntag_1:\n  pop\n  dataSize(sub_0)\n  dup1\n  dataOffset(sub_0)\n  0x00\n  codecopy\n  0x00\n  return\nstop\n\nsub_0: assembly {\n        /* \"Lab7/myContractModifier1.sol\":57:522  contract MyContractModifier1 {... */\n      mstore(0x40, 0x80)\n      callvalue\n      dup1\n      iszero\n      tag_1\n      jumpi\n      0x00\n      dup1\n      revert\n    tag_1:\n      pop\n      jumpi(tag_2, lt(calldatasize, 0x04))\n      shr(0xe0, calldataload(0x00))\n      dup1\n      0x22f5b58d\n      eq\n      tag_3\n      jumpi\n      dup1\n      0x267c68e0\n      eq\n      tag_4\n      jumpi\n      dup1\n      0x9e7a13ad\n      eq\n      tag_5\n      jumpi\n    tag_2:\n      0x00\n      dup1\n      revert\n        /* \"Lab7/myContractModifier1.sol\":276:446  function addPerson(string memory _fname, string memory _lname) public {... */\n    tag_3:\n      tag_6\n      0x04\n      dup1\n      calldatasize\n      sub\n      dup2\n      add\n      swap1\n      tag_7\n      swap2\n      swap1\n      tag_8\n      jump\t// in\n    tag_7:\n      tag_9\n      jump\t// in\n    tag_6:\n      stop\n        /* \"Lab7/myContractModifier1.sol\":92:122  uint256 public peopleCount = 0 */\n    tag_4:\n      tag_10\n      tag_11\n      jump\t// in\n    tag_10:\n      mload(0x40)\n      tag_12\n      swap2\n      swap1\n      tag_13\n      jump\t// in\n    tag_12:\n      mload(0x40)\n      dup1\n      swap2\n      sub\n      swap1\n      return\n        /* \"Lab7/myContractModifier1.sol\":128:168  mapping(uint256 => Person) public people */\n    tag_5:\n      tag_14\n      0x04\n      dup1\n      calldatasize\n      sub\n      dup2\n      add\n      swap1\n      tag_15\n      swap2\n      swap1\n      tag_16\n      jump\t// in\n    tag_15:\n      tag_17\n      jump\t// in\n    tag_14:\n      mload(0x40)\n      tag_18\n      swap4\n      swap3\n      swap2\n      swap1\n      tag_19\n      jump\t// in\n    tag_18:\n      mload(0x40)\n      dup1\n      swap2\n      sub\n      swap1\n      return\n        /* \"Lab7/myContractModifier1.sol\":276:446  function addPerson(string memory _fname, string memory _lname) public {... */\n    tag_9:\n        /* \"Lab7/myContractModifier1.sol\":378:413  Person(peopleCount, _fname, _lname) */\n      mload(0x40)\n      dup1\n      0x60\n      add\n      0x40\n      mstore\n      dup1\n        /* \"Lab7/myContractModifier1.sol\":385:396  peopleCount */\n      sload(0x00)\n        /* \"Lab7/myContractModifier1.sol\":378:413  Person(peopleCount, _fname, _lname) */\n      dup2\n      mstore\n      0x20\n      add\n        /* \"Lab7/myContractModifier1.sol\":398:404  _fname */\n      dup4\n        /* \"Lab7/myContractModifier1.sol\":378:413  Person(peopleCount, _fname, _lname) */\n      dup2\n      mstore\n      0x20\n      add\n        /* \"Lab7/myContractModifier1.sol\":406:412  _lname */\n      dup3\n        /* \"Lab7/myContractModifier1.sol\":378:413  Person(peopleCount, _fname, _lname) */\n      dup2\n      mstore\n      pop\n        /* \"Lab7/myContractModifier1.sol\":356:362  people */\n      0x01\n        /* \"Lab7/myContractModifier1.sol\":356:375  people[peopleCount] */\n      0x00\n        /* \"Lab7/myContractModifier1.sol\":363:374  peopleCount */\n      dup1\n      sload\n        /* \"Lab7/myContractModifier1.sol\":356:375  people[peopleCount] */\n      dup2\n      mstore\n      0x20\n      add\n      swap1\n      dup2\n      mstore\n      0x20\n      add\n      0x00\n      keccak256\n        /* \"Lab7/myContractModifier1.sol\":356:413  people[peopleCount] = Person(peopleCount, _fname, _lname) */\n      0x00\n      dup3\n      add\n      mload\n      dup2\n      0x00\n      add\n      sstore\n      0x20\n      dup3\n      add\n      mload\n      dup2\n      0x01\n      add\n      swap1\n      dup1\n      mload\n      swap1\n      0x20\n      add\n      swap1\n      tag_21\n      swap3\n      swap2\n      swap1\n      tag_22\n      jump\t// in\n    tag_21:\n      pop\n      0x40\n      dup3\n      add\n      mload\n      dup2\n      0x02\n      add\n      swap1\n      dup1\n      mload\n      swap1\n      0x20\n      add\n      swap1\n      tag_23\n      swap3\n      swap2\n      swap1\n      tag_22\n      jump\t// in\n    tag_23:\n      pop\n      swap1\n      pop\n      pop\n        /* \"Lab7/myContractModifier1.sol\":423:439  incrementCount() */\n      tag_24\n        /* \"Lab7/myContractModifier1.sol\":423:437  incrementCount */\n      tag_25\n        /* \"Lab7/myContractModifier1.sol\":423:439  incrementCount() */\n      jump\t// in\n    tag_24:\n        /* \"Lab7/myContractModifier1.sol\":276:446  function addPerson(string memory _fname, string memory _lname) public {... */\n      pop\n      pop\n      jump\t// out\n        /* \"Lab7/myContractModifier1.sol\":92:122  uint256 public peopleCount = 0 */\n    tag_11:\n      sload(0x00)\n      dup2\n      jump\t// out\n        /* \"Lab7/myContractModifier1.sol\":128:168  mapping(uint256 => Person) public people */\n    tag_17:\n      mstore(0x20, 0x01)\n      dup1\n      0x00\n      mstore\n      keccak256(0x00, 0x40)\n      0x00\n      swap2\n      pop\n      swap1\n      pop\n      dup1\n      0x00\n      add\n      sload\n      swap1\n      dup1\n      0x01\n      add\n      dup1\n      sload\n      tag_26\n      swap1\n      tag_27\n      jump\t// in\n    tag_26:\n      dup1\n      0x1f\n      add\n      0x20\n      dup1\n      swap2\n      div\n      mul\n      0x20\n      add\n      mload(0x40)\n      swap1\n      dup2\n      add\n      0x40\n      mstore\n      dup1\n      swap3\n      swap2\n      swap1\n      dup2\n      dup2\n      mstore\n      0x20\n      add\n      dup3\n      dup1\n      sload\n      tag_28\n      swap1\n      tag_27\n      jump\t// in\n    tag_28:\n      dup1\n      iszero\n      tag_29\n      jumpi\n      dup1\n      0x1f\n      lt\n      tag_30\n      jumpi\n      0x0100\n      dup1\n      dup4\n      sload\n      div\n      mul\n      dup4\n      mstore\n      swap2\n      0x20\n      add\n      swap2\n      jump(tag_29)\n    tag_30:\n      dup3\n      add\n      swap2\n      swap1\n      0x00\n      mstore\n      keccak256(0x00, 0x20)\n      swap1\n    tag_31:\n      dup2\n      sload\n      dup2\n      mstore\n      swap1\n      0x01\n      add\n      swap1\n      0x20\n      add\n      dup1\n      dup4\n      gt\n      tag_31\n      jumpi\n      dup3\n      swap1\n      sub\n      0x1f\n      and\n      dup3\n      add\n      swap2\n    tag_29:\n      pop\n      pop\n      pop\n      pop\n      pop\n      swap1\n      dup1\n      0x02\n      add\n      dup1\n      sload\n      tag_32\n      swap1\n      tag_27\n      jump\t// in\n    tag_32:\n      dup1\n      0x1f\n      add\n      0x20\n      dup1\n      swap2\n      div\n      mul\n      0x20\n      add\n      mload(0x40)\n      swap1\n      dup2\n      add\n      0x40\n      mstore\n      dup1\n      swap3\n      swap2\n      swap1\n      dup2\n      dup2\n      mstore\n      0x20\n      add\n      dup3\n      dup1\n      sload\n      tag_33\n      swap1\n      tag_27\n      jump\t// in\n    tag_33:\n      dup1\n      iszero\n      tag_34\n      jumpi\n      dup1\n      0x1f\n      lt\n      tag_35\n      jumpi\n      0x0100\n      dup1\n      dup4\n      sload\n      div\n      mul\n      dup4\n      mstore\n      swap2\n      0x20\n      add\n      swap2\n      jump(tag_34)\n    tag_35:\n      dup3\n      add\n      swap2\n      swap1\n      0x00\n      mstore\n      keccak256(0x00, 0x20)\n      swap1\n    tag_36:\n      dup2\n      sload\n      dup2\n      mstore\n      swap1\n      0x01\n      add\n      swap1\n      0x20\n      add\n      dup1\n      dup4\n      gt\n      tag_36\n      jumpi\n      dup3\n      swap1\n      sub\n      0x1f\n      and\n      dup3\n      add\n      swap2\n    tag_34:\n      pop\n      pop\n      pop\n      pop\n      pop\n      swap1\n      pop\n      dup4\n      jump\t// out\n        /* \"Lab7/myContractModifier1.sol\":452:520  function incrementCount() internal {... */\n    tag_25:\n        /* \"Lab7/myContractModifier1.sol\":512:513  1 */\n      0x01\n        /* \"Lab7/myContractModifier1.sol\":497:508  peopleCount */\n      0x00\n      dup1\n        /* \"Lab7/myContractModifier1.sol\":497:513  peopleCount += 1 */\n      dup3\n      dup3\n      sload\n      tag_38\n      swap2\n      swap1\n      tag_39\n      jump\t// in\n    tag_38:\n      swap3\n      pop\n      pop\n      dup2\n      swap1\n      sstore\n      pop\n        /* \"Lab7/myContractModifier1.sol\":452:520  function incrementCount() internal {... */\n      jump\t// out\n    tag_22:\n      dup3\n      dup1\n      sload\n      tag_40\n      swap1\n      tag_27\n      jump\t// in\n    tag_40:\n      swap1\n      0x00\n      mstore\n      keccak256(0x00, 0x20)\n      swap1\n      0x1f\n      add\n      0x20\n      swap1\n      div\n      dup2\n      add\n      swap3\n      dup3\n      tag_42\n      jumpi\n      0x00\n      dup6\n      sstore\n      jump(tag_41)\n    tag_42:\n      dup3\n      0x1f\n      lt\n      tag_43\n      jumpi\n      dup1\n      mload\n      not(0xff)\n      and\n      dup4\n      dup1\n      add\n      or\n      dup6\n      sstore\n      jump(tag_41)\n    tag_43:\n      dup3\n      dup1\n      add\n      0x01\n      add\n      dup6\n      sstore\n      dup3\n      iszero\n      tag_41\n      jumpi\n      swap2\n      dup3\n      add\n    tag_44:\n      dup3\n      dup2\n      gt\n      iszero\n      tag_45\n      jumpi\n      dup3\n      mload\n      dup3\n      sstore\n      swap2\n      0x20\n      add\n      swap2\n      swap1\n      0x01\n      add\n      swap1\n      jump(tag_44)\n    tag_45:\n    tag_41:\n      pop\n      swap1\n      pop\n      tag_46\n      swap2\n      swap1\n      tag_47\n      jump\t// in\n    tag_46:\n      pop\n      swap1\n      jump\t// out\n    tag_47:\n    tag_48:\n      dup1\n      dup3\n      gt\n      iszero\n      tag_49\n      jumpi\n      0x00\n      dup2\n      0x00\n      swap1\n      sstore\n      pop\n      0x01\n      add\n      jump(tag_48)\n    tag_49:\n      pop\n      swap1\n      jump\t// out\n        /* \"#utility.yul\":7:351   */\n    tag_51:\n      0x00\n        /* \"#utility.yul\":110:175   */\n      tag_53\n        /* \"#utility.yul\":125:174   */\n      tag_54\n        /* \"#utility.yul\":167:173   */\n      dup5\n        /* \"#utility.yul\":125:174   */\n      tag_55\n      jump\t// in\n    tag_54:\n        /* \"#utility.yul\":110:175   */\n      tag_56\n      jump\t// in\n    tag_53:\n        /* \"#utility.yul\":101:175   */\n      swap1\n      pop\n        /* \"#utility.yul\":198:204   */\n      dup3\n        /* \"#utility.yul\":191:196   */\n      dup2\n        /* \"#utility.yul\":184:205   */\n      mstore\n        /* \"#utility.yul\":236:240   */\n      0x20\n        /* \"#utility.yul\":229:234   */\n      dup2\n        /* \"#utility.yul\":225:241   */\n      add\n        /* \"#utility.yul\":274:277   */\n      dup5\n        /* \"#utility.yul\":265:271   */\n      dup5\n        /* \"#utility.yul\":260:263   */\n      dup5\n        /* \"#utility.yul\":256:272   */\n      add\n        /* \"#utility.yul\":253:278   */\n      gt\n        /* \"#utility.yul\":250:252   */\n      iszero\n      tag_57\n      jumpi\n        /* \"#utility.yul\":291:292   */\n      0x00\n        /* \"#utility.yul\":288:289   */\n      dup1\n        /* \"#utility.yul\":281:293   */\n      revert\n        /* \"#utility.yul\":250:252   */\n    tag_57:\n        /* \"#utility.yul\":304:345   */\n      tag_58\n        /* \"#utility.yul\":338:344   */\n      dup5\n        /* \"#utility.yul\":333:336   */\n      dup3\n        /* \"#utility.yul\":328:331   */\n      dup6\n        /* \"#utility.yul\":304:345   */\n      tag_59\n      jump\t// in\n    tag_58:\n        /* \"#utility.yul\":91:351   */\n      pop\n      swap4\n      swap3\n      pop\n      pop\n      pop\n      jump\t// out\n        /* \"#utility.yul\":371:644   */\n    tag_60:\n      0x00\n        /* \"#utility.yul\":476:479   */\n      dup3\n        /* \"#utility.yul\":469:473   */\n      0x1f\n        /* \"#utility.yul\":461:467   */\n      dup4\n        /* \"#utility.yul\":457:474   */\n      add\n        /* \"#utility.yul\":453:480   */\n      slt\n        /* \"#utility.yul\":443:445   */\n      tag_62\n      jumpi\n        /* \"#utility.yul\":494:495   */\n      0x00\n        /* \"#utility.yul\":491:492   */\n      dup1\n        /* \"#utility.yul\":484:496   */\n      revert\n        /* \"#utility.yul\":443:445   */\n    tag_62:\n        /* \"#utility.yul\":534:540   */\n      dup2\n        /* \"#utility.yul\":521:541   */\n      calldataload\n        /* \"#utility.yul\":559:638   */\n      tag_63\n        /* \"#utility.yul\":634:637   */\n      dup5\n        /* \"#utility.yul\":626:632   */\n      dup3\n        /* \"#utility.yul\":619:623   */\n      0x20\n        /* \"#utility.yul\":611:617   */\n      dup7\n        /* \"#utility.yul\":607:624   */\n      add\n        /* \"#utility.yul\":559:638   */\n      tag_51\n      jump\t// in\n    tag_63:\n        /* \"#utility.yul\":550:638   */\n      swap2\n      pop\n        /* \"#utility.yul\":433:644   */\n      pop\n      swap3\n      swap2\n      pop\n      pop\n      jump\t// out\n        /* \"#utility.yul\":650:789   */\n    tag_64:\n      0x00\n        /* \"#utility.yul\":734:740   */\n      dup2\n        /* \"#utility.yul\":721:741   */\n      calldataload\n        /* \"#utility.yul\":712:741   */\n      swap1\n      pop\n        /* \"#utility.yul\":750:783   */\n      tag_66\n        /* \"#utility.yul\":777:782   */\n      dup2\n        /* \"#utility.yul\":750:783   */\n      tag_67\n      jump\t// in\n    tag_66:\n        /* \"#utility.yul\":702:789   */\n      swap3\n      swap2\n      pop\n      pop\n      jump\t// out\n        /* \"#utility.yul\":795:1428   */\n    tag_8:\n      0x00\n      dup1\n        /* \"#utility.yul\":940:942   */\n      0x40\n        /* \"#utility.yul\":928:937   */\n      dup4\n        /* \"#utility.yul\":919:926   */\n      dup6\n        /* \"#utility.yul\":915:938   */\n      sub\n        /* \"#utility.yul\":911:943   */\n      slt\n        /* \"#utility.yul\":908:910   */\n      iszero\n      tag_69\n      jumpi\n        /* \"#utility.yul\":956:957   */\n      0x00\n        /* \"#utility.yul\":953:954   */\n      dup1\n        /* \"#utility.yul\":946:958   */\n      revert\n        /* \"#utility.yul\":908:910   */\n    tag_69:\n        /* \"#utility.yul\":1027:1028   */\n      0x00\n        /* \"#utility.yul\":1016:1025   */\n      dup4\n        /* \"#utility.yul\":1012:1029   */\n      add\n        /* \"#utility.yul\":999:1030   */\n      calldataload\n        /* \"#utility.yul\":1057:1075   */\n      0xffffffffffffffff\n        /* \"#utility.yul\":1049:1055   */\n      dup2\n        /* \"#utility.yul\":1046:1076   */\n      gt\n        /* \"#utility.yul\":1043:1045   */\n      iszero\n      tag_70\n      jumpi\n        /* \"#utility.yul\":1089:1090   */\n      0x00\n        /* \"#utility.yul\":1086:1087   */\n      dup1\n        /* \"#utility.yul\":1079:1091   */\n      revert\n        /* \"#utility.yul\":1043:1045   */\n    tag_70:\n        /* \"#utility.yul\":1117:1180   */\n      tag_71\n        /* \"#utility.yul\":1172:1179   */\n      dup6\n        /* \"#utility.yul\":1163:1169   */\n      dup3\n        /* \"#utility.yul\":1152:1161   */\n      dup7\n        /* \"#utility.yul\":1148:1170   */\n      add\n        /* \"#utility.yul\":1117:1180   */\n      tag_60\n      jump\t// in\n    tag_71:\n        /* \"#utility.yul\":1107:1180   */\n      swap3\n      pop\n        /* \"#utility.yul\":970:1190   */\n      pop\n        /* \"#utility.yul\":1257:1259   */\n      0x20\n        /* \"#utility.yul\":1246:1255   */\n      dup4\n        /* \"#utility.yul\":1242:1260   */\n      add\n        /* \"#utility.yul\":1229:1261   */\n      calldataload\n        /* \"#utility.yul\":1288:1306   */\n      0xffffffffffffffff\n        /* \"#utility.yul\":1280:1286   */\n      dup2\n        /* \"#utility.yul\":1277:1307   */\n      gt\n        /* \"#utility.yul\":1274:1276   */\n      iszero\n      tag_72\n      jumpi\n        /* \"#utility.yul\":1320:1321   */\n      0x00\n        /* \"#utility.yul\":1317:1318   */\n      dup1\n        /* \"#utility.yul\":1310:1322   */\n      revert\n        /* \"#utility.yul\":1274:1276   */\n    tag_72:\n        /* \"#utility.yul\":1348:1411   */\n      tag_73\n        /* \"#utility.yul\":1403:1410   */\n      dup6\n        /* \"#utility.yul\":1394:1400   */\n      dup3\n        /* \"#utility.yul\":1383:1392   */\n      dup7\n        /* \"#utility.yul\":1379:1401   */\n      add\n        /* \"#utility.yul\":1348:1411   */\n      tag_60\n      jump\t// in\n    tag_73:\n        /* \"#utility.yul\":1338:1411   */\n      swap2\n      pop\n        /* \"#utility.yul\":1200:1421   */\n      pop\n        /* \"#utility.yul\":898:1428   */\n      swap3\n      pop\n      swap3\n      swap1\n      pop\n      jump\t// out\n        /* \"#utility.yul\":1434:1696   */\n    tag_16:\n      0x00\n        /* \"#utility.yul\":1542:1544   */\n      0x20\n        /* \"#utility.yul\":1530:1539   */\n      dup3\n        /* \"#utility.yul\":1521:1528   */\n      dup5\n        /* \"#utility.yul\":1517:1540   */\n      sub\n        /* \"#utility.yul\":1513:1545   */\n      slt\n        /* \"#utility.yul\":1510:1512   */\n      iszero\n      tag_75\n      jumpi\n        /* \"#utility.yul\":1558:1559   */\n      0x00\n        /* \"#utility.yul\":1555:1556   */\n      dup1\n        /* \"#utility.yul\":1548:1560   */\n      revert\n        /* \"#utility.yul\":1510:1512   */\n    tag_75:\n        /* \"#utility.yul\":1601:1602   */\n      0x00\n        /* \"#utility.yul\":1626:1679   */\n      tag_76\n        /* \"#utility.yul\":1671:1678   */\n      dup5\n        /* \"#utility.yul\":1662:1668   */\n      dup3\n        /* \"#utility.yul\":1651:1660   */\n      dup6\n        /* \"#utility.yul\":1647:1669   */\n      add\n        /* \"#utility.yul\":1626:1679   */\n      tag_64\n      jump\t// in\n    tag_76:\n        /* \"#utility.yul\":1616:1679   */\n      swap2\n      pop\n        /* \"#utility.yul\":1572:1689   */\n      pop\n        /* \"#utility.yul\":1500:1696   */\n      swap3\n      swap2\n      pop\n      pop\n      jump\t// out\n        /* \"#utility.yul\":1702:2066   */\n    tag_77:\n      0x00\n        /* \"#utility.yul\":1818:1857   */\n      tag_79\n        /* \"#utility.yul\":1851:1856   */\n      dup3\n        /* \"#utility.yul\":1818:1857   */\n      tag_80\n      jump\t// in\n    tag_79:\n        /* \"#utility.yul\":1873:1944   */\n      tag_81\n        /* \"#utility.yul\":1937:1943   */\n      dup2\n        /* \"#utility.yul\":1932:1935   */\n      dup6\n        /* \"#utility.yul\":1873:1944   */\n      tag_82\n      jump\t// in\n    tag_81:\n        /* \"#utility.yul\":1866:1944   */\n      swap4\n      pop\n        /* \"#utility.yul\":1953:2005   */\n      tag_83\n        /* \"#utility.yul\":1998:2004   */\n      dup2\n        /* \"#utility.yul\":1993:1996   */\n      dup6\n        /* \"#utility.yul\":1986:1990   */\n      0x20\n        /* \"#utility.yul\":1979:1984   */\n      dup7\n        /* \"#utility.yul\":1975:1991   */\n      add\n        /* \"#utility.yul\":1953:2005   */\n      tag_84\n      jump\t// in\n    tag_83:\n        /* \"#utility.yul\":2030:2059   */\n      tag_85\n        /* \"#utility.yul\":2052:2058   */\n      dup2\n        /* \"#utility.yul\":2030:2059   */\n      tag_86\n      jump\t// in\n    tag_85:\n        /* \"#utility.yul\":2025:2028   */\n      dup5\n        /* \"#utility.yul\":2021:2060   */\n      add\n        /* \"#utility.yul\":2014:2060   */\n      swap2\n      pop\n        /* \"#utility.yul\":1794:2066   */\n      pop\n      swap3\n      swap2\n      pop\n      pop\n      jump\t// out\n        /* \"#utility.yul\":2072:2190   */\n    tag_87:\n        /* \"#utility.yul\":2159:2183   */\n      tag_89\n        /* \"#utility.yul\":2177:2182   */\n      dup2\n        /* \"#utility.yul\":2159:2183   */\n      tag_90\n      jump\t// in\n    tag_89:\n        /* \"#utility.yul\":2154:2157   */\n      dup3\n        /* \"#utility.yul\":2147:2184   */\n      mstore\n        /* \"#utility.yul\":2137:2190   */\n      pop\n      pop\n      jump\t// out\n        /* \"#utility.yul\":2196:2418   */\n    tag_13:\n      0x00\n        /* \"#utility.yul\":2327:2329   */\n      0x20\n        /* \"#utility.yul\":2316:2325   */\n      dup3\n        /* \"#utility.yul\":2312:2330   */\n      add\n        /* \"#utility.yul\":2304:2330   */\n      swap1\n      pop\n        /* \"#utility.yul\":2340:2411   */\n      tag_92\n        /* \"#utility.yul\":2408:2409   */\n      0x00\n        /* \"#utility.yul\":2397:2406   */\n      dup4\n        /* \"#utility.yul\":2393:2410   */\n      add\n        /* \"#utility.yul\":2384:2390   */\n      dup5\n        /* \"#utility.yul\":2340:2411   */\n      tag_87\n      jump\t// in\n    tag_92:\n        /* \"#utility.yul\":2294:2418   */\n      swap3\n      swap2\n      pop\n      pop\n      jump\t// out\n        /* \"#utility.yul\":2424:3048   */\n    tag_19:\n      0x00\n        /* \"#utility.yul\":2651:2653   */\n      0x60\n        /* \"#utility.yul\":2640:2649   */\n      dup3\n        /* \"#utility.yul\":2636:2654   */\n      add\n        /* \"#utility.yul\":2628:2654   */\n      swap1\n      pop\n        /* \"#utility.yul\":2664:2735   */\n      tag_94\n        /* \"#utility.yul\":2732:2733   */\n      0x00\n        /* \"#utility.yul\":2721:2730   */\n      dup4\n        /* \"#utility.yul\":2717:2734   */\n      add\n        /* \"#utility.yul\":2708:2714   */\n      dup7\n        /* \"#utility.yul\":2664:2735   */\n      tag_87\n      jump\t// in\n    tag_94:\n        /* \"#utility.yul\":2782:2791   */\n      dup2\n        /* \"#utility.yul\":2776:2780   */\n      dup2\n        /* \"#utility.yul\":2772:2792   */\n      sub\n        /* \"#utility.yul\":2767:2769   */\n      0x20\n        /* \"#utility.yul\":2756:2765   */\n      dup4\n        /* \"#utility.yul\":2752:2770   */\n      add\n        /* \"#utility.yul\":2745:2793   */\n      mstore\n        /* \"#utility.yul\":2810:2888   */\n      tag_95\n        /* \"#utility.yul\":2883:2887   */\n      dup2\n        /* \"#utility.yul\":2874:2880   */\n      dup6\n        /* \"#utility.yul\":2810:2888   */\n      tag_77\n      jump\t// in\n    tag_95:\n        /* \"#utility.yul\":2802:2888   */\n      swap1\n      pop\n        /* \"#utility.yul\":2935:2944   */\n      dup2\n        /* \"#utility.yul\":2929:2933   */\n      dup2\n        /* \"#utility.yul\":2925:2945   */\n      sub\n        /* \"#utility.yul\":2920:2922   */\n      0x40\n        /* \"#utility.yul\":2909:2918   */\n      dup4\n        /* \"#utility.yul\":2905:2923   */\n      add\n        /* \"#utility.yul\":2898:2946   */\n      mstore\n        /* \"#utility.yul\":2963:3041   */\n      tag_96\n        /* \"#utility.yul\":3036:3040   */\n      dup2\n        /* \"#utility.yul\":3027:3033   */\n      dup5\n        /* \"#utility.yul\":2963:3041   */\n      tag_77\n      jump\t// in\n    tag_96:\n        /* \"#utility.yul\":2955:3041   */\n      swap1\n      pop\n        /* \"#utility.yul\":2618:3048   */\n      swap5\n      swap4\n      pop\n      pop\n      pop\n      pop\n      jump\t// out\n        /* \"#utility.yul\":3054:3337   */\n    tag_56:\n      0x00\n        /* \"#utility.yul\":3120:3122   */\n      0x40\n        /* \"#utility.yul\":3114:3123   */\n      mload\n        /* \"#utility.yul\":3104:3123   */\n      swap1\n      pop\n        /* \"#utility.yul\":3162:3166   */\n      dup2\n        /* \"#utility.yul\":3154:3160   */\n      dup2\n        /* \"#utility.yul\":3150:3167   */\n      add\n        /* \"#utility.yul\":3269:3275   */\n      dup2\n        /* \"#utility.yul\":3257:3267   */\n      dup2\n        /* \"#utility.yul\":3254:3276   */\n      lt\n        /* \"#utility.yul\":3233:3251   */\n      0xffffffffffffffff\n        /* \"#utility.yul\":3221:3231   */\n      dup3\n        /* \"#utility.yul\":3218:3252   */\n      gt\n        /* \"#utility.yul\":3215:3277   */\n      or\n        /* \"#utility.yul\":3212:3214   */\n      iszero\n      tag_98\n      jumpi\n        /* \"#utility.yul\":3280:3298   */\n      tag_99\n      tag_100\n      jump\t// in\n    tag_99:\n        /* \"#utility.yul\":3212:3214   */\n    tag_98:\n        /* \"#utility.yul\":3320:3330   */\n      dup1\n        /* \"#utility.yul\":3316:3318   */\n      0x40\n        /* \"#utility.yul\":3309:3331   */\n      mstore\n        /* \"#utility.yul\":3094:3337   */\n      pop\n      swap2\n      swap1\n      pop\n      jump\t// out\n        /* \"#utility.yul\":3343:3675   */\n    tag_55:\n      0x00\n        /* \"#utility.yul\":3495:3513   */\n      0xffffffffffffffff\n        /* \"#utility.yul\":3487:3493   */\n      dup3\n        /* \"#utility.yul\":3484:3514   */\n      gt\n        /* \"#utility.yul\":3481:3483   */\n      iszero\n      tag_102\n      jumpi\n        /* \"#utility.yul\":3517:3535   */\n      tag_103\n      tag_100\n      jump\t// in\n    tag_103:\n        /* \"#utility.yul\":3481:3483   */\n    tag_102:\n        /* \"#utility.yul\":3602:3606   */\n      0x1f\n        /* \"#utility.yul\":3598:3607   */\n      not\n        /* \"#utility.yul\":3591:3595   */\n      0x1f\n        /* \"#utility.yul\":3583:3589   */\n      dup4\n        /* \"#utility.yul\":3579:3596   */\n      add\n        /* \"#utility.yul\":3575:3608   */\n      and\n        /* \"#utility.yul\":3567:3608   */\n      swap1\n      pop\n        /* \"#utility.yul\":3663:3667   */\n      0x20\n        /* \"#utility.yul\":3657:3661   */\n      dup2\n        /* \"#utility.yul\":3653:3668   */\n      add\n        /* \"#utility.yul\":3645:3668   */\n      swap1\n      pop\n        /* \"#utility.yul\":3410:3675   */\n      swap2\n      swap1\n      pop\n      jump\t// out\n        /* \"#utility.yul\":3681:3780   */\n    tag_80:\n      0x00\n        /* \"#utility.yul\":3767:3772   */\n      dup2\n        /* \"#utility.yul\":3761:3773   */\n      mload\n        /* \"#utility.yul\":3751:3773   */\n      swap1\n      pop\n        /* \"#utility.yul\":3740:3780   */\n      swap2\n      swap1\n      pop\n      jump\t// out\n        /* \"#utility.yul\":3786:3955   */\n    tag_82:\n      0x00\n        /* \"#utility.yul\":3904:3910   */\n      dup3\n        /* \"#utility.yul\":3899:3902   */\n      dup3\n        /* \"#utility.yul\":3892:3911   */\n      mstore\n        /* \"#utility.yul\":3944:3948   */\n      0x20\n        /* \"#utility.yul\":3939:3942   */\n      dup3\n        /* \"#utility.yul\":3935:3949   */\n      add\n        /* \"#utility.yul\":3920:3949   */\n      swap1\n      pop\n        /* \"#utility.yul\":3882:3955   */\n      swap3\n      swap2\n      pop\n      pop\n      jump\t// out\n        /* \"#utility.yul\":3961:4266   */\n    tag_39:\n      0x00\n        /* \"#utility.yul\":4020:4040   */\n      tag_107\n        /* \"#utility.yul\":4038:4039   */\n      dup3\n        /* \"#utility.yul\":4020:4040   */\n      tag_90\n      jump\t// in\n    tag_107:\n        /* \"#utility.yul\":4015:4040   */\n      swap2\n      pop\n        /* \"#utility.yul\":4054:4074   */\n      tag_108\n        /* \"#utility.yul\":4072:4073   */\n      dup4\n        /* \"#utility.yul\":4054:4074   */\n      tag_90\n      jump\t// in\n    tag_108:\n        /* \"#utility.yul\":4049:4074   */\n      swap3\n      pop\n        /* \"#utility.yul\":4208:4209   */\n      dup3\n        /* \"#utility.yul\":4140:4206   */\n      0xffffffffffffffffffffffffffffffffffffffffffffffffffffffffffffffff\n        /* \"#utility.yul\":4136:4210   */\n      sub\n        /* \"#utility.yul\":4133:4134   */\n      dup3\n        /* \"#utility.yul\":4130:4211   */\n      gt\n        /* \"#utility.yul\":4127:4129   */\n      iszero\n      tag_109\n      jumpi\n        /* \"#utility.yul\":4214:4232   */\n      tag_110\n      tag_111\n      jump\t// in\n    tag_110:\n        /* \"#utility.yul\":4127:4129   */\n    tag_109:\n        /* \"#utility.yul\":4258:4259   */\n      dup3\n        /* \"#utility.yul\":4255:4256   */\n      dup3\n        /* \"#utility.yul\":4251:4260   */\n      add\n        /* \"#utility.yul\":4244:4260   */\n      swap1\n      pop\n        /* \"#utility.yul\":4005:4266   */\n      swap3\n      swap2\n      pop\n      pop\n      jump\t// out\n        /* \"#utility.yul\":4272:4349   */\n    tag_90:\n      0x00\n        /* \"#utility.yul\":4338:4343   */\n      dup2\n        /* \"#utility.yul\":4327:4343   */\n      swap1\n      pop\n        /* \"#utility.yul\":4317:4349   */\n      swap2\n      swap1\n      pop\n      jump\t// out\n        /* \"#utility.yul\":4355:4509   */\n    tag_59:\n        /* \"#utility.yul\":4439:4445   */\n      dup3\n        /* \"#utility.yul\":4434:4437   */\n      dup2\n        /* \"#utility.yul\":4429:4432   */\n      dup4\n        /* \"#utility.yul\":4416:4446   */\n      calldatacopy\n        /* \"#utility.yul\":4501:4502   */\n      0x00\n        /* \"#utility.yul\":4492:4498   */\n      dup4\n        /* \"#utility.yul\":4487:4490   */\n      dup4\n        /* \"#utility.yul\":4483:4499   */\n      add\n        /* \"#utility.yul\":4476:4503   */\n      mstore\n        /* \"#utility.yul\":4406:4509   */\n      pop\n      pop\n      pop\n      jump\t// out\n        /* \"#utility.yul\":4515:4822   */\n    tag_84:\n        /* \"#utility.yul\":4583:4584   */\n      0x00\n        /* \"#utility.yul\":4593:4706   */\n    tag_115:\n        /* \"#utility.yul\":4607:4613   */\n      dup4\n        /* \"#utility.yul\":4604:4605   */\n      dup2\n        /* \"#utility.yul\":4601:4614   */\n      lt\n        /* \"#utility.yul\":4593:4706   */\n      iszero\n      tag_117\n      jumpi\n        /* \"#utility.yul\":4692:4693   */\n      dup1\n        /* \"#utility.yul\":4687:4690   */\n      dup3\n        /* \"#utility.yul\":4683:4694   */\n      add\n        /* \"#utility.yul\":4677:4695   */\n      mload\n        /* \"#utility.yul\":4673:4674   */\n      dup2\n        /* \"#utility.yul\":4668:4671   */\n      dup5\n        /* \"#utility.yul\":4664:4675   */\n      add\n        /* \"#utility.yul\":4657:4696   */\n      mstore\n        /* \"#utility.yul\":4629:4631   */\n      0x20\n        /* \"#utility.yul\":4626:4627   */\n      dup2\n        /* \"#utility.yul\":4622:4632   */\n      add\n        /* \"#utility.yul\":4617:4632   */\n      swap1\n      pop\n        /* \"#utility.yul\":4593:4706   */\n      jump(tag_115)\n    tag_117:\n        /* \"#utility.yul\":4724:4730   */\n      dup4\n        /* \"#utility.yul\":4721:4722   */\n      dup2\n        /* \"#utility.yul\":4718:4731   */\n      gt\n        /* \"#utility.yul\":4715:4717   */\n      iszero\n      tag_118\n      jumpi\n        /* \"#utility.yul\":4804:4805   */\n      0x00\n        /* \"#utility.yul\":4795:4801   */\n      dup5\n        /* \"#utility.yul\":4790:4793   */\n      dup5\n        /* \"#utility.yul\":4786:4802   */\n      add\n        /* \"#utility.yul\":4779:4806   */\n      mstore\n        /* \"#utility.yul\":4715:4717   */\n    tag_118:\n        /* \"#utility.yul\":4564:4822   */\n      pop\n      pop\n      pop\n      pop\n      jump\t// out\n        /* \"#utility.yul\":4828:5148   */\n    tag_27:\n      0x00\n        /* \"#utility.yul\":4909:4910   */\n      0x02\n        /* \"#utility.yul\":4903:4907   */\n      dup3\n        /* \"#utility.yul\":4899:4911   */\n      div\n        /* \"#utility.yul\":4889:4911   */\n      swap1\n      pop\n        /* \"#utility.yul\":4956:4957   */\n      0x01\n        /* \"#utility.yul\":4950:4954   */\n      dup3\n        /* \"#utility.yul\":4946:4958   */\n      and\n        /* \"#utility.yul\":4977:4995   */\n      dup1\n        /* \"#utility.yul\":4967:4969   */\n      tag_120\n      jumpi\n        /* \"#utility.yul\":5033:5037   */\n      0x7f\n        /* \"#utility.yul\":5025:5031   */\n      dup3\n        /* \"#utility.yul\":5021:5038   */\n      and\n        /* \"#utility.yul\":5011:5038   */\n      swap2\n      pop\n        /* \"#utility.yul\":4967:4969   */\n    tag_120:\n        /* \"#utility.yul\":5095:5097   */\n      0x20\n        /* \"#utility.yul\":5087:5093   */\n      dup3\n        /* \"#utility.yul\":5084:5098   */\n      lt\n        /* \"#utility.yul\":5064:5082   */\n      dup2\n        /* \"#utility.yul\":5061:5099   */\n      eq\n        /* \"#utility.yul\":5058:5060   */\n      iszero\n      tag_121\n      jumpi\n        /* \"#utility.yul\":5114:5132   */\n      tag_122\n      tag_123\n      jump\t// in\n    tag_122:\n        /* \"#utility.yul\":5058:5060   */\n    tag_121:\n        /* \"#utility.yul\":4879:5148   */\n      pop\n      swap2\n      swap1\n      pop\n      jump\t// out\n        /* \"#utility.yul\":5154:5334   */\n    tag_111:\n        /* \"#utility.yul\":5202:5279   */\n      0x4e487b7100000000000000000000000000000000000000000000000000000000\n        /* \"#utility.yul\":5199:5200   */\n      0x00\n        /* \"#utility.yul\":5192:5280   */\n      mstore\n        /* \"#utility.yul\":5299:5303   */\n      0x11\n        /* \"#utility.yul\":5296:5297   */\n      0x04\n        /* \"#utility.yul\":5289:5304   */\n      mstore\n        /* \"#utility.yul\":5323:5327   */\n      0x24\n        /* \"#utility.yul\":5320:5321   */\n      0x00\n        /* \"#utility.yul\":5313:5328   */\n      revert\n        /* \"#utility.yul\":5340:5520   */\n    tag_123:\n        /* \"#utility.yul\":5388:5465   */\n      0x4e487b7100000000000000000000000000000000000000000000000000000000\n        /* \"#utility.yul\":5385:5386   */\n      0x00\n        /* \"#utility.yul\":5378:5466   */\n      mstore\n        /* \"#utility.yul\":5485:5489   */\n      0x22\n        /* \"#utility.yul\":5482:5483   */\n      0x04\n        /* \"#utility.yul\":5475:5490   */\n      mstore\n        /* \"#utility.yul\":5509:5513   */\n      0x24\n        /* \"#utility.yul\":5506:5507   */\n      0x00\n        /* \"#utility.yul\":5499:5514   */\n      revert\n        /* \"#utility.yul\":5526:5706   */\n    tag_100:\n        /* \"#utility.yul\":5574:5651   */\n      0x4e487b7100000000000000000000000000000000000000000000000000000000\n        /* \"#utility.yul\":5571:5572   */\n      0x00\n        /* \"#utility.yul\":5564:5652   */\n      mstore\n        /* \"#utility.yul\":5671:5675   */\n      0x41\n        /* \"#utility.yul\":5668:5669   */\n      0x04\n        /* \"#utility.yul\":5661:5676   */\n      mstore\n        /* \"#utility.yul\":5695:5699   */\n      0x24\n        /* \"#utility.yul\":5692:5693   */\n      0x00\n        /* \"#utility.yul\":5685:5700   */\n      revert\n        /* \"#utility.yul\":5712:5814   */\n    tag_86:\n      0x00\n        /* \"#utility.yul\":5804:5806   */\n      0x1f\n        /* \"#utility.yul\":5800:5807   */\n      not\n        /* \"#utility.yul\":5795:5797   */\n      0x1f\n        /* \"#utility.yul\":5788:5793   */\n      dup4\n        /* \"#utility.yul\":5784:5798   */\n      add\n        /* \"#utility.yul\":5780:5808   */\n      and\n        /* \"#utility.yul\":5770:5808   */\n      swap1\n      pop\n        /* \"#utility.yul\":5760:5814   */\n      swap2\n      swap1\n      pop\n      jump\t// out\n        /* \"#utility.yul\":5820:5942   */\n    tag_67:\n        /* \"#utility.yul\":5893:5917   */\n      tag_129\n        /* \"#utility.yul\":5911:5916   */\n      dup2\n        /* \"#utility.yul\":5893:5917   */\n      tag_90\n      jump\t// in\n    tag_129:\n        /* \"#utility.yul\":5886:5891   */\n      dup2\n        /* \"#utility.yul\":5883:5918   */\n      eq\n        /* \"#utility.yul\":5873:5875   */\n      tag_130\n      jumpi\n        /* \"#utility.yul\":5932:5933   */\n      0x00\n        /* \"#utility.yul\":5929:5930   */\n      dup1\n        /* \"#utility.yul\":5922:5934   */\n      revert\n        /* \"#utility.yul\":5873:5875   */\n    tag_130:\n        /* \"#utility.yul\":5863:5942   */\n      pop\n      jump\t// out\n\n    auxdata: 0xa26469706673582212204964de7d3f7d73fd3a19db45cd471eba692fef88f014ed9cdff88ce70404880764736f6c63430008000033\n}\n",
				"bytecode": {
					"linkReferences": {},
					"object": "60806040526000805534801561001457600080fd5b5061072a806100246000396000f3fe608060405234801561001057600080fd5b50600436106100415760003560e01c806322f5b58d14610046578063267c68e0146100625780639e7a13ad14610080575b600080fd5b610060600480360381019061005b91906103b1565b6100b2565b005b61006a610136565b604051610077919061048e565b60405180910390f35b61009a6004803603810190610095919061041d565b61013c565b6040516100a9939291906104a9565b60405180910390f35b60405180606001604052806000548152602001838152602001828152506001600080548152602001908152602001600020600082015181600001556020820151816001019080519060200190610109929190610291565b506040820151816002019080519060200190610126929190610291565b50905050610132610276565b5050565b60005481565b60016020528060005260406000206000915090508060000154908060010180546101659061060d565b80601f01602080910402602001604051908101604052809291908181526020018280546101919061060d565b80156101de5780601f106101b3576101008083540402835291602001916101de565b820191906000526020600020905b8154815290600101906020018083116101c157829003601f168201915b5050505050908060020180546101f39061060d565b80601f016020809104026020016040519081016040528092919081815260200182805461021f9061060d565b801561026c5780601f106102415761010080835404028352916020019161026c565b820191906000526020600020905b81548152906001019060200180831161024f57829003601f168201915b5050505050905083565b6001600080828254610288919061056b565b92505081905550565b82805461029d9061060d565b90600052602060002090601f0160209004810192826102bf5760008555610306565b82601f106102d857805160ff1916838001178555610306565b82800160010185558215610306579182015b828111156103055782518255916020019190600101906102ea565b5b5090506103139190610317565b5090565b5b80821115610330576000816000905550600101610318565b5090565b60006103476103428461051f565b6104ee565b90508281526020810184848401111561035f57600080fd5b61036a8482856105cb565b509392505050565b600082601f83011261038357600080fd5b8135610393848260208601610334565b91505092915050565b6000813590506103ab816106dd565b92915050565b600080604083850312156103c457600080fd5b600083013567ffffffffffffffff8111156103de57600080fd5b6103ea85828601610372565b925050602083013567ffffffffffffffff81111561040757600080fd5b61041385828601610372565b9150509250929050565b60006020828403121561042f57600080fd5b600061043d8482850161039c565b91505092915050565b60006104518261054f565b61045b818561055a565b935061046b8185602086016105da565b610474816106cc565b840191505092915050565b610488816105c1565b82525050565b60006020820190506104a3600083018461047f565b92915050565b60006060820190506104be600083018661047f565b81810360208301526104d08185610446565b905081810360408301526104e48184610446565b9050949350505050565b6000604051905081810181811067ffffffffffffffff821117156105155761051461069d565b5b8060405250919050565b600067ffffffffffffffff82111561053a5761053961069d565b5b601f19601f8301169050602081019050919050565b600081519050919050565b600082825260208201905092915050565b6000610576826105c1565b9150610581836105c1565b9250827fffffffffffffffffffffffffffffffffffffffffffffffffffffffffffffffff038211156105b6576105b561063f565b5b828201905092915050565b6000819050919050565b82818337600083830152505050565b60005b838110156105f85780820151818401526020810190506105dd565b83811115610607576000848401525b50505050565b6000600282049050600182168061062557607f821691505b602082108114156106395761063861066e565b5b50919050565b7f4e487b7100000000000000000000000000000000000000000000000000000000600052601160045260246000fd5b7f4e487b7100000000000000000000000000000000000000000000000000000000600052602260045260246000fd5b7f4e487b7100000000000000000000000000000000000000000000000000000000600052604160045260246000fd5b6000601f19601f8301169050919050565b6106e6816105c1565b81146106f157600080fd5b5056fea26469706673582212204964de7d3f7d73fd3a19db45cd471eba692fef88f014ed9cdff88ce70404880764736f6c63430008000033",
					"opcodes": "PUSH1 0x80 PUSH1 0x40 MSTORE PUSH1 0x0 DUP1 SSTORE CALLVALUE DUP1 ISZERO PUSH2 0x14 JUMPI PUSH1 0x0 DUP1 REVERT JUMPDEST POP PUSH2 0x72A DUP1 PUSH2 0x24 PUSH1 0x0 CODECOPY PUSH1 0x0 RETURN INVALID PUSH1 0x80 PUSH1 0x40 MSTORE CALLVALUE DUP1 ISZERO PUSH2 0x10 JUMPI PUSH1 0x0 DUP1 REVERT JUMPDEST POP PUSH1 0x4 CALLDATASIZE LT PUSH2 0x41 JUMPI PUSH1 0x0 CALLDATALOAD PUSH1 0xE0 SHR DUP1 PUSH4 0x22F5B58D EQ PUSH2 0x46 JUMPI DUP1 PUSH4 0x267C68E0 EQ PUSH2 0x62 JUMPI DUP1 PUSH4 0x9E7A13AD EQ PUSH2 0x80 JUMPI JUMPDEST PUSH1 0x0 DUP1 REVERT JUMPDEST PUSH2 0x60 PUSH1 0x4 DUP1 CALLDATASIZE SUB DUP2 ADD SWAP1 PUSH2 0x5B SWAP2 SWAP1 PUSH2 0x3B1 JUMP JUMPDEST PUSH2 0xB2 JUMP JUMPDEST STOP JUMPDEST PUSH2 0x6A PUSH2 0x136 JUMP JUMPDEST PUSH1 0x40 MLOAD PUSH2 0x77 SWAP2 SWAP1 PUSH2 0x48E JUMP JUMPDEST PUSH1 0x40 MLOAD DUP1 SWAP2 SUB SWAP1 RETURN JUMPDEST PUSH2 0x9A PUSH1 0x4 DUP1 CALLDATASIZE SUB DUP2 ADD SWAP1 PUSH2 0x95 SWAP2 SWAP1 PUSH2 0x41D JUMP JUMPDEST PUSH2 0x13C JUMP JUMPDEST PUSH1 0x40 MLOAD PUSH2 0xA9 SWAP4 SWAP3 SWAP2 SWAP1 PUSH2 0x4A9 JUMP JUMPDEST PUSH1 0x40 MLOAD DUP1 SWAP2 SUB SWAP1 RETURN JUMPDEST PUSH1 0x40 MLOAD DUP1 PUSH1 0x60 ADD PUSH1 0x40 MSTORE DUP1 PUSH1 0x0 SLOAD DUP2 MSTORE PUSH1 0x20 ADD DUP4 DUP2 MSTORE PUSH1 0x20 ADD DUP3 DUP2 MSTORE POP PUSH1 0x1 PUSH1 0x0 DUP1 SLOAD DUP2 MSTORE PUSH1 0x20 ADD SWAP1 DUP2 MSTORE PUSH1 0x20 ADD PUSH1 0x0 KECCAK256 PUSH1 0x0 DUP3 ADD MLOAD DUP2 PUSH1 0x0 ADD SSTORE PUSH1 0x20 DUP3 ADD MLOAD DUP2 PUSH1 0x1 ADD SWAP1 DUP1 MLOAD SWAP1 PUSH1 0x20 ADD SWAP1 PUSH2 0x109 SWAP3 SWAP2 SWAP1 PUSH2 0x291 JUMP JUMPDEST POP PUSH1 0x40 DUP3 ADD MLOAD DUP2 PUSH1 0x2 ADD SWAP1 DUP1 MLOAD SWAP1 PUSH1 0x20 ADD SWAP1 PUSH2 0x126 SWAP3 SWAP2 SWAP1 PUSH2 0x291 JUMP JUMPDEST POP SWAP1 POP POP PUSH2 0x132 PUSH2 0x276 JUMP JUMPDEST POP POP JUMP JUMPDEST PUSH1 0x0 SLOAD DUP2 JUMP JUMPDEST PUSH1 0x1 PUSH1 0x20 MSTORE DUP1 PUSH1 0x0 MSTORE PUSH1 0x40 PUSH1 0x0 KECCAK256 PUSH1 0x0 SWAP2 POP SWAP1 POP DUP1 PUSH1 0x0 ADD SLOAD SWAP1 DUP1 PUSH1 0x1 ADD DUP1 SLOAD PUSH2 0x165 SWAP1 PUSH2 0x60D JUMP JUMPDEST DUP1 PUSH1 0x1F ADD PUSH1 0x20 DUP1 SWAP2 DIV MUL PUSH1 0x20 ADD PUSH1 0x40 MLOAD SWAP1 DUP2 ADD PUSH1 0x40 MSTORE DUP1 SWAP3 SWAP2 SWAP1 DUP2 DUP2 MSTORE PUSH1 0x20 ADD DUP3 DUP1 SLOAD PUSH2 0x191 SWAP1 PUSH2 0x60D JUMP JUMPDEST DUP1 ISZERO PUSH2 0x1DE JUMPI DUP1 PUSH1 0x1F LT PUSH2 0x1B3 JUMPI PUSH2 0x100 DUP1 DUP4 SLOAD DIV MUL DUP4 MSTORE SWAP2 PUSH1 0x20 ADD SWAP2 PUSH2 0x1DE JUMP JUMPDEST DUP3 ADD SWAP2 SWAP1 PUSH1 0x0 MSTORE PUSH1 0x20 PUSH1 0x0 KECCAK256 SWAP1 JUMPDEST DUP2 SLOAD DUP2 MSTORE SWAP1 PUSH1 0x1 ADD SWAP1 PUSH1 0x20 ADD DUP1 DUP4 GT PUSH2 0x1C1 JUMPI DUP3 SWAP1 SUB PUSH1 0x1F AND DUP3 ADD SWAP2 JUMPDEST POP POP POP POP POP SWAP1 DUP1 PUSH1 0x2 ADD DUP1 SLOAD PUSH2 0x1F3 SWAP1 PUSH2 0x60D JUMP JUMPDEST DUP1 PUSH1 0x1F ADD PUSH1 0x20 DUP1 SWAP2 DIV MUL PUSH1 0x20 ADD PUSH1 0x40 MLOAD SWAP1 DUP2 ADD PUSH1 0x40 MSTORE DUP1 SWAP3 SWAP2 SWAP1 DUP2 DUP2 MSTORE PUSH1 0x20 ADD DUP3 DUP1 SLOAD PUSH2 0x21F SWAP1 PUSH2 0x60D JUMP JUMPDEST DUP1 ISZERO PUSH2 0x26C JUMPI DUP1 PUSH1 0x1F LT PUSH2 0x241 JUMPI PUSH2 0x100 DUP1 DUP4 SLOAD DIV MUL DUP4 MSTORE SWAP2 PUSH1 0x20 ADD SWAP2 PUSH2 0x26C JUMP JUMPDEST DUP3 ADD SWAP2 SWAP1 PUSH1 0x0 MSTORE PUSH1 0x20 PUSH1 0x0 KECCAK256 SWAP1 JUMPDEST DUP2 SLOAD DUP2 MSTORE SWAP1 PUSH1 0x1 ADD SWAP1 PUSH1 0x20 ADD DUP1 DUP4 GT PUSH2 0x24F JUMPI DUP3 SWAP1 SUB PUSH1 0x1F AND DUP3 ADD SWAP2 JUMPDEST POP POP POP POP POP SWAP1 POP DUP4 JUMP JUMPDEST PUSH1 0x1 PUSH1 0x0 DUP1 DUP3 DUP3 SLOAD PUSH2 0x288 SWAP2 SWAP1 PUSH2 0x56B JUMP JUMPDEST SWAP3 POP POP DUP2 SWAP1 SSTORE POP JUMP JUMPDEST DUP3 DUP1 SLOAD PUSH2 0x29D SWAP1 PUSH2 0x60D JUMP JUMPDEST SWAP1 PUSH1 0x0 MSTORE PUSH1 0x20 PUSH1 0x0 KECCAK256 SWAP1 PUSH1 0x1F ADD PUSH1 0x20 SWAP1 DIV DUP2 ADD SWAP3 DUP3 PUSH2 0x2BF JUMPI PUSH1 0x0 DUP6 SSTORE PUSH2 0x306 JUMP JUMPDEST DUP3 PUSH1 0x1F LT PUSH2 0x2D8 JUMPI DUP1 MLOAD PUSH1 0xFF NOT AND DUP4 DUP1 ADD OR DUP6 SSTORE PUSH2 0x306 JUMP JUMPDEST DUP3 DUP1 ADD PUSH1 0x1 ADD DUP6 SSTORE DUP3 ISZERO PUSH2 0x306 JUMPI SWAP2 DUP3 ADD JUMPDEST DUP3 DUP2 GT ISZERO PUSH2 0x305 JUMPI DUP3 MLOAD DUP3 SSTORE SWAP2 PUSH1 0x20 ADD SWAP2 SWAP1 PUSH1 0x1 ADD SWAP1 PUSH2 0x2EA JUMP JUMPDEST JUMPDEST POP SWAP1 POP PUSH2 0x313 SWAP2 SWAP1 PUSH2 0x317 JUMP JUMPDEST POP SWAP1 JUMP JUMPDEST JUMPDEST DUP1 DUP3 GT ISZERO PUSH2 0x330 JUMPI PUSH1 0x0 DUP2 PUSH1 0x0 SWAP1 SSTORE POP PUSH1 0x1 ADD PUSH2 0x318 JUMP JUMPDEST POP SWAP1 JUMP JUMPDEST PUSH1 0x0 PUSH2 0x347 PUSH2 0x342 DUP5 PUSH2 0x51F JUMP JUMPDEST PUSH2 0x4EE JUMP JUMPDEST SWAP1 POP DUP3 DUP2 MSTORE PUSH1 0x20 DUP2 ADD DUP5 DUP5 DUP5 ADD GT ISZERO PUSH2 0x35F JUMPI PUSH1 0x0 DUP1 REVERT JUMPDEST PUSH2 0x36A DUP5 DUP3 DUP6 PUSH2 0x5CB JUMP JUMPDEST POP SWAP4 SWAP3 POP POP POP JUMP JUMPDEST PUSH1 0x0 DUP3 PUSH1 0x1F DUP4 ADD SLT PUSH2 0x383 JUMPI PUSH1 0x0 DUP1 REVERT JUMPDEST DUP2 CALLDATALOAD PUSH2 0x393 DUP5 DUP3 PUSH1 0x20 DUP7 ADD PUSH2 0x334 JUMP JUMPDEST SWAP2 POP POP SWAP3 SWAP2 POP POP JUMP JUMPDEST PUSH1 0x0 DUP2 CALLDATALOAD SWAP1 POP PUSH2 0x3AB DUP2 PUSH2 0x6DD JUMP JUMPDEST SWAP3 SWAP2 POP POP JUMP JUMPDEST PUSH1 0x0 DUP1 PUSH1 0x40 DUP4 DUP6 SUB SLT ISZERO PUSH2 0x3C4 JUMPI PUSH1 0x0 DUP1 REVERT JUMPDEST PUSH1 0x0 DUP4 ADD CALLDATALOAD PUSH8 0xFFFFFFFFFFFFFFFF DUP2 GT ISZERO PUSH2 0x3DE JUMPI PUSH1 0x0 DUP1 REVERT JUMPDEST PUSH2 0x3EA DUP6 DUP3 DUP7 ADD PUSH2 0x372 JUMP JUMPDEST SWAP3 POP POP PUSH1 0x20 DUP4 ADD CALLDATALOAD PUSH8 0xFFFFFFFFFFFFFFFF DUP2 GT ISZERO PUSH2 0x407 JUMPI PUSH1 0x0 DUP1 REVERT JUMPDEST PUSH2 0x413 DUP6 DUP3 DUP7 ADD PUSH2 0x372 JUMP JUMPDEST SWAP2 POP POP SWAP3 POP SWAP3 SWAP1 POP JUMP JUMPDEST PUSH1 0x0 PUSH1 0x20 DUP3 DUP5 SUB SLT ISZERO PUSH2 0x42F JUMPI PUSH1 0x0 DUP1 REVERT JUMPDEST PUSH1 0x0 PUSH2 0x43D DUP5 DUP3 DUP6 ADD PUSH2 0x39C JUMP JUMPDEST SWAP2 POP POP SWAP3 SWAP2 POP POP JUMP JUMPDEST PUSH1 0x0 PUSH2 0x451 DUP3 PUSH2 0x54F JUMP JUMPDEST PUSH2 0x45B DUP2 DUP6 PUSH2 0x55A JUMP JUMPDEST SWAP4 POP PUSH2 0x46B DUP2 DUP6 PUSH1 0x20 DUP7 ADD PUSH2 0x5DA JUMP JUMPDEST PUSH2 0x474 DUP2 PUSH2 0x6CC JUMP JUMPDEST DUP5 ADD SWAP2 POP POP SWAP3 SWAP2 POP POP JUMP JUMPDEST PUSH2 0x488 DUP2 PUSH2 0x5C1 JUMP JUMPDEST DUP3 MSTORE POP POP JUMP JUMPDEST PUSH1 0x0 PUSH1 0x20 DUP3 ADD SWAP1 POP PUSH2 0x4A3 PUSH1 0x0 DUP4 ADD DUP5 PUSH2 0x47F JUMP JUMPDEST SWAP3 SWAP2 POP POP JUMP JUMPDEST PUSH1 0x0 PUSH1 0x60 DUP3 ADD SWAP1 POP PUSH2 0x4BE PUSH1 0x0 DUP4 ADD DUP7 PUSH2 0x47F JUMP JUMPDEST DUP2 DUP2 SUB PUSH1 0x20 DUP4 ADD MSTORE PUSH2 0x4D0 DUP2 DUP6 PUSH2 0x446 JUMP JUMPDEST SWAP1 POP DUP2 DUP2 SUB PUSH1 0x40 DUP4 ADD MSTORE PUSH2 0x4E4 DUP2 DUP5 PUSH2 0x446 JUMP JUMPDEST SWAP1 POP SWAP5 SWAP4 POP POP POP POP JUMP JUMPDEST PUSH1 0x0 PUSH1 0x40 MLOAD SWAP1 POP DUP2 DUP2 ADD DUP2 DUP2 LT PUSH8 0xFFFFFFFFFFFFFFFF DUP3 GT OR ISZERO PUSH2 0x515 JUMPI PUSH2 0x514 PUSH2 0x69D JUMP JUMPDEST JUMPDEST DUP1 PUSH1 0x40 MSTORE POP SWAP2 SWAP1 POP JUMP JUMPDEST PUSH1 0x0 PUSH8 0xFFFFFFFFFFFFFFFF DUP3 GT ISZERO PUSH2 0x53A JUMPI PUSH2 0x539 PUSH2 0x69D JUMP JUMPDEST JUMPDEST PUSH1 0x1F NOT PUSH1 0x1F DUP4 ADD AND SWAP1 POP PUSH1 0x20 DUP2 ADD SWAP1 POP SWAP2 SWAP1 POP JUMP JUMPDEST PUSH1 0x0 DUP2 MLOAD SWAP1 POP SWAP2 SWAP1 POP JUMP JUMPDEST PUSH1 0x0 DUP3 DUP3 MSTORE PUSH1 0x20 DUP3 ADD SWAP1 POP SWAP3 SWAP2 POP POP JUMP JUMPDEST PUSH1 0x0 PUSH2 0x576 DUP3 PUSH2 0x5C1 JUMP JUMPDEST SWAP2 POP PUSH2 0x581 DUP4 PUSH2 0x5C1 JUMP JUMPDEST SWAP3 POP DUP3 PUSH32 0xFFFFFFFFFFFFFFFFFFFFFFFFFFFFFFFFFFFFFFFFFFFFFFFFFFFFFFFFFFFFFFFF SUB DUP3 GT ISZERO PUSH2 0x5B6 JUMPI PUSH2 0x5B5 PUSH2 0x63F JUMP JUMPDEST JUMPDEST DUP3 DUP3 ADD SWAP1 POP SWAP3 SWAP2 POP POP JUMP JUMPDEST PUSH1 0x0 DUP2 SWAP1 POP SWAP2 SWAP1 POP JUMP JUMPDEST DUP3 DUP2 DUP4 CALLDATACOPY PUSH1 0x0 DUP4 DUP4 ADD MSTORE POP POP POP JUMP JUMPDEST PUSH1 0x0 JUMPDEST DUP4 DUP2 LT ISZERO PUSH2 0x5F8 JUMPI DUP1 DUP3 ADD MLOAD DUP2 DUP5 ADD MSTORE PUSH1 0x20 DUP2 ADD SWAP1 POP PUSH2 0x5DD JUMP JUMPDEST DUP4 DUP2 GT ISZERO PUSH2 0x607 JUMPI PUSH1 0x0 DUP5 DUP5 ADD MSTORE JUMPDEST POP POP POP POP JUMP JUMPDEST PUSH1 0x0 PUSH1 0x2 DUP3 DIV SWAP1 POP PUSH1 0x1 DUP3 AND DUP1 PUSH2 0x625 JUMPI PUSH1 0x7F DUP3 AND SWAP2 POP JUMPDEST PUSH1 0x20 DUP3 LT DUP2 EQ ISZERO PUSH2 0x639 JUMPI PUSH2 0x638 PUSH2 0x66E JUMP JUMPDEST JUMPDEST POP SWAP2 SWAP1 POP JUMP JUMPDEST PUSH32 0x4E487B7100000000000000000000000000000000000000000000000000000000 PUSH1 0x0 MSTORE PUSH1 0x11 PUSH1 0x4 MSTORE PUSH1 0x24 PUSH1 0x0 REVERT JUMPDEST PUSH32 0x4E487B7100000000000000000000000000000000000000000000000000000000 PUSH1 0x0 MSTORE PUSH1 0x22 PUSH1 0x4 MSTORE PUSH1 0x24 PUSH1 0x0 REVERT JUMPDEST PUSH32 0x4E487B7100000000000000000000000000000000000000000000000000000000 PUSH1 0x0 MSTORE PUSH1 0x41 PUSH1 0x4 MSTORE PUSH1 0x24 PUSH1 0x0 REVERT JUMPDEST PUSH1 0x0 PUSH1 0x1F NOT PUSH1 0x1F DUP4 ADD AND SWAP1 POP SWAP2 SWAP1 POP JUMP JUMPDEST PUSH2 0x6E6 DUP2 PUSH2 0x5C1 JUMP JUMPDEST DUP2 EQ PUSH2 0x6F1 JUMPI PUSH1 0x0 DUP1 REVERT JUMPDEST POP JUMP INVALID LOG2 PUSH5 0x6970667358 0x22 SLT KECCAK256 0x49 PUSH5 0xDE7D3F7D73 REVERT GASPRICE NOT 0xDB GASLIMIT 0xCD SELFBALANCE 0x1E 0xBA PUSH10 0x2FEF88F014ED9CDFF88C 0xE7 DIV DIV DUP9 SMOD PUSH5 0x736F6C6343 STOP ADDMOD STOP STOP CALLER "
				},
				"gasEstimates": {
					"creation": {
						"codeDepositCost": "366800",
						"executionCost": "5411",
						"totalCost": "372211"
					},
					"external": {
						"addPerson(string,string)": "infinite",
						"people(uint256)": "infinite",
						"peopleCount()": "1129"
					},
					"internal": {
						"incrementCount()": "infinite"
					}
				},
				"methodIdentifiers": {
					"addPerson(string,string)": "22f5b58d",
					"people(uint256)": "9e7a13ad",
					"peopleCount()": "267c68e0"
				}
			},
			"storageLayout": {
				"storage": [
					{
						"astId": 4,
						"contract": "Lab7/myContractModifier1.sol:MyContractModifier1",
						"label": "peopleCount",
						"offset": 0,
						"slot": "0",
						"type": "t_uint256"
					},
					{
						"astId": 9,
						"contract": "Lab7/myContractModifier1.sol:MyContractModifier1",
						"label": "people",
						"offset": 0,
						"slot": "1",
						"type": "t_mapping(t_uint256,t_struct(Person)16_storage)"
					}
				],
				"types": {
					"t_mapping(t_uint256,t_struct(Person)16_storage)": {
						"encoding": "mapping",
						"key": "t_uint256",
						"label": "mapping(uint256 => struct MyContractModifier1.Person)",
						"numberOfBytes": "32",
						"value": "t_struct(Person)16_storage"
					},
					"t_string_storage": {
						"encoding": "bytes",
						"label": "string",
						"numberOfBytes": "32"
					},
					"t_struct(Person)16_storage": {
						"encoding": "inplace",
						"label": "struct MyContractModifier1.Person",
						"members": [
							{
								"astId": 11,
								"contract": "Lab7/myContractModifier1.sol:MyContractModifier1",
								"label": "_id",
								"offset": 0,
								"slot": "0",
								"type": "t_uint256"
							},
							{
								"astId": 13,
								"contract": "Lab7/myContractModifier1.sol:MyContractModifier1",
								"label": "_firstname",
								"offset": 0,
								"slot": "1",
								"type": "t_string_storage"
							},
							{
								"astId": 15,
								"contract": "Lab7/myContractModifier1.sol:MyContractModifier1",
								"label": "_lastname",
								"offset": 0,
								"slot": "2",
								"type": "t_string_storage"
							}
						],
						"numberOfBytes": "96"
					},
					"t_uint256": {
						"encoding": "inplace",
						"label": "uint256",
						"numberOfBytes": "32"
					}
				}
			},
			"userdoc": {
				"kind": "user",
				"methods": {},
				"version": 1
			}
		}
	}
}