{
	"Lab7/StateTrans.sol": {
		"StateTransV2": {
			"abi": [
				{
					"inputs": [],
					"stateMutability": "nonpayable",
					"type": "constructor"
				},
				{
					"inputs": [],
					"name": "advanceState",
					"outputs": [],
					"stateMutability": "nonpayable",
					"type": "function"
				},
				{
					"inputs": [],
					"name": "stage",
					"outputs": [
						{
							"internalType": "enum StateTransV2.Stage",
							"name": "",
							"type": "uint8"
						}
					],
					"stateMutability": "view",
					"type": "function"
				},
				{
					"inputs": [],
					"name": "timeNow",
					"outputs": [
						{
							"internalType": "uint256",
							"name": "",
							"type": "uint256"
						}
					],
					"stateMutability": "view",
					"type": "function"
				}
			],
			"devdoc": {
				"kind": "dev",
				"methods": {},
				"version": 1
			},
			"evm": {
				"assembly": "    /* \"Lab7/StateTrans.sol\":57:1391  contract StateTransV2 {... */\n  mstore(0x40, 0x80)\n    /* \"Lab7/StateTrans.sol\":381:467  constructor() {... */\n  callvalue\n  dup1\n  iszero\n  tag_1\n  jumpi\n  0x00\n  dup1\n  revert\ntag_1:\n  pop\n    /* \"Lab7/StateTrans.sol\":413:423  Stage.Init */\n  0x00\n    /* \"Lab7/StateTrans.sol\":405:410  stage */\n  dup1\n  0x00\n    /* \"Lab7/StateTrans.sol\":405:423  stage = Stage.Init */\n  0x0100\n  exp\n  dup2\n  sload\n  dup2\n  0xff\n  mul\n  not\n  and\n  swap1\n  dup4\n  0x03\n  dup2\n  gt\n  iszero\n  tag_4\n  jumpi\n  tag_5\n  tag_6\n  jump\t// in\ntag_5:\ntag_4:\n  mul\n  or\n  swap1\n  sstore\n  pop\n    /* \"Lab7/StateTrans.sol\":445:460  block.timestamp */\n  timestamp\n    /* \"Lab7/StateTrans.sol\":433:442  startTime */\n  0x01\n    /* \"Lab7/StateTrans.sol\":433:460  startTime = block.timestamp */\n  dup2\n  swap1\n  sstore\n  pop\n    /* \"Lab7/StateTrans.sol\":57:1391  contract StateTransV2 {... */\n  jump(tag_7)\n    /* \"#utility.yul\":7:187   */\ntag_6:\n    /* \"#utility.yul\":55:132   */\n  0x4e487b7100000000000000000000000000000000000000000000000000000000\n    /* \"#utility.yul\":52:53   */\n  0x00\n    /* \"#utility.yul\":45:133   */\n  mstore\n    /* \"#utility.yul\":152:156   */\n  0x21\n    /* \"#utility.yul\":149:150   */\n  0x04\n    /* \"#utility.yul\":142:157   */\n  mstore\n    /* \"#utility.yul\":176:180   */\n  0x24\n    /* \"#utility.yul\":173:174   */\n  0x00\n    /* \"#utility.yul\":166:181   */\n  revert\n    /* \"Lab7/StateTrans.sol\":57:1391  contract StateTransV2 {... */\ntag_7:\n  dataSize(sub_0)\n  dup1\n  dataOffset(sub_0)\n  0x00\n  codecopy\n  0x00\n  return\nstop\n\nsub_0: assembly {\n        /* \"Lab7/StateTrans.sol\":57:1391  contract StateTransV2 {... */\n      mstore(0x40, 0x80)\n      callvalue\n      dup1\n      iszero\n      tag_1\n      jumpi\n      0x00\n      dup1\n      revert\n    tag_1:\n      pop\n      jumpi(tag_2, lt(calldatasize, 0x04))\n      shr(0xe0, calldataload(0x00))\n      dup1\n      0x84ecdaf6\n      eq\n      tag_3\n      jumpi\n      dup1\n      0xc040e6b8\n      eq\n      tag_4\n      jumpi\n      dup1\n      0xd95660be\n      eq\n      tag_5\n      jumpi\n    tag_2:\n      0x00\n      dup1\n      revert\n        /* \"Lab7/StateTrans.sol\":790:1389  function advanceState() public {... */\n    tag_3:\n      tag_6\n      tag_7\n      jump\t// in\n    tag_6:\n      stop\n        /* \"Lab7/StateTrans.sol\":217:235  Stage public stage */\n    tag_4:\n      tag_8\n      tag_9\n      jump\t// in\n    tag_8:\n      mload(0x40)\n      tag_10\n      swap2\n      swap1\n      tag_11\n      jump\t// in\n    tag_10:\n      mload(0x40)\n      dup1\n      swap2\n      sub\n      swap1\n      return\n        /* \"Lab7/StateTrans.sol\":291:313  uint256 public timeNow */\n    tag_5:\n      tag_12\n      tag_13\n      jump\t// in\n    tag_12:\n      mload(0x40)\n      tag_14\n      swap2\n      swap1\n      tag_15\n      jump\t// in\n    tag_14:\n      mload(0x40)\n      dup1\n      swap2\n      sub\n      swap1\n      return\n        /* \"Lab7/StateTrans.sol\":790:1389  function advanceState() public {... */\n    tag_7:\n        /* \"Lab7/StateTrans.sol\":841:856  block.timestamp */\n      timestamp\n        /* \"Lab7/StateTrans.sol\":831:838  timeNow */\n      0x02\n        /* \"Lab7/StateTrans.sol\":831:856  timeNow = block.timestamp */\n      dup2\n      swap1\n      sstore\n      pop\n        /* \"Lab7/StateTrans.sol\":967:976  2 seconds */\n      0x02\n        /* \"Lab7/StateTrans.sol\":955:964  startTime */\n      sload(0x01)\n        /* \"Lab7/StateTrans.sol\":955:976  startTime + 2 seconds */\n      tag_17\n      swap2\n      swap1\n      tag_18\n      jump\t// in\n    tag_17:\n        /* \"Lab7/StateTrans.sol\":944:951  timeNow */\n      sload(0x02)\n        /* \"Lab7/StateTrans.sol\":944:977  timeNow > (startTime + 2 seconds) */\n      gt\n        /* \"Lab7/StateTrans.sol\":940:1383  if (timeNow > (startTime + 2 seconds)) {... */\n      iszero\n      tag_19\n      jumpi\n        /* \"Lab7/StateTrans.sol\":1005:1012  timeNow */\n      sload(0x02)\n        /* \"Lab7/StateTrans.sol\":993:1002  startTime */\n      0x01\n        /* \"Lab7/StateTrans.sol\":993:1012  startTime = timeNow */\n      dup2\n      swap1\n      sstore\n      pop\n        /* \"Lab7/StateTrans.sol\":1040:1050  Stage.Init */\n      0x00\n        /* \"Lab7/StateTrans.sol\":1031:1050  stage == Stage.Init */\n      0x03\n      dup2\n      gt\n      iszero\n      tag_20\n      jumpi\n      tag_21\n      tag_22\n      jump\t// in\n    tag_21:\n    tag_20:\n        /* \"Lab7/StateTrans.sol\":1031:1036  stage */\n      0x00\n      dup1\n      sload\n      swap1\n      0x0100\n      exp\n      swap1\n      div\n      0xff\n      and\n        /* \"Lab7/StateTrans.sol\":1031:1050  stage == Stage.Init */\n      0x03\n      dup2\n      gt\n      iszero\n      tag_23\n      jumpi\n      tag_24\n      tag_22\n      jump\t// in\n    tag_24:\n    tag_23:\n      sub\n        /* \"Lab7/StateTrans.sol\":1027:1126  if (stage == Stage.Init) {... */\n      tag_25\n      jumpi\n        /* \"Lab7/StateTrans.sol\":1078:1087  Stage.Reg */\n      0x01\n        /* \"Lab7/StateTrans.sol\":1070:1075  stage */\n      0x00\n      dup1\n        /* \"Lab7/StateTrans.sol\":1070:1087  stage = Stage.Reg */\n      0x0100\n      exp\n      dup2\n      sload\n      dup2\n      0xff\n      mul\n      not\n      and\n      swap1\n      dup4\n      0x03\n      dup2\n      gt\n      iszero\n      tag_26\n      jumpi\n      tag_27\n      tag_22\n      jump\t// in\n    tag_27:\n    tag_26:\n      mul\n      or\n      swap1\n      sstore\n      pop\n        /* \"Lab7/StateTrans.sol\":1105:1112  return; */\n      jump(tag_16)\n        /* \"Lab7/StateTrans.sol\":1027:1126  if (stage == Stage.Init) {... */\n    tag_25:\n        /* \"Lab7/StateTrans.sol\":1153:1162  Stage.Reg */\n      0x01\n        /* \"Lab7/StateTrans.sol\":1144:1162  stage == Stage.Reg */\n      0x03\n      dup2\n      gt\n      iszero\n      tag_28\n      jumpi\n      tag_29\n      tag_22\n      jump\t// in\n    tag_29:\n    tag_28:\n        /* \"Lab7/StateTrans.sol\":1144:1149  stage */\n      0x00\n      dup1\n      sload\n      swap1\n      0x0100\n      exp\n      swap1\n      div\n      0xff\n      and\n        /* \"Lab7/StateTrans.sol\":1144:1162  stage == Stage.Reg */\n      0x03\n      dup2\n      gt\n      iszero\n      tag_30\n      jumpi\n      tag_31\n      tag_22\n      jump\t// in\n    tag_31:\n    tag_30:\n      sub\n        /* \"Lab7/StateTrans.sol\":1140:1239  if (stage == Stage.Reg) {... */\n      tag_32\n      jumpi\n        /* \"Lab7/StateTrans.sol\":1190:1200  Stage.Vote */\n      0x02\n        /* \"Lab7/StateTrans.sol\":1182:1187  stage */\n      0x00\n      dup1\n        /* \"Lab7/StateTrans.sol\":1182:1200  stage = Stage.Vote */\n      0x0100\n      exp\n      dup2\n      sload\n      dup2\n      0xff\n      mul\n      not\n      and\n      swap1\n      dup4\n      0x03\n      dup2\n      gt\n      iszero\n      tag_33\n      jumpi\n      tag_34\n      tag_22\n      jump\t// in\n    tag_34:\n    tag_33:\n      mul\n      or\n      swap1\n      sstore\n      pop\n        /* \"Lab7/StateTrans.sol\":1218:1225  return; */\n      jump(tag_16)\n        /* \"Lab7/StateTrans.sol\":1140:1239  if (stage == Stage.Reg) {... */\n    tag_32:\n        /* \"Lab7/StateTrans.sol\":1266:1276  Stage.Vote */\n      0x02\n        /* \"Lab7/StateTrans.sol\":1257:1276  stage == Stage.Vote */\n      0x03\n      dup2\n      gt\n      iszero\n      tag_35\n      jumpi\n      tag_36\n      tag_22\n      jump\t// in\n    tag_36:\n    tag_35:\n        /* \"Lab7/StateTrans.sol\":1257:1262  stage */\n      0x00\n      dup1\n      sload\n      swap1\n      0x0100\n      exp\n      swap1\n      div\n      0xff\n      and\n        /* \"Lab7/StateTrans.sol\":1257:1276  stage == Stage.Vote */\n      0x03\n      dup2\n      gt\n      iszero\n      tag_37\n      jumpi\n      tag_38\n      tag_22\n      jump\t// in\n    tag_38:\n    tag_37:\n      sub\n        /* \"Lab7/StateTrans.sol\":1253:1353  if (stage == Stage.Vote) {... */\n      tag_39\n      jumpi\n        /* \"Lab7/StateTrans.sol\":1304:1314  Stage.Done */\n      0x03\n        /* \"Lab7/StateTrans.sol\":1296:1301  stage */\n      0x00\n      dup1\n        /* \"Lab7/StateTrans.sol\":1296:1314  stage = Stage.Done */\n      0x0100\n      exp\n      dup2\n      sload\n      dup2\n      0xff\n      mul\n      not\n      and\n      swap1\n      dup4\n      0x03\n      dup2\n      gt\n      iszero\n      tag_40\n      jumpi\n      tag_41\n      tag_22\n      jump\t// in\n    tag_41:\n    tag_40:\n      mul\n      or\n      swap1\n      sstore\n      pop\n        /* \"Lab7/StateTrans.sol\":1332:1339  return; */\n      jump(tag_16)\n        /* \"Lab7/StateTrans.sol\":1253:1353  if (stage == Stage.Vote) {... */\n    tag_39:\n        /* \"Lab7/StateTrans.sol\":1366:1373  return; */\n      jump(tag_16)\n        /* \"Lab7/StateTrans.sol\":940:1383  if (timeNow > (startTime + 2 seconds)) {... */\n    tag_19:\n        /* \"Lab7/StateTrans.sol\":790:1389  function advanceState() public {... */\n    tag_16:\n      jump\t// out\n        /* \"Lab7/StateTrans.sol\":217:235  Stage public stage */\n    tag_9:\n      0x00\n      dup1\n      sload\n      swap1\n      0x0100\n      exp\n      swap1\n      div\n      0xff\n      and\n      dup2\n      jump\t// out\n        /* \"Lab7/StateTrans.sol\":291:313  uint256 public timeNow */\n    tag_13:\n      sload(0x02)\n      dup2\n      jump\t// out\n        /* \"#utility.yul\":7:187   */\n    tag_22:\n        /* \"#utility.yul\":55:132   */\n      0x4e487b7100000000000000000000000000000000000000000000000000000000\n        /* \"#utility.yul\":52:53   */\n      0x00\n        /* \"#utility.yul\":45:133   */\n      mstore\n        /* \"#utility.yul\":152:156   */\n      0x21\n        /* \"#utility.yul\":149:150   */\n      0x04\n        /* \"#utility.yul\":142:157   */\n      mstore\n        /* \"#utility.yul\":176:180   */\n      0x24\n        /* \"#utility.yul\":173:174   */\n      0x00\n        /* \"#utility.yul\":166:181   */\n      revert\n        /* \"#utility.yul\":193:305   */\n    tag_42:\n        /* \"#utility.yul\":273:274   */\n      0x04\n        /* \"#utility.yul\":266:271   */\n      dup2\n        /* \"#utility.yul\":263:275   */\n      lt\n        /* \"#utility.yul\":253:299   */\n      tag_52\n      jumpi\n        /* \"#utility.yul\":279:297   */\n      tag_53\n      tag_22\n      jump\t// in\n    tag_53:\n        /* \"#utility.yul\":253:299   */\n    tag_52:\n        /* \"#utility.yul\":193:305   */\n      pop\n      jump\t// out\n        /* \"#utility.yul\":311:436   */\n    tag_43:\n        /* \"#utility.yul\":355:362   */\n      0x00\n        /* \"#utility.yul\":384:389   */\n      dup2\n        /* \"#utility.yul\":373:389   */\n      swap1\n      pop\n        /* \"#utility.yul\":390:430   */\n      tag_55\n        /* \"#utility.yul\":424:429   */\n      dup3\n        /* \"#utility.yul\":390:430   */\n      tag_42\n      jump\t// in\n    tag_55:\n        /* \"#utility.yul\":311:436   */\n      swap2\n      swap1\n      pop\n      jump\t// out\n        /* \"#utility.yul\":442:567   */\n    tag_44:\n        /* \"#utility.yul\":497:506   */\n      0x00\n        /* \"#utility.yul\":530:561   */\n      tag_57\n        /* \"#utility.yul\":555:560   */\n      dup3\n        /* \"#utility.yul\":530:561   */\n      tag_43\n      jump\t// in\n    tag_57:\n        /* \"#utility.yul\":517:561   */\n      swap1\n      pop\n        /* \"#utility.yul\":442:567   */\n      swap2\n      swap1\n      pop\n      jump\t// out\n        /* \"#utility.yul\":573:714   */\n    tag_45:\n        /* \"#utility.yul\":665:707   */\n      tag_59\n        /* \"#utility.yul\":701:706   */\n      dup2\n        /* \"#utility.yul\":665:707   */\n      tag_44\n      jump\t// in\n    tag_59:\n        /* \"#utility.yul\":660:663   */\n      dup3\n        /* \"#utility.yul\":653:708   */\n      mstore\n        /* \"#utility.yul\":573:714   */\n      pop\n      pop\n      jump\t// out\n        /* \"#utility.yul\":720:952   */\n    tag_11:\n        /* \"#utility.yul\":818:822   */\n      0x00\n        /* \"#utility.yul\":856:858   */\n      0x20\n        /* \"#utility.yul\":845:854   */\n      dup3\n        /* \"#utility.yul\":841:859   */\n      add\n        /* \"#utility.yul\":833:859   */\n      swap1\n      pop\n        /* \"#utility.yul\":869:945   */\n      tag_61\n        /* \"#utility.yul\":942:943   */\n      0x00\n        /* \"#utility.yul\":931:940   */\n      dup4\n        /* \"#utility.yul\":927:944   */\n      add\n        /* \"#utility.yul\":918:924   */\n      dup5\n        /* \"#utility.yul\":869:945   */\n      tag_45\n      jump\t// in\n    tag_61:\n        /* \"#utility.yul\":720:952   */\n      swap3\n      swap2\n      pop\n      pop\n      jump\t// out\n        /* \"#utility.yul\":958:1035   */\n    tag_46:\n        /* \"#utility.yul\":995:1002   */\n      0x00\n        /* \"#utility.yul\":1024:1029   */\n      dup2\n        /* \"#utility.yul\":1013:1029   */\n      swap1\n      pop\n        /* \"#utility.yul\":958:1035   */\n      swap2\n      swap1\n      pop\n      jump\t// out\n        /* \"#utility.yul\":1041:1159   */\n    tag_47:\n        /* \"#utility.yul\":1128:1152   */\n      tag_64\n        /* \"#utility.yul\":1146:1151   */\n      dup2\n        /* \"#utility.yul\":1128:1152   */\n      tag_46\n      jump\t// in\n    tag_64:\n        /* \"#utility.yul\":1123:1126   */\n      dup3\n        /* \"#utility.yul\":1116:1153   */\n      mstore\n        /* \"#utility.yul\":1041:1159   */\n      pop\n      pop\n      jump\t// out\n        /* \"#utility.yul\":1165:1387   */\n    tag_15:\n        /* \"#utility.yul\":1258:1262   */\n      0x00\n        /* \"#utility.yul\":1296:1298   */\n      0x20\n        /* \"#utility.yul\":1285:1294   */\n      dup3\n        /* \"#utility.yul\":1281:1299   */\n      add\n        /* \"#utility.yul\":1273:1299   */\n      swap1\n      pop\n        /* \"#utility.yul\":1309:1380   */\n      tag_66\n        /* \"#utility.yul\":1377:1378   */\n      0x00\n        /* \"#utility.yul\":1366:1375   */\n      dup4\n        /* \"#utility.yul\":1362:1379   */\n      add\n        /* \"#utility.yul\":1353:1359   */\n      dup5\n        /* \"#utility.yul\":1309:1380   */\n      tag_47\n      jump\t// in\n    tag_66:\n        /* \"#utility.yul\":1165:1387   */\n      swap3\n      swap2\n      pop\n      pop\n      jump\t// out\n        /* \"#utility.yul\":1393:1573   */\n    tag_48:\n        /* \"#utility.yul\":1441:1518   */\n      0x4e487b7100000000000000000000000000000000000000000000000000000000\n        /* \"#utility.yul\":1438:1439   */\n      0x00\n        /* \"#utility.yul\":1431:1519   */\n      mstore\n        /* \"#utility.yul\":1538:1542   */\n      0x11\n        /* \"#utility.yul\":1535:1536   */\n      0x04\n        /* \"#utility.yul\":1528:1543   */\n      mstore\n        /* \"#utility.yul\":1562:1566   */\n      0x24\n        /* \"#utility.yul\":1559:1560   */\n      0x00\n        /* \"#utility.yul\":1552:1567   */\n      revert\n        /* \"#utility.yul\":1579:1770   */\n    tag_18:\n        /* \"#utility.yul\":1619:1622   */\n      0x00\n        /* \"#utility.yul\":1638:1658   */\n      tag_69\n        /* \"#utility.yul\":1656:1657   */\n      dup3\n        /* \"#utility.yul\":1638:1658   */\n      tag_46\n      jump\t// in\n    tag_69:\n        /* \"#utility.yul\":1633:1658   */\n      swap2\n      pop\n        /* \"#utility.yul\":1672:1692   */\n      tag_70\n        /* \"#utility.yul\":1690:1691   */\n      dup4\n        /* \"#utility.yul\":1672:1692   */\n      tag_46\n      jump\t// in\n    tag_70:\n        /* \"#utility.yul\":1667:1692   */\n      swap3\n      pop\n        /* \"#utility.yul\":1715:1716   */\n      dup3\n        /* \"#utility.yul\":1712:1713   */\n      dup3\n        /* \"#utility.yul\":1708:1717   */\n      add\n        /* \"#utility.yul\":1701:1717   */\n      swap1\n      pop\n        /* \"#utility.yul\":1736:1739   */\n      dup1\n        /* \"#utility.yul\":1733:1734   */\n      dup3\n        /* \"#utility.yul\":1730:1740   */\n      gt\n        /* \"#utility.yul\":1727:1763   */\n      iszero\n      tag_71\n      jumpi\n        /* \"#utility.yul\":1743:1761   */\n      tag_72\n      tag_48\n      jump\t// in\n    tag_72:\n        /* \"#utility.yul\":1727:1763   */\n    tag_71:\n        /* \"#utility.yul\":1579:1770   */\n      swap3\n      swap2\n      pop\n      pop\n      jump\t// out\n\n    auxdata: 0xa2646970667358221220c4c9685d9567e867a29897863433c28e72e9f49049b102e41112ce387e27341064736f6c63430008130033\n}\n",
				"bytecode": {
					"linkReferences": {},
					"object": "608060405234801561001057600080fd5b5060008060006101000a81548160ff0219169083600381111561003657610035610047565b5b021790555042600181905550610076565b7f4e487b7100000000000000000000000000000000000000000000000000000000600052602160045260246000fd5b61036a806100856000396000f3fe608060405234801561001057600080fd5b50600436106100415760003560e01c806384ecdaf614610046578063c040e6b814610050578063d95660be1461006e575b600080fd5b61004e61008c565b005b6100586101f4565b6040516100659190610282565b60405180910390f35b610076610205565b60405161008391906102b6565b60405180910390f35b4260028190555060026001546100a29190610300565b60025411156101f157600254600181905550600060038111156100c8576100c761020b565b5b60008054906101000a900460ff1660038111156100e8576100e761020b565b5b0361011c5760016000806101000a81548160ff021916908360038111156101125761011161020b565b5b02179055506101f2565b600160038111156101305761012f61020b565b5b60008054906101000a900460ff1660038111156101505761014f61020b565b5b036101845760026000806101000a81548160ff0219169083600381111561017a5761017961020b565b5b02179055506101f2565b600260038111156101985761019761020b565b5b60008054906101000a900460ff1660038111156101b8576101b761020b565b5b036101ec5760036000806101000a81548160ff021916908360038111156101e2576101e161020b565b5b02179055506101f2565b6101f2565b5b565b60008054906101000a900460ff1681565b60025481565b7f4e487b7100000000000000000000000000000000000000000000000000000000600052602160045260246000fd5b6004811061024b5761024a61020b565b5b50565b600081905061025c8261023a565b919050565b600061026c8261024e565b9050919050565b61027c81610261565b82525050565b60006020820190506102976000830184610273565b92915050565b6000819050919050565b6102b08161029d565b82525050565b60006020820190506102cb60008301846102a7565b92915050565b7f4e487b7100000000000000000000000000000000000000000000000000000000600052601160045260246000fd5b600061030b8261029d565b91506103168361029d565b925082820190508082111561032e5761032d6102d1565b5b9291505056fea2646970667358221220c4c9685d9567e867a29897863433c28e72e9f49049b102e41112ce387e27341064736f6c63430008130033",
					"opcodes": "PUSH1 0x80 PUSH1 0x40 MSTORE CALLVALUE DUP1 ISZERO PUSH2 0x10 JUMPI PUSH1 0x0 DUP1 REVERT JUMPDEST POP PUSH1 0x0 DUP1 PUSH1 0x0 PUSH2 0x100 EXP DUP2 SLOAD DUP2 PUSH1 0xFF MUL NOT AND SWAP1 DUP4 PUSH1 0x3 DUP2 GT ISZERO PUSH2 0x36 JUMPI PUSH2 0x35 PUSH2 0x47 JUMP JUMPDEST JUMPDEST MUL OR SWAP1 SSTORE POP TIMESTAMP PUSH1 0x1 DUP2 SWAP1 SSTORE POP PUSH2 0x76 JUMP JUMPDEST PUSH32 0x4E487B7100000000000000000000000000000000000000000000000000000000 PUSH1 0x0 MSTORE PUSH1 0x21 PUSH1 0x4 MSTORE PUSH1 0x24 PUSH1 0x0 REVERT JUMPDEST PUSH2 0x36A DUP1 PUSH2 0x85 PUSH1 0x0 CODECOPY PUSH1 0x0 RETURN INVALID PUSH1 0x80 PUSH1 0x40 MSTORE CALLVALUE DUP1 ISZERO PUSH2 0x10 JUMPI PUSH1 0x0 DUP1 REVERT JUMPDEST POP PUSH1 0x4 CALLDATASIZE LT PUSH2 0x41 JUMPI PUSH1 0x0 CALLDATALOAD PUSH1 0xE0 SHR DUP1 PUSH4 0x84ECDAF6 EQ PUSH2 0x46 JUMPI DUP1 PUSH4 0xC040E6B8 EQ PUSH2 0x50 JUMPI DUP1 PUSH4 0xD95660BE EQ PUSH2 0x6E JUMPI JUMPDEST PUSH1 0x0 DUP1 REVERT JUMPDEST PUSH2 0x4E PUSH2 0x8C JUMP JUMPDEST STOP JUMPDEST PUSH2 0x58 PUSH2 0x1F4 JUMP JUMPDEST PUSH1 0x40 MLOAD PUSH2 0x65 SWAP2 SWAP1 PUSH2 0x282 JUMP JUMPDEST PUSH1 0x40 MLOAD DUP1 SWAP2 SUB SWAP1 RETURN JUMPDEST PUSH2 0x76 PUSH2 0x205 JUMP JUMPDEST PUSH1 0x40 MLOAD PUSH2 0x83 SWAP2 SWAP1 PUSH2 0x2B6 JUMP JUMPDEST PUSH1 0x40 MLOAD DUP1 SWAP2 SUB SWAP1 RETURN JUMPDEST TIMESTAMP PUSH1 0x2 DUP2 SWAP1 SSTORE POP PUSH1 0x2 PUSH1 0x1 SLOAD PUSH2 0xA2 SWAP2 SWAP1 PUSH2 0x300 JUMP JUMPDEST PUSH1 0x2 SLOAD GT ISZERO PUSH2 0x1F1 JUMPI PUSH1 0x2 SLOAD PUSH1 0x1 DUP2 SWAP1 SSTORE POP PUSH1 0x0 PUSH1 0x3 DUP2 GT ISZERO PUSH2 0xC8 JUMPI PUSH2 0xC7 PUSH2 0x20B JUMP JUMPDEST JUMPDEST PUSH1 0x0 DUP1 SLOAD SWAP1 PUSH2 0x100 EXP SWAP1 DIV PUSH1 0xFF AND PUSH1 0x3 DUP2 GT ISZERO PUSH2 0xE8 JUMPI PUSH2 0xE7 PUSH2 0x20B JUMP JUMPDEST JUMPDEST SUB PUSH2 0x11C JUMPI PUSH1 0x1 PUSH1 0x0 DUP1 PUSH2 0x100 EXP DUP2 SLOAD DUP2 PUSH1 0xFF MUL NOT AND SWAP1 DUP4 PUSH1 0x3 DUP2 GT ISZERO PUSH2 0x112 JUMPI PUSH2 0x111 PUSH2 0x20B JUMP JUMPDEST JUMPDEST MUL OR SWAP1 SSTORE POP PUSH2 0x1F2 JUMP JUMPDEST PUSH1 0x1 PUSH1 0x3 DUP2 GT ISZERO PUSH2 0x130 JUMPI PUSH2 0x12F PUSH2 0x20B JUMP JUMPDEST JUMPDEST PUSH1 0x0 DUP1 SLOAD SWAP1 PUSH2 0x100 EXP SWAP1 DIV PUSH1 0xFF AND PUSH1 0x3 DUP2 GT ISZERO PUSH2 0x150 JUMPI PUSH2 0x14F PUSH2 0x20B JUMP JUMPDEST JUMPDEST SUB PUSH2 0x184 JUMPI PUSH1 0x2 PUSH1 0x0 DUP1 PUSH2 0x100 EXP DUP2 SLOAD DUP2 PUSH1 0xFF MUL NOT AND SWAP1 DUP4 PUSH1 0x3 DUP2 GT ISZERO PUSH2 0x17A JUMPI PUSH2 0x179 PUSH2 0x20B JUMP JUMPDEST JUMPDEST MUL OR SWAP1 SSTORE POP PUSH2 0x1F2 JUMP JUMPDEST PUSH1 0x2 PUSH1 0x3 DUP2 GT ISZERO PUSH2 0x198 JUMPI PUSH2 0x197 PUSH2 0x20B JUMP JUMPDEST JUMPDEST PUSH1 0x0 DUP1 SLOAD SWAP1 PUSH2 0x100 EXP SWAP1 DIV PUSH1 0xFF AND PUSH1 0x3 DUP2 GT ISZERO PUSH2 0x1B8 JUMPI PUSH2 0x1B7 PUSH2 0x20B JUMP JUMPDEST JUMPDEST SUB PUSH2 0x1EC JUMPI PUSH1 0x3 PUSH1 0x0 DUP1 PUSH2 0x100 EXP DUP2 SLOAD DUP2 PUSH1 0xFF MUL NOT AND SWAP1 DUP4 PUSH1 0x3 DUP2 GT ISZERO PUSH2 0x1E2 JUMPI PUSH2 0x1E1 PUSH2 0x20B JUMP JUMPDEST JUMPDEST MUL OR SWAP1 SSTORE POP PUSH2 0x1F2 JUMP JUMPDEST PUSH2 0x1F2 JUMP JUMPDEST JUMPDEST JUMP JUMPDEST PUSH1 0x0 DUP1 SLOAD SWAP1 PUSH2 0x100 EXP SWAP1 DIV PUSH1 0xFF AND DUP2 JUMP JUMPDEST PUSH1 0x2 SLOAD DUP2 JUMP JUMPDEST PUSH32 0x4E487B7100000000000000000000000000000000000000000000000000000000 PUSH1 0x0 MSTORE PUSH1 0x21 PUSH1 0x4 MSTORE PUSH1 0x24 PUSH1 0x0 REVERT JUMPDEST PUSH1 0x4 DUP2 LT PUSH2 0x24B JUMPI PUSH2 0x24A PUSH2 0x20B JUMP JUMPDEST JUMPDEST POP JUMP JUMPDEST PUSH1 0x0 DUP2 SWAP1 POP PUSH2 0x25C DUP3 PUSH2 0x23A JUMP JUMPDEST SWAP2 SWAP1 POP JUMP JUMPDEST PUSH1 0x0 PUSH2 0x26C DUP3 PUSH2 0x24E JUMP JUMPDEST SWAP1 POP SWAP2 SWAP1 POP JUMP JUMPDEST PUSH2 0x27C DUP2 PUSH2 0x261 JUMP JUMPDEST DUP3 MSTORE POP POP JUMP JUMPDEST PUSH1 0x0 PUSH1 0x20 DUP3 ADD SWAP1 POP PUSH2 0x297 PUSH1 0x0 DUP4 ADD DUP5 PUSH2 0x273 JUMP JUMPDEST SWAP3 SWAP2 POP POP JUMP JUMPDEST PUSH1 0x0 DUP2 SWAP1 POP SWAP2 SWAP1 POP JUMP JUMPDEST PUSH2 0x2B0 DUP2 PUSH2 0x29D JUMP JUMPDEST DUP3 MSTORE POP POP JUMP JUMPDEST PUSH1 0x0 PUSH1 0x20 DUP3 ADD SWAP1 POP PUSH2 0x2CB PUSH1 0x0 DUP4 ADD DUP5 PUSH2 0x2A7 JUMP JUMPDEST SWAP3 SWAP2 POP POP JUMP JUMPDEST PUSH32 0x4E487B7100000000000000000000000000000000000000000000000000000000 PUSH1 0x0 MSTORE PUSH1 0x11 PUSH1 0x4 MSTORE PUSH1 0x24 PUSH1 0x0 REVERT JUMPDEST PUSH1 0x0 PUSH2 0x30B DUP3 PUSH2 0x29D JUMP JUMPDEST SWAP2 POP PUSH2 0x316 DUP4 PUSH2 0x29D JUMP JUMPDEST SWAP3 POP DUP3 DUP3 ADD SWAP1 POP DUP1 DUP3 GT ISZERO PUSH2 0x32E JUMPI PUSH2 0x32D PUSH2 0x2D1 JUMP JUMPDEST JUMPDEST SWAP3 SWAP2 POP POP JUMP INVALID LOG2 PUSH5 0x6970667358 0x22 SLT KECCAK256 0xC4 0xC9 PUSH9 0x5D9567E867A2989786 CALLVALUE CALLER 0xC2 DUP15 PUSH19 0xE9F49049B102E41112CE387E27341064736F6C PUSH4 0x43000813 STOP CALLER "
				},
				"gasEstimates": {
					"creation": {
						"codeDepositCost": "174800",
						"executionCost": "46632",
						"totalCost": "221432"
					},
					"external": {
						"advanceState()": "infinite",
						"stage()": "2557",
						"timeNow()": "2451"
					}
				},
				"methodIdentifiers": {
					"advanceState()": "84ecdaf6",
					"stage()": "c040e6b8",
					"timeNow()": "d95660be"
				}
			},
			"storageLayout": {
				"storage": [
					{
						"astId": 9,
						"contract": "Lab7/StateTrans.sol:StateTransV2",
						"label": "stage",
						"offset": 0,
						"slot": "0",
						"type": "t_enum(Stage)6"
					},
					{
						"astId": 11,
						"contract": "Lab7/StateTrans.sol:StateTransV2",
						"label": "startTime",
						"offset": 0,
						"slot": "1",
						"type": "t_uint256"
					},
					{
						"astId": 13,
						"contract": "Lab7/StateTrans.sol:StateTransV2",
						"label": "timeNow",
						"offset": 0,
						"slot": "2",
						"type": "t_uint256"
					}
				],
				"types": {
					"t_enum(Stage)6": {
						"encoding": "inplace",
						"label": "enum StateTransV2.Stage",
						"numberOfBytes": "1"
					},
					"t_uint256": {
						"encoding": "inplace",
						"label": "uint256",
						"numberOfBytes": "32"
					}
				}
			},
			"userdoc": {
				"kind": "user",
				"methods": {},
				"version": 1
			}
		}
	}
}