{
	"Lab7/BallotWithStage.sol": {
		"Ballot": {
			"abi": [
				{
					"inputs": [],
					"stateMutability": "nonpayable",
					"type": "constructor"
				},
				{
					"inputs": [],
					"name": "VoterCount",
					"outputs": [
						{
							"internalType": "uint256",
							"name": "",
							"type": "uint256"
						}
					],
					"stateMutability": "view",
					"type": "function"
				},
				{
					"inputs": [
						{
							"internalType": "uint256",
							"name": "_id",
							"type": "uint256"
						},
						{
							"internalType": "string",
							"name": "_subjectProposal",
							"type": "string"
						}
					],
					"name": "addProposalDetail",
					"outputs": [],
					"stateMutability": "nonpayable",
					"type": "function"
				},
				{
					"inputs": [],
					"name": "chairperson",
					"outputs": [
						{
							"internalType": "address",
							"name": "",
							"type": "address"
						}
					],
					"stateMutability": "view",
					"type": "function"
				},
				{
					"inputs": [],
					"name": "changeStateToReg",
					"outputs": [
						{
							"internalType": "enum Ballot.Stage",
							"name": "",
							"type": "uint8"
						}
					],
					"stateMutability": "nonpayable",
					"type": "function"
				},
				{
					"inputs": [],
					"name": "proposalCount",
					"outputs": [
						{
							"internalType": "uint256",
							"name": "",
							"type": "uint256"
						}
					],
					"stateMutability": "view",
					"type": "function"
				},
				{
					"inputs": [
						{
							"internalType": "uint256",
							"name": "",
							"type": "uint256"
						}
					],
					"name": "proposals",
					"outputs": [
						{
							"internalType": "uint256",
							"name": "proposalID",
							"type": "uint256"
						},
						{
							"internalType": "string",
							"name": "topic",
							"type": "string"
						},
						{
							"internalType": "uint256",
							"name": "voteCount",
							"type": "uint256"
						}
					],
					"stateMutability": "view",
					"type": "function"
				},
				{
					"inputs": [
						{
							"internalType": "address",
							"name": "toVoter",
							"type": "address"
						}
					],
					"name": "register",
					"outputs": [],
					"stateMutability": "nonpayable",
					"type": "function"
				},
				{
					"inputs": [],
					"name": "stage",
					"outputs": [
						{
							"internalType": "enum Ballot.Stage",
							"name": "",
							"type": "uint8"
						}
					],
					"stateMutability": "view",
					"type": "function"
				},
				{
					"inputs": [
						{
							"internalType": "uint8",
							"name": "toProposal",
							"type": "uint8"
						}
					],
					"name": "vote",
					"outputs": [],
					"stateMutability": "nonpayable",
					"type": "function"
				},
				{
					"inputs": [
						{
							"internalType": "address",
							"name": "",
							"type": "address"
						}
					],
					"name": "voters",
					"outputs": [
						{
							"internalType": "uint256",
							"name": "weight",
							"type": "uint256"
						},
						{
							"internalType": "bool",
							"name": "voted",
							"type": "bool"
						},
						{
							"internalType": "uint8",
							"name": "vote",
							"type": "uint8"
						}
					],
					"stateMutability": "view",
					"type": "function"
				},
				{
					"inputs": [],
					"name": "winningProposal",
					"outputs": [
						{
							"internalType": "uint8",
							"name": "_winningProposal",
							"type": "uint8"
						}
					],
					"stateMutability": "view",
					"type": "function"
				}
			],
			"devdoc": {
				"kind": "dev",
				"methods": {},
				"version": 1
			},
			"evm": {
				"assembly": "    /* \"Lab7/BallotWithStage.sol\":56:2943  contract Ballot {... */\n  mstore(0x40, 0x80)\n    /* \"Lab7/BallotWithStage.sol\":407:408  0 */\n  0x00\n    /* \"Lab7/BallotWithStage.sol\":376:408  uint256 public proposalCount = 0 */\n  0x01\n  sstore\n    /* \"Lab7/BallotWithStage.sol\":442:443  0 */\n  0x00\n    /* \"Lab7/BallotWithStage.sol\":414:443  uint256 public VoterCount = 0 */\n  0x02\n  sstore\n    /* \"Lab7/BallotWithStage.sol\":644:804  constructor() {... */\n  callvalue\n  dup1\n  iszero\n  tag_1\n  jumpi\n  0x00\n  dup1\n  revert\ntag_1:\n  pop\n    /* \"Lab7/BallotWithStage.sol\":682:692  msg.sender */\n  caller\n    /* \"Lab7/BallotWithStage.sol\":668:679  chairperson */\n  0x03\n  0x00\n    /* \"Lab7/BallotWithStage.sol\":668:692  chairperson = msg.sender */\n  0x0100\n  exp\n  dup2\n  sload\n  dup2\n  0xffffffffffffffffffffffffffffffffffffffff\n  mul\n  not\n  and\n  swap1\n  dup4\n  0xffffffffffffffffffffffffffffffffffffffff\n  and\n  mul\n  or\n  swap1\n  sstore\n  pop\n    /* \"Lab7/BallotWithStage.sol\":731:732  2 */\n  0x02\n    /* \"Lab7/BallotWithStage.sol\":702:708  voters */\n  0x05\n    /* \"Lab7/BallotWithStage.sol\":702:721  voters[chairperson] */\n  0x00\n    /* \"Lab7/BallotWithStage.sol\":709:720  chairperson */\n  0x03\n  0x00\n  swap1\n  sload\n  swap1\n  0x0100\n  exp\n  swap1\n  div\n  0xffffffffffffffffffffffffffffffffffffffff\n  and\n    /* \"Lab7/BallotWithStage.sol\":702:721  voters[chairperson] */\n  0xffffffffffffffffffffffffffffffffffffffff\n  and\n  0xffffffffffffffffffffffffffffffffffffffff\n  and\n  dup2\n  mstore\n  0x20\n  add\n  swap1\n  dup2\n  mstore\n  0x20\n  add\n  0x00\n  keccak256\n    /* \"Lab7/BallotWithStage.sol\":702:728  voters[chairperson].weight */\n  0x00\n  add\n    /* \"Lab7/BallotWithStage.sol\":702:732  voters[chairperson].weight = 2 */\n  dup2\n  swap1\n  sstore\n  pop\n    /* \"Lab7/BallotWithStage.sol\":750:760  Stage.Init */\n  0x00\n    /* \"Lab7/BallotWithStage.sol\":742:747  stage */\n  dup1\n  0x00\n    /* \"Lab7/BallotWithStage.sol\":742:760  stage = Stage.Init */\n  0x0100\n  exp\n  dup2\n  sload\n  dup2\n  0xff\n  mul\n  not\n  and\n  swap1\n  dup4\n  0x03\n  dup2\n  gt\n  iszero\n  tag_4\n  jumpi\n  tag_5\n  tag_6\n  jump\t// in\ntag_5:\ntag_4:\n  mul\n  or\n  swap1\n  sstore\n  pop\n    /* \"Lab7/BallotWithStage.sol\":782:797  block.timestamp */\n  timestamp\n    /* \"Lab7/BallotWithStage.sol\":770:779  startTime */\n  0x04\n    /* \"Lab7/BallotWithStage.sol\":770:797  startTime = block.timestamp */\n  dup2\n  swap1\n  sstore\n  pop\n    /* \"Lab7/BallotWithStage.sol\":56:2943  contract Ballot {... */\n  jump(tag_7)\n    /* \"#utility.yul\":7:187   */\ntag_6:\n    /* \"#utility.yul\":55:132   */\n  0x4e487b7100000000000000000000000000000000000000000000000000000000\n    /* \"#utility.yul\":52:53   */\n  0x00\n    /* \"#utility.yul\":45:133   */\n  mstore\n    /* \"#utility.yul\":152:156   */\n  0x21\n    /* \"#utility.yul\":149:150   */\n  0x04\n    /* \"#utility.yul\":142:157   */\n  mstore\n    /* \"#utility.yul\":176:180   */\n  0x24\n    /* \"#utility.yul\":173:174   */\n  0x00\n    /* \"#utility.yul\":166:181   */\n  revert\n    /* \"Lab7/BallotWithStage.sol\":56:2943  contract Ballot {... */\ntag_7:\n  dataSize(sub_0)\n  dup1\n  dataOffset(sub_0)\n  0x00\n  codecopy\n  0x00\n  return\nstop\n\nsub_0: assembly {\n        /* \"Lab7/BallotWithStage.sol\":56:2943  contract Ballot {... */\n      mstore(0x40, 0x80)\n      callvalue\n      dup1\n      iszero\n      tag_1\n      jumpi\n      0x00\n      dup1\n      revert\n    tag_1:\n      pop\n      jumpi(tag_2, lt(calldatasize, 0x04))\n      shr(0xe0, calldataload(0x00))\n      dup1\n      0x585cc4c4\n      gt\n      tag_14\n      jumpi\n      dup1\n      0x585cc4c4\n      eq\n      tag_8\n      jumpi\n      dup1\n      0x609ff1bd\n      eq\n      tag_9\n      jumpi\n      dup1\n      0xa3ec138d\n      eq\n      tag_10\n      jumpi\n      dup1\n      0xb3f98adc\n      eq\n      tag_11\n      jumpi\n      dup1\n      0xc040e6b8\n      eq\n      tag_12\n      jumpi\n      dup1\n      0xda35c664\n      eq\n      tag_13\n      jumpi\n      jump(tag_2)\n    tag_14:\n      dup1\n      0x013cf08b\n      eq\n      tag_3\n      jumpi\n      dup1\n      0x0fae671e\n      eq\n      tag_4\n      jumpi\n      dup1\n      0x2e4176cf\n      eq\n      tag_5\n      jumpi\n      dup1\n      0x2e46fb9a\n      eq\n      tag_6\n      jumpi\n      dup1\n      0x4420e486\n      eq\n      tag_7\n      jumpi\n    tag_2:\n      0x00\n      dup1\n      revert\n        /* \"Lab7/BallotWithStage.sol\":610:637  Proposal[] public proposals */\n    tag_3:\n      tag_15\n      0x04\n      dup1\n      calldatasize\n      sub\n      dup2\n      add\n      swap1\n      tag_16\n      swap2\n      swap1\n      tag_17\n      jump\t// in\n    tag_16:\n      tag_18\n      jump\t// in\n    tag_15:\n      mload(0x40)\n      tag_19\n      swap4\n      swap3\n      swap2\n      swap1\n      tag_20\n      jump\t// in\n    tag_19:\n      mload(0x40)\n      dup1\n      swap2\n      sub\n      swap1\n      return\n        /* \"Lab7/BallotWithStage.sol\":810:916  function changeStateToReg() public returns (Stage){... */\n    tag_4:\n      tag_21\n      tag_22\n      jump\t// in\n    tag_21:\n      mload(0x40)\n      tag_23\n      swap2\n      swap1\n      tag_24\n      jump\t// in\n    tag_23:\n      mload(0x40)\n      dup1\n      swap2\n      sub\n      swap1\n      return\n        /* \"Lab7/BallotWithStage.sol\":449:475  address public chairperson */\n    tag_5:\n      tag_25\n      tag_26\n      jump\t// in\n    tag_25:\n      mload(0x40)\n      tag_27\n      swap2\n      swap1\n      tag_28\n      jump\t// in\n    tag_27:\n      mload(0x40)\n      dup1\n      swap2\n      sub\n      swap1\n      return\n        /* \"Lab7/BallotWithStage.sol\":414:443  uint256 public VoterCount = 0 */\n    tag_6:\n      tag_29\n      tag_30\n      jump\t// in\n    tag_29:\n      mload(0x40)\n      tag_31\n      swap2\n      swap1\n      tag_32\n      jump\t// in\n    tag_31:\n      mload(0x40)\n      dup1\n      swap2\n      sub\n      swap1\n      return\n        /* \"Lab7/BallotWithStage.sol\":1449:1908  function register(address toVoter) public validStage(Stage.Reg) {... */\n    tag_7:\n      tag_33\n      0x04\n      dup1\n      calldatasize\n      sub\n      dup2\n      add\n      swap1\n      tag_34\n      swap2\n      swap1\n      tag_35\n      jump\t// in\n    tag_34:\n      tag_36\n      jump\t// in\n    tag_33:\n      stop\n        /* \"Lab7/BallotWithStage.sol\":922:1136  function addProposalDetail(uint256 _id, string memory _subjectProposal)... */\n    tag_8:\n      tag_37\n      0x04\n      dup1\n      calldatasize\n      sub\n      dup2\n      add\n      swap1\n      tag_38\n      swap2\n      swap1\n      tag_39\n      jump\t// in\n    tag_38:\n      tag_40\n      jump\t// in\n    tag_37:\n      stop\n        /* \"Lab7/BallotWithStage.sol\":2477:2941  function winningProposal()... */\n    tag_9:\n      tag_41\n      tag_42\n      jump\t// in\n    tag_41:\n      mload(0x40)\n      tag_43\n      swap2\n      swap1\n      tag_44\n      jump\t// in\n    tag_43:\n      mload(0x40)\n      dup1\n      swap2\n      sub\n      swap1\n      return\n        /* \"Lab7/BallotWithStage.sol\":564:603  mapping(address => Voter) public voters */\n    tag_10:\n      tag_45\n      0x04\n      dup1\n      calldatasize\n      sub\n      dup2\n      add\n      swap1\n      tag_46\n      swap2\n      swap1\n      tag_35\n      jump\t// in\n    tag_46:\n      tag_47\n      jump\t// in\n    tag_45:\n      mload(0x40)\n      tag_48\n      swap4\n      swap3\n      swap2\n      swap1\n      tag_49\n      jump\t// in\n    tag_48:\n      mload(0x40)\n      dup1\n      swap2\n      sub\n      swap1\n      return\n        /* \"Lab7/BallotWithStage.sol\":2008:2471  function vote(uint8 toProposal) public validStage(Stage.Vote) {... */\n    tag_11:\n      tag_50\n      0x04\n      dup1\n      calldatasize\n      sub\n      dup2\n      add\n      swap1\n      tag_51\n      swap2\n      swap1\n      tag_52\n      jump\t// in\n    tag_51:\n      tag_53\n      jump\t// in\n    tag_50:\n      stop\n        /* \"Lab7/BallotWithStage.sol\":352:370  Stage public stage */\n    tag_12:\n      tag_54\n      tag_55\n      jump\t// in\n    tag_54:\n      mload(0x40)\n      tag_56\n      swap2\n      swap1\n      tag_24\n      jump\t// in\n    tag_56:\n      mload(0x40)\n      dup1\n      swap2\n      sub\n      swap1\n      return\n        /* \"Lab7/BallotWithStage.sol\":376:408  uint256 public proposalCount = 0 */\n    tag_13:\n      tag_57\n      tag_58\n      jump\t// in\n    tag_57:\n      mload(0x40)\n      tag_59\n      swap2\n      swap1\n      tag_32\n      jump\t// in\n    tag_59:\n      mload(0x40)\n      dup1\n      swap2\n      sub\n      swap1\n      return\n        /* \"Lab7/BallotWithStage.sol\":610:637  Proposal[] public proposals */\n    tag_18:\n      0x06\n      dup2\n      dup2\n      sload\n      dup2\n      lt\n      tag_60\n      jumpi\n      0x00\n      dup1\n      revert\n    tag_60:\n      swap1\n      0x00\n      mstore\n      keccak256(0x00, 0x20)\n      swap1\n      0x03\n      mul\n      add\n      0x00\n      swap2\n      pop\n      swap1\n      pop\n      dup1\n      0x00\n      add\n      sload\n      swap1\n      dup1\n      0x01\n      add\n      dup1\n      sload\n      tag_62\n      swap1\n      tag_63\n      jump\t// in\n    tag_62:\n      dup1\n      0x1f\n      add\n      0x20\n      dup1\n      swap2\n      div\n      mul\n      0x20\n      add\n      mload(0x40)\n      swap1\n      dup2\n      add\n      0x40\n      mstore\n      dup1\n      swap3\n      swap2\n      swap1\n      dup2\n      dup2\n      mstore\n      0x20\n      add\n      dup3\n      dup1\n      sload\n      tag_64\n      swap1\n      tag_63\n      jump\t// in\n    tag_64:\n      dup1\n      iszero\n      tag_65\n      jumpi\n      dup1\n      0x1f\n      lt\n      tag_66\n      jumpi\n      0x0100\n      dup1\n      dup4\n      sload\n      div\n      mul\n      dup4\n      mstore\n      swap2\n      0x20\n      add\n      swap2\n      jump(tag_65)\n    tag_66:\n      dup3\n      add\n      swap2\n      swap1\n      0x00\n      mstore\n      keccak256(0x00, 0x20)\n      swap1\n    tag_67:\n      dup2\n      sload\n      dup2\n      mstore\n      swap1\n      0x01\n      add\n      swap1\n      0x20\n      add\n      dup1\n      dup4\n      gt\n      tag_67\n      jumpi\n      dup3\n      swap1\n      sub\n      0x1f\n      and\n      dup3\n      add\n      swap2\n    tag_65:\n      pop\n      pop\n      pop\n      pop\n      pop\n      swap1\n      dup1\n      0x02\n      add\n      sload\n      swap1\n      pop\n      dup4\n      jump\t// out\n        /* \"Lab7/BallotWithStage.sol\":810:916  function changeStateToReg() public returns (Stage){... */\n    tag_22:\n        /* \"Lab7/BallotWithStage.sol\":854:859  Stage */\n      0x00\n        /* \"Lab7/BallotWithStage.sol\":878:887  Stage.Reg */\n      0x01\n        /* \"Lab7/BallotWithStage.sol\":870:875  stage */\n      0x00\n      dup1\n        /* \"Lab7/BallotWithStage.sol\":870:887  stage = Stage.Reg */\n      0x0100\n      exp\n      dup2\n      sload\n      dup2\n      0xff\n      mul\n      not\n      and\n      swap1\n      dup4\n      0x03\n      dup2\n      gt\n      iszero\n      tag_69\n      jumpi\n      tag_70\n      tag_71\n      jump\t// in\n    tag_70:\n    tag_69:\n      mul\n      or\n      swap1\n      sstore\n      pop\n        /* \"Lab7/BallotWithStage.sol\":904:909  stage */\n      0x00\n      dup1\n      sload\n      swap1\n      0x0100\n      exp\n      swap1\n      div\n      0xff\n      and\n        /* \"Lab7/BallotWithStage.sol\":897:909  return stage */\n      swap1\n      pop\n        /* \"Lab7/BallotWithStage.sol\":810:916  function changeStateToReg() public returns (Stage){... */\n      swap1\n      jump\t// out\n        /* \"Lab7/BallotWithStage.sol\":449:475  address public chairperson */\n    tag_26:\n      0x03\n      0x00\n      swap1\n      sload\n      swap1\n      0x0100\n      exp\n      swap1\n      div\n      0xffffffffffffffffffffffffffffffffffffffff\n      and\n      dup2\n      jump\t// out\n        /* \"Lab7/BallotWithStage.sol\":414:443  uint256 public VoterCount = 0 */\n    tag_30:\n      sload(0x02)\n      dup2\n      jump\t// out\n        /* \"Lab7/BallotWithStage.sol\":1449:1908  function register(address toVoter) public validStage(Stage.Reg) {... */\n    tag_36:\n        /* \"Lab7/BallotWithStage.sol\":1502:1511  Stage.Reg */\n      0x01\n        /* \"Lab7/BallotWithStage.sol\":1221:1229  reqStage */\n      dup1\n        /* \"Lab7/BallotWithStage.sol\":1212:1229  stage == reqStage */\n      0x03\n      dup2\n      gt\n      iszero\n      tag_73\n      jumpi\n      tag_74\n      tag_71\n      jump\t// in\n    tag_74:\n    tag_73:\n        /* \"Lab7/BallotWithStage.sol\":1212:1217  stage */\n      0x00\n      dup1\n      sload\n      swap1\n      0x0100\n      exp\n      swap1\n      div\n      0xff\n      and\n        /* \"Lab7/BallotWithStage.sol\":1212:1229  stage == reqStage */\n      0x03\n      dup2\n      gt\n      iszero\n      tag_75\n      jumpi\n      tag_76\n      tag_71\n      jump\t// in\n    tag_76:\n    tag_75:\n      eq\n        /* \"Lab7/BallotWithStage.sol\":1204:1230  require(stage == reqStage) */\n      tag_77\n      jumpi\n      0x00\n      dup1\n      revert\n    tag_77:\n        /* \"Lab7/BallotWithStage.sol\":1611:1622  chairperson */\n      0x03\n      0x00\n      swap1\n      sload\n      swap1\n      0x0100\n      exp\n      swap1\n      div\n      0xffffffffffffffffffffffffffffffffffffffff\n      and\n        /* \"Lab7/BallotWithStage.sol\":1597:1622  msg.sender != chairperson */\n      0xffffffffffffffffffffffffffffffffffffffff\n      and\n        /* \"Lab7/BallotWithStage.sol\":1597:1607  msg.sender */\n      caller\n        /* \"Lab7/BallotWithStage.sol\":1597:1622  msg.sender != chairperson */\n      0xffffffffffffffffffffffffffffffffffffffff\n      and\n      eq\n      iszero\n        /* \"Lab7/BallotWithStage.sol\":1597:1655  msg.sender != chairperson || voters[toVoter].voted == true */\n      dup1\n      tag_79\n      jumpi\n      pop\n        /* \"Lab7/BallotWithStage.sol\":1651:1655  true */\n      0x01\n        /* \"Lab7/BallotWithStage.sol\":1626:1655  voters[toVoter].voted == true */\n      iszero\n      iszero\n        /* \"Lab7/BallotWithStage.sol\":1626:1632  voters */\n      0x05\n        /* \"Lab7/BallotWithStage.sol\":1626:1641  voters[toVoter] */\n      0x00\n        /* \"Lab7/BallotWithStage.sol\":1633:1640  toVoter */\n      dup5\n        /* \"Lab7/BallotWithStage.sol\":1626:1641  voters[toVoter] */\n      0xffffffffffffffffffffffffffffffffffffffff\n      and\n      0xffffffffffffffffffffffffffffffffffffffff\n      and\n      dup2\n      mstore\n      0x20\n      add\n      swap1\n      dup2\n      mstore\n      0x20\n      add\n      0x00\n      keccak256\n        /* \"Lab7/BallotWithStage.sol\":1626:1647  voters[toVoter].voted */\n      0x01\n      add\n      0x00\n      swap1\n      sload\n      swap1\n      0x0100\n      exp\n      swap1\n      div\n      0xff\n      and\n        /* \"Lab7/BallotWithStage.sol\":1626:1655  voters[toVoter].voted == true */\n      iszero\n      iszero\n      eq\n        /* \"Lab7/BallotWithStage.sol\":1597:1655  msg.sender != chairperson || voters[toVoter].voted == true */\n    tag_79:\n        /* \"Lab7/BallotWithStage.sol\":1657:1664  return; */\n      tag_78\n        /* \"Lab7/BallotWithStage.sol\":1593:1664  if (msg.sender != chairperson || voters[toVoter].voted == true) return; */\n      jumpi\n        /* \"Lab7/BallotWithStage.sol\":1698:1699  1 */\n      0x01\n        /* \"Lab7/BallotWithStage.sol\":1673:1679  voters */\n      0x05\n        /* \"Lab7/BallotWithStage.sol\":1673:1688  voters[toVoter] */\n      0x00\n        /* \"Lab7/BallotWithStage.sol\":1680:1687  toVoter */\n      dup5\n        /* \"Lab7/BallotWithStage.sol\":1673:1688  voters[toVoter] */\n      0xffffffffffffffffffffffffffffffffffffffff\n      and\n      0xffffffffffffffffffffffffffffffffffffffff\n      and\n      dup2\n      mstore\n      0x20\n      add\n      swap1\n      dup2\n      mstore\n      0x20\n      add\n      0x00\n      keccak256\n        /* \"Lab7/BallotWithStage.sol\":1673:1695  voters[toVoter].weight */\n      0x00\n      add\n        /* \"Lab7/BallotWithStage.sol\":1673:1699  voters[toVoter].weight = 1 */\n      dup2\n      swap1\n      sstore\n      pop\n        /* \"Lab7/BallotWithStage.sol\":1733:1738  false */\n      0x00\n        /* \"Lab7/BallotWithStage.sol\":1709:1715  voters */\n      0x05\n        /* \"Lab7/BallotWithStage.sol\":1709:1724  voters[toVoter] */\n      0x00\n        /* \"Lab7/BallotWithStage.sol\":1716:1723  toVoter */\n      dup5\n        /* \"Lab7/BallotWithStage.sol\":1709:1724  voters[toVoter] */\n      0xffffffffffffffffffffffffffffffffffffffff\n      and\n      0xffffffffffffffffffffffffffffffffffffffff\n      and\n      dup2\n      mstore\n      0x20\n      add\n      swap1\n      dup2\n      mstore\n      0x20\n      add\n      0x00\n      keccak256\n        /* \"Lab7/BallotWithStage.sol\":1709:1730  voters[toVoter].voted */\n      0x01\n      add\n      0x00\n        /* \"Lab7/BallotWithStage.sol\":1709:1738  voters[toVoter].voted = false */\n      0x0100\n      exp\n      dup2\n      sload\n      dup2\n      0xff\n      mul\n      not\n      and\n      swap1\n      dup4\n      iszero\n      iszero\n      mul\n      or\n      swap1\n      sstore\n      pop\n        /* \"Lab7/BallotWithStage.sol\":1748:1758  VoterCount */\n      0x02\n      0x00\n        /* \"Lab7/BallotWithStage.sol\":1748:1760  VoterCount++ */\n      dup2\n      sload\n      dup1\n      swap3\n      swap2\n      swap1\n      tag_81\n      swap1\n      tag_82\n      jump\t// in\n    tag_81:\n      swap2\n      swap1\n      pop\n      sstore\n      pop\n        /* \"Lab7/BallotWithStage.sol\":1805:1815  30 seconds */\n      0x1e\n        /* \"Lab7/BallotWithStage.sol\":1793:1802  startTime */\n      sload(0x04)\n        /* \"Lab7/BallotWithStage.sol\":1793:1815  startTime + 30 seconds */\n      tag_83\n      swap2\n      swap1\n      tag_84\n      jump\t// in\n    tag_83:\n        /* \"Lab7/BallotWithStage.sol\":1774:1789  block.timestamp */\n      timestamp\n        /* \"Lab7/BallotWithStage.sol\":1774:1816  block.timestamp > (startTime + 30 seconds) */\n      gt\n        /* \"Lab7/BallotWithStage.sol\":1770:1902  if (block.timestamp > (startTime + 30 seconds)) {... */\n      iszero\n      tag_85\n      jumpi\n        /* \"Lab7/BallotWithStage.sol\":1840:1850  Stage.Vote */\n      0x02\n        /* \"Lab7/BallotWithStage.sol\":1832:1837  stage */\n      0x00\n      dup1\n        /* \"Lab7/BallotWithStage.sol\":1832:1850  stage = Stage.Vote */\n      0x0100\n      exp\n      dup2\n      sload\n      dup2\n      0xff\n      mul\n      not\n      and\n      swap1\n      dup4\n      0x03\n      dup2\n      gt\n      iszero\n      tag_86\n      jumpi\n      tag_87\n      tag_71\n      jump\t// in\n    tag_87:\n    tag_86:\n      mul\n      or\n      swap1\n      sstore\n      pop\n        /* \"Lab7/BallotWithStage.sol\":1876:1891  block.timestamp */\n      timestamp\n        /* \"Lab7/BallotWithStage.sol\":1864:1873  startTime */\n      0x04\n        /* \"Lab7/BallotWithStage.sol\":1864:1891  startTime = block.timestamp */\n      dup2\n      swap1\n      sstore\n      pop\n        /* \"Lab7/BallotWithStage.sol\":1770:1902  if (block.timestamp > (startTime + 30 seconds)) {... */\n    tag_85:\n        /* \"Lab7/BallotWithStage.sol\":1240:1241  _ */\n    tag_78:\n        /* \"Lab7/BallotWithStage.sol\":1449:1908  function register(address toVoter) public validStage(Stage.Reg) {... */\n      pop\n      pop\n      jump\t// out\n        /* \"Lab7/BallotWithStage.sol\":922:1136  function addProposalDetail(uint256 _id, string memory _subjectProposal)... */\n    tag_40:\n        /* \"Lab7/BallotWithStage.sol\":1023:1040  Proposal memory b */\n      0x00\n        /* \"Lab7/BallotWithStage.sol\":1043:1077  Proposal(_id, _subjectProposal, 0) */\n      mload(0x40)\n      dup1\n      0x60\n      add\n      0x40\n      mstore\n      dup1\n        /* \"Lab7/BallotWithStage.sol\":1052:1055  _id */\n      dup5\n        /* \"Lab7/BallotWithStage.sol\":1043:1077  Proposal(_id, _subjectProposal, 0) */\n      dup2\n      mstore\n      0x20\n      add\n        /* \"Lab7/BallotWithStage.sol\":1057:1073  _subjectProposal */\n      dup4\n        /* \"Lab7/BallotWithStage.sol\":1043:1077  Proposal(_id, _subjectProposal, 0) */\n      dup2\n      mstore\n      0x20\n      add\n        /* \"Lab7/BallotWithStage.sol\":1075:1076  0 */\n      0x00\n        /* \"Lab7/BallotWithStage.sol\":1043:1077  Proposal(_id, _subjectProposal, 0) */\n      dup2\n      mstore\n      pop\n        /* \"Lab7/BallotWithStage.sol\":1023:1077  Proposal memory b = Proposal(_id, _subjectProposal, 0) */\n      swap1\n      pop\n        /* \"Lab7/BallotWithStage.sol\":1087:1096  proposals */\n      0x06\n        /* \"Lab7/BallotWithStage.sol\":1102:1103  b */\n      dup2\n        /* \"Lab7/BallotWithStage.sol\":1087:1104  proposals.push(b) */\n      swap1\n      dup1\n      0x01\n      dup2\n      sload\n      add\n      dup1\n      dup3\n      sstore\n      dup1\n      swap2\n      pop\n      pop\n      0x01\n      swap1\n      sub\n      swap1\n      0x00\n      mstore\n      keccak256(0x00, 0x20)\n      swap1\n      0x03\n      mul\n      add\n      0x00\n      swap1\n      swap2\n      swap1\n      swap2\n      swap1\n      swap2\n      pop\n      0x00\n      dup3\n      add\n      mload\n      dup2\n      0x00\n      add\n      sstore\n      0x20\n      dup3\n      add\n      mload\n      dup2\n      0x01\n      add\n      swap1\n      dup2\n      tag_90\n      swap2\n      swap1\n      tag_91\n      jump\t// in\n    tag_90:\n      pop\n      0x40\n      dup3\n      add\n      mload\n      dup2\n      0x02\n      add\n      sstore\n      pop\n      pop\n        /* \"Lab7/BallotWithStage.sol\":1114:1127  proposalCount */\n      0x01\n      0x00\n        /* \"Lab7/BallotWithStage.sol\":1114:1129  proposalCount++ */\n      dup2\n      sload\n      dup1\n      swap3\n      swap2\n      swap1\n      tag_92\n      swap1\n      tag_82\n      jump\t// in\n    tag_92:\n      swap2\n      swap1\n      pop\n      sstore\n      pop\n        /* \"Lab7/BallotWithStage.sol\":1013:1136  {... */\n      pop\n        /* \"Lab7/BallotWithStage.sol\":922:1136  function addProposalDetail(uint256 _id, string memory _subjectProposal)... */\n      pop\n      pop\n      jump\t// out\n        /* \"Lab7/BallotWithStage.sol\":2477:2941  function winningProposal()... */\n    tag_42:\n        /* \"Lab7/BallotWithStage.sol\":2580:2602  uint8 _winningProposal */\n      0x00\n        /* \"Lab7/BallotWithStage.sol\":2551:2561  Stage.Done */\n      0x03\n        /* \"Lab7/BallotWithStage.sol\":1221:1229  reqStage */\n      dup1\n        /* \"Lab7/BallotWithStage.sol\":1212:1229  stage == reqStage */\n      0x03\n      dup2\n      gt\n      iszero\n      tag_94\n      jumpi\n      tag_95\n      tag_71\n      jump\t// in\n    tag_95:\n    tag_94:\n        /* \"Lab7/BallotWithStage.sol\":1212:1217  stage */\n      0x00\n      dup1\n      sload\n      swap1\n      0x0100\n      exp\n      swap1\n      div\n      0xff\n      and\n        /* \"Lab7/BallotWithStage.sol\":1212:1229  stage == reqStage */\n      0x03\n      dup2\n      gt\n      iszero\n      tag_96\n      jumpi\n      tag_97\n      tag_71\n      jump\t// in\n    tag_97:\n    tag_96:\n      eq\n        /* \"Lab7/BallotWithStage.sol\":1204:1230  require(stage == reqStage) */\n      tag_98\n      jumpi\n      0x00\n      dup1\n      revert\n    tag_98:\n        /* \"Lab7/BallotWithStage.sol\":2662:2686  uint256 winningVoteCount */\n      0x00\n        /* \"Lab7/BallotWithStage.sol\":2706:2716  uint8 prop */\n      dup1\n        /* \"Lab7/BallotWithStage.sol\":2701:2935  for (uint8 prop = 0; prop < proposals.length; prop++)... */\n    tag_100:\n        /* \"Lab7/BallotWithStage.sol\":2729:2738  proposals */\n      0x06\n        /* \"Lab7/BallotWithStage.sol\":2729:2745  proposals.length */\n      dup1\n      sload\n      swap1\n      pop\n        /* \"Lab7/BallotWithStage.sol\":2722:2726  prop */\n      dup2\n        /* \"Lab7/BallotWithStage.sol\":2722:2745  prop < proposals.length */\n      0xff\n      and\n      lt\n        /* \"Lab7/BallotWithStage.sol\":2701:2935  for (uint8 prop = 0; prop < proposals.length; prop++)... */\n      iszero\n      tag_101\n      jumpi\n        /* \"Lab7/BallotWithStage.sol\":2799:2815  winningVoteCount */\n      dup2\n        /* \"Lab7/BallotWithStage.sol\":2771:2780  proposals */\n      0x06\n        /* \"Lab7/BallotWithStage.sol\":2781:2785  prop */\n      dup3\n        /* \"Lab7/BallotWithStage.sol\":2771:2786  proposals[prop] */\n      0xff\n      and\n      dup2\n      sload\n      dup2\n      lt\n      tag_103\n      jumpi\n      tag_104\n      tag_105\n      jump\t// in\n    tag_104:\n    tag_103:\n      swap1\n      0x00\n      mstore\n      keccak256(0x00, 0x20)\n      swap1\n      0x03\n      mul\n      add\n        /* \"Lab7/BallotWithStage.sol\":2771:2796  proposals[prop].voteCount */\n      0x02\n      add\n      sload\n        /* \"Lab7/BallotWithStage.sol\":2771:2815  proposals[prop].voteCount > winningVoteCount */\n      gt\n        /* \"Lab7/BallotWithStage.sol\":2767:2935  if (proposals[prop].voteCount > winningVoteCount) {... */\n      iszero\n      tag_107\n      jumpi\n        /* \"Lab7/BallotWithStage.sol\":2854:2863  proposals */\n      0x06\n        /* \"Lab7/BallotWithStage.sol\":2864:2868  prop */\n      dup2\n        /* \"Lab7/BallotWithStage.sol\":2854:2869  proposals[prop] */\n      0xff\n      and\n      dup2\n      sload\n      dup2\n      lt\n      tag_108\n      jumpi\n      tag_109\n      tag_105\n      jump\t// in\n    tag_109:\n    tag_108:\n      swap1\n      0x00\n      mstore\n      keccak256(0x00, 0x20)\n      swap1\n      0x03\n      mul\n      add\n        /* \"Lab7/BallotWithStage.sol\":2854:2879  proposals[prop].voteCount */\n      0x02\n      add\n      sload\n        /* \"Lab7/BallotWithStage.sol\":2835:2879  winningVoteCount = proposals[prop].voteCount */\n      swap2\n      pop\n        /* \"Lab7/BallotWithStage.sol\":2916:2920  prop */\n      dup1\n        /* \"Lab7/BallotWithStage.sol\":2897:2920  _winningProposal = prop */\n      swap4\n      pop\n        /* \"Lab7/BallotWithStage.sol\":2767:2935  if (proposals[prop].voteCount > winningVoteCount) {... */\n    tag_107:\n        /* \"Lab7/BallotWithStage.sol\":2747:2753  prop++ */\n      dup1\n      dup1\n      tag_111\n      swap1\n      tag_112\n      jump\t// in\n    tag_111:\n      swap2\n      pop\n      pop\n        /* \"Lab7/BallotWithStage.sol\":2701:2935  for (uint8 prop = 0; prop < proposals.length; prop++)... */\n      jump(tag_100)\n    tag_101:\n      pop\n        /* \"Lab7/BallotWithStage.sol\":2608:2941  {... */\n      pop\n        /* \"Lab7/BallotWithStage.sol\":2477:2941  function winningProposal()... */\n      pop\n      swap1\n      jump\t// out\n        /* \"Lab7/BallotWithStage.sol\":564:603  mapping(address => Voter) public voters */\n    tag_47:\n      mstore(0x20, 0x05)\n      dup1\n      0x00\n      mstore\n      keccak256(0x00, 0x40)\n      0x00\n      swap2\n      pop\n      swap1\n      pop\n      dup1\n      0x00\n      add\n      sload\n      swap1\n      dup1\n      0x01\n      add\n      0x00\n      swap1\n      sload\n      swap1\n      0x0100\n      exp\n      swap1\n      div\n      0xff\n      and\n      swap1\n      dup1\n      0x01\n      add\n      0x01\n      swap1\n      sload\n      swap1\n      0x0100\n      exp\n      swap1\n      div\n      0xff\n      and\n      swap1\n      pop\n      dup4\n      jump\t// out\n        /* \"Lab7/BallotWithStage.sol\":2008:2471  function vote(uint8 toProposal) public validStage(Stage.Vote) {... */\n    tag_53:\n        /* \"Lab7/BallotWithStage.sol\":2058:2068  Stage.Vote */\n      0x02\n        /* \"Lab7/BallotWithStage.sol\":1221:1229  reqStage */\n      dup1\n        /* \"Lab7/BallotWithStage.sol\":1212:1229  stage == reqStage */\n      0x03\n      dup2\n      gt\n      iszero\n      tag_114\n      jumpi\n      tag_115\n      tag_71\n      jump\t// in\n    tag_115:\n    tag_114:\n        /* \"Lab7/BallotWithStage.sol\":1212:1217  stage */\n      0x00\n      dup1\n      sload\n      swap1\n      0x0100\n      exp\n      swap1\n      div\n      0xff\n      and\n        /* \"Lab7/BallotWithStage.sol\":1212:1229  stage == reqStage */\n      0x03\n      dup2\n      gt\n      iszero\n      tag_116\n      jumpi\n      tag_117\n      tag_71\n      jump\t// in\n    tag_117:\n    tag_116:\n      eq\n        /* \"Lab7/BallotWithStage.sol\":1204:1230  require(stage == reqStage) */\n      tag_118\n      jumpi\n      0x00\n      dup1\n      revert\n    tag_118:\n        /* \"Lab7/BallotWithStage.sol\":2124:2144  Voter storage sender */\n      0x00\n        /* \"Lab7/BallotWithStage.sol\":2147:2153  voters */\n      0x05\n        /* \"Lab7/BallotWithStage.sol\":2147:2165  voters[msg.sender] */\n      0x00\n        /* \"Lab7/BallotWithStage.sol\":2154:2164  msg.sender */\n      caller\n        /* \"Lab7/BallotWithStage.sol\":2147:2165  voters[msg.sender] */\n      0xffffffffffffffffffffffffffffffffffffffff\n      and\n      0xffffffffffffffffffffffffffffffffffffffff\n      and\n      dup2\n      mstore\n      0x20\n      add\n      swap1\n      dup2\n      mstore\n      0x20\n      add\n      0x00\n      keccak256\n        /* \"Lab7/BallotWithStage.sol\":2124:2165  Voter storage sender = voters[msg.sender] */\n      swap1\n      pop\n        /* \"Lab7/BallotWithStage.sol\":2179:2185  sender */\n      dup1\n        /* \"Lab7/BallotWithStage.sol\":2179:2191  sender.voted */\n      0x01\n      add\n      0x00\n      swap1\n      sload\n      swap1\n      0x0100\n      exp\n      swap1\n      div\n      0xff\n      and\n        /* \"Lab7/BallotWithStage.sol\":2179:2225  sender.voted || toProposal >= proposals.length */\n      dup1\n      tag_120\n      jumpi\n      pop\n        /* \"Lab7/BallotWithStage.sol\":2209:2218  proposals */\n      0x06\n        /* \"Lab7/BallotWithStage.sol\":2209:2225  proposals.length */\n      dup1\n      sload\n      swap1\n      pop\n        /* \"Lab7/BallotWithStage.sol\":2195:2205  toProposal */\n      dup4\n        /* \"Lab7/BallotWithStage.sol\":2195:2225  toProposal >= proposals.length */\n      0xff\n      and\n      lt\n      iszero\n        /* \"Lab7/BallotWithStage.sol\":2179:2225  sender.voted || toProposal >= proposals.length */\n    tag_120:\n        /* \"Lab7/BallotWithStage.sol\":2175:2234  if (sender.voted || toProposal >= proposals.length) return; */\n      iszero\n      tag_121\n      jumpi\n        /* \"Lab7/BallotWithStage.sol\":2227:2234  return; */\n      pop\n      jump(tag_119)\n        /* \"Lab7/BallotWithStage.sol\":2175:2234  if (sender.voted || toProposal >= proposals.length) return; */\n    tag_121:\n        /* \"Lab7/BallotWithStage.sol\":2258:2262  true */\n      0x01\n        /* \"Lab7/BallotWithStage.sol\":2243:2249  sender */\n      dup2\n        /* \"Lab7/BallotWithStage.sol\":2243:2255  sender.voted */\n      0x01\n      add\n      0x00\n        /* \"Lab7/BallotWithStage.sol\":2243:2262  sender.voted = true */\n      0x0100\n      exp\n      dup2\n      sload\n      dup2\n      0xff\n      mul\n      not\n      and\n      swap1\n      dup4\n      iszero\n      iszero\n      mul\n      or\n      swap1\n      sstore\n      pop\n        /* \"Lab7/BallotWithStage.sol\":2286:2296  toProposal */\n      dup3\n        /* \"Lab7/BallotWithStage.sol\":2272:2278  sender */\n      dup2\n        /* \"Lab7/BallotWithStage.sol\":2272:2283  sender.vote */\n      0x01\n      add\n      0x01\n        /* \"Lab7/BallotWithStage.sol\":2272:2296  sender.vote = toProposal */\n      0x0100\n      exp\n      dup2\n      sload\n      dup2\n      0xff\n      mul\n      not\n      and\n      swap1\n      dup4\n      0xff\n      and\n      mul\n      or\n      swap1\n      sstore\n      pop\n        /* \"Lab7/BallotWithStage.sol\":2342:2348  sender */\n      dup1\n        /* \"Lab7/BallotWithStage.sol\":2342:2355  sender.weight */\n      0x00\n      add\n      sload\n        /* \"Lab7/BallotWithStage.sol\":2307:2316  proposals */\n      0x06\n        /* \"Lab7/BallotWithStage.sol\":2317:2327  toProposal */\n      dup5\n        /* \"Lab7/BallotWithStage.sol\":2307:2328  proposals[toProposal] */\n      0xff\n      and\n      dup2\n      sload\n      dup2\n      lt\n      tag_122\n      jumpi\n      tag_123\n      tag_105\n      jump\t// in\n    tag_123:\n    tag_122:\n      swap1\n      0x00\n      mstore\n      keccak256(0x00, 0x20)\n      swap1\n      0x03\n      mul\n      add\n        /* \"Lab7/BallotWithStage.sol\":2307:2338  proposals[toProposal].voteCount */\n      0x02\n      add\n      0x00\n        /* \"Lab7/BallotWithStage.sol\":2307:2355  proposals[toProposal].voteCount += sender.weight */\n      dup3\n      dup3\n      sload\n      tag_125\n      swap2\n      swap1\n      tag_84\n      jump\t// in\n    tag_125:\n      swap3\n      pop\n      pop\n      dup2\n      swap1\n      sstore\n      pop\n        /* \"Lab7/BallotWithStage.sol\":2409:2419  30 seconds */\n      0x1e\n        /* \"Lab7/BallotWithStage.sol\":2397:2406  startTime */\n      sload(0x04)\n        /* \"Lab7/BallotWithStage.sol\":2397:2419  startTime + 30 seconds */\n      tag_126\n      swap2\n      swap1\n      tag_84\n      jump\t// in\n    tag_126:\n        /* \"Lab7/BallotWithStage.sol\":2378:2393  block.timestamp */\n      timestamp\n        /* \"Lab7/BallotWithStage.sol\":2378:2420  block.timestamp > (startTime + 30 seconds) */\n      gt\n        /* \"Lab7/BallotWithStage.sol\":2374:2465  if (block.timestamp > (startTime + 30 seconds)) {... */\n      iszero\n      tag_127\n      jumpi\n        /* \"Lab7/BallotWithStage.sol\":2444:2454  Stage.Done */\n      0x03\n        /* \"Lab7/BallotWithStage.sol\":2436:2441  stage */\n      0x00\n      dup1\n        /* \"Lab7/BallotWithStage.sol\":2436:2454  stage = Stage.Done */\n      0x0100\n      exp\n      dup2\n      sload\n      dup2\n      0xff\n      mul\n      not\n      and\n      swap1\n      dup4\n      0x03\n      dup2\n      gt\n      iszero\n      tag_128\n      jumpi\n      tag_129\n      tag_71\n      jump\t// in\n    tag_129:\n    tag_128:\n      mul\n      or\n      swap1\n      sstore\n      pop\n        /* \"Lab7/BallotWithStage.sol\":2374:2465  if (block.timestamp > (startTime + 30 seconds)) {... */\n    tag_127:\n        /* \"Lab7/BallotWithStage.sol\":2070:2471  {... */\n      pop\n        /* \"Lab7/BallotWithStage.sol\":1240:1241  _ */\n    tag_119:\n        /* \"Lab7/BallotWithStage.sol\":2008:2471  function vote(uint8 toProposal) public validStage(Stage.Vote) {... */\n      pop\n      pop\n      jump\t// out\n        /* \"Lab7/BallotWithStage.sol\":352:370  Stage public stage */\n    tag_55:\n      0x00\n      dup1\n      sload\n      swap1\n      0x0100\n      exp\n      swap1\n      div\n      0xff\n      and\n      dup2\n      jump\t// out\n        /* \"Lab7/BallotWithStage.sol\":376:408  uint256 public proposalCount = 0 */\n    tag_58:\n      sload(0x01)\n      dup2\n      jump\t// out\n        /* \"#utility.yul\":7:82   */\n    tag_130:\n        /* \"#utility.yul\":40:46   */\n      0x00\n        /* \"#utility.yul\":73:75   */\n      0x40\n        /* \"#utility.yul\":67:76   */\n      mload\n        /* \"#utility.yul\":57:76   */\n      swap1\n      pop\n        /* \"#utility.yul\":7:82   */\n      swap1\n      jump\t// out\n        /* \"#utility.yul\":88:205   */\n    tag_131:\n        /* \"#utility.yul\":197:198   */\n      0x00\n        /* \"#utility.yul\":194:195   */\n      dup1\n        /* \"#utility.yul\":187:199   */\n      revert\n        /* \"#utility.yul\":211:328   */\n    tag_132:\n        /* \"#utility.yul\":320:321   */\n      0x00\n        /* \"#utility.yul\":317:318   */\n      dup1\n        /* \"#utility.yul\":310:322   */\n      revert\n        /* \"#utility.yul\":334:411   */\n    tag_133:\n        /* \"#utility.yul\":371:378   */\n      0x00\n        /* \"#utility.yul\":400:405   */\n      dup2\n        /* \"#utility.yul\":389:405   */\n      swap1\n      pop\n        /* \"#utility.yul\":334:411   */\n      swap2\n      swap1\n      pop\n      jump\t// out\n        /* \"#utility.yul\":417:539   */\n    tag_134:\n        /* \"#utility.yul\":490:514   */\n      tag_189\n        /* \"#utility.yul\":508:513   */\n      dup2\n        /* \"#utility.yul\":490:514   */\n      tag_133\n      jump\t// in\n    tag_189:\n        /* \"#utility.yul\":483:488   */\n      dup2\n        /* \"#utility.yul\":480:515   */\n      eq\n        /* \"#utility.yul\":470:533   */\n      tag_190\n      jumpi\n        /* \"#utility.yul\":529:530   */\n      0x00\n        /* \"#utility.yul\":526:527   */\n      dup1\n        /* \"#utility.yul\":519:531   */\n      revert\n        /* \"#utility.yul\":470:533   */\n    tag_190:\n        /* \"#utility.yul\":417:539   */\n      pop\n      jump\t// out\n        /* \"#utility.yul\":545:684   */\n    tag_135:\n        /* \"#utility.yul\":591:596   */\n      0x00\n        /* \"#utility.yul\":629:635   */\n      dup2\n        /* \"#utility.yul\":616:636   */\n      calldataload\n        /* \"#utility.yul\":607:636   */\n      swap1\n      pop\n        /* \"#utility.yul\":645:678   */\n      tag_192\n        /* \"#utility.yul\":672:677   */\n      dup2\n        /* \"#utility.yul\":645:678   */\n      tag_134\n      jump\t// in\n    tag_192:\n        /* \"#utility.yul\":545:684   */\n      swap3\n      swap2\n      pop\n      pop\n      jump\t// out\n        /* \"#utility.yul\":690:1019   */\n    tag_17:\n        /* \"#utility.yul\":749:755   */\n      0x00\n        /* \"#utility.yul\":798:800   */\n      0x20\n        /* \"#utility.yul\":786:795   */\n      dup3\n        /* \"#utility.yul\":777:784   */\n      dup5\n        /* \"#utility.yul\":773:796   */\n      sub\n        /* \"#utility.yul\":769:801   */\n      slt\n        /* \"#utility.yul\":766:885   */\n      iszero\n      tag_194\n      jumpi\n        /* \"#utility.yul\":804:883   */\n      tag_195\n      tag_131\n      jump\t// in\n    tag_195:\n        /* \"#utility.yul\":766:885   */\n    tag_194:\n        /* \"#utility.yul\":924:925   */\n      0x00\n        /* \"#utility.yul\":949:1002   */\n      tag_196\n        /* \"#utility.yul\":994:1001   */\n      dup5\n        /* \"#utility.yul\":985:991   */\n      dup3\n        /* \"#utility.yul\":974:983   */\n      dup6\n        /* \"#utility.yul\":970:992   */\n      add\n        /* \"#utility.yul\":949:1002   */\n      tag_135\n      jump\t// in\n    tag_196:\n        /* \"#utility.yul\":939:1002   */\n      swap2\n      pop\n        /* \"#utility.yul\":895:1012   */\n      pop\n        /* \"#utility.yul\":690:1019   */\n      swap3\n      swap2\n      pop\n      pop\n      jump\t// out\n        /* \"#utility.yul\":1025:1143   */\n    tag_136:\n        /* \"#utility.yul\":1112:1136   */\n      tag_198\n        /* \"#utility.yul\":1130:1135   */\n      dup2\n        /* \"#utility.yul\":1112:1136   */\n      tag_133\n      jump\t// in\n    tag_198:\n        /* \"#utility.yul\":1107:1110   */\n      dup3\n        /* \"#utility.yul\":1100:1137   */\n      mstore\n        /* \"#utility.yul\":1025:1143   */\n      pop\n      pop\n      jump\t// out\n        /* \"#utility.yul\":1149:1248   */\n    tag_137:\n        /* \"#utility.yul\":1201:1207   */\n      0x00\n        /* \"#utility.yul\":1235:1240   */\n      dup2\n        /* \"#utility.yul\":1229:1241   */\n      mload\n        /* \"#utility.yul\":1219:1241   */\n      swap1\n      pop\n        /* \"#utility.yul\":1149:1248   */\n      swap2\n      swap1\n      pop\n      jump\t// out\n        /* \"#utility.yul\":1254:1423   */\n    tag_138:\n        /* \"#utility.yul\":1338:1349   */\n      0x00\n        /* \"#utility.yul\":1372:1378   */\n      dup3\n        /* \"#utility.yul\":1367:1370   */\n      dup3\n        /* \"#utility.yul\":1360:1379   */\n      mstore\n        /* \"#utility.yul\":1412:1416   */\n      0x20\n        /* \"#utility.yul\":1407:1410   */\n      dup3\n        /* \"#utility.yul\":1403:1417   */\n      add\n        /* \"#utility.yul\":1388:1417   */\n      swap1\n      pop\n        /* \"#utility.yul\":1254:1423   */\n      swap3\n      swap2\n      pop\n      pop\n      jump\t// out\n        /* \"#utility.yul\":1429:1675   */\n    tag_139:\n        /* \"#utility.yul\":1510:1511   */\n      0x00\n        /* \"#utility.yul\":1520:1633   */\n    tag_202:\n        /* \"#utility.yul\":1534:1540   */\n      dup4\n        /* \"#utility.yul\":1531:1532   */\n      dup2\n        /* \"#utility.yul\":1528:1541   */\n      lt\n        /* \"#utility.yul\":1520:1633   */\n      iszero\n      tag_204\n      jumpi\n        /* \"#utility.yul\":1619:1620   */\n      dup1\n        /* \"#utility.yul\":1614:1617   */\n      dup3\n        /* \"#utility.yul\":1610:1621   */\n      add\n        /* \"#utility.yul\":1604:1622   */\n      mload\n        /* \"#utility.yul\":1600:1601   */\n      dup2\n        /* \"#utility.yul\":1595:1598   */\n      dup5\n        /* \"#utility.yul\":1591:1602   */\n      add\n        /* \"#utility.yul\":1584:1623   */\n      mstore\n        /* \"#utility.yul\":1556:1558   */\n      0x20\n        /* \"#utility.yul\":1553:1554   */\n      dup2\n        /* \"#utility.yul\":1549:1559   */\n      add\n        /* \"#utility.yul\":1544:1559   */\n      swap1\n      pop\n        /* \"#utility.yul\":1520:1633   */\n      jump(tag_202)\n    tag_204:\n        /* \"#utility.yul\":1667:1668   */\n      0x00\n        /* \"#utility.yul\":1658:1664   */\n      dup5\n        /* \"#utility.yul\":1653:1656   */\n      dup5\n        /* \"#utility.yul\":1649:1665   */\n      add\n        /* \"#utility.yul\":1642:1669   */\n      mstore\n        /* \"#utility.yul\":1491:1675   */\n      pop\n        /* \"#utility.yul\":1429:1675   */\n      pop\n      pop\n      pop\n      jump\t// out\n        /* \"#utility.yul\":1681:1783   */\n    tag_140:\n        /* \"#utility.yul\":1722:1728   */\n      0x00\n        /* \"#utility.yul\":1773:1775   */\n      0x1f\n        /* \"#utility.yul\":1769:1776   */\n      not\n        /* \"#utility.yul\":1764:1766   */\n      0x1f\n        /* \"#utility.yul\":1757:1762   */\n      dup4\n        /* \"#utility.yul\":1753:1767   */\n      add\n        /* \"#utility.yul\":1749:1777   */\n      and\n        /* \"#utility.yul\":1739:1777   */\n      swap1\n      pop\n        /* \"#utility.yul\":1681:1783   */\n      swap2\n      swap1\n      pop\n      jump\t// out\n        /* \"#utility.yul\":1789:2166   */\n    tag_141:\n        /* \"#utility.yul\":1877:1880   */\n      0x00\n        /* \"#utility.yul\":1905:1944   */\n      tag_207\n        /* \"#utility.yul\":1938:1943   */\n      dup3\n        /* \"#utility.yul\":1905:1944   */\n      tag_137\n      jump\t// in\n    tag_207:\n        /* \"#utility.yul\":1960:2031   */\n      tag_208\n        /* \"#utility.yul\":2024:2030   */\n      dup2\n        /* \"#utility.yul\":2019:2022   */\n      dup6\n        /* \"#utility.yul\":1960:2031   */\n      tag_138\n      jump\t// in\n    tag_208:\n        /* \"#utility.yul\":1953:2031   */\n      swap4\n      pop\n        /* \"#utility.yul\":2040:2105   */\n      tag_209\n        /* \"#utility.yul\":2098:2104   */\n      dup2\n        /* \"#utility.yul\":2093:2096   */\n      dup6\n        /* \"#utility.yul\":2086:2090   */\n      0x20\n        /* \"#utility.yul\":2079:2084   */\n      dup7\n        /* \"#utility.yul\":2075:2091   */\n      add\n        /* \"#utility.yul\":2040:2105   */\n      tag_139\n      jump\t// in\n    tag_209:\n        /* \"#utility.yul\":2130:2159   */\n      tag_210\n        /* \"#utility.yul\":2152:2158   */\n      dup2\n        /* \"#utility.yul\":2130:2159   */\n      tag_140\n      jump\t// in\n    tag_210:\n        /* \"#utility.yul\":2125:2128   */\n      dup5\n        /* \"#utility.yul\":2121:2160   */\n      add\n        /* \"#utility.yul\":2114:2160   */\n      swap2\n      pop\n        /* \"#utility.yul\":1881:2166   */\n      pop\n        /* \"#utility.yul\":1789:2166   */\n      swap3\n      swap2\n      pop\n      pop\n      jump\t// out\n        /* \"#utility.yul\":2172:2705   */\n    tag_20:\n        /* \"#utility.yul\":2341:2345   */\n      0x00\n        /* \"#utility.yul\":2379:2381   */\n      0x60\n        /* \"#utility.yul\":2368:2377   */\n      dup3\n        /* \"#utility.yul\":2364:2382   */\n      add\n        /* \"#utility.yul\":2356:2382   */\n      swap1\n      pop\n        /* \"#utility.yul\":2392:2463   */\n      tag_212\n        /* \"#utility.yul\":2460:2461   */\n      0x00\n        /* \"#utility.yul\":2449:2458   */\n      dup4\n        /* \"#utility.yul\":2445:2462   */\n      add\n        /* \"#utility.yul\":2436:2442   */\n      dup7\n        /* \"#utility.yul\":2392:2463   */\n      tag_136\n      jump\t// in\n    tag_212:\n        /* \"#utility.yul\":2510:2519   */\n      dup2\n        /* \"#utility.yul\":2504:2508   */\n      dup2\n        /* \"#utility.yul\":2500:2520   */\n      sub\n        /* \"#utility.yul\":2495:2497   */\n      0x20\n        /* \"#utility.yul\":2484:2493   */\n      dup4\n        /* \"#utility.yul\":2480:2498   */\n      add\n        /* \"#utility.yul\":2473:2521   */\n      mstore\n        /* \"#utility.yul\":2538:2616   */\n      tag_213\n        /* \"#utility.yul\":2611:2615   */\n      dup2\n        /* \"#utility.yul\":2602:2608   */\n      dup6\n        /* \"#utility.yul\":2538:2616   */\n      tag_141\n      jump\t// in\n    tag_213:\n        /* \"#utility.yul\":2530:2616   */\n      swap1\n      pop\n        /* \"#utility.yul\":2626:2698   */\n      tag_214\n        /* \"#utility.yul\":2694:2696   */\n      0x40\n        /* \"#utility.yul\":2683:2692   */\n      dup4\n        /* \"#utility.yul\":2679:2697   */\n      add\n        /* \"#utility.yul\":2670:2676   */\n      dup5\n        /* \"#utility.yul\":2626:2698   */\n      tag_136\n      jump\t// in\n    tag_214:\n        /* \"#utility.yul\":2172:2705   */\n      swap5\n      swap4\n      pop\n      pop\n      pop\n      pop\n      jump\t// out\n        /* \"#utility.yul\":2711:2891   */\n    tag_71:\n        /* \"#utility.yul\":2759:2836   */\n      0x4e487b7100000000000000000000000000000000000000000000000000000000\n        /* \"#utility.yul\":2756:2757   */\n      0x00\n        /* \"#utility.yul\":2749:2837   */\n      mstore\n        /* \"#utility.yul\":2856:2860   */\n      0x21\n        /* \"#utility.yul\":2853:2854   */\n      0x04\n        /* \"#utility.yul\":2846:2861   */\n      mstore\n        /* \"#utility.yul\":2880:2884   */\n      0x24\n        /* \"#utility.yul\":2877:2878   */\n      0x00\n        /* \"#utility.yul\":2870:2885   */\n      revert\n        /* \"#utility.yul\":2897:3010   */\n    tag_142:\n        /* \"#utility.yul\":2978:2979   */\n      0x04\n        /* \"#utility.yul\":2971:2976   */\n      dup2\n        /* \"#utility.yul\":2968:2980   */\n      lt\n        /* \"#utility.yul\":2958:3004   */\n      tag_217\n      jumpi\n        /* \"#utility.yul\":2984:3002   */\n      tag_218\n      tag_71\n      jump\t// in\n    tag_218:\n        /* \"#utility.yul\":2958:3004   */\n    tag_217:\n        /* \"#utility.yul\":2897:3010   */\n      pop\n      jump\t// out\n        /* \"#utility.yul\":3016:3143   */\n    tag_143:\n        /* \"#utility.yul\":3061:3068   */\n      0x00\n        /* \"#utility.yul\":3090:3095   */\n      dup2\n        /* \"#utility.yul\":3079:3095   */\n      swap1\n      pop\n        /* \"#utility.yul\":3096:3137   */\n      tag_220\n        /* \"#utility.yul\":3131:3136   */\n      dup3\n        /* \"#utility.yul\":3096:3137   */\n      tag_142\n      jump\t// in\n    tag_220:\n        /* \"#utility.yul\":3016:3143   */\n      swap2\n      swap1\n      pop\n      jump\t// out\n        /* \"#utility.yul\":3149:3276   */\n    tag_144:\n        /* \"#utility.yul\":3205:3214   */\n      0x00\n        /* \"#utility.yul\":3238:3270   */\n      tag_222\n        /* \"#utility.yul\":3264:3269   */\n      dup3\n        /* \"#utility.yul\":3238:3270   */\n      tag_143\n      jump\t// in\n    tag_222:\n        /* \"#utility.yul\":3225:3270   */\n      swap1\n      pop\n        /* \"#utility.yul\":3149:3276   */\n      swap2\n      swap1\n      pop\n      jump\t// out\n        /* \"#utility.yul\":3282:3425   */\n    tag_145:\n        /* \"#utility.yul\":3375:3418   */\n      tag_224\n        /* \"#utility.yul\":3412:3417   */\n      dup2\n        /* \"#utility.yul\":3375:3418   */\n      tag_144\n      jump\t// in\n    tag_224:\n        /* \"#utility.yul\":3370:3373   */\n      dup3\n        /* \"#utility.yul\":3363:3419   */\n      mstore\n        /* \"#utility.yul\":3282:3425   */\n      pop\n      pop\n      jump\t// out\n        /* \"#utility.yul\":3431:3665   */\n    tag_24:\n        /* \"#utility.yul\":3530:3534   */\n      0x00\n        /* \"#utility.yul\":3568:3570   */\n      0x20\n        /* \"#utility.yul\":3557:3566   */\n      dup3\n        /* \"#utility.yul\":3553:3571   */\n      add\n        /* \"#utility.yul\":3545:3571   */\n      swap1\n      pop\n        /* \"#utility.yul\":3581:3658   */\n      tag_226\n        /* \"#utility.yul\":3655:3656   */\n      0x00\n        /* \"#utility.yul\":3644:3653   */\n      dup4\n        /* \"#utility.yul\":3640:3657   */\n      add\n        /* \"#utility.yul\":3631:3637   */\n      dup5\n        /* \"#utility.yul\":3581:3658   */\n      tag_145\n      jump\t// in\n    tag_226:\n        /* \"#utility.yul\":3431:3665   */\n      swap3\n      swap2\n      pop\n      pop\n      jump\t// out\n        /* \"#utility.yul\":3671:3797   */\n    tag_146:\n        /* \"#utility.yul\":3708:3715   */\n      0x00\n        /* \"#utility.yul\":3748:3790   */\n      0xffffffffffffffffffffffffffffffffffffffff\n        /* \"#utility.yul\":3741:3746   */\n      dup3\n        /* \"#utility.yul\":3737:3791   */\n      and\n        /* \"#utility.yul\":3726:3791   */\n      swap1\n      pop\n        /* \"#utility.yul\":3671:3797   */\n      swap2\n      swap1\n      pop\n      jump\t// out\n        /* \"#utility.yul\":3803:3899   */\n    tag_147:\n        /* \"#utility.yul\":3840:3847   */\n      0x00\n        /* \"#utility.yul\":3869:3893   */\n      tag_229\n        /* \"#utility.yul\":3887:3892   */\n      dup3\n        /* \"#utility.yul\":3869:3893   */\n      tag_146\n      jump\t// in\n    tag_229:\n        /* \"#utility.yul\":3858:3893   */\n      swap1\n      pop\n        /* \"#utility.yul\":3803:3899   */\n      swap2\n      swap1\n      pop\n      jump\t// out\n        /* \"#utility.yul\":3905:4023   */\n    tag_148:\n        /* \"#utility.yul\":3992:4016   */\n      tag_231\n        /* \"#utility.yul\":4010:4015   */\n      dup2\n        /* \"#utility.yul\":3992:4016   */\n      tag_147\n      jump\t// in\n    tag_231:\n        /* \"#utility.yul\":3987:3990   */\n      dup3\n        /* \"#utility.yul\":3980:4017   */\n      mstore\n        /* \"#utility.yul\":3905:4023   */\n      pop\n      pop\n      jump\t// out\n        /* \"#utility.yul\":4029:4251   */\n    tag_28:\n        /* \"#utility.yul\":4122:4126   */\n      0x00\n        /* \"#utility.yul\":4160:4162   */\n      0x20\n        /* \"#utility.yul\":4149:4158   */\n      dup3\n        /* \"#utility.yul\":4145:4163   */\n      add\n        /* \"#utility.yul\":4137:4163   */\n      swap1\n      pop\n        /* \"#utility.yul\":4173:4244   */\n      tag_233\n        /* \"#utility.yul\":4241:4242   */\n      0x00\n        /* \"#utility.yul\":4230:4239   */\n      dup4\n        /* \"#utility.yul\":4226:4243   */\n      add\n        /* \"#utility.yul\":4217:4223   */\n      dup5\n        /* \"#utility.yul\":4173:4244   */\n      tag_148\n      jump\t// in\n    tag_233:\n        /* \"#utility.yul\":4029:4251   */\n      swap3\n      swap2\n      pop\n      pop\n      jump\t// out\n        /* \"#utility.yul\":4257:4479   */\n    tag_32:\n        /* \"#utility.yul\":4350:4354   */\n      0x00\n        /* \"#utility.yul\":4388:4390   */\n      0x20\n        /* \"#utility.yul\":4377:4386   */\n      dup3\n        /* \"#utility.yul\":4373:4391   */\n      add\n        /* \"#utility.yul\":4365:4391   */\n      swap1\n      pop\n        /* \"#utility.yul\":4401:4472   */\n      tag_235\n        /* \"#utility.yul\":4469:4470   */\n      0x00\n        /* \"#utility.yul\":4458:4467   */\n      dup4\n        /* \"#utility.yul\":4454:4471   */\n      add\n        /* \"#utility.yul\":4445:4451   */\n      dup5\n        /* \"#utility.yul\":4401:4472   */\n      tag_136\n      jump\t// in\n    tag_235:\n        /* \"#utility.yul\":4257:4479   */\n      swap3\n      swap2\n      pop\n      pop\n      jump\t// out\n        /* \"#utility.yul\":4485:4607   */\n    tag_149:\n        /* \"#utility.yul\":4558:4582   */\n      tag_237\n        /* \"#utility.yul\":4576:4581   */\n      dup2\n        /* \"#utility.yul\":4558:4582   */\n      tag_147\n      jump\t// in\n    tag_237:\n        /* \"#utility.yul\":4551:4556   */\n      dup2\n        /* \"#utility.yul\":4548:4583   */\n      eq\n        /* \"#utility.yul\":4538:4601   */\n      tag_238\n      jumpi\n        /* \"#utility.yul\":4597:4598   */\n      0x00\n        /* \"#utility.yul\":4594:4595   */\n      dup1\n        /* \"#utility.yul\":4587:4599   */\n      revert\n        /* \"#utility.yul\":4538:4601   */\n    tag_238:\n        /* \"#utility.yul\":4485:4607   */\n      pop\n      jump\t// out\n        /* \"#utility.yul\":4613:4752   */\n    tag_150:\n        /* \"#utility.yul\":4659:4664   */\n      0x00\n        /* \"#utility.yul\":4697:4703   */\n      dup2\n        /* \"#utility.yul\":4684:4704   */\n      calldataload\n        /* \"#utility.yul\":4675:4704   */\n      swap1\n      pop\n        /* \"#utility.yul\":4713:4746   */\n      tag_240\n        /* \"#utility.yul\":4740:4745   */\n      dup2\n        /* \"#utility.yul\":4713:4746   */\n      tag_149\n      jump\t// in\n    tag_240:\n        /* \"#utility.yul\":4613:4752   */\n      swap3\n      swap2\n      pop\n      pop\n      jump\t// out\n        /* \"#utility.yul\":4758:5087   */\n    tag_35:\n        /* \"#utility.yul\":4817:4823   */\n      0x00\n        /* \"#utility.yul\":4866:4868   */\n      0x20\n        /* \"#utility.yul\":4854:4863   */\n      dup3\n        /* \"#utility.yul\":4845:4852   */\n      dup5\n        /* \"#utility.yul\":4841:4864   */\n      sub\n        /* \"#utility.yul\":4837:4869   */\n      slt\n        /* \"#utility.yul\":4834:4953   */\n      iszero\n      tag_242\n      jumpi\n        /* \"#utility.yul\":4872:4951   */\n      tag_243\n      tag_131\n      jump\t// in\n    tag_243:\n        /* \"#utility.yul\":4834:4953   */\n    tag_242:\n        /* \"#utility.yul\":4992:4993   */\n      0x00\n        /* \"#utility.yul\":5017:5070   */\n      tag_244\n        /* \"#utility.yul\":5062:5069   */\n      dup5\n        /* \"#utility.yul\":5053:5059   */\n      dup3\n        /* \"#utility.yul\":5042:5051   */\n      dup6\n        /* \"#utility.yul\":5038:5060   */\n      add\n        /* \"#utility.yul\":5017:5070   */\n      tag_150\n      jump\t// in\n    tag_244:\n        /* \"#utility.yul\":5007:5070   */\n      swap2\n      pop\n        /* \"#utility.yul\":4963:5080   */\n      pop\n        /* \"#utility.yul\":4758:5087   */\n      swap3\n      swap2\n      pop\n      pop\n      jump\t// out\n        /* \"#utility.yul\":5093:5210   */\n    tag_151:\n        /* \"#utility.yul\":5202:5203   */\n      0x00\n        /* \"#utility.yul\":5199:5200   */\n      dup1\n        /* \"#utility.yul\":5192:5204   */\n      revert\n        /* \"#utility.yul\":5216:5333   */\n    tag_152:\n        /* \"#utility.yul\":5325:5326   */\n      0x00\n        /* \"#utility.yul\":5322:5323   */\n      dup1\n        /* \"#utility.yul\":5315:5327   */\n      revert\n        /* \"#utility.yul\":5339:5519   */\n    tag_153:\n        /* \"#utility.yul\":5387:5464   */\n      0x4e487b7100000000000000000000000000000000000000000000000000000000\n        /* \"#utility.yul\":5384:5385   */\n      0x00\n        /* \"#utility.yul\":5377:5465   */\n      mstore\n        /* \"#utility.yul\":5484:5488   */\n      0x41\n        /* \"#utility.yul\":5481:5482   */\n      0x04\n        /* \"#utility.yul\":5474:5489   */\n      mstore\n        /* \"#utility.yul\":5508:5512   */\n      0x24\n        /* \"#utility.yul\":5505:5506   */\n      0x00\n        /* \"#utility.yul\":5498:5513   */\n      revert\n        /* \"#utility.yul\":5525:5806   */\n    tag_154:\n        /* \"#utility.yul\":5608:5635   */\n      tag_249\n        /* \"#utility.yul\":5630:5634   */\n      dup3\n        /* \"#utility.yul\":5608:5635   */\n      tag_140\n      jump\t// in\n    tag_249:\n        /* \"#utility.yul\":5600:5606   */\n      dup2\n        /* \"#utility.yul\":5596:5636   */\n      add\n        /* \"#utility.yul\":5738:5744   */\n      dup2\n        /* \"#utility.yul\":5726:5736   */\n      dup2\n        /* \"#utility.yul\":5723:5745   */\n      lt\n        /* \"#utility.yul\":5702:5720   */\n      0xffffffffffffffff\n        /* \"#utility.yul\":5690:5700   */\n      dup3\n        /* \"#utility.yul\":5687:5721   */\n      gt\n        /* \"#utility.yul\":5684:5746   */\n      or\n        /* \"#utility.yul\":5681:5769   */\n      iszero\n      tag_250\n      jumpi\n        /* \"#utility.yul\":5749:5767   */\n      tag_251\n      tag_153\n      jump\t// in\n    tag_251:\n        /* \"#utility.yul\":5681:5769   */\n    tag_250:\n        /* \"#utility.yul\":5789:5799   */\n      dup1\n        /* \"#utility.yul\":5785:5787   */\n      0x40\n        /* \"#utility.yul\":5778:5800   */\n      mstore\n        /* \"#utility.yul\":5568:5806   */\n      pop\n        /* \"#utility.yul\":5525:5806   */\n      pop\n      pop\n      jump\t// out\n        /* \"#utility.yul\":5812:5941   */\n    tag_155:\n        /* \"#utility.yul\":5846:5852   */\n      0x00\n        /* \"#utility.yul\":5873:5893   */\n      tag_253\n      tag_130\n      jump\t// in\n    tag_253:\n        /* \"#utility.yul\":5863:5893   */\n      swap1\n      pop\n        /* \"#utility.yul\":5902:5935   */\n      tag_254\n        /* \"#utility.yul\":5930:5934   */\n      dup3\n        /* \"#utility.yul\":5922:5928   */\n      dup3\n        /* \"#utility.yul\":5902:5935   */\n      tag_154\n      jump\t// in\n    tag_254:\n        /* \"#utility.yul\":5812:5941   */\n      swap2\n      swap1\n      pop\n      jump\t// out\n        /* \"#utility.yul\":5947:6255   */\n    tag_156:\n        /* \"#utility.yul\":6009:6013   */\n      0x00\n        /* \"#utility.yul\":6099:6117   */\n      0xffffffffffffffff\n        /* \"#utility.yul\":6091:6097   */\n      dup3\n        /* \"#utility.yul\":6088:6118   */\n      gt\n        /* \"#utility.yul\":6085:6141   */\n      iszero\n      tag_256\n      jumpi\n        /* \"#utility.yul\":6121:6139   */\n      tag_257\n      tag_153\n      jump\t// in\n    tag_257:\n        /* \"#utility.yul\":6085:6141   */\n    tag_256:\n        /* \"#utility.yul\":6159:6188   */\n      tag_258\n        /* \"#utility.yul\":6181:6187   */\n      dup3\n        /* \"#utility.yul\":6159:6188   */\n      tag_140\n      jump\t// in\n    tag_258:\n        /* \"#utility.yul\":6151:6188   */\n      swap1\n      pop\n        /* \"#utility.yul\":6243:6247   */\n      0x20\n        /* \"#utility.yul\":6237:6241   */\n      dup2\n        /* \"#utility.yul\":6233:6248   */\n      add\n        /* \"#utility.yul\":6225:6248   */\n      swap1\n      pop\n        /* \"#utility.yul\":5947:6255   */\n      swap2\n      swap1\n      pop\n      jump\t// out\n        /* \"#utility.yul\":6261:6407   */\n    tag_157:\n        /* \"#utility.yul\":6358:6364   */\n      dup3\n        /* \"#utility.yul\":6353:6356   */\n      dup2\n        /* \"#utility.yul\":6348:6351   */\n      dup4\n        /* \"#utility.yul\":6335:6365   */\n      calldatacopy\n        /* \"#utility.yul\":6399:6400   */\n      0x00\n        /* \"#utility.yul\":6390:6396   */\n      dup4\n        /* \"#utility.yul\":6385:6388   */\n      dup4\n        /* \"#utility.yul\":6381:6397   */\n      add\n        /* \"#utility.yul\":6374:6401   */\n      mstore\n        /* \"#utility.yul\":6261:6407   */\n      pop\n      pop\n      pop\n      jump\t// out\n        /* \"#utility.yul\":6413:6838   */\n    tag_158:\n        /* \"#utility.yul\":6491:6496   */\n      0x00\n        /* \"#utility.yul\":6516:6582   */\n      tag_261\n        /* \"#utility.yul\":6532:6581   */\n      tag_262\n        /* \"#utility.yul\":6574:6580   */\n      dup5\n        /* \"#utility.yul\":6532:6581   */\n      tag_156\n      jump\t// in\n    tag_262:\n        /* \"#utility.yul\":6516:6582   */\n      tag_155\n      jump\t// in\n    tag_261:\n        /* \"#utility.yul\":6507:6582   */\n      swap1\n      pop\n        /* \"#utility.yul\":6605:6611   */\n      dup3\n        /* \"#utility.yul\":6598:6603   */\n      dup2\n        /* \"#utility.yul\":6591:6612   */\n      mstore\n        /* \"#utility.yul\":6643:6647   */\n      0x20\n        /* \"#utility.yul\":6636:6641   */\n      dup2\n        /* \"#utility.yul\":6632:6648   */\n      add\n        /* \"#utility.yul\":6681:6684   */\n      dup5\n        /* \"#utility.yul\":6672:6678   */\n      dup5\n        /* \"#utility.yul\":6667:6670   */\n      dup5\n        /* \"#utility.yul\":6663:6679   */\n      add\n        /* \"#utility.yul\":6660:6685   */\n      gt\n        /* \"#utility.yul\":6657:6769   */\n      iszero\n      tag_263\n      jumpi\n        /* \"#utility.yul\":6688:6767   */\n      tag_264\n      tag_152\n      jump\t// in\n    tag_264:\n        /* \"#utility.yul\":6657:6769   */\n    tag_263:\n        /* \"#utility.yul\":6778:6832   */\n      tag_265\n        /* \"#utility.yul\":6825:6831   */\n      dup5\n        /* \"#utility.yul\":6820:6823   */\n      dup3\n        /* \"#utility.yul\":6815:6818   */\n      dup6\n        /* \"#utility.yul\":6778:6832   */\n      tag_157\n      jump\t// in\n    tag_265:\n        /* \"#utility.yul\":6497:6838   */\n      pop\n        /* \"#utility.yul\":6413:6838   */\n      swap4\n      swap3\n      pop\n      pop\n      pop\n      jump\t// out\n        /* \"#utility.yul\":6858:7198   */\n    tag_159:\n        /* \"#utility.yul\":6914:6919   */\n      0x00\n        /* \"#utility.yul\":6963:6966   */\n      dup3\n        /* \"#utility.yul\":6956:6960   */\n      0x1f\n        /* \"#utility.yul\":6948:6954   */\n      dup4\n        /* \"#utility.yul\":6944:6961   */\n      add\n        /* \"#utility.yul\":6940:6967   */\n      slt\n        /* \"#utility.yul\":6930:7052   */\n      tag_267\n      jumpi\n        /* \"#utility.yul\":6971:7050   */\n      tag_268\n      tag_151\n      jump\t// in\n    tag_268:\n        /* \"#utility.yul\":6930:7052   */\n    tag_267:\n        /* \"#utility.yul\":7088:7094   */\n      dup2\n        /* \"#utility.yul\":7075:7095   */\n      calldataload\n        /* \"#utility.yul\":7113:7192   */\n      tag_269\n        /* \"#utility.yul\":7188:7191   */\n      dup5\n        /* \"#utility.yul\":7180:7186   */\n      dup3\n        /* \"#utility.yul\":7173:7177   */\n      0x20\n        /* \"#utility.yul\":7165:7171   */\n      dup7\n        /* \"#utility.yul\":7161:7178   */\n      add\n        /* \"#utility.yul\":7113:7192   */\n      tag_158\n      jump\t// in\n    tag_269:\n        /* \"#utility.yul\":7104:7192   */\n      swap2\n      pop\n        /* \"#utility.yul\":6920:7198   */\n      pop\n        /* \"#utility.yul\":6858:7198   */\n      swap3\n      swap2\n      pop\n      pop\n      jump\t// out\n        /* \"#utility.yul\":7204:7858   */\n    tag_39:\n        /* \"#utility.yul\":7282:7288   */\n      0x00\n        /* \"#utility.yul\":7290:7296   */\n      dup1\n        /* \"#utility.yul\":7339:7341   */\n      0x40\n        /* \"#utility.yul\":7327:7336   */\n      dup4\n        /* \"#utility.yul\":7318:7325   */\n      dup6\n        /* \"#utility.yul\":7314:7337   */\n      sub\n        /* \"#utility.yul\":7310:7342   */\n      slt\n        /* \"#utility.yul\":7307:7426   */\n      iszero\n      tag_271\n      jumpi\n        /* \"#utility.yul\":7345:7424   */\n      tag_272\n      tag_131\n      jump\t// in\n    tag_272:\n        /* \"#utility.yul\":7307:7426   */\n    tag_271:\n        /* \"#utility.yul\":7465:7466   */\n      0x00\n        /* \"#utility.yul\":7490:7543   */\n      tag_273\n        /* \"#utility.yul\":7535:7542   */\n      dup6\n        /* \"#utility.yul\":7526:7532   */\n      dup3\n        /* \"#utility.yul\":7515:7524   */\n      dup7\n        /* \"#utility.yul\":7511:7533   */\n      add\n        /* \"#utility.yul\":7490:7543   */\n      tag_135\n      jump\t// in\n    tag_273:\n        /* \"#utility.yul\":7480:7543   */\n      swap3\n      pop\n        /* \"#utility.yul\":7436:7553   */\n      pop\n        /* \"#utility.yul\":7620:7622   */\n      0x20\n        /* \"#utility.yul\":7609:7618   */\n      dup4\n        /* \"#utility.yul\":7605:7623   */\n      add\n        /* \"#utility.yul\":7592:7624   */\n      calldataload\n        /* \"#utility.yul\":7651:7669   */\n      0xffffffffffffffff\n        /* \"#utility.yul\":7643:7649   */\n      dup2\n        /* \"#utility.yul\":7640:7670   */\n      gt\n        /* \"#utility.yul\":7637:7754   */\n      iszero\n      tag_274\n      jumpi\n        /* \"#utility.yul\":7673:7752   */\n      tag_275\n      tag_132\n      jump\t// in\n    tag_275:\n        /* \"#utility.yul\":7637:7754   */\n    tag_274:\n        /* \"#utility.yul\":7778:7841   */\n      tag_276\n        /* \"#utility.yul\":7833:7840   */\n      dup6\n        /* \"#utility.yul\":7824:7830   */\n      dup3\n        /* \"#utility.yul\":7813:7822   */\n      dup7\n        /* \"#utility.yul\":7809:7831   */\n      add\n        /* \"#utility.yul\":7778:7841   */\n      tag_159\n      jump\t// in\n    tag_276:\n        /* \"#utility.yul\":7768:7841   */\n      swap2\n      pop\n        /* \"#utility.yul\":7563:7851   */\n      pop\n        /* \"#utility.yul\":7204:7858   */\n      swap3\n      pop\n      swap3\n      swap1\n      pop\n      jump\t// out\n        /* \"#utility.yul\":7864:7950   */\n    tag_160:\n        /* \"#utility.yul\":7899:7906   */\n      0x00\n        /* \"#utility.yul\":7939:7943   */\n      0xff\n        /* \"#utility.yul\":7932:7937   */\n      dup3\n        /* \"#utility.yul\":7928:7944   */\n      and\n        /* \"#utility.yul\":7917:7944   */\n      swap1\n      pop\n        /* \"#utility.yul\":7864:7950   */\n      swap2\n      swap1\n      pop\n      jump\t// out\n        /* \"#utility.yul\":7956:8068   */\n    tag_161:\n        /* \"#utility.yul\":8039:8061   */\n      tag_279\n        /* \"#utility.yul\":8055:8060   */\n      dup2\n        /* \"#utility.yul\":8039:8061   */\n      tag_160\n      jump\t// in\n    tag_279:\n        /* \"#utility.yul\":8034:8037   */\n      dup3\n        /* \"#utility.yul\":8027:8062   */\n      mstore\n        /* \"#utility.yul\":7956:8068   */\n      pop\n      pop\n      jump\t// out\n        /* \"#utility.yul\":8074:8288   */\n    tag_44:\n        /* \"#utility.yul\":8163:8167   */\n      0x00\n        /* \"#utility.yul\":8201:8203   */\n      0x20\n        /* \"#utility.yul\":8190:8199   */\n      dup3\n        /* \"#utility.yul\":8186:8204   */\n      add\n        /* \"#utility.yul\":8178:8204   */\n      swap1\n      pop\n        /* \"#utility.yul\":8214:8281   */\n      tag_281\n        /* \"#utility.yul\":8278:8279   */\n      0x00\n        /* \"#utility.yul\":8267:8276   */\n      dup4\n        /* \"#utility.yul\":8263:8280   */\n      add\n        /* \"#utility.yul\":8254:8260   */\n      dup5\n        /* \"#utility.yul\":8214:8281   */\n      tag_161\n      jump\t// in\n    tag_281:\n        /* \"#utility.yul\":8074:8288   */\n      swap3\n      swap2\n      pop\n      pop\n      jump\t// out\n        /* \"#utility.yul\":8294:8384   */\n    tag_162:\n        /* \"#utility.yul\":8328:8335   */\n      0x00\n        /* \"#utility.yul\":8371:8376   */\n      dup2\n        /* \"#utility.yul\":8364:8377   */\n      iszero\n        /* \"#utility.yul\":8357:8378   */\n      iszero\n        /* \"#utility.yul\":8346:8378   */\n      swap1\n      pop\n        /* \"#utility.yul\":8294:8384   */\n      swap2\n      swap1\n      pop\n      jump\t// out\n        /* \"#utility.yul\":8390:8499   */\n    tag_163:\n        /* \"#utility.yul\":8471:8492   */\n      tag_284\n        /* \"#utility.yul\":8486:8491   */\n      dup2\n        /* \"#utility.yul\":8471:8492   */\n      tag_162\n      jump\t// in\n    tag_284:\n        /* \"#utility.yul\":8466:8469   */\n      dup3\n        /* \"#utility.yul\":8459:8493   */\n      mstore\n        /* \"#utility.yul\":8390:8499   */\n      pop\n      pop\n      jump\t// out\n        /* \"#utility.yul\":8505:8927   */\n    tag_49:\n        /* \"#utility.yul\":8644:8648   */\n      0x00\n        /* \"#utility.yul\":8682:8684   */\n      0x60\n        /* \"#utility.yul\":8671:8680   */\n      dup3\n        /* \"#utility.yul\":8667:8685   */\n      add\n        /* \"#utility.yul\":8659:8685   */\n      swap1\n      pop\n        /* \"#utility.yul\":8695:8766   */\n      tag_286\n        /* \"#utility.yul\":8763:8764   */\n      0x00\n        /* \"#utility.yul\":8752:8761   */\n      dup4\n        /* \"#utility.yul\":8748:8765   */\n      add\n        /* \"#utility.yul\":8739:8745   */\n      dup7\n        /* \"#utility.yul\":8695:8766   */\n      tag_136\n      jump\t// in\n    tag_286:\n        /* \"#utility.yul\":8776:8842   */\n      tag_287\n        /* \"#utility.yul\":8838:8840   */\n      0x20\n        /* \"#utility.yul\":8827:8836   */\n      dup4\n        /* \"#utility.yul\":8823:8841   */\n      add\n        /* \"#utility.yul\":8814:8820   */\n      dup6\n        /* \"#utility.yul\":8776:8842   */\n      tag_163\n      jump\t// in\n    tag_287:\n        /* \"#utility.yul\":8852:8920   */\n      tag_288\n        /* \"#utility.yul\":8916:8918   */\n      0x40\n        /* \"#utility.yul\":8905:8914   */\n      dup4\n        /* \"#utility.yul\":8901:8919   */\n      add\n        /* \"#utility.yul\":8892:8898   */\n      dup5\n        /* \"#utility.yul\":8852:8920   */\n      tag_161\n      jump\t// in\n    tag_288:\n        /* \"#utility.yul\":8505:8927   */\n      swap5\n      swap4\n      pop\n      pop\n      pop\n      pop\n      jump\t// out\n        /* \"#utility.yul\":8933:9051   */\n    tag_164:\n        /* \"#utility.yul\":9004:9026   */\n      tag_290\n        /* \"#utility.yul\":9020:9025   */\n      dup2\n        /* \"#utility.yul\":9004:9026   */\n      tag_160\n      jump\t// in\n    tag_290:\n        /* \"#utility.yul\":8997:9002   */\n      dup2\n        /* \"#utility.yul\":8994:9027   */\n      eq\n        /* \"#utility.yul\":8984:9045   */\n      tag_291\n      jumpi\n        /* \"#utility.yul\":9041:9042   */\n      0x00\n        /* \"#utility.yul\":9038:9039   */\n      dup1\n        /* \"#utility.yul\":9031:9043   */\n      revert\n        /* \"#utility.yul\":8984:9045   */\n    tag_291:\n        /* \"#utility.yul\":8933:9051   */\n      pop\n      jump\t// out\n        /* \"#utility.yul\":9057:9192   */\n    tag_165:\n        /* \"#utility.yul\":9101:9106   */\n      0x00\n        /* \"#utility.yul\":9139:9145   */\n      dup2\n        /* \"#utility.yul\":9126:9146   */\n      calldataload\n        /* \"#utility.yul\":9117:9146   */\n      swap1\n      pop\n        /* \"#utility.yul\":9155:9186   */\n      tag_293\n        /* \"#utility.yul\":9180:9185   */\n      dup2\n        /* \"#utility.yul\":9155:9186   */\n      tag_164\n      jump\t// in\n    tag_293:\n        /* \"#utility.yul\":9057:9192   */\n      swap3\n      swap2\n      pop\n      pop\n      jump\t// out\n        /* \"#utility.yul\":9198:9523   */\n    tag_52:\n        /* \"#utility.yul\":9255:9261   */\n      0x00\n        /* \"#utility.yul\":9304:9306   */\n      0x20\n        /* \"#utility.yul\":9292:9301   */\n      dup3\n        /* \"#utility.yul\":9283:9290   */\n      dup5\n        /* \"#utility.yul\":9279:9302   */\n      sub\n        /* \"#utility.yul\":9275:9307   */\n      slt\n        /* \"#utility.yul\":9272:9391   */\n      iszero\n      tag_295\n      jumpi\n        /* \"#utility.yul\":9310:9389   */\n      tag_296\n      tag_131\n      jump\t// in\n    tag_296:\n        /* \"#utility.yul\":9272:9391   */\n    tag_295:\n        /* \"#utility.yul\":9430:9431   */\n      0x00\n        /* \"#utility.yul\":9455:9506   */\n      tag_297\n        /* \"#utility.yul\":9498:9505   */\n      dup5\n        /* \"#utility.yul\":9489:9495   */\n      dup3\n        /* \"#utility.yul\":9478:9487   */\n      dup6\n        /* \"#utility.yul\":9474:9496   */\n      add\n        /* \"#utility.yul\":9455:9506   */\n      tag_165\n      jump\t// in\n    tag_297:\n        /* \"#utility.yul\":9445:9506   */\n      swap2\n      pop\n        /* \"#utility.yul\":9401:9516   */\n      pop\n        /* \"#utility.yul\":9198:9523   */\n      swap3\n      swap2\n      pop\n      pop\n      jump\t// out\n        /* \"#utility.yul\":9529:9709   */\n    tag_166:\n        /* \"#utility.yul\":9577:9654   */\n      0x4e487b7100000000000000000000000000000000000000000000000000000000\n        /* \"#utility.yul\":9574:9575   */\n      0x00\n        /* \"#utility.yul\":9567:9655   */\n      mstore\n        /* \"#utility.yul\":9674:9678   */\n      0x22\n        /* \"#utility.yul\":9671:9672   */\n      0x04\n        /* \"#utility.yul\":9664:9679   */\n      mstore\n        /* \"#utility.yul\":9698:9702   */\n      0x24\n        /* \"#utility.yul\":9695:9696   */\n      0x00\n        /* \"#utility.yul\":9688:9703   */\n      revert\n        /* \"#utility.yul\":9715:10035   */\n    tag_63:\n        /* \"#utility.yul\":9759:9765   */\n      0x00\n        /* \"#utility.yul\":9796:9797   */\n      0x02\n        /* \"#utility.yul\":9790:9794   */\n      dup3\n        /* \"#utility.yul\":9786:9798   */\n      div\n        /* \"#utility.yul\":9776:9798   */\n      swap1\n      pop\n        /* \"#utility.yul\":9843:9844   */\n      0x01\n        /* \"#utility.yul\":9837:9841   */\n      dup3\n        /* \"#utility.yul\":9833:9845   */\n      and\n        /* \"#utility.yul\":9864:9882   */\n      dup1\n        /* \"#utility.yul\":9854:9935   */\n      tag_300\n      jumpi\n        /* \"#utility.yul\":9920:9924   */\n      0x7f\n        /* \"#utility.yul\":9912:9918   */\n      dup3\n        /* \"#utility.yul\":9908:9925   */\n      and\n        /* \"#utility.yul\":9898:9925   */\n      swap2\n      pop\n        /* \"#utility.yul\":9854:9935   */\n    tag_300:\n        /* \"#utility.yul\":9982:9984   */\n      0x20\n        /* \"#utility.yul\":9974:9980   */\n      dup3\n        /* \"#utility.yul\":9971:9985   */\n      lt\n        /* \"#utility.yul\":9951:9969   */\n      dup2\n        /* \"#utility.yul\":9948:9986   */\n      sub\n        /* \"#utility.yul\":9945:10029   */\n      tag_301\n      jumpi\n        /* \"#utility.yul\":10001:10019   */\n      tag_302\n      tag_166\n      jump\t// in\n    tag_302:\n        /* \"#utility.yul\":9945:10029   */\n    tag_301:\n        /* \"#utility.yul\":9766:10035   */\n      pop\n        /* \"#utility.yul\":9715:10035   */\n      swap2\n      swap1\n      pop\n      jump\t// out\n        /* \"#utility.yul\":10041:10221   */\n    tag_167:\n        /* \"#utility.yul\":10089:10166   */\n      0x4e487b7100000000000000000000000000000000000000000000000000000000\n        /* \"#utility.yul\":10086:10087   */\n      0x00\n        /* \"#utility.yul\":10079:10167   */\n      mstore\n        /* \"#utility.yul\":10186:10190   */\n      0x11\n        /* \"#utility.yul\":10183:10184   */\n      0x04\n        /* \"#utility.yul\":10176:10191   */\n      mstore\n        /* \"#utility.yul\":10210:10214   */\n      0x24\n        /* \"#utility.yul\":10207:10208   */\n      0x00\n        /* \"#utility.yul\":10200:10215   */\n      revert\n        /* \"#utility.yul\":10227:10460   */\n    tag_82:\n        /* \"#utility.yul\":10266:10269   */\n      0x00\n        /* \"#utility.yul\":10289:10313   */\n      tag_305\n        /* \"#utility.yul\":10307:10312   */\n      dup3\n        /* \"#utility.yul\":10289:10313   */\n      tag_133\n      jump\t// in\n    tag_305:\n        /* \"#utility.yul\":10280:10313   */\n      swap2\n      pop\n        /* \"#utility.yul\":10335:10401   */\n      0xffffffffffffffffffffffffffffffffffffffffffffffffffffffffffffffff\n        /* \"#utility.yul\":10328:10333   */\n      dup3\n        /* \"#utility.yul\":10325:10402   */\n      sub\n        /* \"#utility.yul\":10322:10425   */\n      tag_306\n      jumpi\n        /* \"#utility.yul\":10405:10423   */\n      tag_307\n      tag_167\n      jump\t// in\n    tag_307:\n        /* \"#utility.yul\":10322:10425   */\n    tag_306:\n        /* \"#utility.yul\":10452:10453   */\n      0x01\n        /* \"#utility.yul\":10445:10450   */\n      dup3\n        /* \"#utility.yul\":10441:10454   */\n      add\n        /* \"#utility.yul\":10434:10454   */\n      swap1\n      pop\n        /* \"#utility.yul\":10227:10460   */\n      swap2\n      swap1\n      pop\n      jump\t// out\n        /* \"#utility.yul\":10466:10657   */\n    tag_84:\n        /* \"#utility.yul\":10506:10509   */\n      0x00\n        /* \"#utility.yul\":10525:10545   */\n      tag_309\n        /* \"#utility.yul\":10543:10544   */\n      dup3\n        /* \"#utility.yul\":10525:10545   */\n      tag_133\n      jump\t// in\n    tag_309:\n        /* \"#utility.yul\":10520:10545   */\n      swap2\n      pop\n        /* \"#utility.yul\":10559:10579   */\n      tag_310\n        /* \"#utility.yul\":10577:10578   */\n      dup4\n        /* \"#utility.yul\":10559:10579   */\n      tag_133\n      jump\t// in\n    tag_310:\n        /* \"#utility.yul\":10554:10579   */\n      swap3\n      pop\n        /* \"#utility.yul\":10602:10603   */\n      dup3\n        /* \"#utility.yul\":10599:10600   */\n      dup3\n        /* \"#utility.yul\":10595:10604   */\n      add\n        /* \"#utility.yul\":10588:10604   */\n      swap1\n      pop\n        /* \"#utility.yul\":10623:10626   */\n      dup1\n        /* \"#utility.yul\":10620:10621   */\n      dup3\n        /* \"#utility.yul\":10617:10627   */\n      gt\n        /* \"#utility.yul\":10614:10650   */\n      iszero\n      tag_311\n      jumpi\n        /* \"#utility.yul\":10630:10648   */\n      tag_312\n      tag_167\n      jump\t// in\n    tag_312:\n        /* \"#utility.yul\":10614:10650   */\n    tag_311:\n        /* \"#utility.yul\":10466:10657   */\n      swap3\n      swap2\n      pop\n      pop\n      jump\t// out\n        /* \"#utility.yul\":10663:10804   */\n    tag_168:\n        /* \"#utility.yul\":10712:10716   */\n      0x00\n        /* \"#utility.yul\":10735:10738   */\n      dup2\n        /* \"#utility.yul\":10727:10738   */\n      swap1\n      pop\n        /* \"#utility.yul\":10758:10761   */\n      dup2\n        /* \"#utility.yul\":10755:10756   */\n      0x00\n        /* \"#utility.yul\":10748:10762   */\n      mstore\n        /* \"#utility.yul\":10792:10796   */\n      0x20\n        /* \"#utility.yul\":10789:10790   */\n      0x00\n        /* \"#utility.yul\":10779:10797   */\n      keccak256\n        /* \"#utility.yul\":10771:10797   */\n      swap1\n      pop\n        /* \"#utility.yul\":10663:10804   */\n      swap2\n      swap1\n      pop\n      jump\t// out\n        /* \"#utility.yul\":10810:10903   */\n    tag_169:\n        /* \"#utility.yul\":10847:10853   */\n      0x00\n        /* \"#utility.yul\":10894:10896   */\n      0x20\n        /* \"#utility.yul\":10889:10891   */\n      0x1f\n        /* \"#utility.yul\":10882:10887   */\n      dup4\n        /* \"#utility.yul\":10878:10892   */\n      add\n        /* \"#utility.yul\":10874:10897   */\n      div\n        /* \"#utility.yul\":10864:10897   */\n      swap1\n      pop\n        /* \"#utility.yul\":10810:10903   */\n      swap2\n      swap1\n      pop\n      jump\t// out\n        /* \"#utility.yul\":10909:11016   */\n    tag_170:\n        /* \"#utility.yul\":10953:10961   */\n      0x00\n        /* \"#utility.yul\":11003:11008   */\n      dup3\n        /* \"#utility.yul\":10997:11001   */\n      dup3\n        /* \"#utility.yul\":10993:11009   */\n      shl\n        /* \"#utility.yul\":10972:11009   */\n      swap1\n      pop\n        /* \"#utility.yul\":10909:11016   */\n      swap3\n      swap2\n      pop\n      pop\n      jump\t// out\n        /* \"#utility.yul\":11022:11415   */\n    tag_171:\n        /* \"#utility.yul\":11091:11097   */\n      0x00\n        /* \"#utility.yul\":11141:11142   */\n      0x08\n        /* \"#utility.yul\":11129:11139   */\n      dup4\n        /* \"#utility.yul\":11125:11143   */\n      mul\n        /* \"#utility.yul\":11164:11261   */\n      tag_317\n        /* \"#utility.yul\":11194:11260   */\n      0xffffffffffffffffffffffffffffffffffffffffffffffffffffffffffffffff\n        /* \"#utility.yul\":11183:11192   */\n      dup3\n        /* \"#utility.yul\":11164:11261   */\n      tag_170\n      jump\t// in\n    tag_317:\n        /* \"#utility.yul\":11282:11321   */\n      tag_318\n        /* \"#utility.yul\":11312:11320   */\n      dup7\n        /* \"#utility.yul\":11301:11310   */\n      dup4\n        /* \"#utility.yul\":11282:11321   */\n      tag_170\n      jump\t// in\n    tag_318:\n        /* \"#utility.yul\":11270:11321   */\n      swap6\n      pop\n        /* \"#utility.yul\":11354:11358   */\n      dup1\n        /* \"#utility.yul\":11350:11359   */\n      not\n        /* \"#utility.yul\":11343:11348   */\n      dup5\n        /* \"#utility.yul\":11339:11360   */\n      and\n        /* \"#utility.yul\":11330:11360   */\n      swap4\n      pop\n        /* \"#utility.yul\":11403:11407   */\n      dup1\n        /* \"#utility.yul\":11393:11401   */\n      dup7\n        /* \"#utility.yul\":11389:11408   */\n      and\n        /* \"#utility.yul\":11382:11387   */\n      dup5\n        /* \"#utility.yul\":11379:11409   */\n      or\n        /* \"#utility.yul\":11369:11409   */\n      swap3\n      pop\n        /* \"#utility.yul\":11098:11415   */\n      pop\n      pop\n        /* \"#utility.yul\":11022:11415   */\n      swap4\n      swap3\n      pop\n      pop\n      pop\n      jump\t// out\n        /* \"#utility.yul\":11421:11481   */\n    tag_172:\n        /* \"#utility.yul\":11449:11452   */\n      0x00\n        /* \"#utility.yul\":11470:11475   */\n      dup2\n        /* \"#utility.yul\":11463:11475   */\n      swap1\n      pop\n        /* \"#utility.yul\":11421:11481   */\n      swap2\n      swap1\n      pop\n      jump\t// out\n        /* \"#utility.yul\":11487:11629   */\n    tag_173:\n        /* \"#utility.yul\":11537:11546   */\n      0x00\n        /* \"#utility.yul\":11570:11623   */\n      tag_321\n        /* \"#utility.yul\":11588:11622   */\n      tag_322\n        /* \"#utility.yul\":11597:11621   */\n      tag_323\n        /* \"#utility.yul\":11615:11620   */\n      dup5\n        /* \"#utility.yul\":11597:11621   */\n      tag_133\n      jump\t// in\n    tag_323:\n        /* \"#utility.yul\":11588:11622   */\n      tag_172\n      jump\t// in\n    tag_322:\n        /* \"#utility.yul\":11570:11623   */\n      tag_133\n      jump\t// in\n    tag_321:\n        /* \"#utility.yul\":11557:11623   */\n      swap1\n      pop\n        /* \"#utility.yul\":11487:11629   */\n      swap2\n      swap1\n      pop\n      jump\t// out\n        /* \"#utility.yul\":11635:11710   */\n    tag_174:\n        /* \"#utility.yul\":11678:11681   */\n      0x00\n        /* \"#utility.yul\":11699:11704   */\n      dup2\n        /* \"#utility.yul\":11692:11704   */\n      swap1\n      pop\n        /* \"#utility.yul\":11635:11710   */\n      swap2\n      swap1\n      pop\n      jump\t// out\n        /* \"#utility.yul\":11716:11985   */\n    tag_175:\n        /* \"#utility.yul\":11826:11865   */\n      tag_326\n        /* \"#utility.yul\":11857:11864   */\n      dup4\n        /* \"#utility.yul\":11826:11865   */\n      tag_173\n      jump\t// in\n    tag_326:\n        /* \"#utility.yul\":11887:11978   */\n      tag_327\n        /* \"#utility.yul\":11936:11977   */\n      tag_328\n        /* \"#utility.yul\":11960:11976   */\n      dup3\n        /* \"#utility.yul\":11936:11977   */\n      tag_174\n      jump\t// in\n    tag_328:\n        /* \"#utility.yul\":11928:11934   */\n      dup5\n        /* \"#utility.yul\":11921:11925   */\n      dup5\n        /* \"#utility.yul\":11915:11926   */\n      sload\n        /* \"#utility.yul\":11887:11978   */\n      tag_171\n      jump\t// in\n    tag_327:\n        /* \"#utility.yul\":11881:11885   */\n      dup3\n        /* \"#utility.yul\":11874:11979   */\n      sstore\n        /* \"#utility.yul\":11792:11985   */\n      pop\n        /* \"#utility.yul\":11716:11985   */\n      pop\n      pop\n      pop\n      jump\t// out\n        /* \"#utility.yul\":11991:12064   */\n    tag_176:\n        /* \"#utility.yul\":12036:12039   */\n      0x00\n        /* \"#utility.yul\":11991:12064   */\n      swap1\n      jump\t// out\n        /* \"#utility.yul\":12070:12259   */\n    tag_177:\n        /* \"#utility.yul\":12147:12179   */\n      tag_331\n      tag_176\n      jump\t// in\n    tag_331:\n        /* \"#utility.yul\":12188:12253   */\n      tag_332\n        /* \"#utility.yul\":12246:12252   */\n      dup2\n        /* \"#utility.yul\":12238:12244   */\n      dup5\n        /* \"#utility.yul\":12232:12236   */\n      dup5\n        /* \"#utility.yul\":12188:12253   */\n      tag_175\n      jump\t// in\n    tag_332:\n        /* \"#utility.yul\":12123:12259   */\n      pop\n        /* \"#utility.yul\":12070:12259   */\n      pop\n      pop\n      jump\t// out\n        /* \"#utility.yul\":12265:12451   */\n    tag_178:\n        /* \"#utility.yul\":12325:12445   */\n    tag_334:\n        /* \"#utility.yul\":12342:12345   */\n      dup2\n        /* \"#utility.yul\":12335:12340   */\n      dup2\n        /* \"#utility.yul\":12332:12346   */\n      lt\n        /* \"#utility.yul\":12325:12445   */\n      iszero\n      tag_336\n      jumpi\n        /* \"#utility.yul\":12396:12435   */\n      tag_337\n        /* \"#utility.yul\":12433:12434   */\n      0x00\n        /* \"#utility.yul\":12426:12431   */\n      dup3\n        /* \"#utility.yul\":12396:12435   */\n      tag_177\n      jump\t// in\n    tag_337:\n        /* \"#utility.yul\":12369:12370   */\n      0x01\n        /* \"#utility.yul\":12362:12367   */\n      dup2\n        /* \"#utility.yul\":12358:12371   */\n      add\n        /* \"#utility.yul\":12349:12371   */\n      swap1\n      pop\n        /* \"#utility.yul\":12325:12445   */\n      jump(tag_334)\n    tag_336:\n        /* \"#utility.yul\":12265:12451   */\n      pop\n      pop\n      jump\t// out\n        /* \"#utility.yul\":12457:13000   */\n    tag_179:\n        /* \"#utility.yul\":12558:12560   */\n      0x1f\n        /* \"#utility.yul\":12553:12556   */\n      dup3\n        /* \"#utility.yul\":12550:12561   */\n      gt\n        /* \"#utility.yul\":12547:12993   */\n      iszero\n      tag_339\n      jumpi\n        /* \"#utility.yul\":12592:12630   */\n      tag_340\n        /* \"#utility.yul\":12624:12629   */\n      dup2\n        /* \"#utility.yul\":12592:12630   */\n      tag_168\n      jump\t// in\n    tag_340:\n        /* \"#utility.yul\":12676:12705   */\n      tag_341\n        /* \"#utility.yul\":12694:12704   */\n      dup5\n        /* \"#utility.yul\":12676:12705   */\n      tag_169\n      jump\t// in\n    tag_341:\n        /* \"#utility.yul\":12666:12674   */\n      dup2\n        /* \"#utility.yul\":12662:12706   */\n      add\n        /* \"#utility.yul\":12859:12861   */\n      0x20\n        /* \"#utility.yul\":12847:12857   */\n      dup6\n        /* \"#utility.yul\":12844:12862   */\n      lt\n        /* \"#utility.yul\":12841:12890   */\n      iszero\n      tag_342\n      jumpi\n        /* \"#utility.yul\":12880:12888   */\n      dup2\n        /* \"#utility.yul\":12865:12888   */\n      swap1\n      pop\n        /* \"#utility.yul\":12841:12890   */\n    tag_342:\n        /* \"#utility.yul\":12903:12983   */\n      tag_343\n        /* \"#utility.yul\":12959:12981   */\n      tag_344\n        /* \"#utility.yul\":12977:12980   */\n      dup6\n        /* \"#utility.yul\":12959:12981   */\n      tag_169\n      jump\t// in\n    tag_344:\n        /* \"#utility.yul\":12949:12957   */\n      dup4\n        /* \"#utility.yul\":12945:12982   */\n      add\n        /* \"#utility.yul\":12932:12943   */\n      dup3\n        /* \"#utility.yul\":12903:12983   */\n      tag_178\n      jump\t// in\n    tag_343:\n        /* \"#utility.yul\":12562:12993   */\n      pop\n      pop\n        /* \"#utility.yul\":12547:12993   */\n    tag_339:\n        /* \"#utility.yul\":12457:13000   */\n      pop\n      pop\n      pop\n      jump\t// out\n        /* \"#utility.yul\":13006:13123   */\n    tag_180:\n        /* \"#utility.yul\":13060:13068   */\n      0x00\n        /* \"#utility.yul\":13110:13115   */\n      dup3\n        /* \"#utility.yul\":13104:13108   */\n      dup3\n        /* \"#utility.yul\":13100:13116   */\n      shr\n        /* \"#utility.yul\":13079:13116   */\n      swap1\n      pop\n        /* \"#utility.yul\":13006:13123   */\n      swap3\n      swap2\n      pop\n      pop\n      jump\t// out\n        /* \"#utility.yul\":13129:13298   */\n    tag_181:\n        /* \"#utility.yul\":13173:13179   */\n      0x00\n        /* \"#utility.yul\":13206:13257   */\n      tag_347\n        /* \"#utility.yul\":13254:13255   */\n      0x00\n        /* \"#utility.yul\":13250:13256   */\n      not\n        /* \"#utility.yul\":13242:13247   */\n      dup5\n        /* \"#utility.yul\":13239:13240   */\n      0x08\n        /* \"#utility.yul\":13235:13248   */\n      mul\n        /* \"#utility.yul\":13206:13257   */\n      tag_180\n      jump\t// in\n    tag_347:\n        /* \"#utility.yul\":13202:13258   */\n      not\n        /* \"#utility.yul\":13287:13291   */\n      dup1\n        /* \"#utility.yul\":13281:13285   */\n      dup4\n        /* \"#utility.yul\":13277:13292   */\n      and\n        /* \"#utility.yul\":13267:13292   */\n      swap2\n      pop\n        /* \"#utility.yul\":13180:13298   */\n      pop\n        /* \"#utility.yul\":13129:13298   */\n      swap3\n      swap2\n      pop\n      pop\n      jump\t// out\n        /* \"#utility.yul\":13303:13598   */\n    tag_182:\n        /* \"#utility.yul\":13379:13383   */\n      0x00\n        /* \"#utility.yul\":13525:13554   */\n      tag_349\n        /* \"#utility.yul\":13550:13553   */\n      dup4\n        /* \"#utility.yul\":13544:13548   */\n      dup4\n        /* \"#utility.yul\":13525:13554   */\n      tag_181\n      jump\t// in\n    tag_349:\n        /* \"#utility.yul\":13517:13554   */\n      swap2\n      pop\n        /* \"#utility.yul\":13587:13590   */\n      dup3\n        /* \"#utility.yul\":13584:13585   */\n      0x02\n        /* \"#utility.yul\":13580:13591   */\n      mul\n        /* \"#utility.yul\":13574:13578   */\n      dup3\n        /* \"#utility.yul\":13571:13592   */\n      or\n        /* \"#utility.yul\":13563:13592   */\n      swap1\n      pop\n        /* \"#utility.yul\":13303:13598   */\n      swap3\n      swap2\n      pop\n      pop\n      jump\t// out\n        /* \"#utility.yul\":13603:14998   */\n    tag_91:\n        /* \"#utility.yul\":13720:13757   */\n      tag_351\n        /* \"#utility.yul\":13753:13756   */\n      dup3\n        /* \"#utility.yul\":13720:13757   */\n      tag_137\n      jump\t// in\n    tag_351:\n        /* \"#utility.yul\":13822:13840   */\n      0xffffffffffffffff\n        /* \"#utility.yul\":13814:13820   */\n      dup2\n        /* \"#utility.yul\":13811:13841   */\n      gt\n        /* \"#utility.yul\":13808:13864   */\n      iszero\n      tag_352\n      jumpi\n        /* \"#utility.yul\":13844:13862   */\n      tag_353\n      tag_153\n      jump\t// in\n    tag_353:\n        /* \"#utility.yul\":13808:13864   */\n    tag_352:\n        /* \"#utility.yul\":13888:13926   */\n      tag_354\n        /* \"#utility.yul\":13920:13924   */\n      dup3\n        /* \"#utility.yul\":13914:13925   */\n      sload\n        /* \"#utility.yul\":13888:13926   */\n      tag_63\n      jump\t// in\n    tag_354:\n        /* \"#utility.yul\":13973:14040   */\n      tag_355\n        /* \"#utility.yul\":14033:14039   */\n      dup3\n        /* \"#utility.yul\":14025:14031   */\n      dup3\n        /* \"#utility.yul\":14019:14023   */\n      dup6\n        /* \"#utility.yul\":13973:14040   */\n      tag_179\n      jump\t// in\n    tag_355:\n        /* \"#utility.yul\":14067:14068   */\n      0x00\n        /* \"#utility.yul\":14091:14095   */\n      0x20\n        /* \"#utility.yul\":14078:14095   */\n      swap1\n      pop\n        /* \"#utility.yul\":14123:14125   */\n      0x1f\n        /* \"#utility.yul\":14115:14121   */\n      dup4\n        /* \"#utility.yul\":14112:14126   */\n      gt\n        /* \"#utility.yul\":14140:14141   */\n      0x01\n        /* \"#utility.yul\":14135:14753   */\n      dup2\n      eq\n      tag_357\n      jumpi\n        /* \"#utility.yul\":14797:14798   */\n      0x00\n        /* \"#utility.yul\":14814:14820   */\n      dup5\n        /* \"#utility.yul\":14811:14888   */\n      iszero\n      tag_358\n      jumpi\n        /* \"#utility.yul\":14863:14872   */\n      dup3\n        /* \"#utility.yul\":14858:14861   */\n      dup8\n        /* \"#utility.yul\":14854:14873   */\n      add\n        /* \"#utility.yul\":14848:14874   */\n      mload\n        /* \"#utility.yul\":14839:14874   */\n      swap1\n      pop\n        /* \"#utility.yul\":14811:14888   */\n    tag_358:\n        /* \"#utility.yul\":14914:14981   */\n      tag_359\n        /* \"#utility.yul\":14974:14980   */\n      dup6\n        /* \"#utility.yul\":14967:14972   */\n      dup3\n        /* \"#utility.yul\":14914:14981   */\n      tag_182\n      jump\t// in\n    tag_359:\n        /* \"#utility.yul\":14908:14912   */\n      dup7\n        /* \"#utility.yul\":14901:14982   */\n      sstore\n        /* \"#utility.yul\":14770:14992   */\n      pop\n        /* \"#utility.yul\":14105:14992   */\n      jump(tag_356)\n        /* \"#utility.yul\":14135:14753   */\n    tag_357:\n        /* \"#utility.yul\":14187:14191   */\n      0x1f\n        /* \"#utility.yul\":14183:14192   */\n      not\n        /* \"#utility.yul\":14175:14181   */\n      dup5\n        /* \"#utility.yul\":14171:14193   */\n      and\n        /* \"#utility.yul\":14221:14258   */\n      tag_360\n        /* \"#utility.yul\":14253:14257   */\n      dup7\n        /* \"#utility.yul\":14221:14258   */\n      tag_168\n      jump\t// in\n    tag_360:\n        /* \"#utility.yul\":14280:14281   */\n      0x00\n        /* \"#utility.yul\":14294:14502   */\n    tag_361:\n        /* \"#utility.yul\":14308:14315   */\n      dup3\n        /* \"#utility.yul\":14305:14306   */\n      dup2\n        /* \"#utility.yul\":14302:14316   */\n      lt\n        /* \"#utility.yul\":14294:14502   */\n      iszero\n      tag_363\n      jumpi\n        /* \"#utility.yul\":14387:14396   */\n      dup5\n        /* \"#utility.yul\":14382:14385   */\n      dup10\n        /* \"#utility.yul\":14378:14397   */\n      add\n        /* \"#utility.yul\":14372:14398   */\n      mload\n        /* \"#utility.yul\":14364:14370   */\n      dup3\n        /* \"#utility.yul\":14357:14399   */\n      sstore\n        /* \"#utility.yul\":14438:14439   */\n      0x01\n        /* \"#utility.yul\":14430:14436   */\n      dup3\n        /* \"#utility.yul\":14426:14440   */\n      add\n        /* \"#utility.yul\":14416:14440   */\n      swap2\n      pop\n        /* \"#utility.yul\":14485:14487   */\n      0x20\n        /* \"#utility.yul\":14474:14483   */\n      dup6\n        /* \"#utility.yul\":14470:14488   */\n      add\n        /* \"#utility.yul\":14457:14488   */\n      swap5\n      pop\n        /* \"#utility.yul\":14331:14335   */\n      0x20\n        /* \"#utility.yul\":14328:14329   */\n      dup2\n        /* \"#utility.yul\":14324:14336   */\n      add\n        /* \"#utility.yul\":14319:14336   */\n      swap1\n      pop\n        /* \"#utility.yul\":14294:14502   */\n      jump(tag_361)\n    tag_363:\n        /* \"#utility.yul\":14530:14536   */\n      dup7\n        /* \"#utility.yul\":14521:14528   */\n      dup4\n        /* \"#utility.yul\":14518:14537   */\n      lt\n        /* \"#utility.yul\":14515:14694   */\n      iszero\n      tag_364\n      jumpi\n        /* \"#utility.yul\":14588:14597   */\n      dup5\n        /* \"#utility.yul\":14583:14586   */\n      dup10\n        /* \"#utility.yul\":14579:14598   */\n      add\n        /* \"#utility.yul\":14573:14599   */\n      mload\n        /* \"#utility.yul\":14631:14679   */\n      tag_365\n        /* \"#utility.yul\":14673:14677   */\n      0x1f\n        /* \"#utility.yul\":14665:14671   */\n      dup10\n        /* \"#utility.yul\":14661:14678   */\n      and\n        /* \"#utility.yul\":14650:14659   */\n      dup3\n        /* \"#utility.yul\":14631:14679   */\n      tag_181\n      jump\t// in\n    tag_365:\n        /* \"#utility.yul\":14623:14629   */\n      dup4\n        /* \"#utility.yul\":14616:14680   */\n      sstore\n        /* \"#utility.yul\":14538:14694   */\n      pop\n        /* \"#utility.yul\":14515:14694   */\n    tag_364:\n        /* \"#utility.yul\":14740:14741   */\n      0x01\n        /* \"#utility.yul\":14736:14737   */\n      0x02\n        /* \"#utility.yul\":14728:14734   */\n      dup9\n        /* \"#utility.yul\":14724:14738   */\n      mul\n        /* \"#utility.yul\":14720:14742   */\n      add\n        /* \"#utility.yul\":14714:14718   */\n      dup9\n        /* \"#utility.yul\":14707:14743   */\n      sstore\n        /* \"#utility.yul\":14142:14753   */\n      pop\n      pop\n      pop\n        /* \"#utility.yul\":14105:14992   */\n    tag_356:\n      pop\n        /* \"#utility.yul\":13695:14998   */\n      pop\n      pop\n      pop\n        /* \"#utility.yul\":13603:14998   */\n      pop\n      pop\n      jump\t// out\n        /* \"#utility.yul\":15004:15184   */\n    tag_105:\n        /* \"#utility.yul\":15052:15129   */\n      0x4e487b7100000000000000000000000000000000000000000000000000000000\n        /* \"#utility.yul\":15049:15050   */\n      0x00\n        /* \"#utility.yul\":15042:15130   */\n      mstore\n        /* \"#utility.yul\":15149:15153   */\n      0x32\n        /* \"#utility.yul\":15146:15147   */\n      0x04\n        /* \"#utility.yul\":15139:15154   */\n      mstore\n        /* \"#utility.yul\":15173:15177   */\n      0x24\n        /* \"#utility.yul\":15170:15171   */\n      0x00\n        /* \"#utility.yul\":15163:15178   */\n      revert\n        /* \"#utility.yul\":15190:15357   */\n    tag_112:\n        /* \"#utility.yul\":15227:15230   */\n      0x00\n        /* \"#utility.yul\":15250:15272   */\n      tag_368\n        /* \"#utility.yul\":15266:15271   */\n      dup3\n        /* \"#utility.yul\":15250:15272   */\n      tag_160\n      jump\t// in\n    tag_368:\n        /* \"#utility.yul\":15241:15272   */\n      swap2\n      pop\n        /* \"#utility.yul\":15294:15298   */\n      0xff\n        /* \"#utility.yul\":15287:15292   */\n      dup3\n        /* \"#utility.yul\":15284:15299   */\n      sub\n        /* \"#utility.yul\":15281:15322   */\n      tag_369\n      jumpi\n        /* \"#utility.yul\":15302:15320   */\n      tag_370\n      tag_167\n      jump\t// in\n    tag_370:\n        /* \"#utility.yul\":15281:15322   */\n    tag_369:\n        /* \"#utility.yul\":15349:15350   */\n      0x01\n        /* \"#utility.yul\":15342:15347   */\n      dup3\n        /* \"#utility.yul\":15338:15351   */\n      add\n        /* \"#utility.yul\":15331:15351   */\n      swap1\n      pop\n        /* \"#utility.yul\":15190:15357   */\n      swap2\n      swap1\n      pop\n      jump\t// out\n\n    auxdata: 0xa2646970667358221220c1cde702ba950bd83a6d0a278f2ad7a74d10e114dc0e95681e8f139bc3f7ce9864736f6c63430008120033\n}\n",
				"bytecode": {
					"linkReferences": {},
					"object": "60806040526000600155600060025534801561001a57600080fd5b5033600360006101000a81548173ffffffffffffffffffffffffffffffffffffffff021916908373ffffffffffffffffffffffffffffffffffffffff160217905550600260056000600360009054906101000a900473ffffffffffffffffffffffffffffffffffffffff1673ffffffffffffffffffffffffffffffffffffffff1673ffffffffffffffffffffffffffffffffffffffff1681526020019081526020016000206000018190555060008060006101000a81548160ff021916908360038111156100eb576100ea6100fc565b5b02179055504260048190555061012b565b7f4e487b7100000000000000000000000000000000000000000000000000000000600052602160045260246000fd5b6111b58061013a6000396000f3fe608060405234801561001057600080fd5b50600436106100a95760003560e01c8063585cc4c411610071578063585cc4c414610156578063609ff1bd14610172578063a3ec138d14610190578063b3f98adc146101c2578063c040e6b8146101de578063da35c664146101fc576100a9565b8063013cf08b146100ae5780630fae671e146100e05780632e4176cf146100fe5780632e46fb9a1461011c5780634420e4861461013a575b600080fd5b6100c860048036038101906100c391906108bf565b61021a565b6040516100d79392919061098b565b60405180910390f35b6100e86102dc565b6040516100f59190610a40565b60405180910390f35b61010661031b565b6040516101139190610a9c565b60405180910390f35b610124610341565b6040516101319190610ab7565b60405180910390f35b610154600480360381019061014f9190610afe565b610347565b005b610170600480360381019061016b9190610c60565b610542565b005b61017a6105d7565b6040516101879190610cd8565b60405180910390f35b6101aa60048036038101906101a59190610afe565b6106a4565b6040516101b993929190610d0e565b60405180910390f35b6101dc60048036038101906101d79190610d71565b6106e8565b005b6101e661085e565b6040516101f39190610a40565b60405180910390f35b61020461086f565b6040516102119190610ab7565b60405180910390f35b6006818154811061022a57600080fd5b906000526020600020906003020160009150905080600001549080600101805461025390610dcd565b80601f016020809104026020016040519081016040528092919081815260200182805461027f90610dcd565b80156102cc5780601f106102a1576101008083540402835291602001916102cc565b820191906000526020600020905b8154815290600101906020018083116102af57829003601f168201915b5050505050908060020154905083565b600060016000806101000a81548160ff02191690836003811115610303576103026109c9565b5b021790555060008054906101000a900460ff16905090565b600360009054906101000a900473ffffffffffffffffffffffffffffffffffffffff1681565b60025481565b600180600381111561035c5761035b6109c9565b5b60008054906101000a900460ff16600381111561037c5761037b6109c9565b5b1461038657600080fd5b600360009054906101000a900473ffffffffffffffffffffffffffffffffffffffff1673ffffffffffffffffffffffffffffffffffffffff163373ffffffffffffffffffffffffffffffffffffffff16141580610436575060011515600560008473ffffffffffffffffffffffffffffffffffffffff1673ffffffffffffffffffffffffffffffffffffffff16815260200190815260200160002060010160009054906101000a900460ff161515145b61053e576001600560008473ffffffffffffffffffffffffffffffffffffffff1673ffffffffffffffffffffffffffffffffffffffff168152602001908152602001600020600001819055506000600560008473ffffffffffffffffffffffffffffffffffffffff1673ffffffffffffffffffffffffffffffffffffffff16815260200190815260200160002060010160006101000a81548160ff021916908315150217905550600260008154809291906104f090610e2d565b9190505550601e6004546105049190610e75565b42111561053d5760026000806101000a81548160ff021916908360038111156105305761052f6109c9565b5b0217905550426004819055505b5b5050565b600060405180606001604052808481526020018381526020016000815250905060068190806001815401808255809150506001900390600052602060002090600302016000909190919091506000820151816000015560208201518160010190816105ad9190611055565b50604082015181600201555050600160008154809291906105cd90610e2d565b9190505550505050565b600060038060038111156105ee576105ed6109c9565b5b60008054906101000a900460ff16600381111561060e5761060d6109c9565b5b1461061857600080fd5b6000805b6006805490508160ff16101561069e578160068260ff168154811061064457610643611127565b5b906000526020600020906003020160020154111561068b5760068160ff168154811061067357610672611127565b5b90600052602060002090600302016002015491508093505b808061069690611156565b91505061061c565b50505090565b60056020528060005260406000206000915090508060000154908060010160009054906101000a900460ff16908060010160019054906101000a900460ff16905083565b60028060038111156106fd576106fc6109c9565b5b60008054906101000a900460ff16600381111561071d5761071c6109c9565b5b1461072757600080fd5b6000600560003373ffffffffffffffffffffffffffffffffffffffff1673ffffffffffffffffffffffffffffffffffffffff16815260200190815260200160002090508060010160009054906101000a900460ff168061078f57506006805490508360ff1610155b1561079a575061085a565b60018160010160006101000a81548160ff021916908315150217905550828160010160016101000a81548160ff021916908360ff160217905550806000015460068460ff16815481106107f0576107ef611127565b5b906000526020600020906003020160020160008282546108109190610e75565b92505081905550601e6004546108269190610e75565b4211156108585760036000806101000a81548160ff02191690836003811115610852576108516109c9565b5b02179055505b505b5050565b60008054906101000a900460ff1681565b60015481565b6000604051905090565b600080fd5b600080fd5b6000819050919050565b61089c81610889565b81146108a757600080fd5b50565b6000813590506108b981610893565b92915050565b6000602082840312156108d5576108d461087f565b5b60006108e3848285016108aa565b91505092915050565b6108f581610889565b82525050565b600081519050919050565b600082825260208201905092915050565b60005b8381101561093557808201518184015260208101905061091a565b60008484015250505050565b6000601f19601f8301169050919050565b600061095d826108fb565b6109678185610906565b9350610977818560208601610917565b61098081610941565b840191505092915050565b60006060820190506109a060008301866108ec565b81810360208301526109b28185610952565b90506109c160408301846108ec565b949350505050565b7f4e487b7100000000000000000000000000000000000000000000000000000000600052602160045260246000fd5b60048110610a0957610a086109c9565b5b50565b6000819050610a1a826109f8565b919050565b6000610a2a82610a0c565b9050919050565b610a3a81610a1f565b82525050565b6000602082019050610a556000830184610a31565b92915050565b600073ffffffffffffffffffffffffffffffffffffffff82169050919050565b6000610a8682610a5b565b9050919050565b610a9681610a7b565b82525050565b6000602082019050610ab16000830184610a8d565b92915050565b6000602082019050610acc60008301846108ec565b92915050565b610adb81610a7b565b8114610ae657600080fd5b50565b600081359050610af881610ad2565b92915050565b600060208284031215610b1457610b1361087f565b5b6000610b2284828501610ae9565b91505092915050565b600080fd5b600080fd5b7f4e487b7100000000000000000000000000000000000000000000000000000000600052604160045260246000fd5b610b6d82610941565b810181811067ffffffffffffffff82111715610b8c57610b8b610b35565b5b80604052505050565b6000610b9f610875565b9050610bab8282610b64565b919050565b600067ffffffffffffffff821115610bcb57610bca610b35565b5b610bd482610941565b9050602081019050919050565b82818337600083830152505050565b6000610c03610bfe84610bb0565b610b95565b905082815260208101848484011115610c1f57610c1e610b30565b5b610c2a848285610be1565b509392505050565b600082601f830112610c4757610c46610b2b565b5b8135610c57848260208601610bf0565b91505092915050565b60008060408385031215610c7757610c7661087f565b5b6000610c85858286016108aa565b925050602083013567ffffffffffffffff811115610ca657610ca5610884565b5b610cb285828601610c32565b9150509250929050565b600060ff82169050919050565b610cd281610cbc565b82525050565b6000602082019050610ced6000830184610cc9565b92915050565b60008115159050919050565b610d0881610cf3565b82525050565b6000606082019050610d2360008301866108ec565b610d306020830185610cff565b610d3d6040830184610cc9565b949350505050565b610d4e81610cbc565b8114610d5957600080fd5b50565b600081359050610d6b81610d45565b92915050565b600060208284031215610d8757610d8661087f565b5b6000610d9584828501610d5c565b91505092915050565b7f4e487b7100000000000000000000000000000000000000000000000000000000600052602260045260246000fd5b60006002820490506001821680610de557607f821691505b602082108103610df857610df7610d9e565b5b50919050565b7f4e487b7100000000000000000000000000000000000000000000000000000000600052601160045260246000fd5b6000610e3882610889565b91507fffffffffffffffffffffffffffffffffffffffffffffffffffffffffffffffff8203610e6a57610e69610dfe565b5b600182019050919050565b6000610e8082610889565b9150610e8b83610889565b9250828201905080821115610ea357610ea2610dfe565b5b92915050565b60008190508160005260206000209050919050565b60006020601f8301049050919050565b600082821b905092915050565b600060088302610f0b7fffffffffffffffffffffffffffffffffffffffffffffffffffffffffffffffff82610ece565b610f158683610ece565b95508019841693508086168417925050509392505050565b6000819050919050565b6000610f52610f4d610f4884610889565b610f2d565b610889565b9050919050565b6000819050919050565b610f6c83610f37565b610f80610f7882610f59565b848454610edb565b825550505050565b600090565b610f95610f88565b610fa0818484610f63565b505050565b5b81811015610fc457610fb9600082610f8d565b600181019050610fa6565b5050565b601f82111561100957610fda81610ea9565b610fe384610ebe565b81016020851015610ff2578190505b611006610ffe85610ebe565b830182610fa5565b50505b505050565b600082821c905092915050565b600061102c6000198460080261100e565b1980831691505092915050565b6000611045838361101b565b9150826002028217905092915050565b61105e826108fb565b67ffffffffffffffff81111561107757611076610b35565b5b6110818254610dcd565b61108c828285610fc8565b600060209050601f8311600181146110bf57600084156110ad578287015190505b6110b78582611039565b86555061111f565b601f1984166110cd86610ea9565b60005b828110156110f5578489015182556001820191506020850194506020810190506110d0565b86831015611112578489015161110e601f89168261101b565b8355505b6001600288020188555050505b505050505050565b7f4e487b7100000000000000000000000000000000000000000000000000000000600052603260045260246000fd5b600061116182610cbc565b915060ff820361117457611173610dfe565b5b60018201905091905056fea2646970667358221220c1cde702ba950bd83a6d0a278f2ad7a74d10e114dc0e95681e8f139bc3f7ce9864736f6c63430008120033",
					"opcodes": "PUSH1 0x80 PUSH1 0x40 MSTORE PUSH1 0x0 PUSH1 0x1 SSTORE PUSH1 0x0 PUSH1 0x2 SSTORE CALLVALUE DUP1 ISZERO PUSH2 0x1A JUMPI PUSH1 0x0 DUP1 REVERT JUMPDEST POP CALLER PUSH1 0x3 PUSH1 0x0 PUSH2 0x100 EXP DUP2 SLOAD DUP2 PUSH20 0xFFFFFFFFFFFFFFFFFFFFFFFFFFFFFFFFFFFFFFFF MUL NOT AND SWAP1 DUP4 PUSH20 0xFFFFFFFFFFFFFFFFFFFFFFFFFFFFFFFFFFFFFFFF AND MUL OR SWAP1 SSTORE POP PUSH1 0x2 PUSH1 0x5 PUSH1 0x0 PUSH1 0x3 PUSH1 0x0 SWAP1 SLOAD SWAP1 PUSH2 0x100 EXP SWAP1 DIV PUSH20 0xFFFFFFFFFFFFFFFFFFFFFFFFFFFFFFFFFFFFFFFF AND PUSH20 0xFFFFFFFFFFFFFFFFFFFFFFFFFFFFFFFFFFFFFFFF AND PUSH20 0xFFFFFFFFFFFFFFFFFFFFFFFFFFFFFFFFFFFFFFFF AND DUP2 MSTORE PUSH1 0x20 ADD SWAP1 DUP2 MSTORE PUSH1 0x20 ADD PUSH1 0x0 KECCAK256 PUSH1 0x0 ADD DUP2 SWAP1 SSTORE POP PUSH1 0x0 DUP1 PUSH1 0x0 PUSH2 0x100 EXP DUP2 SLOAD DUP2 PUSH1 0xFF MUL NOT AND SWAP1 DUP4 PUSH1 0x3 DUP2 GT ISZERO PUSH2 0xEB JUMPI PUSH2 0xEA PUSH2 0xFC JUMP JUMPDEST JUMPDEST MUL OR SWAP1 SSTORE POP TIMESTAMP PUSH1 0x4 DUP2 SWAP1 SSTORE POP PUSH2 0x12B JUMP JUMPDEST PUSH32 0x4E487B7100000000000000000000000000000000000000000000000000000000 PUSH1 0x0 MSTORE PUSH1 0x21 PUSH1 0x4 MSTORE PUSH1 0x24 PUSH1 0x0 REVERT JUMPDEST PUSH2 0x11B5 DUP1 PUSH2 0x13A PUSH1 0x0 CODECOPY PUSH1 0x0 RETURN INVALID PUSH1 0x80 PUSH1 0x40 MSTORE CALLVALUE DUP1 ISZERO PUSH2 0x10 JUMPI PUSH1 0x0 DUP1 REVERT JUMPDEST POP PUSH1 0x4 CALLDATASIZE LT PUSH2 0xA9 JUMPI PUSH1 0x0 CALLDATALOAD PUSH1 0xE0 SHR DUP1 PUSH4 0x585CC4C4 GT PUSH2 0x71 JUMPI DUP1 PUSH4 0x585CC4C4 EQ PUSH2 0x156 JUMPI DUP1 PUSH4 0x609FF1BD EQ PUSH2 0x172 JUMPI DUP1 PUSH4 0xA3EC138D EQ PUSH2 0x190 JUMPI DUP1 PUSH4 0xB3F98ADC EQ PUSH2 0x1C2 JUMPI DUP1 PUSH4 0xC040E6B8 EQ PUSH2 0x1DE JUMPI DUP1 PUSH4 0xDA35C664 EQ PUSH2 0x1FC JUMPI PUSH2 0xA9 JUMP JUMPDEST DUP1 PUSH4 0x13CF08B EQ PUSH2 0xAE JUMPI DUP1 PUSH4 0xFAE671E EQ PUSH2 0xE0 JUMPI DUP1 PUSH4 0x2E4176CF EQ PUSH2 0xFE JUMPI DUP1 PUSH4 0x2E46FB9A EQ PUSH2 0x11C JUMPI DUP1 PUSH4 0x4420E486 EQ PUSH2 0x13A JUMPI JUMPDEST PUSH1 0x0 DUP1 REVERT JUMPDEST PUSH2 0xC8 PUSH1 0x4 DUP1 CALLDATASIZE SUB DUP2 ADD SWAP1 PUSH2 0xC3 SWAP2 SWAP1 PUSH2 0x8BF JUMP JUMPDEST PUSH2 0x21A JUMP JUMPDEST PUSH1 0x40 MLOAD PUSH2 0xD7 SWAP4 SWAP3 SWAP2 SWAP1 PUSH2 0x98B JUMP JUMPDEST PUSH1 0x40 MLOAD DUP1 SWAP2 SUB SWAP1 RETURN JUMPDEST PUSH2 0xE8 PUSH2 0x2DC JUMP JUMPDEST PUSH1 0x40 MLOAD PUSH2 0xF5 SWAP2 SWAP1 PUSH2 0xA40 JUMP JUMPDEST PUSH1 0x40 MLOAD DUP1 SWAP2 SUB SWAP1 RETURN JUMPDEST PUSH2 0x106 PUSH2 0x31B JUMP JUMPDEST PUSH1 0x40 MLOAD PUSH2 0x113 SWAP2 SWAP1 PUSH2 0xA9C JUMP JUMPDEST PUSH1 0x40 MLOAD DUP1 SWAP2 SUB SWAP1 RETURN JUMPDEST PUSH2 0x124 PUSH2 0x341 JUMP JUMPDEST PUSH1 0x40 MLOAD PUSH2 0x131 SWAP2 SWAP1 PUSH2 0xAB7 JUMP JUMPDEST PUSH1 0x40 MLOAD DUP1 SWAP2 SUB SWAP1 RETURN JUMPDEST PUSH2 0x154 PUSH1 0x4 DUP1 CALLDATASIZE SUB DUP2 ADD SWAP1 PUSH2 0x14F SWAP2 SWAP1 PUSH2 0xAFE JUMP JUMPDEST PUSH2 0x347 JUMP JUMPDEST STOP JUMPDEST PUSH2 0x170 PUSH1 0x4 DUP1 CALLDATASIZE SUB DUP2 ADD SWAP1 PUSH2 0x16B SWAP2 SWAP1 PUSH2 0xC60 JUMP JUMPDEST PUSH2 0x542 JUMP JUMPDEST STOP JUMPDEST PUSH2 0x17A PUSH2 0x5D7 JUMP JUMPDEST PUSH1 0x40 MLOAD PUSH2 0x187 SWAP2 SWAP1 PUSH2 0xCD8 JUMP JUMPDEST PUSH1 0x40 MLOAD DUP1 SWAP2 SUB SWAP1 RETURN JUMPDEST PUSH2 0x1AA PUSH1 0x4 DUP1 CALLDATASIZE SUB DUP2 ADD SWAP1 PUSH2 0x1A5 SWAP2 SWAP1 PUSH2 0xAFE JUMP JUMPDEST PUSH2 0x6A4 JUMP JUMPDEST PUSH1 0x40 MLOAD PUSH2 0x1B9 SWAP4 SWAP3 SWAP2 SWAP1 PUSH2 0xD0E JUMP JUMPDEST PUSH1 0x40 MLOAD DUP1 SWAP2 SUB SWAP1 RETURN JUMPDEST PUSH2 0x1DC PUSH1 0x4 DUP1 CALLDATASIZE SUB DUP2 ADD SWAP1 PUSH2 0x1D7 SWAP2 SWAP1 PUSH2 0xD71 JUMP JUMPDEST PUSH2 0x6E8 JUMP JUMPDEST STOP JUMPDEST PUSH2 0x1E6 PUSH2 0x85E JUMP JUMPDEST PUSH1 0x40 MLOAD PUSH2 0x1F3 SWAP2 SWAP1 PUSH2 0xA40 JUMP JUMPDEST PUSH1 0x40 MLOAD DUP1 SWAP2 SUB SWAP1 RETURN JUMPDEST PUSH2 0x204 PUSH2 0x86F JUMP JUMPDEST PUSH1 0x40 MLOAD PUSH2 0x211 SWAP2 SWAP1 PUSH2 0xAB7 JUMP JUMPDEST PUSH1 0x40 MLOAD DUP1 SWAP2 SUB SWAP1 RETURN JUMPDEST PUSH1 0x6 DUP2 DUP2 SLOAD DUP2 LT PUSH2 0x22A JUMPI PUSH1 0x0 DUP1 REVERT JUMPDEST SWAP1 PUSH1 0x0 MSTORE PUSH1 0x20 PUSH1 0x0 KECCAK256 SWAP1 PUSH1 0x3 MUL ADD PUSH1 0x0 SWAP2 POP SWAP1 POP DUP1 PUSH1 0x0 ADD SLOAD SWAP1 DUP1 PUSH1 0x1 ADD DUP1 SLOAD PUSH2 0x253 SWAP1 PUSH2 0xDCD JUMP JUMPDEST DUP1 PUSH1 0x1F ADD PUSH1 0x20 DUP1 SWAP2 DIV MUL PUSH1 0x20 ADD PUSH1 0x40 MLOAD SWAP1 DUP2 ADD PUSH1 0x40 MSTORE DUP1 SWAP3 SWAP2 SWAP1 DUP2 DUP2 MSTORE PUSH1 0x20 ADD DUP3 DUP1 SLOAD PUSH2 0x27F SWAP1 PUSH2 0xDCD JUMP JUMPDEST DUP1 ISZERO PUSH2 0x2CC JUMPI DUP1 PUSH1 0x1F LT PUSH2 0x2A1 JUMPI PUSH2 0x100 DUP1 DUP4 SLOAD DIV MUL DUP4 MSTORE SWAP2 PUSH1 0x20 ADD SWAP2 PUSH2 0x2CC JUMP JUMPDEST DUP3 ADD SWAP2 SWAP1 PUSH1 0x0 MSTORE PUSH1 0x20 PUSH1 0x0 KECCAK256 SWAP1 JUMPDEST DUP2 SLOAD DUP2 MSTORE SWAP1 PUSH1 0x1 ADD SWAP1 PUSH1 0x20 ADD DUP1 DUP4 GT PUSH2 0x2AF JUMPI DUP3 SWAP1 SUB PUSH1 0x1F AND DUP3 ADD SWAP2 JUMPDEST POP POP POP POP POP SWAP1 DUP1 PUSH1 0x2 ADD SLOAD SWAP1 POP DUP4 JUMP JUMPDEST PUSH1 0x0 PUSH1 0x1 PUSH1 0x0 DUP1 PUSH2 0x100 EXP DUP2 SLOAD DUP2 PUSH1 0xFF MUL NOT AND SWAP1 DUP4 PUSH1 0x3 DUP2 GT ISZERO PUSH2 0x303 JUMPI PUSH2 0x302 PUSH2 0x9C9 JUMP JUMPDEST JUMPDEST MUL OR SWAP1 SSTORE POP PUSH1 0x0 DUP1 SLOAD SWAP1 PUSH2 0x100 EXP SWAP1 DIV PUSH1 0xFF AND SWAP1 POP SWAP1 JUMP JUMPDEST PUSH1 0x3 PUSH1 0x0 SWAP1 SLOAD SWAP1 PUSH2 0x100 EXP SWAP1 DIV PUSH20 0xFFFFFFFFFFFFFFFFFFFFFFFFFFFFFFFFFFFFFFFF AND DUP2 JUMP JUMPDEST PUSH1 0x2 SLOAD DUP2 JUMP JUMPDEST PUSH1 0x1 DUP1 PUSH1 0x3 DUP2 GT ISZERO PUSH2 0x35C JUMPI PUSH2 0x35B PUSH2 0x9C9 JUMP JUMPDEST JUMPDEST PUSH1 0x0 DUP1 SLOAD SWAP1 PUSH2 0x100 EXP SWAP1 DIV PUSH1 0xFF AND PUSH1 0x3 DUP2 GT ISZERO PUSH2 0x37C JUMPI PUSH2 0x37B PUSH2 0x9C9 JUMP JUMPDEST JUMPDEST EQ PUSH2 0x386 JUMPI PUSH1 0x0 DUP1 REVERT JUMPDEST PUSH1 0x3 PUSH1 0x0 SWAP1 SLOAD SWAP1 PUSH2 0x100 EXP SWAP1 DIV PUSH20 0xFFFFFFFFFFFFFFFFFFFFFFFFFFFFFFFFFFFFFFFF AND PUSH20 0xFFFFFFFFFFFFFFFFFFFFFFFFFFFFFFFFFFFFFFFF AND CALLER PUSH20 0xFFFFFFFFFFFFFFFFFFFFFFFFFFFFFFFFFFFFFFFF AND EQ ISZERO DUP1 PUSH2 0x436 JUMPI POP PUSH1 0x1 ISZERO ISZERO PUSH1 0x5 PUSH1 0x0 DUP5 PUSH20 0xFFFFFFFFFFFFFFFFFFFFFFFFFFFFFFFFFFFFFFFF AND PUSH20 0xFFFFFFFFFFFFFFFFFFFFFFFFFFFFFFFFFFFFFFFF AND DUP2 MSTORE PUSH1 0x20 ADD SWAP1 DUP2 MSTORE PUSH1 0x20 ADD PUSH1 0x0 KECCAK256 PUSH1 0x1 ADD PUSH1 0x0 SWAP1 SLOAD SWAP1 PUSH2 0x100 EXP SWAP1 DIV PUSH1 0xFF AND ISZERO ISZERO EQ JUMPDEST PUSH2 0x53E JUMPI PUSH1 0x1 PUSH1 0x5 PUSH1 0x0 DUP5 PUSH20 0xFFFFFFFFFFFFFFFFFFFFFFFFFFFFFFFFFFFFFFFF AND PUSH20 0xFFFFFFFFFFFFFFFFFFFFFFFFFFFFFFFFFFFFFFFF AND DUP2 MSTORE PUSH1 0x20 ADD SWAP1 DUP2 MSTORE PUSH1 0x20 ADD PUSH1 0x0 KECCAK256 PUSH1 0x0 ADD DUP2 SWAP1 SSTORE POP PUSH1 0x0 PUSH1 0x5 PUSH1 0x0 DUP5 PUSH20 0xFFFFFFFFFFFFFFFFFFFFFFFFFFFFFFFFFFFFFFFF AND PUSH20 0xFFFFFFFFFFFFFFFFFFFFFFFFFFFFFFFFFFFFFFFF AND DUP2 MSTORE PUSH1 0x20 ADD SWAP1 DUP2 MSTORE PUSH1 0x20 ADD PUSH1 0x0 KECCAK256 PUSH1 0x1 ADD PUSH1 0x0 PUSH2 0x100 EXP DUP2 SLOAD DUP2 PUSH1 0xFF MUL NOT AND SWAP1 DUP4 ISZERO ISZERO MUL OR SWAP1 SSTORE POP PUSH1 0x2 PUSH1 0x0 DUP2 SLOAD DUP1 SWAP3 SWAP2 SWAP1 PUSH2 0x4F0 SWAP1 PUSH2 0xE2D JUMP JUMPDEST SWAP2 SWAP1 POP SSTORE POP PUSH1 0x1E PUSH1 0x4 SLOAD PUSH2 0x504 SWAP2 SWAP1 PUSH2 0xE75 JUMP JUMPDEST TIMESTAMP GT ISZERO PUSH2 0x53D JUMPI PUSH1 0x2 PUSH1 0x0 DUP1 PUSH2 0x100 EXP DUP2 SLOAD DUP2 PUSH1 0xFF MUL NOT AND SWAP1 DUP4 PUSH1 0x3 DUP2 GT ISZERO PUSH2 0x530 JUMPI PUSH2 0x52F PUSH2 0x9C9 JUMP JUMPDEST JUMPDEST MUL OR SWAP1 SSTORE POP TIMESTAMP PUSH1 0x4 DUP2 SWAP1 SSTORE POP JUMPDEST JUMPDEST POP POP JUMP JUMPDEST PUSH1 0x0 PUSH1 0x40 MLOAD DUP1 PUSH1 0x60 ADD PUSH1 0x40 MSTORE DUP1 DUP5 DUP2 MSTORE PUSH1 0x20 ADD DUP4 DUP2 MSTORE PUSH1 0x20 ADD PUSH1 0x0 DUP2 MSTORE POP SWAP1 POP PUSH1 0x6 DUP2 SWAP1 DUP1 PUSH1 0x1 DUP2 SLOAD ADD DUP1 DUP3 SSTORE DUP1 SWAP2 POP POP PUSH1 0x1 SWAP1 SUB SWAP1 PUSH1 0x0 MSTORE PUSH1 0x20 PUSH1 0x0 KECCAK256 SWAP1 PUSH1 0x3 MUL ADD PUSH1 0x0 SWAP1 SWAP2 SWAP1 SWAP2 SWAP1 SWAP2 POP PUSH1 0x0 DUP3 ADD MLOAD DUP2 PUSH1 0x0 ADD SSTORE PUSH1 0x20 DUP3 ADD MLOAD DUP2 PUSH1 0x1 ADD SWAP1 DUP2 PUSH2 0x5AD SWAP2 SWAP1 PUSH2 0x1055 JUMP JUMPDEST POP PUSH1 0x40 DUP3 ADD MLOAD DUP2 PUSH1 0x2 ADD SSTORE POP POP PUSH1 0x1 PUSH1 0x0 DUP2 SLOAD DUP1 SWAP3 SWAP2 SWAP1 PUSH2 0x5CD SWAP1 PUSH2 0xE2D JUMP JUMPDEST SWAP2 SWAP1 POP SSTORE POP POP POP POP JUMP JUMPDEST PUSH1 0x0 PUSH1 0x3 DUP1 PUSH1 0x3 DUP2 GT ISZERO PUSH2 0x5EE JUMPI PUSH2 0x5ED PUSH2 0x9C9 JUMP JUMPDEST JUMPDEST PUSH1 0x0 DUP1 SLOAD SWAP1 PUSH2 0x100 EXP SWAP1 DIV PUSH1 0xFF AND PUSH1 0x3 DUP2 GT ISZERO PUSH2 0x60E JUMPI PUSH2 0x60D PUSH2 0x9C9 JUMP JUMPDEST JUMPDEST EQ PUSH2 0x618 JUMPI PUSH1 0x0 DUP1 REVERT JUMPDEST PUSH1 0x0 DUP1 JUMPDEST PUSH1 0x6 DUP1 SLOAD SWAP1 POP DUP2 PUSH1 0xFF AND LT ISZERO PUSH2 0x69E JUMPI DUP2 PUSH1 0x6 DUP3 PUSH1 0xFF AND DUP2 SLOAD DUP2 LT PUSH2 0x644 JUMPI PUSH2 0x643 PUSH2 0x1127 JUMP JUMPDEST JUMPDEST SWAP1 PUSH1 0x0 MSTORE PUSH1 0x20 PUSH1 0x0 KECCAK256 SWAP1 PUSH1 0x3 MUL ADD PUSH1 0x2 ADD SLOAD GT ISZERO PUSH2 0x68B JUMPI PUSH1 0x6 DUP2 PUSH1 0xFF AND DUP2 SLOAD DUP2 LT PUSH2 0x673 JUMPI PUSH2 0x672 PUSH2 0x1127 JUMP JUMPDEST JUMPDEST SWAP1 PUSH1 0x0 MSTORE PUSH1 0x20 PUSH1 0x0 KECCAK256 SWAP1 PUSH1 0x3 MUL ADD PUSH1 0x2 ADD SLOAD SWAP2 POP DUP1 SWAP4 POP JUMPDEST DUP1 DUP1 PUSH2 0x696 SWAP1 PUSH2 0x1156 JUMP JUMPDEST SWAP2 POP POP PUSH2 0x61C JUMP JUMPDEST POP POP POP SWAP1 JUMP JUMPDEST PUSH1 0x5 PUSH1 0x20 MSTORE DUP1 PUSH1 0x0 MSTORE PUSH1 0x40 PUSH1 0x0 KECCAK256 PUSH1 0x0 SWAP2 POP SWAP1 POP DUP1 PUSH1 0x0 ADD SLOAD SWAP1 DUP1 PUSH1 0x1 ADD PUSH1 0x0 SWAP1 SLOAD SWAP1 PUSH2 0x100 EXP SWAP1 DIV PUSH1 0xFF AND SWAP1 DUP1 PUSH1 0x1 ADD PUSH1 0x1 SWAP1 SLOAD SWAP1 PUSH2 0x100 EXP SWAP1 DIV PUSH1 0xFF AND SWAP1 POP DUP4 JUMP JUMPDEST PUSH1 0x2 DUP1 PUSH1 0x3 DUP2 GT ISZERO PUSH2 0x6FD JUMPI PUSH2 0x6FC PUSH2 0x9C9 JUMP JUMPDEST JUMPDEST PUSH1 0x0 DUP1 SLOAD SWAP1 PUSH2 0x100 EXP SWAP1 DIV PUSH1 0xFF AND PUSH1 0x3 DUP2 GT ISZERO PUSH2 0x71D JUMPI PUSH2 0x71C PUSH2 0x9C9 JUMP JUMPDEST JUMPDEST EQ PUSH2 0x727 JUMPI PUSH1 0x0 DUP1 REVERT JUMPDEST PUSH1 0x0 PUSH1 0x5 PUSH1 0x0 CALLER PUSH20 0xFFFFFFFFFFFFFFFFFFFFFFFFFFFFFFFFFFFFFFFF AND PUSH20 0xFFFFFFFFFFFFFFFFFFFFFFFFFFFFFFFFFFFFFFFF AND DUP2 MSTORE PUSH1 0x20 ADD SWAP1 DUP2 MSTORE PUSH1 0x20 ADD PUSH1 0x0 KECCAK256 SWAP1 POP DUP1 PUSH1 0x1 ADD PUSH1 0x0 SWAP1 SLOAD SWAP1 PUSH2 0x100 EXP SWAP1 DIV PUSH1 0xFF AND DUP1 PUSH2 0x78F JUMPI POP PUSH1 0x6 DUP1 SLOAD SWAP1 POP DUP4 PUSH1 0xFF AND LT ISZERO JUMPDEST ISZERO PUSH2 0x79A JUMPI POP PUSH2 0x85A JUMP JUMPDEST PUSH1 0x1 DUP2 PUSH1 0x1 ADD PUSH1 0x0 PUSH2 0x100 EXP DUP2 SLOAD DUP2 PUSH1 0xFF MUL NOT AND SWAP1 DUP4 ISZERO ISZERO MUL OR SWAP1 SSTORE POP DUP3 DUP2 PUSH1 0x1 ADD PUSH1 0x1 PUSH2 0x100 EXP DUP2 SLOAD DUP2 PUSH1 0xFF MUL NOT AND SWAP1 DUP4 PUSH1 0xFF AND MUL OR SWAP1 SSTORE POP DUP1 PUSH1 0x0 ADD SLOAD PUSH1 0x6 DUP5 PUSH1 0xFF AND DUP2 SLOAD DUP2 LT PUSH2 0x7F0 JUMPI PUSH2 0x7EF PUSH2 0x1127 JUMP JUMPDEST JUMPDEST SWAP1 PUSH1 0x0 MSTORE PUSH1 0x20 PUSH1 0x0 KECCAK256 SWAP1 PUSH1 0x3 MUL ADD PUSH1 0x2 ADD PUSH1 0x0 DUP3 DUP3 SLOAD PUSH2 0x810 SWAP2 SWAP1 PUSH2 0xE75 JUMP JUMPDEST SWAP3 POP POP DUP2 SWAP1 SSTORE POP PUSH1 0x1E PUSH1 0x4 SLOAD PUSH2 0x826 SWAP2 SWAP1 PUSH2 0xE75 JUMP JUMPDEST TIMESTAMP GT ISZERO PUSH2 0x858 JUMPI PUSH1 0x3 PUSH1 0x0 DUP1 PUSH2 0x100 EXP DUP2 SLOAD DUP2 PUSH1 0xFF MUL NOT AND SWAP1 DUP4 PUSH1 0x3 DUP2 GT ISZERO PUSH2 0x852 JUMPI PUSH2 0x851 PUSH2 0x9C9 JUMP JUMPDEST JUMPDEST MUL OR SWAP1 SSTORE POP JUMPDEST POP JUMPDEST POP POP JUMP JUMPDEST PUSH1 0x0 DUP1 SLOAD SWAP1 PUSH2 0x100 EXP SWAP1 DIV PUSH1 0xFF AND DUP2 JUMP JUMPDEST PUSH1 0x1 SLOAD DUP2 JUMP JUMPDEST PUSH1 0x0 PUSH1 0x40 MLOAD SWAP1 POP SWAP1 JUMP JUMPDEST PUSH1 0x0 DUP1 REVERT JUMPDEST PUSH1 0x0 DUP1 REVERT JUMPDEST PUSH1 0x0 DUP2 SWAP1 POP SWAP2 SWAP1 POP JUMP JUMPDEST PUSH2 0x89C DUP2 PUSH2 0x889 JUMP JUMPDEST DUP2 EQ PUSH2 0x8A7 JUMPI PUSH1 0x0 DUP1 REVERT JUMPDEST POP JUMP JUMPDEST PUSH1 0x0 DUP2 CALLDATALOAD SWAP1 POP PUSH2 0x8B9 DUP2 PUSH2 0x893 JUMP JUMPDEST SWAP3 SWAP2 POP POP JUMP JUMPDEST PUSH1 0x0 PUSH1 0x20 DUP3 DUP5 SUB SLT ISZERO PUSH2 0x8D5 JUMPI PUSH2 0x8D4 PUSH2 0x87F JUMP JUMPDEST JUMPDEST PUSH1 0x0 PUSH2 0x8E3 DUP5 DUP3 DUP6 ADD PUSH2 0x8AA JUMP JUMPDEST SWAP2 POP POP SWAP3 SWAP2 POP POP JUMP JUMPDEST PUSH2 0x8F5 DUP2 PUSH2 0x889 JUMP JUMPDEST DUP3 MSTORE POP POP JUMP JUMPDEST PUSH1 0x0 DUP2 MLOAD SWAP1 POP SWAP2 SWAP1 POP JUMP JUMPDEST PUSH1 0x0 DUP3 DUP3 MSTORE PUSH1 0x20 DUP3 ADD SWAP1 POP SWAP3 SWAP2 POP POP JUMP JUMPDEST PUSH1 0x0 JUMPDEST DUP4 DUP2 LT ISZERO PUSH2 0x935 JUMPI DUP1 DUP3 ADD MLOAD DUP2 DUP5 ADD MSTORE PUSH1 0x20 DUP2 ADD SWAP1 POP PUSH2 0x91A JUMP JUMPDEST PUSH1 0x0 DUP5 DUP5 ADD MSTORE POP POP POP POP JUMP JUMPDEST PUSH1 0x0 PUSH1 0x1F NOT PUSH1 0x1F DUP4 ADD AND SWAP1 POP SWAP2 SWAP1 POP JUMP JUMPDEST PUSH1 0x0 PUSH2 0x95D DUP3 PUSH2 0x8FB JUMP JUMPDEST PUSH2 0x967 DUP2 DUP6 PUSH2 0x906 JUMP JUMPDEST SWAP4 POP PUSH2 0x977 DUP2 DUP6 PUSH1 0x20 DUP7 ADD PUSH2 0x917 JUMP JUMPDEST PUSH2 0x980 DUP2 PUSH2 0x941 JUMP JUMPDEST DUP5 ADD SWAP2 POP POP SWAP3 SWAP2 POP POP JUMP JUMPDEST PUSH1 0x0 PUSH1 0x60 DUP3 ADD SWAP1 POP PUSH2 0x9A0 PUSH1 0x0 DUP4 ADD DUP7 PUSH2 0x8EC JUMP JUMPDEST DUP2 DUP2 SUB PUSH1 0x20 DUP4 ADD MSTORE PUSH2 0x9B2 DUP2 DUP6 PUSH2 0x952 JUMP JUMPDEST SWAP1 POP PUSH2 0x9C1 PUSH1 0x40 DUP4 ADD DUP5 PUSH2 0x8EC JUMP JUMPDEST SWAP5 SWAP4 POP POP POP POP JUMP JUMPDEST PUSH32 0x4E487B7100000000000000000000000000000000000000000000000000000000 PUSH1 0x0 MSTORE PUSH1 0x21 PUSH1 0x4 MSTORE PUSH1 0x24 PUSH1 0x0 REVERT JUMPDEST PUSH1 0x4 DUP2 LT PUSH2 0xA09 JUMPI PUSH2 0xA08 PUSH2 0x9C9 JUMP JUMPDEST JUMPDEST POP JUMP JUMPDEST PUSH1 0x0 DUP2 SWAP1 POP PUSH2 0xA1A DUP3 PUSH2 0x9F8 JUMP JUMPDEST SWAP2 SWAP1 POP JUMP JUMPDEST PUSH1 0x0 PUSH2 0xA2A DUP3 PUSH2 0xA0C JUMP JUMPDEST SWAP1 POP SWAP2 SWAP1 POP JUMP JUMPDEST PUSH2 0xA3A DUP2 PUSH2 0xA1F JUMP JUMPDEST DUP3 MSTORE POP POP JUMP JUMPDEST PUSH1 0x0 PUSH1 0x20 DUP3 ADD SWAP1 POP PUSH2 0xA55 PUSH1 0x0 DUP4 ADD DUP5 PUSH2 0xA31 JUMP JUMPDEST SWAP3 SWAP2 POP POP JUMP JUMPDEST PUSH1 0x0 PUSH20 0xFFFFFFFFFFFFFFFFFFFFFFFFFFFFFFFFFFFFFFFF DUP3 AND SWAP1 POP SWAP2 SWAP1 POP JUMP JUMPDEST PUSH1 0x0 PUSH2 0xA86 DUP3 PUSH2 0xA5B JUMP JUMPDEST SWAP1 POP SWAP2 SWAP1 POP JUMP JUMPDEST PUSH2 0xA96 DUP2 PUSH2 0xA7B JUMP JUMPDEST DUP3 MSTORE POP POP JUMP JUMPDEST PUSH1 0x0 PUSH1 0x20 DUP3 ADD SWAP1 POP PUSH2 0xAB1 PUSH1 0x0 DUP4 ADD DUP5 PUSH2 0xA8D JUMP JUMPDEST SWAP3 SWAP2 POP POP JUMP JUMPDEST PUSH1 0x0 PUSH1 0x20 DUP3 ADD SWAP1 POP PUSH2 0xACC PUSH1 0x0 DUP4 ADD DUP5 PUSH2 0x8EC JUMP JUMPDEST SWAP3 SWAP2 POP POP JUMP JUMPDEST PUSH2 0xADB DUP2 PUSH2 0xA7B JUMP JUMPDEST DUP2 EQ PUSH2 0xAE6 JUMPI PUSH1 0x0 DUP1 REVERT JUMPDEST POP JUMP JUMPDEST PUSH1 0x0 DUP2 CALLDATALOAD SWAP1 POP PUSH2 0xAF8 DUP2 PUSH2 0xAD2 JUMP JUMPDEST SWAP3 SWAP2 POP POP JUMP JUMPDEST PUSH1 0x0 PUSH1 0x20 DUP3 DUP5 SUB SLT ISZERO PUSH2 0xB14 JUMPI PUSH2 0xB13 PUSH2 0x87F JUMP JUMPDEST JUMPDEST PUSH1 0x0 PUSH2 0xB22 DUP5 DUP3 DUP6 ADD PUSH2 0xAE9 JUMP JUMPDEST SWAP2 POP POP SWAP3 SWAP2 POP POP JUMP JUMPDEST PUSH1 0x0 DUP1 REVERT JUMPDEST PUSH1 0x0 DUP1 REVERT JUMPDEST PUSH32 0x4E487B7100000000000000000000000000000000000000000000000000000000 PUSH1 0x0 MSTORE PUSH1 0x41 PUSH1 0x4 MSTORE PUSH1 0x24 PUSH1 0x0 REVERT JUMPDEST PUSH2 0xB6D DUP3 PUSH2 0x941 JUMP JUMPDEST DUP2 ADD DUP2 DUP2 LT PUSH8 0xFFFFFFFFFFFFFFFF DUP3 GT OR ISZERO PUSH2 0xB8C JUMPI PUSH2 0xB8B PUSH2 0xB35 JUMP JUMPDEST JUMPDEST DUP1 PUSH1 0x40 MSTORE POP POP POP JUMP JUMPDEST PUSH1 0x0 PUSH2 0xB9F PUSH2 0x875 JUMP JUMPDEST SWAP1 POP PUSH2 0xBAB DUP3 DUP3 PUSH2 0xB64 JUMP JUMPDEST SWAP2 SWAP1 POP JUMP JUMPDEST PUSH1 0x0 PUSH8 0xFFFFFFFFFFFFFFFF DUP3 GT ISZERO PUSH2 0xBCB JUMPI PUSH2 0xBCA PUSH2 0xB35 JUMP JUMPDEST JUMPDEST PUSH2 0xBD4 DUP3 PUSH2 0x941 JUMP JUMPDEST SWAP1 POP PUSH1 0x20 DUP2 ADD SWAP1 POP SWAP2 SWAP1 POP JUMP JUMPDEST DUP3 DUP2 DUP4 CALLDATACOPY PUSH1 0x0 DUP4 DUP4 ADD MSTORE POP POP POP JUMP JUMPDEST PUSH1 0x0 PUSH2 0xC03 PUSH2 0xBFE DUP5 PUSH2 0xBB0 JUMP JUMPDEST PUSH2 0xB95 JUMP JUMPDEST SWAP1 POP DUP3 DUP2 MSTORE PUSH1 0x20 DUP2 ADD DUP5 DUP5 DUP5 ADD GT ISZERO PUSH2 0xC1F JUMPI PUSH2 0xC1E PUSH2 0xB30 JUMP JUMPDEST JUMPDEST PUSH2 0xC2A DUP5 DUP3 DUP6 PUSH2 0xBE1 JUMP JUMPDEST POP SWAP4 SWAP3 POP POP POP JUMP JUMPDEST PUSH1 0x0 DUP3 PUSH1 0x1F DUP4 ADD SLT PUSH2 0xC47 JUMPI PUSH2 0xC46 PUSH2 0xB2B JUMP JUMPDEST JUMPDEST DUP2 CALLDATALOAD PUSH2 0xC57 DUP5 DUP3 PUSH1 0x20 DUP7 ADD PUSH2 0xBF0 JUMP JUMPDEST SWAP2 POP POP SWAP3 SWAP2 POP POP JUMP JUMPDEST PUSH1 0x0 DUP1 PUSH1 0x40 DUP4 DUP6 SUB SLT ISZERO PUSH2 0xC77 JUMPI PUSH2 0xC76 PUSH2 0x87F JUMP JUMPDEST JUMPDEST PUSH1 0x0 PUSH2 0xC85 DUP6 DUP3 DUP7 ADD PUSH2 0x8AA JUMP JUMPDEST SWAP3 POP POP PUSH1 0x20 DUP4 ADD CALLDATALOAD PUSH8 0xFFFFFFFFFFFFFFFF DUP2 GT ISZERO PUSH2 0xCA6 JUMPI PUSH2 0xCA5 PUSH2 0x884 JUMP JUMPDEST JUMPDEST PUSH2 0xCB2 DUP6 DUP3 DUP7 ADD PUSH2 0xC32 JUMP JUMPDEST SWAP2 POP POP SWAP3 POP SWAP3 SWAP1 POP JUMP JUMPDEST PUSH1 0x0 PUSH1 0xFF DUP3 AND SWAP1 POP SWAP2 SWAP1 POP JUMP JUMPDEST PUSH2 0xCD2 DUP2 PUSH2 0xCBC JUMP JUMPDEST DUP3 MSTORE POP POP JUMP JUMPDEST PUSH1 0x0 PUSH1 0x20 DUP3 ADD SWAP1 POP PUSH2 0xCED PUSH1 0x0 DUP4 ADD DUP5 PUSH2 0xCC9 JUMP JUMPDEST SWAP3 SWAP2 POP POP JUMP JUMPDEST PUSH1 0x0 DUP2 ISZERO ISZERO SWAP1 POP SWAP2 SWAP1 POP JUMP JUMPDEST PUSH2 0xD08 DUP2 PUSH2 0xCF3 JUMP JUMPDEST DUP3 MSTORE POP POP JUMP JUMPDEST PUSH1 0x0 PUSH1 0x60 DUP3 ADD SWAP1 POP PUSH2 0xD23 PUSH1 0x0 DUP4 ADD DUP7 PUSH2 0x8EC JUMP JUMPDEST PUSH2 0xD30 PUSH1 0x20 DUP4 ADD DUP6 PUSH2 0xCFF JUMP JUMPDEST PUSH2 0xD3D PUSH1 0x40 DUP4 ADD DUP5 PUSH2 0xCC9 JUMP JUMPDEST SWAP5 SWAP4 POP POP POP POP JUMP JUMPDEST PUSH2 0xD4E DUP2 PUSH2 0xCBC JUMP JUMPDEST DUP2 EQ PUSH2 0xD59 JUMPI PUSH1 0x0 DUP1 REVERT JUMPDEST POP JUMP JUMPDEST PUSH1 0x0 DUP2 CALLDATALOAD SWAP1 POP PUSH2 0xD6B DUP2 PUSH2 0xD45 JUMP JUMPDEST SWAP3 SWAP2 POP POP JUMP JUMPDEST PUSH1 0x0 PUSH1 0x20 DUP3 DUP5 SUB SLT ISZERO PUSH2 0xD87 JUMPI PUSH2 0xD86 PUSH2 0x87F JUMP JUMPDEST JUMPDEST PUSH1 0x0 PUSH2 0xD95 DUP5 DUP3 DUP6 ADD PUSH2 0xD5C JUMP JUMPDEST SWAP2 POP POP SWAP3 SWAP2 POP POP JUMP JUMPDEST PUSH32 0x4E487B7100000000000000000000000000000000000000000000000000000000 PUSH1 0x0 MSTORE PUSH1 0x22 PUSH1 0x4 MSTORE PUSH1 0x24 PUSH1 0x0 REVERT JUMPDEST PUSH1 0x0 PUSH1 0x2 DUP3 DIV SWAP1 POP PUSH1 0x1 DUP3 AND DUP1 PUSH2 0xDE5 JUMPI PUSH1 0x7F DUP3 AND SWAP2 POP JUMPDEST PUSH1 0x20 DUP3 LT DUP2 SUB PUSH2 0xDF8 JUMPI PUSH2 0xDF7 PUSH2 0xD9E JUMP JUMPDEST JUMPDEST POP SWAP2 SWAP1 POP JUMP JUMPDEST PUSH32 0x4E487B7100000000000000000000000000000000000000000000000000000000 PUSH1 0x0 MSTORE PUSH1 0x11 PUSH1 0x4 MSTORE PUSH1 0x24 PUSH1 0x0 REVERT JUMPDEST PUSH1 0x0 PUSH2 0xE38 DUP3 PUSH2 0x889 JUMP JUMPDEST SWAP2 POP PUSH32 0xFFFFFFFFFFFFFFFFFFFFFFFFFFFFFFFFFFFFFFFFFFFFFFFFFFFFFFFFFFFFFFFF DUP3 SUB PUSH2 0xE6A JUMPI PUSH2 0xE69 PUSH2 0xDFE JUMP JUMPDEST JUMPDEST PUSH1 0x1 DUP3 ADD SWAP1 POP SWAP2 SWAP1 POP JUMP JUMPDEST PUSH1 0x0 PUSH2 0xE80 DUP3 PUSH2 0x889 JUMP JUMPDEST SWAP2 POP PUSH2 0xE8B DUP4 PUSH2 0x889 JUMP JUMPDEST SWAP3 POP DUP3 DUP3 ADD SWAP1 POP DUP1 DUP3 GT ISZERO PUSH2 0xEA3 JUMPI PUSH2 0xEA2 PUSH2 0xDFE JUMP JUMPDEST JUMPDEST SWAP3 SWAP2 POP POP JUMP JUMPDEST PUSH1 0x0 DUP2 SWAP1 POP DUP2 PUSH1 0x0 MSTORE PUSH1 0x20 PUSH1 0x0 KECCAK256 SWAP1 POP SWAP2 SWAP1 POP JUMP JUMPDEST PUSH1 0x0 PUSH1 0x20 PUSH1 0x1F DUP4 ADD DIV SWAP1 POP SWAP2 SWAP1 POP JUMP JUMPDEST PUSH1 0x0 DUP3 DUP3 SHL SWAP1 POP SWAP3 SWAP2 POP POP JUMP JUMPDEST PUSH1 0x0 PUSH1 0x8 DUP4 MUL PUSH2 0xF0B PUSH32 0xFFFFFFFFFFFFFFFFFFFFFFFFFFFFFFFFFFFFFFFFFFFFFFFFFFFFFFFFFFFFFFFF DUP3 PUSH2 0xECE JUMP JUMPDEST PUSH2 0xF15 DUP7 DUP4 PUSH2 0xECE JUMP JUMPDEST SWAP6 POP DUP1 NOT DUP5 AND SWAP4 POP DUP1 DUP7 AND DUP5 OR SWAP3 POP POP POP SWAP4 SWAP3 POP POP POP JUMP JUMPDEST PUSH1 0x0 DUP2 SWAP1 POP SWAP2 SWAP1 POP JUMP JUMPDEST PUSH1 0x0 PUSH2 0xF52 PUSH2 0xF4D PUSH2 0xF48 DUP5 PUSH2 0x889 JUMP JUMPDEST PUSH2 0xF2D JUMP JUMPDEST PUSH2 0x889 JUMP JUMPDEST SWAP1 POP SWAP2 SWAP1 POP JUMP JUMPDEST PUSH1 0x0 DUP2 SWAP1 POP SWAP2 SWAP1 POP JUMP JUMPDEST PUSH2 0xF6C DUP4 PUSH2 0xF37 JUMP JUMPDEST PUSH2 0xF80 PUSH2 0xF78 DUP3 PUSH2 0xF59 JUMP JUMPDEST DUP5 DUP5 SLOAD PUSH2 0xEDB JUMP JUMPDEST DUP3 SSTORE POP POP POP POP JUMP JUMPDEST PUSH1 0x0 SWAP1 JUMP JUMPDEST PUSH2 0xF95 PUSH2 0xF88 JUMP JUMPDEST PUSH2 0xFA0 DUP2 DUP5 DUP5 PUSH2 0xF63 JUMP JUMPDEST POP POP POP JUMP JUMPDEST JUMPDEST DUP2 DUP2 LT ISZERO PUSH2 0xFC4 JUMPI PUSH2 0xFB9 PUSH1 0x0 DUP3 PUSH2 0xF8D JUMP JUMPDEST PUSH1 0x1 DUP2 ADD SWAP1 POP PUSH2 0xFA6 JUMP JUMPDEST POP POP JUMP JUMPDEST PUSH1 0x1F DUP3 GT ISZERO PUSH2 0x1009 JUMPI PUSH2 0xFDA DUP2 PUSH2 0xEA9 JUMP JUMPDEST PUSH2 0xFE3 DUP5 PUSH2 0xEBE JUMP JUMPDEST DUP2 ADD PUSH1 0x20 DUP6 LT ISZERO PUSH2 0xFF2 JUMPI DUP2 SWAP1 POP JUMPDEST PUSH2 0x1006 PUSH2 0xFFE DUP6 PUSH2 0xEBE JUMP JUMPDEST DUP4 ADD DUP3 PUSH2 0xFA5 JUMP JUMPDEST POP POP JUMPDEST POP POP POP JUMP JUMPDEST PUSH1 0x0 DUP3 DUP3 SHR SWAP1 POP SWAP3 SWAP2 POP POP JUMP JUMPDEST PUSH1 0x0 PUSH2 0x102C PUSH1 0x0 NOT DUP5 PUSH1 0x8 MUL PUSH2 0x100E JUMP JUMPDEST NOT DUP1 DUP4 AND SWAP2 POP POP SWAP3 SWAP2 POP POP JUMP JUMPDEST PUSH1 0x0 PUSH2 0x1045 DUP4 DUP4 PUSH2 0x101B JUMP JUMPDEST SWAP2 POP DUP3 PUSH1 0x2 MUL DUP3 OR SWAP1 POP SWAP3 SWAP2 POP POP JUMP JUMPDEST PUSH2 0x105E DUP3 PUSH2 0x8FB JUMP JUMPDEST PUSH8 0xFFFFFFFFFFFFFFFF DUP2 GT ISZERO PUSH2 0x1077 JUMPI PUSH2 0x1076 PUSH2 0xB35 JUMP JUMPDEST JUMPDEST PUSH2 0x1081 DUP3 SLOAD PUSH2 0xDCD JUMP JUMPDEST PUSH2 0x108C DUP3 DUP3 DUP6 PUSH2 0xFC8 JUMP JUMPDEST PUSH1 0x0 PUSH1 0x20 SWAP1 POP PUSH1 0x1F DUP4 GT PUSH1 0x1 DUP2 EQ PUSH2 0x10BF JUMPI PUSH1 0x0 DUP5 ISZERO PUSH2 0x10AD JUMPI DUP3 DUP8 ADD MLOAD SWAP1 POP JUMPDEST PUSH2 0x10B7 DUP6 DUP3 PUSH2 0x1039 JUMP JUMPDEST DUP7 SSTORE POP PUSH2 0x111F JUMP JUMPDEST PUSH1 0x1F NOT DUP5 AND PUSH2 0x10CD DUP7 PUSH2 0xEA9 JUMP JUMPDEST PUSH1 0x0 JUMPDEST DUP3 DUP2 LT ISZERO PUSH2 0x10F5 JUMPI DUP5 DUP10 ADD MLOAD DUP3 SSTORE PUSH1 0x1 DUP3 ADD SWAP2 POP PUSH1 0x20 DUP6 ADD SWAP5 POP PUSH1 0x20 DUP2 ADD SWAP1 POP PUSH2 0x10D0 JUMP JUMPDEST DUP7 DUP4 LT ISZERO PUSH2 0x1112 JUMPI DUP5 DUP10 ADD MLOAD PUSH2 0x110E PUSH1 0x1F DUP10 AND DUP3 PUSH2 0x101B JUMP JUMPDEST DUP4 SSTORE POP JUMPDEST PUSH1 0x1 PUSH1 0x2 DUP9 MUL ADD DUP9 SSTORE POP POP POP JUMPDEST POP POP POP POP POP POP JUMP JUMPDEST PUSH32 0x4E487B7100000000000000000000000000000000000000000000000000000000 PUSH1 0x0 MSTORE PUSH1 0x32 PUSH1 0x4 MSTORE PUSH1 0x24 PUSH1 0x0 REVERT JUMPDEST PUSH1 0x0 PUSH2 0x1161 DUP3 PUSH2 0xCBC JUMP JUMPDEST SWAP2 POP PUSH1 0xFF DUP3 SUB PUSH2 0x1174 JUMPI PUSH2 0x1173 PUSH2 0xDFE JUMP JUMPDEST JUMPDEST PUSH1 0x1 DUP3 ADD SWAP1 POP SWAP2 SWAP1 POP JUMP INVALID LOG2 PUSH5 0x6970667358 0x22 SLT KECCAK256 0xC1 0xCD 0xE7 MUL 0xBA SWAP6 SIGNEXTEND 0xD8 GASPRICE PUSH14 0xA278F2AD7A74D10E114DC0E9568 0x1E DUP16 SGT SWAP12 0xC3 0xF7 0xCE SWAP9 PUSH5 0x736F6C6343 STOP ADDMOD SLT STOP CALLER "
				},
				"gasEstimates": {
					"creation": {
						"codeDepositCost": "906600",
						"executionCost": "105978",
						"totalCost": "1012578"
					},
					"external": {
						"VoterCount()": "2496",
						"addProposalDetail(uint256,string)": "infinite",
						"chairperson()": "2559",
						"changeStateToReg()": "26875",
						"proposalCount()": "2539",
						"proposals(uint256)": "infinite",
						"register(address)": "infinite",
						"stage()": "2645",
						"vote(uint8)": "infinite",
						"voters(address)": "7430",
						"winningProposal()": "infinite"
					}
				},
				"methodIdentifiers": {
					"VoterCount()": "2e46fb9a",
					"addProposalDetail(uint256,string)": "585cc4c4",
					"chairperson()": "2e4176cf",
					"changeStateToReg()": "0fae671e",
					"proposalCount()": "da35c664",
					"proposals(uint256)": "013cf08b",
					"register(address)": "4420e486",
					"stage()": "c040e6b8",
					"vote(uint8)": "b3f98adc",
					"voters(address)": "a3ec138d",
					"winningProposal()": "609ff1bd"
				}
			},
			"storageLayout": {
				"storage": [
					{
						"astId": 23,
						"contract": "Lab7/BallotWithStage.sol:Ballot",
						"label": "stage",
						"offset": 0,
						"slot": "0",
						"type": "t_enum(Stage)20"
					},
					{
						"astId": 26,
						"contract": "Lab7/BallotWithStage.sol:Ballot",
						"label": "proposalCount",
						"offset": 0,
						"slot": "1",
						"type": "t_uint256"
					},
					{
						"astId": 29,
						"contract": "Lab7/BallotWithStage.sol:Ballot",
						"label": "VoterCount",
						"offset": 0,
						"slot": "2",
						"type": "t_uint256"
					},
					{
						"astId": 31,
						"contract": "Lab7/BallotWithStage.sol:Ballot",
						"label": "chairperson",
						"offset": 0,
						"slot": "3",
						"type": "t_address"
					},
					{
						"astId": 33,
						"contract": "Lab7/BallotWithStage.sol:Ballot",
						"label": "startTime",
						"offset": 0,
						"slot": "4",
						"type": "t_uint256"
					},
					{
						"astId": 38,
						"contract": "Lab7/BallotWithStage.sol:Ballot",
						"label": "voters",
						"offset": 0,
						"slot": "5",
						"type": "t_mapping(t_address,t_struct(Voter)8_storage)"
					},
					{
						"astId": 42,
						"contract": "Lab7/BallotWithStage.sol:Ballot",
						"label": "proposals",
						"offset": 0,
						"slot": "6",
						"type": "t_array(t_struct(Proposal)15_storage)dyn_storage"
					}
				],
				"types": {
					"t_address": {
						"encoding": "inplace",
						"label": "address",
						"numberOfBytes": "20"
					},
					"t_array(t_struct(Proposal)15_storage)dyn_storage": {
						"base": "t_struct(Proposal)15_storage",
						"encoding": "dynamic_array",
						"label": "struct Ballot.Proposal[]",
						"numberOfBytes": "32"
					},
					"t_bool": {
						"encoding": "inplace",
						"label": "bool",
						"numberOfBytes": "1"
					},
					"t_enum(Stage)20": {
						"encoding": "inplace",
						"label": "enum Ballot.Stage",
						"numberOfBytes": "1"
					},
					"t_mapping(t_address,t_struct(Voter)8_storage)": {
						"encoding": "mapping",
						"key": "t_address",
						"label": "mapping(address => struct Ballot.Voter)",
						"numberOfBytes": "32",
						"value": "t_struct(Voter)8_storage"
					},
					"t_string_storage": {
						"encoding": "bytes",
						"label": "string",
						"numberOfBytes": "32"
					},
					"t_struct(Proposal)15_storage": {
						"encoding": "inplace",
						"label": "struct Ballot.Proposal",
						"members": [
							{
								"astId": 10,
								"contract": "Lab7/BallotWithStage.sol:Ballot",
								"label": "proposalID",
								"offset": 0,
								"slot": "0",
								"type": "t_uint256"
							},
							{
								"astId": 12,
								"contract": "Lab7/BallotWithStage.sol:Ballot",
								"label": "topic",
								"offset": 0,
								"slot": "1",
								"type": "t_string_storage"
							},
							{
								"astId": 14,
								"contract": "Lab7/BallotWithStage.sol:Ballot",
								"label": "voteCount",
								"offset": 0,
								"slot": "2",
								"type": "t_uint256"
							}
						],
						"numberOfBytes": "96"
					},
					"t_struct(Voter)8_storage": {
						"encoding": "inplace",
						"label": "struct Ballot.Voter",
						"members": [
							{
								"astId": 3,
								"contract": "Lab7/BallotWithStage.sol:Ballot",
								"label": "weight",
								"offset": 0,
								"slot": "0",
								"type": "t_uint256"
							},
							{
								"astId": 5,
								"contract": "Lab7/BallotWithStage.sol:Ballot",
								"label": "voted",
								"offset": 0,
								"slot": "1",
								"type": "t_bool"
							},
							{
								"astId": 7,
								"contract": "Lab7/BallotWithStage.sol:Ballot",
								"label": "vote",
								"offset": 1,
								"slot": "1",
								"type": "t_uint8"
							}
						],
						"numberOfBytes": "64"
					},
					"t_uint256": {
						"encoding": "inplace",
						"label": "uint256",
						"numberOfBytes": "32"
					},
					"t_uint8": {
						"encoding": "inplace",
						"label": "uint8",
						"numberOfBytes": "1"
					}
				}
			},
			"userdoc": {
				"kind": "user",
				"methods": {
					"vote(uint8)": {
						"notice": "Give a single vote to proposal $(toProposal)."
					}
				},
				"version": 1
			}
		}
	}
}