{
	"Lab7/Ballot.sol": {
		"Ballot": {
			"abi": [
				{
					"inputs": [],
					"stateMutability": "nonpayable",
					"type": "constructor"
				},
				{
					"inputs": [],
					"name": "VoterCount",
					"outputs": [
						{
							"internalType": "uint256",
							"name": "",
							"type": "uint256"
						}
					],
					"stateMutability": "view",
					"type": "function"
				},
				{
					"inputs": [
						{
							"internalType": "uint256",
							"name": "_id",
							"type": "uint256"
						},
						{
							"internalType": "string",
							"name": "_subjectProposal",
							"type": "string"
						}
					],
					"name": "addProposalDetail",
					"outputs": [],
					"stateMutability": "nonpayable",
					"type": "function"
				},
				{
					"inputs": [
						{
							"internalType": "address",
							"name": "voter",
							"type": "address"
						}
					],
					"name": "advanceState",
					"outputs": [],
					"stateMutability": "nonpayable",
					"type": "function"
				},
				{
					"inputs": [],
					"name": "chairperson",
					"outputs": [
						{
							"internalType": "address",
							"name": "",
							"type": "address"
						}
					],
					"stateMutability": "view",
					"type": "function"
				},
				{
					"inputs": [],
					"name": "proposalCount",
					"outputs": [
						{
							"internalType": "uint256",
							"name": "",
							"type": "uint256"
						}
					],
					"stateMutability": "view",
					"type": "function"
				},
				{
					"inputs": [
						{
							"internalType": "uint256",
							"name": "",
							"type": "uint256"
						}
					],
					"name": "proposals",
					"outputs": [
						{
							"internalType": "uint256",
							"name": "proposalID",
							"type": "uint256"
						},
						{
							"internalType": "string",
							"name": "topic",
							"type": "string"
						},
						{
							"internalType": "uint256",
							"name": "voteCount",
							"type": "uint256"
						}
					],
					"stateMutability": "view",
					"type": "function"
				},
				{
					"inputs": [
						{
							"internalType": "address",
							"name": "toVoter",
							"type": "address"
						}
					],
					"name": "register",
					"outputs": [],
					"stateMutability": "nonpayable",
					"type": "function"
				},
				{
					"inputs": [
						{
							"internalType": "uint8",
							"name": "toProposal",
							"type": "uint8"
						}
					],
					"name": "vote",
					"outputs": [],
					"stateMutability": "nonpayable",
					"type": "function"
				},
				{
					"inputs": [
						{
							"internalType": "address",
							"name": "",
							"type": "address"
						}
					],
					"name": "voters",
					"outputs": [
						{
							"internalType": "uint256",
							"name": "weight",
							"type": "uint256"
						},
						{
							"internalType": "bool",
							"name": "voted",
							"type": "bool"
						},
						{
							"internalType": "uint8",
							"name": "vote",
							"type": "uint8"
						},
						{
							"internalType": "uint256",
							"name": "createTime",
							"type": "uint256"
						},
						{
							"internalType": "enum Ballot.Stage",
							"name": "stage",
							"type": "uint8"
						}
					],
					"stateMutability": "view",
					"type": "function"
				},
				{
					"inputs": [],
					"name": "winningProposal",
					"outputs": [
						{
							"internalType": "uint8",
							"name": "_winningProposal",
							"type": "uint8"
						}
					],
					"stateMutability": "view",
					"type": "function"
				}
			],
			"devdoc": {
				"kind": "dev",
				"methods": {},
				"version": 1
			},
			"evm": {
				"assembly": "    /* \"Lab7/Ballot.sol\":56:3084  contract Ballot {... */\n  mstore(0x40, 0x80)\n    /* \"Lab7/Ballot.sol\":432:433  0 */\n  0x00\n    /* \"Lab7/Ballot.sol\":401:433  uint256 public proposalCount = 0 */\n  dup1\n  sstore\n    /* \"Lab7/Ballot.sol\":467:468  0 */\n  0x00\n    /* \"Lab7/Ballot.sol\":439:468  uint256 public VoterCount = 0 */\n  0x01\n  sstore\n    /* \"Lab7/Ballot.sol\":647:800  constructor() {... */\n  callvalue\n  dup1\n  iszero\n  tag_1\n  jumpi\n  0x00\n  dup1\n  revert\ntag_1:\n  pop\n    /* \"Lab7/Ballot.sol\":685:695  msg.sender */\n  caller\n    /* \"Lab7/Ballot.sol\":671:682  chairperson */\n  0x02\n  0x00\n    /* \"Lab7/Ballot.sol\":671:695  chairperson = msg.sender */\n  0x0100\n  exp\n  dup2\n  sload\n  dup2\n  0xffffffffffffffffffffffffffffffffffffffff\n  mul\n  not\n  and\n  swap1\n  dup4\n  0xffffffffffffffffffffffffffffffffffffffff\n  and\n  mul\n  or\n  swap1\n  sstore\n  pop\n    /* \"Lab7/Ballot.sol\":734:735  2 */\n  0x02\n    /* \"Lab7/Ballot.sol\":705:711  voters */\n  0x03\n    /* \"Lab7/Ballot.sol\":705:724  voters[chairperson] */\n  0x00\n    /* \"Lab7/Ballot.sol\":712:723  chairperson */\n  0x02\n  0x00\n  swap1\n  sload\n  swap1\n  0x0100\n  exp\n  swap1\n  div\n  0xffffffffffffffffffffffffffffffffffffffff\n  and\n    /* \"Lab7/Ballot.sol\":705:724  voters[chairperson] */\n  0xffffffffffffffffffffffffffffffffffffffff\n  and\n  0xffffffffffffffffffffffffffffffffffffffff\n  and\n  dup2\n  mstore\n  0x20\n  add\n  swap1\n  dup2\n  mstore\n  0x20\n  add\n  0x00\n  keccak256\n    /* \"Lab7/Ballot.sol\":705:731  voters[chairperson].weight */\n  0x00\n  add\n    /* \"Lab7/Ballot.sol\":705:735  voters[chairperson].weight = 2 */\n  dup2\n  swap1\n  sstore\n  pop\n    /* \"Lab7/Ballot.sol\":778:793  block.timestamp */\n  timestamp\n    /* \"Lab7/Ballot.sol\":745:751  voters */\n  0x03\n    /* \"Lab7/Ballot.sol\":745:764  voters[chairperson] */\n  0x00\n    /* \"Lab7/Ballot.sol\":752:763  chairperson */\n  0x02\n  0x00\n  swap1\n  sload\n  swap1\n  0x0100\n  exp\n  swap1\n  div\n  0xffffffffffffffffffffffffffffffffffffffff\n  and\n    /* \"Lab7/Ballot.sol\":745:764  voters[chairperson] */\n  0xffffffffffffffffffffffffffffffffffffffff\n  and\n  0xffffffffffffffffffffffffffffffffffffffff\n  and\n  dup2\n  mstore\n  0x20\n  add\n  swap1\n  dup2\n  mstore\n  0x20\n  add\n  0x00\n  keccak256\n    /* \"Lab7/Ballot.sol\":745:775  voters[chairperson].createTime */\n  0x02\n  add\n    /* \"Lab7/Ballot.sol\":745:793  voters[chairperson].createTime = block.timestamp */\n  dup2\n  swap1\n  sstore\n  pop\n    /* \"Lab7/Ballot.sol\":56:3084  contract Ballot {... */\n  dataSize(sub_0)\n  dup1\n  dataOffset(sub_0)\n  0x00\n  codecopy\n  0x00\n  return\nstop\n\nsub_0: assembly {\n        /* \"Lab7/Ballot.sol\":56:3084  contract Ballot {... */\n      mstore(0x40, 0x80)\n      callvalue\n      dup1\n      iszero\n      tag_1\n      jumpi\n      0x00\n      dup1\n      revert\n    tag_1:\n      pop\n      jumpi(tag_2, lt(calldatasize, 0x04))\n      shr(0xe0, calldataload(0x00))\n      dup1\n      0x609ff1bd\n      gt\n      tag_13\n      jumpi\n      dup1\n      0x609ff1bd\n      eq\n      tag_8\n      jumpi\n      dup1\n      0x64f5492e\n      eq\n      tag_9\n      jumpi\n      dup1\n      0xa3ec138d\n      eq\n      tag_10\n      jumpi\n      dup1\n      0xb3f98adc\n      eq\n      tag_11\n      jumpi\n      dup1\n      0xda35c664\n      eq\n      tag_12\n      jumpi\n      jump(tag_2)\n    tag_13:\n      dup1\n      0x013cf08b\n      eq\n      tag_3\n      jumpi\n      dup1\n      0x2e4176cf\n      eq\n      tag_4\n      jumpi\n      dup1\n      0x2e46fb9a\n      eq\n      tag_5\n      jumpi\n      dup1\n      0x4420e486\n      eq\n      tag_6\n      jumpi\n      dup1\n      0x585cc4c4\n      eq\n      tag_7\n      jumpi\n    tag_2:\n      0x00\n      dup1\n      revert\n        /* \"Lab7/Ballot.sol\":613:640  Proposal[] public proposals */\n    tag_3:\n      tag_14\n      0x04\n      dup1\n      calldatasize\n      sub\n      dup2\n      add\n      swap1\n      tag_15\n      swap2\n      swap1\n      tag_16\n      jump\t// in\n    tag_15:\n      tag_17\n      jump\t// in\n    tag_14:\n      mload(0x40)\n      tag_18\n      swap4\n      swap3\n      swap2\n      swap1\n      tag_19\n      jump\t// in\n    tag_18:\n      mload(0x40)\n      dup1\n      swap2\n      sub\n      swap1\n      return\n        /* \"Lab7/Ballot.sol\":474:500  address public chairperson */\n    tag_4:\n      tag_20\n      tag_21\n      jump\t// in\n    tag_20:\n      mload(0x40)\n      tag_22\n      swap2\n      swap1\n      tag_23\n      jump\t// in\n    tag_22:\n      mload(0x40)\n      dup1\n      swap2\n      sub\n      swap1\n      return\n        /* \"Lab7/Ballot.sol\":439:468  uint256 public VoterCount = 0 */\n    tag_5:\n      tag_24\n      tag_25\n      jump\t// in\n    tag_24:\n      mload(0x40)\n      tag_26\n      swap2\n      swap1\n      tag_27\n      jump\t// in\n    tag_26:\n      mload(0x40)\n      dup1\n      swap2\n      sub\n      swap1\n      return\n        /* \"Lab7/Ballot.sol\":1213:1600  function register(address toVoter) public {... */\n    tag_6:\n      tag_28\n      0x04\n      dup1\n      calldatasize\n      sub\n      dup2\n      add\n      swap1\n      tag_29\n      swap2\n      swap1\n      tag_30\n      jump\t// in\n    tag_29:\n      tag_31\n      jump\t// in\n    tag_28:\n      stop\n        /* \"Lab7/Ballot.sol\":806:1012  function addProposalDetail(uint256 _id, string memory _subjectProposal) public... */\n    tag_7:\n      tag_32\n      0x04\n      dup1\n      calldatasize\n      sub\n      dup2\n      add\n      swap1\n      tag_33\n      swap2\n      swap1\n      tag_34\n      jump\t// in\n    tag_33:\n      tag_35\n      jump\t// in\n    tag_32:\n      stop\n        /* \"Lab7/Ballot.sol\":2066:2427  function winningProposal() public view returns (uint8 _winningProposal) {... */\n    tag_8:\n      tag_36\n      tag_37\n      jump\t// in\n    tag_36:\n      mload(0x40)\n      tag_38\n      swap2\n      swap1\n      tag_39\n      jump\t// in\n    tag_38:\n      mload(0x40)\n      dup1\n      swap2\n      sub\n      swap1\n      return\n        /* \"Lab7/Ballot.sol\":2433:3082  function advanceState(address voter) public{... */\n    tag_9:\n      tag_40\n      0x04\n      dup1\n      calldatasize\n      sub\n      dup2\n      add\n      swap1\n      tag_41\n      swap2\n      swap1\n      tag_30\n      jump\t// in\n    tag_41:\n      tag_42\n      jump\t// in\n    tag_40:\n      stop\n        /* \"Lab7/Ballot.sol\":567:606  mapping(address => Voter) public voters */\n    tag_10:\n      tag_43\n      0x04\n      dup1\n      calldatasize\n      sub\n      dup2\n      add\n      swap1\n      tag_44\n      swap2\n      swap1\n      tag_30\n      jump\t// in\n    tag_44:\n      tag_45\n      jump\t// in\n    tag_43:\n      mload(0x40)\n      tag_46\n      swap6\n      swap5\n      swap4\n      swap3\n      swap2\n      swap1\n      tag_47\n      jump\t// in\n    tag_46:\n      mload(0x40)\n      dup1\n      swap2\n      sub\n      swap1\n      return\n        /* \"Lab7/Ballot.sol\":1700:2060  function vote(uint8 toProposal) public {... */\n    tag_11:\n      tag_48\n      0x04\n      dup1\n      calldatasize\n      sub\n      dup2\n      add\n      swap1\n      tag_49\n      swap2\n      swap1\n      tag_50\n      jump\t// in\n    tag_49:\n      tag_51\n      jump\t// in\n    tag_48:\n      stop\n        /* \"Lab7/Ballot.sol\":401:433  uint256 public proposalCount = 0 */\n    tag_12:\n      tag_52\n      tag_53\n      jump\t// in\n    tag_52:\n      mload(0x40)\n      tag_54\n      swap2\n      swap1\n      tag_27\n      jump\t// in\n    tag_54:\n      mload(0x40)\n      dup1\n      swap2\n      sub\n      swap1\n      return\n        /* \"Lab7/Ballot.sol\":613:640  Proposal[] public proposals */\n    tag_17:\n      0x04\n      dup2\n      dup2\n      sload\n      dup2\n      lt\n      tag_55\n      jumpi\n      0x00\n      dup1\n      revert\n    tag_55:\n      swap1\n      0x00\n      mstore\n      keccak256(0x00, 0x20)\n      swap1\n      0x03\n      mul\n      add\n      0x00\n      swap2\n      pop\n      swap1\n      pop\n      dup1\n      0x00\n      add\n      sload\n      swap1\n      dup1\n      0x01\n      add\n      dup1\n      sload\n      tag_57\n      swap1\n      tag_58\n      jump\t// in\n    tag_57:\n      dup1\n      0x1f\n      add\n      0x20\n      dup1\n      swap2\n      div\n      mul\n      0x20\n      add\n      mload(0x40)\n      swap1\n      dup2\n      add\n      0x40\n      mstore\n      dup1\n      swap3\n      swap2\n      swap1\n      dup2\n      dup2\n      mstore\n      0x20\n      add\n      dup3\n      dup1\n      sload\n      tag_59\n      swap1\n      tag_58\n      jump\t// in\n    tag_59:\n      dup1\n      iszero\n      tag_60\n      jumpi\n      dup1\n      0x1f\n      lt\n      tag_61\n      jumpi\n      0x0100\n      dup1\n      dup4\n      sload\n      div\n      mul\n      dup4\n      mstore\n      swap2\n      0x20\n      add\n      swap2\n      jump(tag_60)\n    tag_61:\n      dup3\n      add\n      swap2\n      swap1\n      0x00\n      mstore\n      keccak256(0x00, 0x20)\n      swap1\n    tag_62:\n      dup2\n      sload\n      dup2\n      mstore\n      swap1\n      0x01\n      add\n      swap1\n      0x20\n      add\n      dup1\n      dup4\n      gt\n      tag_62\n      jumpi\n      dup3\n      swap1\n      sub\n      0x1f\n      and\n      dup3\n      add\n      swap2\n    tag_60:\n      pop\n      pop\n      pop\n      pop\n      pop\n      swap1\n      dup1\n      0x02\n      add\n      sload\n      swap1\n      pop\n      dup4\n      jump\t// out\n        /* \"Lab7/Ballot.sol\":474:500  address public chairperson */\n    tag_21:\n      0x02\n      0x00\n      swap1\n      sload\n      swap1\n      0x0100\n      exp\n      swap1\n      div\n      0xffffffffffffffffffffffffffffffffffffffff\n      and\n      dup2\n      jump\t// out\n        /* \"Lab7/Ballot.sol\":439:468  uint256 public VoterCount = 0 */\n    tag_25:\n      sload(0x01)\n      dup2\n      jump\t// out\n        /* \"Lab7/Ballot.sol\":1213:1600  function register(address toVoter) public {... */\n    tag_31:\n        /* \"Lab7/Ballot.sol\":1353:1364  chairperson */\n      0x02\n      0x00\n      swap1\n      sload\n      swap1\n      0x0100\n      exp\n      swap1\n      div\n      0xffffffffffffffffffffffffffffffffffffffff\n      and\n        /* \"Lab7/Ballot.sol\":1339:1364  msg.sender != chairperson */\n      0xffffffffffffffffffffffffffffffffffffffff\n      and\n        /* \"Lab7/Ballot.sol\":1339:1349  msg.sender */\n      caller\n        /* \"Lab7/Ballot.sol\":1339:1364  msg.sender != chairperson */\n      0xffffffffffffffffffffffffffffffffffffffff\n      and\n      eq\n      iszero\n        /* \"Lab7/Ballot.sol\":1339:1397  msg.sender != chairperson || voters[toVoter].voted == true */\n      dup1\n      tag_64\n      jumpi\n      pop\n        /* \"Lab7/Ballot.sol\":1393:1397  true */\n      0x01\n        /* \"Lab7/Ballot.sol\":1368:1397  voters[toVoter].voted == true */\n      iszero\n      iszero\n        /* \"Lab7/Ballot.sol\":1368:1374  voters */\n      0x03\n        /* \"Lab7/Ballot.sol\":1368:1383  voters[toVoter] */\n      0x00\n        /* \"Lab7/Ballot.sol\":1375:1382  toVoter */\n      dup4\n        /* \"Lab7/Ballot.sol\":1368:1383  voters[toVoter] */\n      0xffffffffffffffffffffffffffffffffffffffff\n      and\n      0xffffffffffffffffffffffffffffffffffffffff\n      and\n      dup2\n      mstore\n      0x20\n      add\n      swap1\n      dup2\n      mstore\n      0x20\n      add\n      0x00\n      keccak256\n        /* \"Lab7/Ballot.sol\":1368:1389  voters[toVoter].voted */\n      0x01\n      add\n      0x00\n      swap1\n      sload\n      swap1\n      0x0100\n      exp\n      swap1\n      div\n      0xff\n      and\n        /* \"Lab7/Ballot.sol\":1368:1397  voters[toVoter].voted == true */\n      iszero\n      iszero\n      eq\n        /* \"Lab7/Ballot.sol\":1339:1397  msg.sender != chairperson || voters[toVoter].voted == true */\n    tag_64:\n        /* \"Lab7/Ballot.sol\":1339:1434  msg.sender != chairperson || voters[toVoter].voted == true || voters[toVoter].stage!=Stage.Init */\n      dup1\n      tag_65\n      jumpi\n      pop\n        /* \"Lab7/Ballot.sol\":1424:1434  Stage.Init */\n      0x00\n        /* \"Lab7/Ballot.sol\":1401:1434  voters[toVoter].stage!=Stage.Init */\n      0x03\n      dup2\n      gt\n      iszero\n      tag_66\n      jumpi\n      tag_67\n      tag_68\n      jump\t// in\n    tag_67:\n    tag_66:\n        /* \"Lab7/Ballot.sol\":1401:1407  voters */\n      0x03\n        /* \"Lab7/Ballot.sol\":1401:1416  voters[toVoter] */\n      0x00\n        /* \"Lab7/Ballot.sol\":1408:1415  toVoter */\n      dup4\n        /* \"Lab7/Ballot.sol\":1401:1416  voters[toVoter] */\n      0xffffffffffffffffffffffffffffffffffffffff\n      and\n      0xffffffffffffffffffffffffffffffffffffffff\n      and\n      dup2\n      mstore\n      0x20\n      add\n      swap1\n      dup2\n      mstore\n      0x20\n      add\n      0x00\n      keccak256\n        /* \"Lab7/Ballot.sol\":1401:1422  voters[toVoter].stage */\n      0x03\n      add\n      0x00\n      swap1\n      sload\n      swap1\n      0x0100\n      exp\n      swap1\n      div\n      0xff\n      and\n        /* \"Lab7/Ballot.sol\":1401:1434  voters[toVoter].stage!=Stage.Init */\n      0x03\n      dup2\n      gt\n      iszero\n      tag_69\n      jumpi\n      tag_70\n      tag_68\n      jump\t// in\n    tag_70:\n    tag_69:\n      eq\n      iszero\n        /* \"Lab7/Ballot.sol\":1339:1434  msg.sender != chairperson || voters[toVoter].voted == true || voters[toVoter].stage!=Stage.Init */\n    tag_65:\n        /* \"Lab7/Ballot.sol\":1436:1443  return; */\n      tag_63\n        /* \"Lab7/Ballot.sol\":1335:1443  if (msg.sender != chairperson || voters[toVoter].voted == true || voters[toVoter].stage!=Stage.Init) return; */\n      jumpi\n        /* \"Lab7/Ballot.sol\":1477:1478  1 */\n      0x01\n        /* \"Lab7/Ballot.sol\":1452:1458  voters */\n      0x03\n        /* \"Lab7/Ballot.sol\":1452:1467  voters[toVoter] */\n      0x00\n        /* \"Lab7/Ballot.sol\":1459:1466  toVoter */\n      dup4\n        /* \"Lab7/Ballot.sol\":1452:1467  voters[toVoter] */\n      0xffffffffffffffffffffffffffffffffffffffff\n      and\n      0xffffffffffffffffffffffffffffffffffffffff\n      and\n      dup2\n      mstore\n      0x20\n      add\n      swap1\n      dup2\n      mstore\n      0x20\n      add\n      0x00\n      keccak256\n        /* \"Lab7/Ballot.sol\":1452:1474  voters[toVoter].weight */\n      0x00\n      add\n        /* \"Lab7/Ballot.sol\":1452:1478  voters[toVoter].weight = 1 */\n      dup2\n      swap1\n      sstore\n      pop\n        /* \"Lab7/Ballot.sol\":1512:1517  false */\n      0x00\n        /* \"Lab7/Ballot.sol\":1488:1494  voters */\n      0x03\n        /* \"Lab7/Ballot.sol\":1488:1503  voters[toVoter] */\n      0x00\n        /* \"Lab7/Ballot.sol\":1495:1502  toVoter */\n      dup4\n        /* \"Lab7/Ballot.sol\":1488:1503  voters[toVoter] */\n      0xffffffffffffffffffffffffffffffffffffffff\n      and\n      0xffffffffffffffffffffffffffffffffffffffff\n      and\n      dup2\n      mstore\n      0x20\n      add\n      swap1\n      dup2\n      mstore\n      0x20\n      add\n      0x00\n      keccak256\n        /* \"Lab7/Ballot.sol\":1488:1509  voters[toVoter].voted */\n      0x01\n      add\n      0x00\n        /* \"Lab7/Ballot.sol\":1488:1517  voters[toVoter].voted = false */\n      0x0100\n      exp\n      dup2\n      sload\n      dup2\n      0xff\n      mul\n      not\n      and\n      swap1\n      dup4\n      iszero\n      iszero\n      mul\n      or\n      swap1\n      sstore\n      pop\n        /* \"Lab7/Ballot.sol\":1556:1571  block.timestamp */\n      timestamp\n        /* \"Lab7/Ballot.sol\":1527:1533  voters */\n      0x03\n        /* \"Lab7/Ballot.sol\":1527:1542  voters[toVoter] */\n      0x00\n        /* \"Lab7/Ballot.sol\":1534:1541  toVoter */\n      dup4\n        /* \"Lab7/Ballot.sol\":1527:1542  voters[toVoter] */\n      0xffffffffffffffffffffffffffffffffffffffff\n      and\n      0xffffffffffffffffffffffffffffffffffffffff\n      and\n      dup2\n      mstore\n      0x20\n      add\n      swap1\n      dup2\n      mstore\n      0x20\n      add\n      0x00\n      keccak256\n        /* \"Lab7/Ballot.sol\":1527:1553  voters[toVoter].createTime */\n      0x02\n      add\n        /* \"Lab7/Ballot.sol\":1527:1571  voters[toVoter].createTime = block.timestamp */\n      dup2\n      swap1\n      sstore\n      pop\n        /* \"Lab7/Ballot.sol\":1581:1591  VoterCount */\n      0x01\n      0x00\n        /* \"Lab7/Ballot.sol\":1581:1593  VoterCount++ */\n      dup2\n      sload\n      dup1\n      swap3\n      swap2\n      swap1\n      tag_72\n      swap1\n      tag_73\n      jump\t// in\n    tag_72:\n      swap2\n      swap1\n      pop\n      sstore\n      pop\n        /* \"Lab7/Ballot.sol\":1213:1600  function register(address toVoter) public {... */\n    tag_63:\n      pop\n      jump\t// out\n        /* \"Lab7/Ballot.sol\":806:1012  function addProposalDetail(uint256 _id, string memory _subjectProposal) public... */\n    tag_35:\n        /* \"Lab7/Ballot.sol\":899:916  Proposal memory b */\n      0x00\n        /* \"Lab7/Ballot.sol\":919:953  Proposal(_id, _subjectProposal, 0) */\n      mload(0x40)\n      dup1\n      0x60\n      add\n      0x40\n      mstore\n      dup1\n        /* \"Lab7/Ballot.sol\":928:931  _id */\n      dup5\n        /* \"Lab7/Ballot.sol\":919:953  Proposal(_id, _subjectProposal, 0) */\n      dup2\n      mstore\n      0x20\n      add\n        /* \"Lab7/Ballot.sol\":933:949  _subjectProposal */\n      dup4\n        /* \"Lab7/Ballot.sol\":919:953  Proposal(_id, _subjectProposal, 0) */\n      dup2\n      mstore\n      0x20\n      add\n        /* \"Lab7/Ballot.sol\":951:952  0 */\n      0x00\n        /* \"Lab7/Ballot.sol\":919:953  Proposal(_id, _subjectProposal, 0) */\n      dup2\n      mstore\n      pop\n        /* \"Lab7/Ballot.sol\":899:953  Proposal memory b = Proposal(_id, _subjectProposal, 0) */\n      swap1\n      pop\n        /* \"Lab7/Ballot.sol\":963:972  proposals */\n      0x04\n        /* \"Lab7/Ballot.sol\":978:979  b */\n      dup2\n        /* \"Lab7/Ballot.sol\":963:980  proposals.push(b) */\n      swap1\n      dup1\n      0x01\n      dup2\n      sload\n      add\n      dup1\n      dup3\n      sstore\n      dup1\n      swap2\n      pop\n      pop\n      0x01\n      swap1\n      sub\n      swap1\n      0x00\n      mstore\n      keccak256(0x00, 0x20)\n      swap1\n      0x03\n      mul\n      add\n      0x00\n      swap1\n      swap2\n      swap1\n      swap2\n      swap1\n      swap2\n      pop\n      0x00\n      dup3\n      add\n      mload\n      dup2\n      0x00\n      add\n      sstore\n      0x20\n      dup3\n      add\n      mload\n      dup2\n      0x01\n      add\n      swap1\n      dup2\n      tag_76\n      swap2\n      swap1\n      tag_77\n      jump\t// in\n    tag_76:\n      pop\n      0x40\n      dup3\n      add\n      mload\n      dup2\n      0x02\n      add\n      sstore\n      pop\n      pop\n        /* \"Lab7/Ballot.sol\":990:1003  proposalCount */\n      0x00\n      dup1\n        /* \"Lab7/Ballot.sol\":990:1005  proposalCount++ */\n      dup2\n      sload\n      dup1\n      swap3\n      swap2\n      swap1\n      tag_78\n      swap1\n      tag_73\n      jump\t// in\n    tag_78:\n      swap2\n      swap1\n      pop\n      sstore\n      pop\n        /* \"Lab7/Ballot.sol\":889:1012  {... */\n      pop\n        /* \"Lab7/Ballot.sol\":806:1012  function addProposalDetail(uint256 _id, string memory _subjectProposal) public... */\n      pop\n      pop\n      jump\t// out\n        /* \"Lab7/Ballot.sol\":2066:2427  function winningProposal() public view returns (uint8 _winningProposal) {... */\n    tag_37:\n        /* \"Lab7/Ballot.sol\":2114:2136  uint8 _winningProposal */\n      0x00\n        /* \"Lab7/Ballot.sol\":2148:2172  uint256 winningVoteCount */\n      dup1\n        /* \"Lab7/Ballot.sol\":2175:2176  0 */\n      0x00\n        /* \"Lab7/Ballot.sol\":2148:2176  uint256 winningVoteCount = 0 */\n      swap1\n      pop\n        /* \"Lab7/Ballot.sol\":2192:2202  uint8 prop */\n      0x00\n        /* \"Lab7/Ballot.sol\":2187:2421  for (uint8 prop = 0; prop < proposals.length; prop++)... */\n    tag_80:\n        /* \"Lab7/Ballot.sol\":2215:2224  proposals */\n      0x04\n        /* \"Lab7/Ballot.sol\":2215:2231  proposals.length */\n      dup1\n      sload\n      swap1\n      pop\n        /* \"Lab7/Ballot.sol\":2208:2212  prop */\n      dup2\n        /* \"Lab7/Ballot.sol\":2208:2231  prop < proposals.length */\n      0xff\n      and\n      lt\n        /* \"Lab7/Ballot.sol\":2187:2421  for (uint8 prop = 0; prop < proposals.length; prop++)... */\n      iszero\n      tag_81\n      jumpi\n        /* \"Lab7/Ballot.sol\":2285:2301  winningVoteCount */\n      dup2\n        /* \"Lab7/Ballot.sol\":2257:2266  proposals */\n      0x04\n        /* \"Lab7/Ballot.sol\":2267:2271  prop */\n      dup3\n        /* \"Lab7/Ballot.sol\":2257:2272  proposals[prop] */\n      0xff\n      and\n      dup2\n      sload\n      dup2\n      lt\n      tag_83\n      jumpi\n      tag_84\n      tag_85\n      jump\t// in\n    tag_84:\n    tag_83:\n      swap1\n      0x00\n      mstore\n      keccak256(0x00, 0x20)\n      swap1\n      0x03\n      mul\n      add\n        /* \"Lab7/Ballot.sol\":2257:2282  proposals[prop].voteCount */\n      0x02\n      add\n      sload\n        /* \"Lab7/Ballot.sol\":2257:2301  proposals[prop].voteCount > winningVoteCount */\n      gt\n        /* \"Lab7/Ballot.sol\":2253:2421  if (proposals[prop].voteCount > winningVoteCount) {... */\n      iszero\n      tag_87\n      jumpi\n        /* \"Lab7/Ballot.sol\":2340:2349  proposals */\n      0x04\n        /* \"Lab7/Ballot.sol\":2350:2354  prop */\n      dup2\n        /* \"Lab7/Ballot.sol\":2340:2355  proposals[prop] */\n      0xff\n      and\n      dup2\n      sload\n      dup2\n      lt\n      tag_88\n      jumpi\n      tag_89\n      tag_85\n      jump\t// in\n    tag_89:\n    tag_88:\n      swap1\n      0x00\n      mstore\n      keccak256(0x00, 0x20)\n      swap1\n      0x03\n      mul\n      add\n        /* \"Lab7/Ballot.sol\":2340:2365  proposals[prop].voteCount */\n      0x02\n      add\n      sload\n        /* \"Lab7/Ballot.sol\":2321:2365  winningVoteCount = proposals[prop].voteCount */\n      swap2\n      pop\n        /* \"Lab7/Ballot.sol\":2402:2406  prop */\n      dup1\n        /* \"Lab7/Ballot.sol\":2383:2406  _winningProposal = prop */\n      swap3\n      pop\n        /* \"Lab7/Ballot.sol\":2253:2421  if (proposals[prop].voteCount > winningVoteCount) {... */\n    tag_87:\n        /* \"Lab7/Ballot.sol\":2233:2239  prop++ */\n      dup1\n      dup1\n      tag_91\n      swap1\n      tag_92\n      jump\t// in\n    tag_91:\n      swap2\n      pop\n      pop\n        /* \"Lab7/Ballot.sol\":2187:2421  for (uint8 prop = 0; prop < proposals.length; prop++)... */\n      jump(tag_80)\n    tag_81:\n      pop\n        /* \"Lab7/Ballot.sol\":2138:2427  {... */\n      pop\n        /* \"Lab7/Ballot.sol\":2066:2427  function winningProposal() public view returns (uint8 _winningProposal) {... */\n      swap1\n      jump\t// out\n        /* \"Lab7/Ballot.sol\":2433:3082  function advanceState(address voter) public{... */\n    tag_42:\n        /* \"Lab7/Ballot.sol\":2609:2619  10 seconds */\n      0x0a\n        /* \"Lab7/Ballot.sol\":2582:2588  voters */\n      0x03\n        /* \"Lab7/Ballot.sol\":2582:2595  voters[voter] */\n      0x00\n        /* \"Lab7/Ballot.sol\":2589:2594  voter */\n      dup4\n        /* \"Lab7/Ballot.sol\":2582:2595  voters[voter] */\n      0xffffffffffffffffffffffffffffffffffffffff\n      and\n      0xffffffffffffffffffffffffffffffffffffffff\n      and\n      dup2\n      mstore\n      0x20\n      add\n      swap1\n      dup2\n      mstore\n      0x20\n      add\n      0x00\n      keccak256\n        /* \"Lab7/Ballot.sol\":2582:2606  voters[voter].createTime */\n      0x02\n      add\n      sload\n        /* \"Lab7/Ballot.sol\":2582:2619  voters[voter].createTime + 10 seconds */\n      tag_94\n      swap2\n      swap1\n      tag_95\n      jump\t// in\n    tag_94:\n        /* \"Lab7/Ballot.sol\":2563:2578  block.timestamp */\n      timestamp\n        /* \"Lab7/Ballot.sol\":2563:2620  block.timestamp > (voters[voter].createTime + 10 seconds) */\n      gt\n        /* \"Lab7/Ballot.sol\":2559:3076  if (block.timestamp > (voters[voter].createTime + 10 seconds)) {... */\n      iszero\n      tag_96\n      jumpi\n        /* \"Lab7/Ballot.sol\":2663:2673  Stage.Init */\n      0x00\n        /* \"Lab7/Ballot.sol\":2640:2673  voters[voter].stage == Stage.Init */\n      0x03\n      dup2\n      gt\n      iszero\n      tag_97\n      jumpi\n      tag_98\n      tag_68\n      jump\t// in\n    tag_98:\n    tag_97:\n        /* \"Lab7/Ballot.sol\":2640:2646  voters */\n      0x03\n        /* \"Lab7/Ballot.sol\":2640:2653  voters[voter] */\n      0x00\n        /* \"Lab7/Ballot.sol\":2647:2652  voter */\n      dup4\n        /* \"Lab7/Ballot.sol\":2640:2653  voters[voter] */\n      0xffffffffffffffffffffffffffffffffffffffff\n      and\n      0xffffffffffffffffffffffffffffffffffffffff\n      and\n      dup2\n      mstore\n      0x20\n      add\n      swap1\n      dup2\n      mstore\n      0x20\n      add\n      0x00\n      keccak256\n        /* \"Lab7/Ballot.sol\":2640:2659  voters[voter].stage */\n      0x03\n      add\n      0x00\n      swap1\n      sload\n      swap1\n      0x0100\n      exp\n      swap1\n      div\n      0xff\n      and\n        /* \"Lab7/Ballot.sol\":2640:2673  voters[voter].stage == Stage.Init */\n      0x03\n      dup2\n      gt\n      iszero\n      tag_99\n      jumpi\n      tag_100\n      tag_68\n      jump\t// in\n    tag_100:\n    tag_99:\n      sub\n        /* \"Lab7/Ballot.sol\":2636:2763  if (voters[voter].stage == Stage.Init) {... */\n      tag_101\n      jumpi\n        /* \"Lab7/Ballot.sol\":2715:2724  Stage.Reg */\n      0x01\n        /* \"Lab7/Ballot.sol\":2693:2699  voters */\n      0x03\n        /* \"Lab7/Ballot.sol\":2693:2706  voters[voter] */\n      0x00\n        /* \"Lab7/Ballot.sol\":2700:2705  voter */\n      dup4\n        /* \"Lab7/Ballot.sol\":2693:2706  voters[voter] */\n      0xffffffffffffffffffffffffffffffffffffffff\n      and\n      0xffffffffffffffffffffffffffffffffffffffff\n      and\n      dup2\n      mstore\n      0x20\n      add\n      swap1\n      dup2\n      mstore\n      0x20\n      add\n      0x00\n      keccak256\n        /* \"Lab7/Ballot.sol\":2693:2712  voters[voter].stage */\n      0x03\n      add\n      0x00\n        /* \"Lab7/Ballot.sol\":2693:2724  voters[voter].stage = Stage.Reg */\n      0x0100\n      exp\n      dup2\n      sload\n      dup2\n      0xff\n      mul\n      not\n      and\n      swap1\n      dup4\n      0x03\n      dup2\n      gt\n      iszero\n      tag_102\n      jumpi\n      tag_103\n      tag_68\n      jump\t// in\n    tag_103:\n    tag_102:\n      mul\n      or\n      swap1\n      sstore\n      pop\n        /* \"Lab7/Ballot.sol\":2742:2749  return; */\n      jump(tag_93)\n        /* \"Lab7/Ballot.sol\":2636:2763  if (voters[voter].stage == Stage.Init) {... */\n    tag_101:\n        /* \"Lab7/Ballot.sol\":2804:2813  Stage.Reg */\n      0x01\n        /* \"Lab7/Ballot.sol\":2781:2813  voters[voter].stage == Stage.Reg */\n      0x03\n      dup2\n      gt\n      iszero\n      tag_104\n      jumpi\n      tag_105\n      tag_68\n      jump\t// in\n    tag_105:\n    tag_104:\n        /* \"Lab7/Ballot.sol\":2781:2787  voters */\n      0x03\n        /* \"Lab7/Ballot.sol\":2781:2794  voters[voter] */\n      0x00\n        /* \"Lab7/Ballot.sol\":2788:2793  voter */\n      dup4\n        /* \"Lab7/Ballot.sol\":2781:2794  voters[voter] */\n      0xffffffffffffffffffffffffffffffffffffffff\n      and\n      0xffffffffffffffffffffffffffffffffffffffff\n      and\n      dup2\n      mstore\n      0x20\n      add\n      swap1\n      dup2\n      mstore\n      0x20\n      add\n      0x00\n      keccak256\n        /* \"Lab7/Ballot.sol\":2781:2800  voters[voter].stage */\n      0x03\n      add\n      0x00\n      swap1\n      sload\n      swap1\n      0x0100\n      exp\n      swap1\n      div\n      0xff\n      and\n        /* \"Lab7/Ballot.sol\":2781:2813  voters[voter].stage == Stage.Reg */\n      0x03\n      dup2\n      gt\n      iszero\n      tag_106\n      jumpi\n      tag_107\n      tag_68\n      jump\t// in\n    tag_107:\n    tag_106:\n      sub\n        /* \"Lab7/Ballot.sol\":2777:2904  if (voters[voter].stage == Stage.Reg) {... */\n      tag_108\n      jumpi\n        /* \"Lab7/Ballot.sol\":2855:2865  Stage.Vote */\n      0x02\n        /* \"Lab7/Ballot.sol\":2833:2839  voters */\n      0x03\n        /* \"Lab7/Ballot.sol\":2833:2846  voters[voter] */\n      0x00\n        /* \"Lab7/Ballot.sol\":2840:2845  voter */\n      dup4\n        /* \"Lab7/Ballot.sol\":2833:2846  voters[voter] */\n      0xffffffffffffffffffffffffffffffffffffffff\n      and\n      0xffffffffffffffffffffffffffffffffffffffff\n      and\n      dup2\n      mstore\n      0x20\n      add\n      swap1\n      dup2\n      mstore\n      0x20\n      add\n      0x00\n      keccak256\n        /* \"Lab7/Ballot.sol\":2833:2852  voters[voter].stage */\n      0x03\n      add\n      0x00\n        /* \"Lab7/Ballot.sol\":2833:2865  voters[voter].stage = Stage.Vote */\n      0x0100\n      exp\n      dup2\n      sload\n      dup2\n      0xff\n      mul\n      not\n      and\n      swap1\n      dup4\n      0x03\n      dup2\n      gt\n      iszero\n      tag_109\n      jumpi\n      tag_110\n      tag_68\n      jump\t// in\n    tag_110:\n    tag_109:\n      mul\n      or\n      swap1\n      sstore\n      pop\n        /* \"Lab7/Ballot.sol\":2883:2890  return; */\n      jump(tag_93)\n        /* \"Lab7/Ballot.sol\":2777:2904  if (voters[voter].stage == Stage.Reg) {... */\n    tag_108:\n        /* \"Lab7/Ballot.sol\":2945:2955  Stage.Vote */\n      0x02\n        /* \"Lab7/Ballot.sol\":2922:2955  voters[voter].stage == Stage.Vote */\n      0x03\n      dup2\n      gt\n      iszero\n      tag_111\n      jumpi\n      tag_112\n      tag_68\n      jump\t// in\n    tag_112:\n    tag_111:\n        /* \"Lab7/Ballot.sol\":2922:2928  voters */\n      0x03\n        /* \"Lab7/Ballot.sol\":2922:2935  voters[voter] */\n      0x00\n        /* \"Lab7/Ballot.sol\":2929:2934  voter */\n      dup4\n        /* \"Lab7/Ballot.sol\":2922:2935  voters[voter] */\n      0xffffffffffffffffffffffffffffffffffffffff\n      and\n      0xffffffffffffffffffffffffffffffffffffffff\n      and\n      dup2\n      mstore\n      0x20\n      add\n      swap1\n      dup2\n      mstore\n      0x20\n      add\n      0x00\n      keccak256\n        /* \"Lab7/Ballot.sol\":2922:2941  voters[voter].stage */\n      0x03\n      add\n      0x00\n      swap1\n      sload\n      swap1\n      0x0100\n      exp\n      swap1\n      div\n      0xff\n      and\n        /* \"Lab7/Ballot.sol\":2922:2955  voters[voter].stage == Stage.Vote */\n      0x03\n      dup2\n      gt\n      iszero\n      tag_113\n      jumpi\n      tag_114\n      tag_68\n      jump\t// in\n    tag_114:\n    tag_113:\n      sub\n        /* \"Lab7/Ballot.sol\":2918:3046  if (voters[voter].stage == Stage.Vote) {... */\n      tag_115\n      jumpi\n        /* \"Lab7/Ballot.sol\":2997:3007  Stage.Done */\n      0x03\n        /* \"Lab7/Ballot.sol\":2975:2981  voters */\n      dup1\n        /* \"Lab7/Ballot.sol\":2975:2988  voters[voter] */\n      0x00\n        /* \"Lab7/Ballot.sol\":2982:2987  voter */\n      dup4\n        /* \"Lab7/Ballot.sol\":2975:2988  voters[voter] */\n      0xffffffffffffffffffffffffffffffffffffffff\n      and\n      0xffffffffffffffffffffffffffffffffffffffff\n      and\n      dup2\n      mstore\n      0x20\n      add\n      swap1\n      dup2\n      mstore\n      0x20\n      add\n      0x00\n      keccak256\n        /* \"Lab7/Ballot.sol\":2975:2994  voters[voter].stage */\n      0x03\n      add\n      0x00\n        /* \"Lab7/Ballot.sol\":2975:3007  voters[voter].stage = Stage.Done */\n      0x0100\n      exp\n      dup2\n      sload\n      dup2\n      0xff\n      mul\n      not\n      and\n      swap1\n      dup4\n      0x03\n      dup2\n      gt\n      iszero\n      tag_116\n      jumpi\n      tag_117\n      tag_68\n      jump\t// in\n    tag_117:\n    tag_116:\n      mul\n      or\n      swap1\n      sstore\n      pop\n        /* \"Lab7/Ballot.sol\":3025:3032  return; */\n      jump(tag_93)\n        /* \"Lab7/Ballot.sol\":2918:3046  if (voters[voter].stage == Stage.Vote) {... */\n    tag_115:\n        /* \"Lab7/Ballot.sol\":3059:3066  return; */\n      jump(tag_93)\n        /* \"Lab7/Ballot.sol\":2559:3076  if (block.timestamp > (voters[voter].createTime + 10 seconds)) {... */\n    tag_96:\n        /* \"Lab7/Ballot.sol\":2433:3082  function advanceState(address voter) public{... */\n    tag_93:\n      pop\n      jump\t// out\n        /* \"Lab7/Ballot.sol\":567:606  mapping(address => Voter) public voters */\n    tag_45:\n      mstore(0x20, 0x03)\n      dup1\n      0x00\n      mstore\n      keccak256(0x00, 0x40)\n      0x00\n      swap2\n      pop\n      swap1\n      pop\n      dup1\n      0x00\n      add\n      sload\n      swap1\n      dup1\n      0x01\n      add\n      0x00\n      swap1\n      sload\n      swap1\n      0x0100\n      exp\n      swap1\n      div\n      0xff\n      and\n      swap1\n      dup1\n      0x01\n      add\n      0x01\n      swap1\n      sload\n      swap1\n      0x0100\n      exp\n      swap1\n      div\n      0xff\n      and\n      swap1\n      dup1\n      0x02\n      add\n      sload\n      swap1\n      dup1\n      0x03\n      add\n      0x00\n      swap1\n      sload\n      swap1\n      0x0100\n      exp\n      swap1\n      div\n      0xff\n      and\n      swap1\n      pop\n      dup6\n      jump\t// out\n        /* \"Lab7/Ballot.sol\":1700:2060  function vote(uint8 toProposal) public {... */\n    tag_51:\n        /* \"Lab7/Ballot.sol\":1749:1769  Voter storage sender */\n      0x00\n        /* \"Lab7/Ballot.sol\":1772:1778  voters */\n      0x03\n        /* \"Lab7/Ballot.sol\":1772:1790  voters[msg.sender] */\n      0x00\n        /* \"Lab7/Ballot.sol\":1779:1789  msg.sender */\n      caller\n        /* \"Lab7/Ballot.sol\":1772:1790  voters[msg.sender] */\n      0xffffffffffffffffffffffffffffffffffffffff\n      and\n      0xffffffffffffffffffffffffffffffffffffffff\n      and\n      dup2\n      mstore\n      0x20\n      add\n      swap1\n      dup2\n      mstore\n      0x20\n      add\n      0x00\n      keccak256\n        /* \"Lab7/Ballot.sol\":1749:1790  Voter storage sender = voters[msg.sender] */\n      swap1\n      pop\n        /* \"Lab7/Ballot.sol\":1817:1823  sender */\n      dup1\n        /* \"Lab7/Ballot.sol\":1817:1829  sender.voted */\n      0x01\n      add\n      0x00\n      swap1\n      sload\n      swap1\n      0x0100\n      exp\n      swap1\n      div\n      0xff\n      and\n        /* \"Lab7/Ballot.sol\":1817:1875  sender.voted ||... */\n      dup1\n      tag_119\n      jumpi\n      pop\n        /* \"Lab7/Ballot.sol\":1859:1868  proposals */\n      0x04\n        /* \"Lab7/Ballot.sol\":1859:1875  proposals.length */\n      dup1\n      sload\n      swap1\n      pop\n        /* \"Lab7/Ballot.sol\":1845:1855  toProposal */\n      dup3\n        /* \"Lab7/Ballot.sol\":1845:1875  toProposal >= proposals.length */\n      0xff\n      and\n      lt\n      iszero\n        /* \"Lab7/Ballot.sol\":1817:1875  sender.voted ||... */\n    tag_119:\n        /* \"Lab7/Ballot.sol\":1817:1914  sender.voted ||... */\n      dup1\n      tag_120\n      jumpi\n      pop\n        /* \"Lab7/Ballot.sol\":1904:1914  Stage.Init */\n      0x00\n        /* \"Lab7/Ballot.sol\":1890:1914  sender.stage!=Stage.Init */\n      0x03\n      dup2\n      gt\n      iszero\n      tag_121\n      jumpi\n      tag_122\n      tag_68\n      jump\t// in\n    tag_122:\n    tag_121:\n        /* \"Lab7/Ballot.sol\":1890:1896  sender */\n      dup2\n        /* \"Lab7/Ballot.sol\":1890:1902  sender.stage */\n      0x03\n      add\n      0x00\n      swap1\n      sload\n      swap1\n      0x0100\n      exp\n      swap1\n      div\n      0xff\n      and\n        /* \"Lab7/Ballot.sol\":1890:1914  sender.stage!=Stage.Init */\n      0x03\n      dup2\n      gt\n      iszero\n      tag_123\n      jumpi\n      tag_124\n      tag_68\n      jump\t// in\n    tag_124:\n    tag_123:\n      eq\n      iszero\n        /* \"Lab7/Ballot.sol\":1817:1914  sender.voted ||... */\n    tag_120:\n        /* \"Lab7/Ballot.sol\":1800:1932  if (... */\n      iszero\n      tag_125\n      jumpi\n        /* \"Lab7/Ballot.sol\":1925:1932  return; */\n      pop\n      jump(tag_118)\n        /* \"Lab7/Ballot.sol\":1800:1932  if (... */\n    tag_125:\n        /* \"Lab7/Ballot.sol\":1956:1960  true */\n      0x01\n        /* \"Lab7/Ballot.sol\":1941:1947  sender */\n      dup2\n        /* \"Lab7/Ballot.sol\":1941:1953  sender.voted */\n      0x01\n      add\n      0x00\n        /* \"Lab7/Ballot.sol\":1941:1960  sender.voted = true */\n      0x0100\n      exp\n      dup2\n      sload\n      dup2\n      0xff\n      mul\n      not\n      and\n      swap1\n      dup4\n      iszero\n      iszero\n      mul\n      or\n      swap1\n      sstore\n      pop\n        /* \"Lab7/Ballot.sol\":1984:1994  toProposal */\n      dup2\n        /* \"Lab7/Ballot.sol\":1970:1976  sender */\n      dup2\n        /* \"Lab7/Ballot.sol\":1970:1981  sender.vote */\n      0x01\n      add\n      0x01\n        /* \"Lab7/Ballot.sol\":1970:1994  sender.vote = toProposal */\n      0x0100\n      exp\n      dup2\n      sload\n      dup2\n      0xff\n      mul\n      not\n      and\n      swap1\n      dup4\n      0xff\n      and\n      mul\n      or\n      swap1\n      sstore\n      pop\n        /* \"Lab7/Ballot.sol\":2040:2046  sender */\n      dup1\n        /* \"Lab7/Ballot.sol\":2040:2053  sender.weight */\n      0x00\n      add\n      sload\n        /* \"Lab7/Ballot.sol\":2005:2014  proposals */\n      0x04\n        /* \"Lab7/Ballot.sol\":2015:2025  toProposal */\n      dup4\n        /* \"Lab7/Ballot.sol\":2005:2026  proposals[toProposal] */\n      0xff\n      and\n      dup2\n      sload\n      dup2\n      lt\n      tag_126\n      jumpi\n      tag_127\n      tag_85\n      jump\t// in\n    tag_127:\n    tag_126:\n      swap1\n      0x00\n      mstore\n      keccak256(0x00, 0x20)\n      swap1\n      0x03\n      mul\n      add\n        /* \"Lab7/Ballot.sol\":2005:2036  proposals[toProposal].voteCount */\n      0x02\n      add\n      0x00\n        /* \"Lab7/Ballot.sol\":2005:2053  proposals[toProposal].voteCount += sender.weight */\n      dup3\n      dup3\n      sload\n      tag_129\n      swap2\n      swap1\n      tag_95\n      jump\t// in\n    tag_129:\n      swap3\n      pop\n      pop\n      dup2\n      swap1\n      sstore\n      pop\n        /* \"Lab7/Ballot.sol\":1739:2060  {... */\n      pop\n        /* \"Lab7/Ballot.sol\":1700:2060  function vote(uint8 toProposal) public {... */\n    tag_118:\n      pop\n      jump\t// out\n        /* \"Lab7/Ballot.sol\":401:433  uint256 public proposalCount = 0 */\n    tag_53:\n      sload(0x00)\n      dup2\n      jump\t// out\n        /* \"#utility.yul\":7:82   */\n    tag_130:\n        /* \"#utility.yul\":40:46   */\n      0x00\n        /* \"#utility.yul\":73:75   */\n      0x40\n        /* \"#utility.yul\":67:76   */\n      mload\n        /* \"#utility.yul\":57:76   */\n      swap1\n      pop\n        /* \"#utility.yul\":7:82   */\n      swap1\n      jump\t// out\n        /* \"#utility.yul\":88:205   */\n    tag_131:\n        /* \"#utility.yul\":197:198   */\n      0x00\n        /* \"#utility.yul\":194:195   */\n      dup1\n        /* \"#utility.yul\":187:199   */\n      revert\n        /* \"#utility.yul\":211:328   */\n    tag_132:\n        /* \"#utility.yul\":320:321   */\n      0x00\n        /* \"#utility.yul\":317:318   */\n      dup1\n        /* \"#utility.yul\":310:322   */\n      revert\n        /* \"#utility.yul\":334:411   */\n    tag_133:\n        /* \"#utility.yul\":371:378   */\n      0x00\n        /* \"#utility.yul\":400:405   */\n      dup2\n        /* \"#utility.yul\":389:405   */\n      swap1\n      pop\n        /* \"#utility.yul\":334:411   */\n      swap2\n      swap1\n      pop\n      jump\t// out\n        /* \"#utility.yul\":417:539   */\n    tag_134:\n        /* \"#utility.yul\":490:514   */\n      tag_189\n        /* \"#utility.yul\":508:513   */\n      dup2\n        /* \"#utility.yul\":490:514   */\n      tag_133\n      jump\t// in\n    tag_189:\n        /* \"#utility.yul\":483:488   */\n      dup2\n        /* \"#utility.yul\":480:515   */\n      eq\n        /* \"#utility.yul\":470:533   */\n      tag_190\n      jumpi\n        /* \"#utility.yul\":529:530   */\n      0x00\n        /* \"#utility.yul\":526:527   */\n      dup1\n        /* \"#utility.yul\":519:531   */\n      revert\n        /* \"#utility.yul\":470:533   */\n    tag_190:\n        /* \"#utility.yul\":417:539   */\n      pop\n      jump\t// out\n        /* \"#utility.yul\":545:684   */\n    tag_135:\n        /* \"#utility.yul\":591:596   */\n      0x00\n        /* \"#utility.yul\":629:635   */\n      dup2\n        /* \"#utility.yul\":616:636   */\n      calldataload\n        /* \"#utility.yul\":607:636   */\n      swap1\n      pop\n        /* \"#utility.yul\":645:678   */\n      tag_192\n        /* \"#utility.yul\":672:677   */\n      dup2\n        /* \"#utility.yul\":645:678   */\n      tag_134\n      jump\t// in\n    tag_192:\n        /* \"#utility.yul\":545:684   */\n      swap3\n      swap2\n      pop\n      pop\n      jump\t// out\n        /* \"#utility.yul\":690:1019   */\n    tag_16:\n        /* \"#utility.yul\":749:755   */\n      0x00\n        /* \"#utility.yul\":798:800   */\n      0x20\n        /* \"#utility.yul\":786:795   */\n      dup3\n        /* \"#utility.yul\":777:784   */\n      dup5\n        /* \"#utility.yul\":773:796   */\n      sub\n        /* \"#utility.yul\":769:801   */\n      slt\n        /* \"#utility.yul\":766:885   */\n      iszero\n      tag_194\n      jumpi\n        /* \"#utility.yul\":804:883   */\n      tag_195\n      tag_131\n      jump\t// in\n    tag_195:\n        /* \"#utility.yul\":766:885   */\n    tag_194:\n        /* \"#utility.yul\":924:925   */\n      0x00\n        /* \"#utility.yul\":949:1002   */\n      tag_196\n        /* \"#utility.yul\":994:1001   */\n      dup5\n        /* \"#utility.yul\":985:991   */\n      dup3\n        /* \"#utility.yul\":974:983   */\n      dup6\n        /* \"#utility.yul\":970:992   */\n      add\n        /* \"#utility.yul\":949:1002   */\n      tag_135\n      jump\t// in\n    tag_196:\n        /* \"#utility.yul\":939:1002   */\n      swap2\n      pop\n        /* \"#utility.yul\":895:1012   */\n      pop\n        /* \"#utility.yul\":690:1019   */\n      swap3\n      swap2\n      pop\n      pop\n      jump\t// out\n        /* \"#utility.yul\":1025:1143   */\n    tag_136:\n        /* \"#utility.yul\":1112:1136   */\n      tag_198\n        /* \"#utility.yul\":1130:1135   */\n      dup2\n        /* \"#utility.yul\":1112:1136   */\n      tag_133\n      jump\t// in\n    tag_198:\n        /* \"#utility.yul\":1107:1110   */\n      dup3\n        /* \"#utility.yul\":1100:1137   */\n      mstore\n        /* \"#utility.yul\":1025:1143   */\n      pop\n      pop\n      jump\t// out\n        /* \"#utility.yul\":1149:1248   */\n    tag_137:\n        /* \"#utility.yul\":1201:1207   */\n      0x00\n        /* \"#utility.yul\":1235:1240   */\n      dup2\n        /* \"#utility.yul\":1229:1241   */\n      mload\n        /* \"#utility.yul\":1219:1241   */\n      swap1\n      pop\n        /* \"#utility.yul\":1149:1248   */\n      swap2\n      swap1\n      pop\n      jump\t// out\n        /* \"#utility.yul\":1254:1423   */\n    tag_138:\n        /* \"#utility.yul\":1338:1349   */\n      0x00\n        /* \"#utility.yul\":1372:1378   */\n      dup3\n        /* \"#utility.yul\":1367:1370   */\n      dup3\n        /* \"#utility.yul\":1360:1379   */\n      mstore\n        /* \"#utility.yul\":1412:1416   */\n      0x20\n        /* \"#utility.yul\":1407:1410   */\n      dup3\n        /* \"#utility.yul\":1403:1417   */\n      add\n        /* \"#utility.yul\":1388:1417   */\n      swap1\n      pop\n        /* \"#utility.yul\":1254:1423   */\n      swap3\n      swap2\n      pop\n      pop\n      jump\t// out\n        /* \"#utility.yul\":1429:1675   */\n    tag_139:\n        /* \"#utility.yul\":1510:1511   */\n      0x00\n        /* \"#utility.yul\":1520:1633   */\n    tag_202:\n        /* \"#utility.yul\":1534:1540   */\n      dup4\n        /* \"#utility.yul\":1531:1532   */\n      dup2\n        /* \"#utility.yul\":1528:1541   */\n      lt\n        /* \"#utility.yul\":1520:1633   */\n      iszero\n      tag_204\n      jumpi\n        /* \"#utility.yul\":1619:1620   */\n      dup1\n        /* \"#utility.yul\":1614:1617   */\n      dup3\n        /* \"#utility.yul\":1610:1621   */\n      add\n        /* \"#utility.yul\":1604:1622   */\n      mload\n        /* \"#utility.yul\":1600:1601   */\n      dup2\n        /* \"#utility.yul\":1595:1598   */\n      dup5\n        /* \"#utility.yul\":1591:1602   */\n      add\n        /* \"#utility.yul\":1584:1623   */\n      mstore\n        /* \"#utility.yul\":1556:1558   */\n      0x20\n        /* \"#utility.yul\":1553:1554   */\n      dup2\n        /* \"#utility.yul\":1549:1559   */\n      add\n        /* \"#utility.yul\":1544:1559   */\n      swap1\n      pop\n        /* \"#utility.yul\":1520:1633   */\n      jump(tag_202)\n    tag_204:\n        /* \"#utility.yul\":1667:1668   */\n      0x00\n        /* \"#utility.yul\":1658:1664   */\n      dup5\n        /* \"#utility.yul\":1653:1656   */\n      dup5\n        /* \"#utility.yul\":1649:1665   */\n      add\n        /* \"#utility.yul\":1642:1669   */\n      mstore\n        /* \"#utility.yul\":1491:1675   */\n      pop\n        /* \"#utility.yul\":1429:1675   */\n      pop\n      pop\n      pop\n      jump\t// out\n        /* \"#utility.yul\":1681:1783   */\n    tag_140:\n        /* \"#utility.yul\":1722:1728   */\n      0x00\n        /* \"#utility.yul\":1773:1775   */\n      0x1f\n        /* \"#utility.yul\":1769:1776   */\n      not\n        /* \"#utility.yul\":1764:1766   */\n      0x1f\n        /* \"#utility.yul\":1757:1762   */\n      dup4\n        /* \"#utility.yul\":1753:1767   */\n      add\n        /* \"#utility.yul\":1749:1777   */\n      and\n        /* \"#utility.yul\":1739:1777   */\n      swap1\n      pop\n        /* \"#utility.yul\":1681:1783   */\n      swap2\n      swap1\n      pop\n      jump\t// out\n        /* \"#utility.yul\":1789:2166   */\n    tag_141:\n        /* \"#utility.yul\":1877:1880   */\n      0x00\n        /* \"#utility.yul\":1905:1944   */\n      tag_207\n        /* \"#utility.yul\":1938:1943   */\n      dup3\n        /* \"#utility.yul\":1905:1944   */\n      tag_137\n      jump\t// in\n    tag_207:\n        /* \"#utility.yul\":1960:2031   */\n      tag_208\n        /* \"#utility.yul\":2024:2030   */\n      dup2\n        /* \"#utility.yul\":2019:2022   */\n      dup6\n        /* \"#utility.yul\":1960:2031   */\n      tag_138\n      jump\t// in\n    tag_208:\n        /* \"#utility.yul\":1953:2031   */\n      swap4\n      pop\n        /* \"#utility.yul\":2040:2105   */\n      tag_209\n        /* \"#utility.yul\":2098:2104   */\n      dup2\n        /* \"#utility.yul\":2093:2096   */\n      dup6\n        /* \"#utility.yul\":2086:2090   */\n      0x20\n        /* \"#utility.yul\":2079:2084   */\n      dup7\n        /* \"#utility.yul\":2075:2091   */\n      add\n        /* \"#utility.yul\":2040:2105   */\n      tag_139\n      jump\t// in\n    tag_209:\n        /* \"#utility.yul\":2130:2159   */\n      tag_210\n        /* \"#utility.yul\":2152:2158   */\n      dup2\n        /* \"#utility.yul\":2130:2159   */\n      tag_140\n      jump\t// in\n    tag_210:\n        /* \"#utility.yul\":2125:2128   */\n      dup5\n        /* \"#utility.yul\":2121:2160   */\n      add\n        /* \"#utility.yul\":2114:2160   */\n      swap2\n      pop\n        /* \"#utility.yul\":1881:2166   */\n      pop\n        /* \"#utility.yul\":1789:2166   */\n      swap3\n      swap2\n      pop\n      pop\n      jump\t// out\n        /* \"#utility.yul\":2172:2705   */\n    tag_19:\n        /* \"#utility.yul\":2341:2345   */\n      0x00\n        /* \"#utility.yul\":2379:2381   */\n      0x60\n        /* \"#utility.yul\":2368:2377   */\n      dup3\n        /* \"#utility.yul\":2364:2382   */\n      add\n        /* \"#utility.yul\":2356:2382   */\n      swap1\n      pop\n        /* \"#utility.yul\":2392:2463   */\n      tag_212\n        /* \"#utility.yul\":2460:2461   */\n      0x00\n        /* \"#utility.yul\":2449:2458   */\n      dup4\n        /* \"#utility.yul\":2445:2462   */\n      add\n        /* \"#utility.yul\":2436:2442   */\n      dup7\n        /* \"#utility.yul\":2392:2463   */\n      tag_136\n      jump\t// in\n    tag_212:\n        /* \"#utility.yul\":2510:2519   */\n      dup2\n        /* \"#utility.yul\":2504:2508   */\n      dup2\n        /* \"#utility.yul\":2500:2520   */\n      sub\n        /* \"#utility.yul\":2495:2497   */\n      0x20\n        /* \"#utility.yul\":2484:2493   */\n      dup4\n        /* \"#utility.yul\":2480:2498   */\n      add\n        /* \"#utility.yul\":2473:2521   */\n      mstore\n        /* \"#utility.yul\":2538:2616   */\n      tag_213\n        /* \"#utility.yul\":2611:2615   */\n      dup2\n        /* \"#utility.yul\":2602:2608   */\n      dup6\n        /* \"#utility.yul\":2538:2616   */\n      tag_141\n      jump\t// in\n    tag_213:\n        /* \"#utility.yul\":2530:2616   */\n      swap1\n      pop\n        /* \"#utility.yul\":2626:2698   */\n      tag_214\n        /* \"#utility.yul\":2694:2696   */\n      0x40\n        /* \"#utility.yul\":2683:2692   */\n      dup4\n        /* \"#utility.yul\":2679:2697   */\n      add\n        /* \"#utility.yul\":2670:2676   */\n      dup5\n        /* \"#utility.yul\":2626:2698   */\n      tag_136\n      jump\t// in\n    tag_214:\n        /* \"#utility.yul\":2172:2705   */\n      swap5\n      swap4\n      pop\n      pop\n      pop\n      pop\n      jump\t// out\n        /* \"#utility.yul\":2711:2837   */\n    tag_142:\n        /* \"#utility.yul\":2748:2755   */\n      0x00\n        /* \"#utility.yul\":2788:2830   */\n      0xffffffffffffffffffffffffffffffffffffffff\n        /* \"#utility.yul\":2781:2786   */\n      dup3\n        /* \"#utility.yul\":2777:2831   */\n      and\n        /* \"#utility.yul\":2766:2831   */\n      swap1\n      pop\n        /* \"#utility.yul\":2711:2837   */\n      swap2\n      swap1\n      pop\n      jump\t// out\n        /* \"#utility.yul\":2843:2939   */\n    tag_143:\n        /* \"#utility.yul\":2880:2887   */\n      0x00\n        /* \"#utility.yul\":2909:2933   */\n      tag_217\n        /* \"#utility.yul\":2927:2932   */\n      dup3\n        /* \"#utility.yul\":2909:2933   */\n      tag_142\n      jump\t// in\n    tag_217:\n        /* \"#utility.yul\":2898:2933   */\n      swap1\n      pop\n        /* \"#utility.yul\":2843:2939   */\n      swap2\n      swap1\n      pop\n      jump\t// out\n        /* \"#utility.yul\":2945:3063   */\n    tag_144:\n        /* \"#utility.yul\":3032:3056   */\n      tag_219\n        /* \"#utility.yul\":3050:3055   */\n      dup2\n        /* \"#utility.yul\":3032:3056   */\n      tag_143\n      jump\t// in\n    tag_219:\n        /* \"#utility.yul\":3027:3030   */\n      dup3\n        /* \"#utility.yul\":3020:3057   */\n      mstore\n        /* \"#utility.yul\":2945:3063   */\n      pop\n      pop\n      jump\t// out\n        /* \"#utility.yul\":3069:3291   */\n    tag_23:\n        /* \"#utility.yul\":3162:3166   */\n      0x00\n        /* \"#utility.yul\":3200:3202   */\n      0x20\n        /* \"#utility.yul\":3189:3198   */\n      dup3\n        /* \"#utility.yul\":3185:3203   */\n      add\n        /* \"#utility.yul\":3177:3203   */\n      swap1\n      pop\n        /* \"#utility.yul\":3213:3284   */\n      tag_221\n        /* \"#utility.yul\":3281:3282   */\n      0x00\n        /* \"#utility.yul\":3270:3279   */\n      dup4\n        /* \"#utility.yul\":3266:3283   */\n      add\n        /* \"#utility.yul\":3257:3263   */\n      dup5\n        /* \"#utility.yul\":3213:3284   */\n      tag_144\n      jump\t// in\n    tag_221:\n        /* \"#utility.yul\":3069:3291   */\n      swap3\n      swap2\n      pop\n      pop\n      jump\t// out\n        /* \"#utility.yul\":3297:3519   */\n    tag_27:\n        /* \"#utility.yul\":3390:3394   */\n      0x00\n        /* \"#utility.yul\":3428:3430   */\n      0x20\n        /* \"#utility.yul\":3417:3426   */\n      dup3\n        /* \"#utility.yul\":3413:3431   */\n      add\n        /* \"#utility.yul\":3405:3431   */\n      swap1\n      pop\n        /* \"#utility.yul\":3441:3512   */\n      tag_223\n        /* \"#utility.yul\":3509:3510   */\n      0x00\n        /* \"#utility.yul\":3498:3507   */\n      dup4\n        /* \"#utility.yul\":3494:3511   */\n      add\n        /* \"#utility.yul\":3485:3491   */\n      dup5\n        /* \"#utility.yul\":3441:3512   */\n      tag_136\n      jump\t// in\n    tag_223:\n        /* \"#utility.yul\":3297:3519   */\n      swap3\n      swap2\n      pop\n      pop\n      jump\t// out\n        /* \"#utility.yul\":3525:3647   */\n    tag_145:\n        /* \"#utility.yul\":3598:3622   */\n      tag_225\n        /* \"#utility.yul\":3616:3621   */\n      dup2\n        /* \"#utility.yul\":3598:3622   */\n      tag_143\n      jump\t// in\n    tag_225:\n        /* \"#utility.yul\":3591:3596   */\n      dup2\n        /* \"#utility.yul\":3588:3623   */\n      eq\n        /* \"#utility.yul\":3578:3641   */\n      tag_226\n      jumpi\n        /* \"#utility.yul\":3637:3638   */\n      0x00\n        /* \"#utility.yul\":3634:3635   */\n      dup1\n        /* \"#utility.yul\":3627:3639   */\n      revert\n        /* \"#utility.yul\":3578:3641   */\n    tag_226:\n        /* \"#utility.yul\":3525:3647   */\n      pop\n      jump\t// out\n        /* \"#utility.yul\":3653:3792   */\n    tag_146:\n        /* \"#utility.yul\":3699:3704   */\n      0x00\n        /* \"#utility.yul\":3737:3743   */\n      dup2\n        /* \"#utility.yul\":3724:3744   */\n      calldataload\n        /* \"#utility.yul\":3715:3744   */\n      swap1\n      pop\n        /* \"#utility.yul\":3753:3786   */\n      tag_228\n        /* \"#utility.yul\":3780:3785   */\n      dup2\n        /* \"#utility.yul\":3753:3786   */\n      tag_145\n      jump\t// in\n    tag_228:\n        /* \"#utility.yul\":3653:3792   */\n      swap3\n      swap2\n      pop\n      pop\n      jump\t// out\n        /* \"#utility.yul\":3798:4127   */\n    tag_30:\n        /* \"#utility.yul\":3857:3863   */\n      0x00\n        /* \"#utility.yul\":3906:3908   */\n      0x20\n        /* \"#utility.yul\":3894:3903   */\n      dup3\n        /* \"#utility.yul\":3885:3892   */\n      dup5\n        /* \"#utility.yul\":3881:3904   */\n      sub\n        /* \"#utility.yul\":3877:3909   */\n      slt\n        /* \"#utility.yul\":3874:3993   */\n      iszero\n      tag_230\n      jumpi\n        /* \"#utility.yul\":3912:3991   */\n      tag_231\n      tag_131\n      jump\t// in\n    tag_231:\n        /* \"#utility.yul\":3874:3993   */\n    tag_230:\n        /* \"#utility.yul\":4032:4033   */\n      0x00\n        /* \"#utility.yul\":4057:4110   */\n      tag_232\n        /* \"#utility.yul\":4102:4109   */\n      dup5\n        /* \"#utility.yul\":4093:4099   */\n      dup3\n        /* \"#utility.yul\":4082:4091   */\n      dup6\n        /* \"#utility.yul\":4078:4100   */\n      add\n        /* \"#utility.yul\":4057:4110   */\n      tag_146\n      jump\t// in\n    tag_232:\n        /* \"#utility.yul\":4047:4110   */\n      swap2\n      pop\n        /* \"#utility.yul\":4003:4120   */\n      pop\n        /* \"#utility.yul\":3798:4127   */\n      swap3\n      swap2\n      pop\n      pop\n      jump\t// out\n        /* \"#utility.yul\":4133:4250   */\n    tag_147:\n        /* \"#utility.yul\":4242:4243   */\n      0x00\n        /* \"#utility.yul\":4239:4240   */\n      dup1\n        /* \"#utility.yul\":4232:4244   */\n      revert\n        /* \"#utility.yul\":4256:4373   */\n    tag_148:\n        /* \"#utility.yul\":4365:4366   */\n      0x00\n        /* \"#utility.yul\":4362:4363   */\n      dup1\n        /* \"#utility.yul\":4355:4367   */\n      revert\n        /* \"#utility.yul\":4379:4559   */\n    tag_149:\n        /* \"#utility.yul\":4427:4504   */\n      0x4e487b7100000000000000000000000000000000000000000000000000000000\n        /* \"#utility.yul\":4424:4425   */\n      0x00\n        /* \"#utility.yul\":4417:4505   */\n      mstore\n        /* \"#utility.yul\":4524:4528   */\n      0x41\n        /* \"#utility.yul\":4521:4522   */\n      0x04\n        /* \"#utility.yul\":4514:4529   */\n      mstore\n        /* \"#utility.yul\":4548:4552   */\n      0x24\n        /* \"#utility.yul\":4545:4546   */\n      0x00\n        /* \"#utility.yul\":4538:4553   */\n      revert\n        /* \"#utility.yul\":4565:4846   */\n    tag_150:\n        /* \"#utility.yul\":4648:4675   */\n      tag_237\n        /* \"#utility.yul\":4670:4674   */\n      dup3\n        /* \"#utility.yul\":4648:4675   */\n      tag_140\n      jump\t// in\n    tag_237:\n        /* \"#utility.yul\":4640:4646   */\n      dup2\n        /* \"#utility.yul\":4636:4676   */\n      add\n        /* \"#utility.yul\":4778:4784   */\n      dup2\n        /* \"#utility.yul\":4766:4776   */\n      dup2\n        /* \"#utility.yul\":4763:4785   */\n      lt\n        /* \"#utility.yul\":4742:4760   */\n      0xffffffffffffffff\n        /* \"#utility.yul\":4730:4740   */\n      dup3\n        /* \"#utility.yul\":4727:4761   */\n      gt\n        /* \"#utility.yul\":4724:4786   */\n      or\n        /* \"#utility.yul\":4721:4809   */\n      iszero\n      tag_238\n      jumpi\n        /* \"#utility.yul\":4789:4807   */\n      tag_239\n      tag_149\n      jump\t// in\n    tag_239:\n        /* \"#utility.yul\":4721:4809   */\n    tag_238:\n        /* \"#utility.yul\":4829:4839   */\n      dup1\n        /* \"#utility.yul\":4825:4827   */\n      0x40\n        /* \"#utility.yul\":4818:4840   */\n      mstore\n        /* \"#utility.yul\":4608:4846   */\n      pop\n        /* \"#utility.yul\":4565:4846   */\n      pop\n      pop\n      jump\t// out\n        /* \"#utility.yul\":4852:4981   */\n    tag_151:\n        /* \"#utility.yul\":4886:4892   */\n      0x00\n        /* \"#utility.yul\":4913:4933   */\n      tag_241\n      tag_130\n      jump\t// in\n    tag_241:\n        /* \"#utility.yul\":4903:4933   */\n      swap1\n      pop\n        /* \"#utility.yul\":4942:4975   */\n      tag_242\n        /* \"#utility.yul\":4970:4974   */\n      dup3\n        /* \"#utility.yul\":4962:4968   */\n      dup3\n        /* \"#utility.yul\":4942:4975   */\n      tag_150\n      jump\t// in\n    tag_242:\n        /* \"#utility.yul\":4852:4981   */\n      swap2\n      swap1\n      pop\n      jump\t// out\n        /* \"#utility.yul\":4987:5295   */\n    tag_152:\n        /* \"#utility.yul\":5049:5053   */\n      0x00\n        /* \"#utility.yul\":5139:5157   */\n      0xffffffffffffffff\n        /* \"#utility.yul\":5131:5137   */\n      dup3\n        /* \"#utility.yul\":5128:5158   */\n      gt\n        /* \"#utility.yul\":5125:5181   */\n      iszero\n      tag_244\n      jumpi\n        /* \"#utility.yul\":5161:5179   */\n      tag_245\n      tag_149\n      jump\t// in\n    tag_245:\n        /* \"#utility.yul\":5125:5181   */\n    tag_244:\n        /* \"#utility.yul\":5199:5228   */\n      tag_246\n        /* \"#utility.yul\":5221:5227   */\n      dup3\n        /* \"#utility.yul\":5199:5228   */\n      tag_140\n      jump\t// in\n    tag_246:\n        /* \"#utility.yul\":5191:5228   */\n      swap1\n      pop\n        /* \"#utility.yul\":5283:5287   */\n      0x20\n        /* \"#utility.yul\":5277:5281   */\n      dup2\n        /* \"#utility.yul\":5273:5288   */\n      add\n        /* \"#utility.yul\":5265:5288   */\n      swap1\n      pop\n        /* \"#utility.yul\":4987:5295   */\n      swap2\n      swap1\n      pop\n      jump\t// out\n        /* \"#utility.yul\":5301:5447   */\n    tag_153:\n        /* \"#utility.yul\":5398:5404   */\n      dup3\n        /* \"#utility.yul\":5393:5396   */\n      dup2\n        /* \"#utility.yul\":5388:5391   */\n      dup4\n        /* \"#utility.yul\":5375:5405   */\n      calldatacopy\n        /* \"#utility.yul\":5439:5440   */\n      0x00\n        /* \"#utility.yul\":5430:5436   */\n      dup4\n        /* \"#utility.yul\":5425:5428   */\n      dup4\n        /* \"#utility.yul\":5421:5437   */\n      add\n        /* \"#utility.yul\":5414:5441   */\n      mstore\n        /* \"#utility.yul\":5301:5447   */\n      pop\n      pop\n      pop\n      jump\t// out\n        /* \"#utility.yul\":5453:5878   */\n    tag_154:\n        /* \"#utility.yul\":5531:5536   */\n      0x00\n        /* \"#utility.yul\":5556:5622   */\n      tag_249\n        /* \"#utility.yul\":5572:5621   */\n      tag_250\n        /* \"#utility.yul\":5614:5620   */\n      dup5\n        /* \"#utility.yul\":5572:5621   */\n      tag_152\n      jump\t// in\n    tag_250:\n        /* \"#utility.yul\":5556:5622   */\n      tag_151\n      jump\t// in\n    tag_249:\n        /* \"#utility.yul\":5547:5622   */\n      swap1\n      pop\n        /* \"#utility.yul\":5645:5651   */\n      dup3\n        /* \"#utility.yul\":5638:5643   */\n      dup2\n        /* \"#utility.yul\":5631:5652   */\n      mstore\n        /* \"#utility.yul\":5683:5687   */\n      0x20\n        /* \"#utility.yul\":5676:5681   */\n      dup2\n        /* \"#utility.yul\":5672:5688   */\n      add\n        /* \"#utility.yul\":5721:5724   */\n      dup5\n        /* \"#utility.yul\":5712:5718   */\n      dup5\n        /* \"#utility.yul\":5707:5710   */\n      dup5\n        /* \"#utility.yul\":5703:5719   */\n      add\n        /* \"#utility.yul\":5700:5725   */\n      gt\n        /* \"#utility.yul\":5697:5809   */\n      iszero\n      tag_251\n      jumpi\n        /* \"#utility.yul\":5728:5807   */\n      tag_252\n      tag_148\n      jump\t// in\n    tag_252:\n        /* \"#utility.yul\":5697:5809   */\n    tag_251:\n        /* \"#utility.yul\":5818:5872   */\n      tag_253\n        /* \"#utility.yul\":5865:5871   */\n      dup5\n        /* \"#utility.yul\":5860:5863   */\n      dup3\n        /* \"#utility.yul\":5855:5858   */\n      dup6\n        /* \"#utility.yul\":5818:5872   */\n      tag_153\n      jump\t// in\n    tag_253:\n        /* \"#utility.yul\":5537:5878   */\n      pop\n        /* \"#utility.yul\":5453:5878   */\n      swap4\n      swap3\n      pop\n      pop\n      pop\n      jump\t// out\n        /* \"#utility.yul\":5898:6238   */\n    tag_155:\n        /* \"#utility.yul\":5954:5959   */\n      0x00\n        /* \"#utility.yul\":6003:6006   */\n      dup3\n        /* \"#utility.yul\":5996:6000   */\n      0x1f\n        /* \"#utility.yul\":5988:5994   */\n      dup4\n        /* \"#utility.yul\":5984:6001   */\n      add\n        /* \"#utility.yul\":5980:6007   */\n      slt\n        /* \"#utility.yul\":5970:6092   */\n      tag_255\n      jumpi\n        /* \"#utility.yul\":6011:6090   */\n      tag_256\n      tag_147\n      jump\t// in\n    tag_256:\n        /* \"#utility.yul\":5970:6092   */\n    tag_255:\n        /* \"#utility.yul\":6128:6134   */\n      dup2\n        /* \"#utility.yul\":6115:6135   */\n      calldataload\n        /* \"#utility.yul\":6153:6232   */\n      tag_257\n        /* \"#utility.yul\":6228:6231   */\n      dup5\n        /* \"#utility.yul\":6220:6226   */\n      dup3\n        /* \"#utility.yul\":6213:6217   */\n      0x20\n        /* \"#utility.yul\":6205:6211   */\n      dup7\n        /* \"#utility.yul\":6201:6218   */\n      add\n        /* \"#utility.yul\":6153:6232   */\n      tag_154\n      jump\t// in\n    tag_257:\n        /* \"#utility.yul\":6144:6232   */\n      swap2\n      pop\n        /* \"#utility.yul\":5960:6238   */\n      pop\n        /* \"#utility.yul\":5898:6238   */\n      swap3\n      swap2\n      pop\n      pop\n      jump\t// out\n        /* \"#utility.yul\":6244:6898   */\n    tag_34:\n        /* \"#utility.yul\":6322:6328   */\n      0x00\n        /* \"#utility.yul\":6330:6336   */\n      dup1\n        /* \"#utility.yul\":6379:6381   */\n      0x40\n        /* \"#utility.yul\":6367:6376   */\n      dup4\n        /* \"#utility.yul\":6358:6365   */\n      dup6\n        /* \"#utility.yul\":6354:6377   */\n      sub\n        /* \"#utility.yul\":6350:6382   */\n      slt\n        /* \"#utility.yul\":6347:6466   */\n      iszero\n      tag_259\n      jumpi\n        /* \"#utility.yul\":6385:6464   */\n      tag_260\n      tag_131\n      jump\t// in\n    tag_260:\n        /* \"#utility.yul\":6347:6466   */\n    tag_259:\n        /* \"#utility.yul\":6505:6506   */\n      0x00\n        /* \"#utility.yul\":6530:6583   */\n      tag_261\n        /* \"#utility.yul\":6575:6582   */\n      dup6\n        /* \"#utility.yul\":6566:6572   */\n      dup3\n        /* \"#utility.yul\":6555:6564   */\n      dup7\n        /* \"#utility.yul\":6551:6573   */\n      add\n        /* \"#utility.yul\":6530:6583   */\n      tag_135\n      jump\t// in\n    tag_261:\n        /* \"#utility.yul\":6520:6583   */\n      swap3\n      pop\n        /* \"#utility.yul\":6476:6593   */\n      pop\n        /* \"#utility.yul\":6660:6662   */\n      0x20\n        /* \"#utility.yul\":6649:6658   */\n      dup4\n        /* \"#utility.yul\":6645:6663   */\n      add\n        /* \"#utility.yul\":6632:6664   */\n      calldataload\n        /* \"#utility.yul\":6691:6709   */\n      0xffffffffffffffff\n        /* \"#utility.yul\":6683:6689   */\n      dup2\n        /* \"#utility.yul\":6680:6710   */\n      gt\n        /* \"#utility.yul\":6677:6794   */\n      iszero\n      tag_262\n      jumpi\n        /* \"#utility.yul\":6713:6792   */\n      tag_263\n      tag_132\n      jump\t// in\n    tag_263:\n        /* \"#utility.yul\":6677:6794   */\n    tag_262:\n        /* \"#utility.yul\":6818:6881   */\n      tag_264\n        /* \"#utility.yul\":6873:6880   */\n      dup6\n        /* \"#utility.yul\":6864:6870   */\n      dup3\n        /* \"#utility.yul\":6853:6862   */\n      dup7\n        /* \"#utility.yul\":6849:6871   */\n      add\n        /* \"#utility.yul\":6818:6881   */\n      tag_155\n      jump\t// in\n    tag_264:\n        /* \"#utility.yul\":6808:6881   */\n      swap2\n      pop\n        /* \"#utility.yul\":6603:6891   */\n      pop\n        /* \"#utility.yul\":6244:6898   */\n      swap3\n      pop\n      swap3\n      swap1\n      pop\n      jump\t// out\n        /* \"#utility.yul\":6904:6990   */\n    tag_156:\n        /* \"#utility.yul\":6939:6946   */\n      0x00\n        /* \"#utility.yul\":6979:6983   */\n      0xff\n        /* \"#utility.yul\":6972:6977   */\n      dup3\n        /* \"#utility.yul\":6968:6984   */\n      and\n        /* \"#utility.yul\":6957:6984   */\n      swap1\n      pop\n        /* \"#utility.yul\":6904:6990   */\n      swap2\n      swap1\n      pop\n      jump\t// out\n        /* \"#utility.yul\":6996:7108   */\n    tag_157:\n        /* \"#utility.yul\":7079:7101   */\n      tag_267\n        /* \"#utility.yul\":7095:7100   */\n      dup2\n        /* \"#utility.yul\":7079:7101   */\n      tag_156\n      jump\t// in\n    tag_267:\n        /* \"#utility.yul\":7074:7077   */\n      dup3\n        /* \"#utility.yul\":7067:7102   */\n      mstore\n        /* \"#utility.yul\":6996:7108   */\n      pop\n      pop\n      jump\t// out\n        /* \"#utility.yul\":7114:7328   */\n    tag_39:\n        /* \"#utility.yul\":7203:7207   */\n      0x00\n        /* \"#utility.yul\":7241:7243   */\n      0x20\n        /* \"#utility.yul\":7230:7239   */\n      dup3\n        /* \"#utility.yul\":7226:7244   */\n      add\n        /* \"#utility.yul\":7218:7244   */\n      swap1\n      pop\n        /* \"#utility.yul\":7254:7321   */\n      tag_269\n        /* \"#utility.yul\":7318:7319   */\n      0x00\n        /* \"#utility.yul\":7307:7316   */\n      dup4\n        /* \"#utility.yul\":7303:7320   */\n      add\n        /* \"#utility.yul\":7294:7300   */\n      dup5\n        /* \"#utility.yul\":7254:7321   */\n      tag_157\n      jump\t// in\n    tag_269:\n        /* \"#utility.yul\":7114:7328   */\n      swap3\n      swap2\n      pop\n      pop\n      jump\t// out\n        /* \"#utility.yul\":7334:7424   */\n    tag_158:\n        /* \"#utility.yul\":7368:7375   */\n      0x00\n        /* \"#utility.yul\":7411:7416   */\n      dup2\n        /* \"#utility.yul\":7404:7417   */\n      iszero\n        /* \"#utility.yul\":7397:7418   */\n      iszero\n        /* \"#utility.yul\":7386:7418   */\n      swap1\n      pop\n        /* \"#utility.yul\":7334:7424   */\n      swap2\n      swap1\n      pop\n      jump\t// out\n        /* \"#utility.yul\":7430:7539   */\n    tag_159:\n        /* \"#utility.yul\":7511:7532   */\n      tag_272\n        /* \"#utility.yul\":7526:7531   */\n      dup2\n        /* \"#utility.yul\":7511:7532   */\n      tag_158\n      jump\t// in\n    tag_272:\n        /* \"#utility.yul\":7506:7509   */\n      dup3\n        /* \"#utility.yul\":7499:7533   */\n      mstore\n        /* \"#utility.yul\":7430:7539   */\n      pop\n      pop\n      jump\t// out\n        /* \"#utility.yul\":7545:7725   */\n    tag_68:\n        /* \"#utility.yul\":7593:7670   */\n      0x4e487b7100000000000000000000000000000000000000000000000000000000\n        /* \"#utility.yul\":7590:7591   */\n      0x00\n        /* \"#utility.yul\":7583:7671   */\n      mstore\n        /* \"#utility.yul\":7690:7694   */\n      0x21\n        /* \"#utility.yul\":7687:7688   */\n      0x04\n        /* \"#utility.yul\":7680:7695   */\n      mstore\n        /* \"#utility.yul\":7714:7718   */\n      0x24\n        /* \"#utility.yul\":7711:7712   */\n      0x00\n        /* \"#utility.yul\":7704:7719   */\n      revert\n        /* \"#utility.yul\":7731:7844   */\n    tag_160:\n        /* \"#utility.yul\":7812:7813   */\n      0x04\n        /* \"#utility.yul\":7805:7810   */\n      dup2\n        /* \"#utility.yul\":7802:7814   */\n      lt\n        /* \"#utility.yul\":7792:7838   */\n      tag_275\n      jumpi\n        /* \"#utility.yul\":7818:7836   */\n      tag_276\n      tag_68\n      jump\t// in\n    tag_276:\n        /* \"#utility.yul\":7792:7838   */\n    tag_275:\n        /* \"#utility.yul\":7731:7844   */\n      pop\n      jump\t// out\n        /* \"#utility.yul\":7850:7977   */\n    tag_161:\n        /* \"#utility.yul\":7895:7902   */\n      0x00\n        /* \"#utility.yul\":7924:7929   */\n      dup2\n        /* \"#utility.yul\":7913:7929   */\n      swap1\n      pop\n        /* \"#utility.yul\":7930:7971   */\n      tag_278\n        /* \"#utility.yul\":7965:7970   */\n      dup3\n        /* \"#utility.yul\":7930:7971   */\n      tag_160\n      jump\t// in\n    tag_278:\n        /* \"#utility.yul\":7850:7977   */\n      swap2\n      swap1\n      pop\n      jump\t// out\n        /* \"#utility.yul\":7983:8110   */\n    tag_162:\n        /* \"#utility.yul\":8039:8048   */\n      0x00\n        /* \"#utility.yul\":8072:8104   */\n      tag_280\n        /* \"#utility.yul\":8098:8103   */\n      dup3\n        /* \"#utility.yul\":8072:8104   */\n      tag_161\n      jump\t// in\n    tag_280:\n        /* \"#utility.yul\":8059:8104   */\n      swap1\n      pop\n        /* \"#utility.yul\":7983:8110   */\n      swap2\n      swap1\n      pop\n      jump\t// out\n        /* \"#utility.yul\":8116:8259   */\n    tag_163:\n        /* \"#utility.yul\":8209:8252   */\n      tag_282\n        /* \"#utility.yul\":8246:8251   */\n      dup2\n        /* \"#utility.yul\":8209:8252   */\n      tag_162\n      jump\t// in\n    tag_282:\n        /* \"#utility.yul\":8204:8207   */\n      dup3\n        /* \"#utility.yul\":8197:8253   */\n      mstore\n        /* \"#utility.yul\":8116:8259   */\n      pop\n      pop\n      jump\t// out\n        /* \"#utility.yul\":8265:8921   */\n    tag_47:\n        /* \"#utility.yul\":8466:8470   */\n      0x00\n        /* \"#utility.yul\":8504:8507   */\n      0xa0\n        /* \"#utility.yul\":8493:8502   */\n      dup3\n        /* \"#utility.yul\":8489:8508   */\n      add\n        /* \"#utility.yul\":8481:8508   */\n      swap1\n      pop\n        /* \"#utility.yul\":8518:8589   */\n      tag_284\n        /* \"#utility.yul\":8586:8587   */\n      0x00\n        /* \"#utility.yul\":8575:8584   */\n      dup4\n        /* \"#utility.yul\":8571:8588   */\n      add\n        /* \"#utility.yul\":8562:8568   */\n      dup9\n        /* \"#utility.yul\":8518:8589   */\n      tag_136\n      jump\t// in\n    tag_284:\n        /* \"#utility.yul\":8599:8665   */\n      tag_285\n        /* \"#utility.yul\":8661:8663   */\n      0x20\n        /* \"#utility.yul\":8650:8659   */\n      dup4\n        /* \"#utility.yul\":8646:8664   */\n      add\n        /* \"#utility.yul\":8637:8643   */\n      dup8\n        /* \"#utility.yul\":8599:8665   */\n      tag_159\n      jump\t// in\n    tag_285:\n        /* \"#utility.yul\":8675:8743   */\n      tag_286\n        /* \"#utility.yul\":8739:8741   */\n      0x40\n        /* \"#utility.yul\":8728:8737   */\n      dup4\n        /* \"#utility.yul\":8724:8742   */\n      add\n        /* \"#utility.yul\":8715:8721   */\n      dup7\n        /* \"#utility.yul\":8675:8743   */\n      tag_157\n      jump\t// in\n    tag_286:\n        /* \"#utility.yul\":8753:8825   */\n      tag_287\n        /* \"#utility.yul\":8821:8823   */\n      0x60\n        /* \"#utility.yul\":8810:8819   */\n      dup4\n        /* \"#utility.yul\":8806:8824   */\n      add\n        /* \"#utility.yul\":8797:8803   */\n      dup6\n        /* \"#utility.yul\":8753:8825   */\n      tag_136\n      jump\t// in\n    tag_287:\n        /* \"#utility.yul\":8835:8914   */\n      tag_288\n        /* \"#utility.yul\":8909:8912   */\n      0x80\n        /* \"#utility.yul\":8898:8907   */\n      dup4\n        /* \"#utility.yul\":8894:8913   */\n      add\n        /* \"#utility.yul\":8885:8891   */\n      dup5\n        /* \"#utility.yul\":8835:8914   */\n      tag_163\n      jump\t// in\n    tag_288:\n        /* \"#utility.yul\":8265:8921   */\n      swap7\n      swap6\n      pop\n      pop\n      pop\n      pop\n      pop\n      pop\n      jump\t// out\n        /* \"#utility.yul\":8927:9045   */\n    tag_164:\n        /* \"#utility.yul\":8998:9020   */\n      tag_290\n        /* \"#utility.yul\":9014:9019   */\n      dup2\n        /* \"#utility.yul\":8998:9020   */\n      tag_156\n      jump\t// in\n    tag_290:\n        /* \"#utility.yul\":8991:8996   */\n      dup2\n        /* \"#utility.yul\":8988:9021   */\n      eq\n        /* \"#utility.yul\":8978:9039   */\n      tag_291\n      jumpi\n        /* \"#utility.yul\":9035:9036   */\n      0x00\n        /* \"#utility.yul\":9032:9033   */\n      dup1\n        /* \"#utility.yul\":9025:9037   */\n      revert\n        /* \"#utility.yul\":8978:9039   */\n    tag_291:\n        /* \"#utility.yul\":8927:9045   */\n      pop\n      jump\t// out\n        /* \"#utility.yul\":9051:9186   */\n    tag_165:\n        /* \"#utility.yul\":9095:9100   */\n      0x00\n        /* \"#utility.yul\":9133:9139   */\n      dup2\n        /* \"#utility.yul\":9120:9140   */\n      calldataload\n        /* \"#utility.yul\":9111:9140   */\n      swap1\n      pop\n        /* \"#utility.yul\":9149:9180   */\n      tag_293\n        /* \"#utility.yul\":9174:9179   */\n      dup2\n        /* \"#utility.yul\":9149:9180   */\n      tag_164\n      jump\t// in\n    tag_293:\n        /* \"#utility.yul\":9051:9186   */\n      swap3\n      swap2\n      pop\n      pop\n      jump\t// out\n        /* \"#utility.yul\":9192:9517   */\n    tag_50:\n        /* \"#utility.yul\":9249:9255   */\n      0x00\n        /* \"#utility.yul\":9298:9300   */\n      0x20\n        /* \"#utility.yul\":9286:9295   */\n      dup3\n        /* \"#utility.yul\":9277:9284   */\n      dup5\n        /* \"#utility.yul\":9273:9296   */\n      sub\n        /* \"#utility.yul\":9269:9301   */\n      slt\n        /* \"#utility.yul\":9266:9385   */\n      iszero\n      tag_295\n      jumpi\n        /* \"#utility.yul\":9304:9383   */\n      tag_296\n      tag_131\n      jump\t// in\n    tag_296:\n        /* \"#utility.yul\":9266:9385   */\n    tag_295:\n        /* \"#utility.yul\":9424:9425   */\n      0x00\n        /* \"#utility.yul\":9449:9500   */\n      tag_297\n        /* \"#utility.yul\":9492:9499   */\n      dup5\n        /* \"#utility.yul\":9483:9489   */\n      dup3\n        /* \"#utility.yul\":9472:9481   */\n      dup6\n        /* \"#utility.yul\":9468:9490   */\n      add\n        /* \"#utility.yul\":9449:9500   */\n      tag_165\n      jump\t// in\n    tag_297:\n        /* \"#utility.yul\":9439:9500   */\n      swap2\n      pop\n        /* \"#utility.yul\":9395:9510   */\n      pop\n        /* \"#utility.yul\":9192:9517   */\n      swap3\n      swap2\n      pop\n      pop\n      jump\t// out\n        /* \"#utility.yul\":9523:9703   */\n    tag_166:\n        /* \"#utility.yul\":9571:9648   */\n      0x4e487b7100000000000000000000000000000000000000000000000000000000\n        /* \"#utility.yul\":9568:9569   */\n      0x00\n        /* \"#utility.yul\":9561:9649   */\n      mstore\n        /* \"#utility.yul\":9668:9672   */\n      0x22\n        /* \"#utility.yul\":9665:9666   */\n      0x04\n        /* \"#utility.yul\":9658:9673   */\n      mstore\n        /* \"#utility.yul\":9692:9696   */\n      0x24\n        /* \"#utility.yul\":9689:9690   */\n      0x00\n        /* \"#utility.yul\":9682:9697   */\n      revert\n        /* \"#utility.yul\":9709:10029   */\n    tag_58:\n        /* \"#utility.yul\":9753:9759   */\n      0x00\n        /* \"#utility.yul\":9790:9791   */\n      0x02\n        /* \"#utility.yul\":9784:9788   */\n      dup3\n        /* \"#utility.yul\":9780:9792   */\n      div\n        /* \"#utility.yul\":9770:9792   */\n      swap1\n      pop\n        /* \"#utility.yul\":9837:9838   */\n      0x01\n        /* \"#utility.yul\":9831:9835   */\n      dup3\n        /* \"#utility.yul\":9827:9839   */\n      and\n        /* \"#utility.yul\":9858:9876   */\n      dup1\n        /* \"#utility.yul\":9848:9929   */\n      tag_300\n      jumpi\n        /* \"#utility.yul\":9914:9918   */\n      0x7f\n        /* \"#utility.yul\":9906:9912   */\n      dup3\n        /* \"#utility.yul\":9902:9919   */\n      and\n        /* \"#utility.yul\":9892:9919   */\n      swap2\n      pop\n        /* \"#utility.yul\":9848:9929   */\n    tag_300:\n        /* \"#utility.yul\":9976:9978   */\n      0x20\n        /* \"#utility.yul\":9968:9974   */\n      dup3\n        /* \"#utility.yul\":9965:9979   */\n      lt\n        /* \"#utility.yul\":9945:9963   */\n      dup2\n        /* \"#utility.yul\":9942:9980   */\n      sub\n        /* \"#utility.yul\":9939:10023   */\n      tag_301\n      jumpi\n        /* \"#utility.yul\":9995:10013   */\n      tag_302\n      tag_166\n      jump\t// in\n    tag_302:\n        /* \"#utility.yul\":9939:10023   */\n    tag_301:\n        /* \"#utility.yul\":9760:10029   */\n      pop\n        /* \"#utility.yul\":9709:10029   */\n      swap2\n      swap1\n      pop\n      jump\t// out\n        /* \"#utility.yul\":10035:10215   */\n    tag_167:\n        /* \"#utility.yul\":10083:10160   */\n      0x4e487b7100000000000000000000000000000000000000000000000000000000\n        /* \"#utility.yul\":10080:10081   */\n      0x00\n        /* \"#utility.yul\":10073:10161   */\n      mstore\n        /* \"#utility.yul\":10180:10184   */\n      0x11\n        /* \"#utility.yul\":10177:10178   */\n      0x04\n        /* \"#utility.yul\":10170:10185   */\n      mstore\n        /* \"#utility.yul\":10204:10208   */\n      0x24\n        /* \"#utility.yul\":10201:10202   */\n      0x00\n        /* \"#utility.yul\":10194:10209   */\n      revert\n        /* \"#utility.yul\":10221:10454   */\n    tag_73:\n        /* \"#utility.yul\":10260:10263   */\n      0x00\n        /* \"#utility.yul\":10283:10307   */\n      tag_305\n        /* \"#utility.yul\":10301:10306   */\n      dup3\n        /* \"#utility.yul\":10283:10307   */\n      tag_133\n      jump\t// in\n    tag_305:\n        /* \"#utility.yul\":10274:10307   */\n      swap2\n      pop\n        /* \"#utility.yul\":10329:10395   */\n      0xffffffffffffffffffffffffffffffffffffffffffffffffffffffffffffffff\n        /* \"#utility.yul\":10322:10327   */\n      dup3\n        /* \"#utility.yul\":10319:10396   */\n      sub\n        /* \"#utility.yul\":10316:10419   */\n      tag_306\n      jumpi\n        /* \"#utility.yul\":10399:10417   */\n      tag_307\n      tag_167\n      jump\t// in\n    tag_307:\n        /* \"#utility.yul\":10316:10419   */\n    tag_306:\n        /* \"#utility.yul\":10446:10447   */\n      0x01\n        /* \"#utility.yul\":10439:10444   */\n      dup3\n        /* \"#utility.yul\":10435:10448   */\n      add\n        /* \"#utility.yul\":10428:10448   */\n      swap1\n      pop\n        /* \"#utility.yul\":10221:10454   */\n      swap2\n      swap1\n      pop\n      jump\t// out\n        /* \"#utility.yul\":10460:10601   */\n    tag_168:\n        /* \"#utility.yul\":10509:10513   */\n      0x00\n        /* \"#utility.yul\":10532:10535   */\n      dup2\n        /* \"#utility.yul\":10524:10535   */\n      swap1\n      pop\n        /* \"#utility.yul\":10555:10558   */\n      dup2\n        /* \"#utility.yul\":10552:10553   */\n      0x00\n        /* \"#utility.yul\":10545:10559   */\n      mstore\n        /* \"#utility.yul\":10589:10593   */\n      0x20\n        /* \"#utility.yul\":10586:10587   */\n      0x00\n        /* \"#utility.yul\":10576:10594   */\n      keccak256\n        /* \"#utility.yul\":10568:10594   */\n      swap1\n      pop\n        /* \"#utility.yul\":10460:10601   */\n      swap2\n      swap1\n      pop\n      jump\t// out\n        /* \"#utility.yul\":10607:10700   */\n    tag_169:\n        /* \"#utility.yul\":10644:10650   */\n      0x00\n        /* \"#utility.yul\":10691:10693   */\n      0x20\n        /* \"#utility.yul\":10686:10688   */\n      0x1f\n        /* \"#utility.yul\":10679:10684   */\n      dup4\n        /* \"#utility.yul\":10675:10689   */\n      add\n        /* \"#utility.yul\":10671:10694   */\n      div\n        /* \"#utility.yul\":10661:10694   */\n      swap1\n      pop\n        /* \"#utility.yul\":10607:10700   */\n      swap2\n      swap1\n      pop\n      jump\t// out\n        /* \"#utility.yul\":10706:10813   */\n    tag_170:\n        /* \"#utility.yul\":10750:10758   */\n      0x00\n        /* \"#utility.yul\":10800:10805   */\n      dup3\n        /* \"#utility.yul\":10794:10798   */\n      dup3\n        /* \"#utility.yul\":10790:10806   */\n      shl\n        /* \"#utility.yul\":10769:10806   */\n      swap1\n      pop\n        /* \"#utility.yul\":10706:10813   */\n      swap3\n      swap2\n      pop\n      pop\n      jump\t// out\n        /* \"#utility.yul\":10819:11212   */\n    tag_171:\n        /* \"#utility.yul\":10888:10894   */\n      0x00\n        /* \"#utility.yul\":10938:10939   */\n      0x08\n        /* \"#utility.yul\":10926:10936   */\n      dup4\n        /* \"#utility.yul\":10922:10940   */\n      mul\n        /* \"#utility.yul\":10961:11058   */\n      tag_312\n        /* \"#utility.yul\":10991:11057   */\n      0xffffffffffffffffffffffffffffffffffffffffffffffffffffffffffffffff\n        /* \"#utility.yul\":10980:10989   */\n      dup3\n        /* \"#utility.yul\":10961:11058   */\n      tag_170\n      jump\t// in\n    tag_312:\n        /* \"#utility.yul\":11079:11118   */\n      tag_313\n        /* \"#utility.yul\":11109:11117   */\n      dup7\n        /* \"#utility.yul\":11098:11107   */\n      dup4\n        /* \"#utility.yul\":11079:11118   */\n      tag_170\n      jump\t// in\n    tag_313:\n        /* \"#utility.yul\":11067:11118   */\n      swap6\n      pop\n        /* \"#utility.yul\":11151:11155   */\n      dup1\n        /* \"#utility.yul\":11147:11156   */\n      not\n        /* \"#utility.yul\":11140:11145   */\n      dup5\n        /* \"#utility.yul\":11136:11157   */\n      and\n        /* \"#utility.yul\":11127:11157   */\n      swap4\n      pop\n        /* \"#utility.yul\":11200:11204   */\n      dup1\n        /* \"#utility.yul\":11190:11198   */\n      dup7\n        /* \"#utility.yul\":11186:11205   */\n      and\n        /* \"#utility.yul\":11179:11184   */\n      dup5\n        /* \"#utility.yul\":11176:11206   */\n      or\n        /* \"#utility.yul\":11166:11206   */\n      swap3\n      pop\n        /* \"#utility.yul\":10895:11212   */\n      pop\n      pop\n        /* \"#utility.yul\":10819:11212   */\n      swap4\n      swap3\n      pop\n      pop\n      pop\n      jump\t// out\n        /* \"#utility.yul\":11218:11278   */\n    tag_172:\n        /* \"#utility.yul\":11246:11249   */\n      0x00\n        /* \"#utility.yul\":11267:11272   */\n      dup2\n        /* \"#utility.yul\":11260:11272   */\n      swap1\n      pop\n        /* \"#utility.yul\":11218:11278   */\n      swap2\n      swap1\n      pop\n      jump\t// out\n        /* \"#utility.yul\":11284:11426   */\n    tag_173:\n        /* \"#utility.yul\":11334:11343   */\n      0x00\n        /* \"#utility.yul\":11367:11420   */\n      tag_316\n        /* \"#utility.yul\":11385:11419   */\n      tag_317\n        /* \"#utility.yul\":11394:11418   */\n      tag_318\n        /* \"#utility.yul\":11412:11417   */\n      dup5\n        /* \"#utility.yul\":11394:11418   */\n      tag_133\n      jump\t// in\n    tag_318:\n        /* \"#utility.yul\":11385:11419   */\n      tag_172\n      jump\t// in\n    tag_317:\n        /* \"#utility.yul\":11367:11420   */\n      tag_133\n      jump\t// in\n    tag_316:\n        /* \"#utility.yul\":11354:11420   */\n      swap1\n      pop\n        /* \"#utility.yul\":11284:11426   */\n      swap2\n      swap1\n      pop\n      jump\t// out\n        /* \"#utility.yul\":11432:11507   */\n    tag_174:\n        /* \"#utility.yul\":11475:11478   */\n      0x00\n        /* \"#utility.yul\":11496:11501   */\n      dup2\n        /* \"#utility.yul\":11489:11501   */\n      swap1\n      pop\n        /* \"#utility.yul\":11432:11507   */\n      swap2\n      swap1\n      pop\n      jump\t// out\n        /* \"#utility.yul\":11513:11782   */\n    tag_175:\n        /* \"#utility.yul\":11623:11662   */\n      tag_321\n        /* \"#utility.yul\":11654:11661   */\n      dup4\n        /* \"#utility.yul\":11623:11662   */\n      tag_173\n      jump\t// in\n    tag_321:\n        /* \"#utility.yul\":11684:11775   */\n      tag_322\n        /* \"#utility.yul\":11733:11774   */\n      tag_323\n        /* \"#utility.yul\":11757:11773   */\n      dup3\n        /* \"#utility.yul\":11733:11774   */\n      tag_174\n      jump\t// in\n    tag_323:\n        /* \"#utility.yul\":11725:11731   */\n      dup5\n        /* \"#utility.yul\":11718:11722   */\n      dup5\n        /* \"#utility.yul\":11712:11723   */\n      sload\n        /* \"#utility.yul\":11684:11775   */\n      tag_171\n      jump\t// in\n    tag_322:\n        /* \"#utility.yul\":11678:11682   */\n      dup3\n        /* \"#utility.yul\":11671:11776   */\n      sstore\n        /* \"#utility.yul\":11589:11782   */\n      pop\n        /* \"#utility.yul\":11513:11782   */\n      pop\n      pop\n      pop\n      jump\t// out\n        /* \"#utility.yul\":11788:11861   */\n    tag_176:\n        /* \"#utility.yul\":11833:11836   */\n      0x00\n        /* \"#utility.yul\":11788:11861   */\n      swap1\n      jump\t// out\n        /* \"#utility.yul\":11867:12056   */\n    tag_177:\n        /* \"#utility.yul\":11944:11976   */\n      tag_326\n      tag_176\n      jump\t// in\n    tag_326:\n        /* \"#utility.yul\":11985:12050   */\n      tag_327\n        /* \"#utility.yul\":12043:12049   */\n      dup2\n        /* \"#utility.yul\":12035:12041   */\n      dup5\n        /* \"#utility.yul\":12029:12033   */\n      dup5\n        /* \"#utility.yul\":11985:12050   */\n      tag_175\n      jump\t// in\n    tag_327:\n        /* \"#utility.yul\":11920:12056   */\n      pop\n        /* \"#utility.yul\":11867:12056   */\n      pop\n      pop\n      jump\t// out\n        /* \"#utility.yul\":12062:12248   */\n    tag_178:\n        /* \"#utility.yul\":12122:12242   */\n    tag_329:\n        /* \"#utility.yul\":12139:12142   */\n      dup2\n        /* \"#utility.yul\":12132:12137   */\n      dup2\n        /* \"#utility.yul\":12129:12143   */\n      lt\n        /* \"#utility.yul\":12122:12242   */\n      iszero\n      tag_331\n      jumpi\n        /* \"#utility.yul\":12193:12232   */\n      tag_332\n        /* \"#utility.yul\":12230:12231   */\n      0x00\n        /* \"#utility.yul\":12223:12228   */\n      dup3\n        /* \"#utility.yul\":12193:12232   */\n      tag_177\n      jump\t// in\n    tag_332:\n        /* \"#utility.yul\":12166:12167   */\n      0x01\n        /* \"#utility.yul\":12159:12164   */\n      dup2\n        /* \"#utility.yul\":12155:12168   */\n      add\n        /* \"#utility.yul\":12146:12168   */\n      swap1\n      pop\n        /* \"#utility.yul\":12122:12242   */\n      jump(tag_329)\n    tag_331:\n        /* \"#utility.yul\":12062:12248   */\n      pop\n      pop\n      jump\t// out\n        /* \"#utility.yul\":12254:12797   */\n    tag_179:\n        /* \"#utility.yul\":12355:12357   */\n      0x1f\n        /* \"#utility.yul\":12350:12353   */\n      dup3\n        /* \"#utility.yul\":12347:12358   */\n      gt\n        /* \"#utility.yul\":12344:12790   */\n      iszero\n      tag_334\n      jumpi\n        /* \"#utility.yul\":12389:12427   */\n      tag_335\n        /* \"#utility.yul\":12421:12426   */\n      dup2\n        /* \"#utility.yul\":12389:12427   */\n      tag_168\n      jump\t// in\n    tag_335:\n        /* \"#utility.yul\":12473:12502   */\n      tag_336\n        /* \"#utility.yul\":12491:12501   */\n      dup5\n        /* \"#utility.yul\":12473:12502   */\n      tag_169\n      jump\t// in\n    tag_336:\n        /* \"#utility.yul\":12463:12471   */\n      dup2\n        /* \"#utility.yul\":12459:12503   */\n      add\n        /* \"#utility.yul\":12656:12658   */\n      0x20\n        /* \"#utility.yul\":12644:12654   */\n      dup6\n        /* \"#utility.yul\":12641:12659   */\n      lt\n        /* \"#utility.yul\":12638:12687   */\n      iszero\n      tag_337\n      jumpi\n        /* \"#utility.yul\":12677:12685   */\n      dup2\n        /* \"#utility.yul\":12662:12685   */\n      swap1\n      pop\n        /* \"#utility.yul\":12638:12687   */\n    tag_337:\n        /* \"#utility.yul\":12700:12780   */\n      tag_338\n        /* \"#utility.yul\":12756:12778   */\n      tag_339\n        /* \"#utility.yul\":12774:12777   */\n      dup6\n        /* \"#utility.yul\":12756:12778   */\n      tag_169\n      jump\t// in\n    tag_339:\n        /* \"#utility.yul\":12746:12754   */\n      dup4\n        /* \"#utility.yul\":12742:12779   */\n      add\n        /* \"#utility.yul\":12729:12740   */\n      dup3\n        /* \"#utility.yul\":12700:12780   */\n      tag_178\n      jump\t// in\n    tag_338:\n        /* \"#utility.yul\":12359:12790   */\n      pop\n      pop\n        /* \"#utility.yul\":12344:12790   */\n    tag_334:\n        /* \"#utility.yul\":12254:12797   */\n      pop\n      pop\n      pop\n      jump\t// out\n        /* \"#utility.yul\":12803:12920   */\n    tag_180:\n        /* \"#utility.yul\":12857:12865   */\n      0x00\n        /* \"#utility.yul\":12907:12912   */\n      dup3\n        /* \"#utility.yul\":12901:12905   */\n      dup3\n        /* \"#utility.yul\":12897:12913   */\n      shr\n        /* \"#utility.yul\":12876:12913   */\n      swap1\n      pop\n        /* \"#utility.yul\":12803:12920   */\n      swap3\n      swap2\n      pop\n      pop\n      jump\t// out\n        /* \"#utility.yul\":12926:13095   */\n    tag_181:\n        /* \"#utility.yul\":12970:12976   */\n      0x00\n        /* \"#utility.yul\":13003:13054   */\n      tag_342\n        /* \"#utility.yul\":13051:13052   */\n      0x00\n        /* \"#utility.yul\":13047:13053   */\n      not\n        /* \"#utility.yul\":13039:13044   */\n      dup5\n        /* \"#utility.yul\":13036:13037   */\n      0x08\n        /* \"#utility.yul\":13032:13045   */\n      mul\n        /* \"#utility.yul\":13003:13054   */\n      tag_180\n      jump\t// in\n    tag_342:\n        /* \"#utility.yul\":12999:13055   */\n      not\n        /* \"#utility.yul\":13084:13088   */\n      dup1\n        /* \"#utility.yul\":13078:13082   */\n      dup4\n        /* \"#utility.yul\":13074:13089   */\n      and\n        /* \"#utility.yul\":13064:13089   */\n      swap2\n      pop\n        /* \"#utility.yul\":12977:13095   */\n      pop\n        /* \"#utility.yul\":12926:13095   */\n      swap3\n      swap2\n      pop\n      pop\n      jump\t// out\n        /* \"#utility.yul\":13100:13395   */\n    tag_182:\n        /* \"#utility.yul\":13176:13180   */\n      0x00\n        /* \"#utility.yul\":13322:13351   */\n      tag_344\n        /* \"#utility.yul\":13347:13350   */\n      dup4\n        /* \"#utility.yul\":13341:13345   */\n      dup4\n        /* \"#utility.yul\":13322:13351   */\n      tag_181\n      jump\t// in\n    tag_344:\n        /* \"#utility.yul\":13314:13351   */\n      swap2\n      pop\n        /* \"#utility.yul\":13384:13387   */\n      dup3\n        /* \"#utility.yul\":13381:13382   */\n      0x02\n        /* \"#utility.yul\":13377:13388   */\n      mul\n        /* \"#utility.yul\":13371:13375   */\n      dup3\n        /* \"#utility.yul\":13368:13389   */\n      or\n        /* \"#utility.yul\":13360:13389   */\n      swap1\n      pop\n        /* \"#utility.yul\":13100:13395   */\n      swap3\n      swap2\n      pop\n      pop\n      jump\t// out\n        /* \"#utility.yul\":13400:14795   */\n    tag_77:\n        /* \"#utility.yul\":13517:13554   */\n      tag_346\n        /* \"#utility.yul\":13550:13553   */\n      dup3\n        /* \"#utility.yul\":13517:13554   */\n      tag_137\n      jump\t// in\n    tag_346:\n        /* \"#utility.yul\":13619:13637   */\n      0xffffffffffffffff\n        /* \"#utility.yul\":13611:13617   */\n      dup2\n        /* \"#utility.yul\":13608:13638   */\n      gt\n        /* \"#utility.yul\":13605:13661   */\n      iszero\n      tag_347\n      jumpi\n        /* \"#utility.yul\":13641:13659   */\n      tag_348\n      tag_149\n      jump\t// in\n    tag_348:\n        /* \"#utility.yul\":13605:13661   */\n    tag_347:\n        /* \"#utility.yul\":13685:13723   */\n      tag_349\n        /* \"#utility.yul\":13717:13721   */\n      dup3\n        /* \"#utility.yul\":13711:13722   */\n      sload\n        /* \"#utility.yul\":13685:13723   */\n      tag_58\n      jump\t// in\n    tag_349:\n        /* \"#utility.yul\":13770:13837   */\n      tag_350\n        /* \"#utility.yul\":13830:13836   */\n      dup3\n        /* \"#utility.yul\":13822:13828   */\n      dup3\n        /* \"#utility.yul\":13816:13820   */\n      dup6\n        /* \"#utility.yul\":13770:13837   */\n      tag_179\n      jump\t// in\n    tag_350:\n        /* \"#utility.yul\":13864:13865   */\n      0x00\n        /* \"#utility.yul\":13888:13892   */\n      0x20\n        /* \"#utility.yul\":13875:13892   */\n      swap1\n      pop\n        /* \"#utility.yul\":13920:13922   */\n      0x1f\n        /* \"#utility.yul\":13912:13918   */\n      dup4\n        /* \"#utility.yul\":13909:13923   */\n      gt\n        /* \"#utility.yul\":13937:13938   */\n      0x01\n        /* \"#utility.yul\":13932:14550   */\n      dup2\n      eq\n      tag_352\n      jumpi\n        /* \"#utility.yul\":14594:14595   */\n      0x00\n        /* \"#utility.yul\":14611:14617   */\n      dup5\n        /* \"#utility.yul\":14608:14685   */\n      iszero\n      tag_353\n      jumpi\n        /* \"#utility.yul\":14660:14669   */\n      dup3\n        /* \"#utility.yul\":14655:14658   */\n      dup8\n        /* \"#utility.yul\":14651:14670   */\n      add\n        /* \"#utility.yul\":14645:14671   */\n      mload\n        /* \"#utility.yul\":14636:14671   */\n      swap1\n      pop\n        /* \"#utility.yul\":14608:14685   */\n    tag_353:\n        /* \"#utility.yul\":14711:14778   */\n      tag_354\n        /* \"#utility.yul\":14771:14777   */\n      dup6\n        /* \"#utility.yul\":14764:14769   */\n      dup3\n        /* \"#utility.yul\":14711:14778   */\n      tag_182\n      jump\t// in\n    tag_354:\n        /* \"#utility.yul\":14705:14709   */\n      dup7\n        /* \"#utility.yul\":14698:14779   */\n      sstore\n        /* \"#utility.yul\":14567:14789   */\n      pop\n        /* \"#utility.yul\":13902:14789   */\n      jump(tag_351)\n        /* \"#utility.yul\":13932:14550   */\n    tag_352:\n        /* \"#utility.yul\":13984:13988   */\n      0x1f\n        /* \"#utility.yul\":13980:13989   */\n      not\n        /* \"#utility.yul\":13972:13978   */\n      dup5\n        /* \"#utility.yul\":13968:13990   */\n      and\n        /* \"#utility.yul\":14018:14055   */\n      tag_355\n        /* \"#utility.yul\":14050:14054   */\n      dup7\n        /* \"#utility.yul\":14018:14055   */\n      tag_168\n      jump\t// in\n    tag_355:\n        /* \"#utility.yul\":14077:14078   */\n      0x00\n        /* \"#utility.yul\":14091:14299   */\n    tag_356:\n        /* \"#utility.yul\":14105:14112   */\n      dup3\n        /* \"#utility.yul\":14102:14103   */\n      dup2\n        /* \"#utility.yul\":14099:14113   */\n      lt\n        /* \"#utility.yul\":14091:14299   */\n      iszero\n      tag_358\n      jumpi\n        /* \"#utility.yul\":14184:14193   */\n      dup5\n        /* \"#utility.yul\":14179:14182   */\n      dup10\n        /* \"#utility.yul\":14175:14194   */\n      add\n        /* \"#utility.yul\":14169:14195   */\n      mload\n        /* \"#utility.yul\":14161:14167   */\n      dup3\n        /* \"#utility.yul\":14154:14196   */\n      sstore\n        /* \"#utility.yul\":14235:14236   */\n      0x01\n        /* \"#utility.yul\":14227:14233   */\n      dup3\n        /* \"#utility.yul\":14223:14237   */\n      add\n        /* \"#utility.yul\":14213:14237   */\n      swap2\n      pop\n        /* \"#utility.yul\":14282:14284   */\n      0x20\n        /* \"#utility.yul\":14271:14280   */\n      dup6\n        /* \"#utility.yul\":14267:14285   */\n      add\n        /* \"#utility.yul\":14254:14285   */\n      swap5\n      pop\n        /* \"#utility.yul\":14128:14132   */\n      0x20\n        /* \"#utility.yul\":14125:14126   */\n      dup2\n        /* \"#utility.yul\":14121:14133   */\n      add\n        /* \"#utility.yul\":14116:14133   */\n      swap1\n      pop\n        /* \"#utility.yul\":14091:14299   */\n      jump(tag_356)\n    tag_358:\n        /* \"#utility.yul\":14327:14333   */\n      dup7\n        /* \"#utility.yul\":14318:14325   */\n      dup4\n        /* \"#utility.yul\":14315:14334   */\n      lt\n        /* \"#utility.yul\":14312:14491   */\n      iszero\n      tag_359\n      jumpi\n        /* \"#utility.yul\":14385:14394   */\n      dup5\n        /* \"#utility.yul\":14380:14383   */\n      dup10\n        /* \"#utility.yul\":14376:14395   */\n      add\n        /* \"#utility.yul\":14370:14396   */\n      mload\n        /* \"#utility.yul\":14428:14476   */\n      tag_360\n        /* \"#utility.yul\":14470:14474   */\n      0x1f\n        /* \"#utility.yul\":14462:14468   */\n      dup10\n        /* \"#utility.yul\":14458:14475   */\n      and\n        /* \"#utility.yul\":14447:14456   */\n      dup3\n        /* \"#utility.yul\":14428:14476   */\n      tag_181\n      jump\t// in\n    tag_360:\n        /* \"#utility.yul\":14420:14426   */\n      dup4\n        /* \"#utility.yul\":14413:14477   */\n      sstore\n        /* \"#utility.yul\":14335:14491   */\n      pop\n        /* \"#utility.yul\":14312:14491   */\n    tag_359:\n        /* \"#utility.yul\":14537:14538   */\n      0x01\n        /* \"#utility.yul\":14533:14534   */\n      0x02\n        /* \"#utility.yul\":14525:14531   */\n      dup9\n        /* \"#utility.yul\":14521:14535   */\n      mul\n        /* \"#utility.yul\":14517:14539   */\n      add\n        /* \"#utility.yul\":14511:14515   */\n      dup9\n        /* \"#utility.yul\":14504:14540   */\n      sstore\n        /* \"#utility.yul\":13939:14550   */\n      pop\n      pop\n      pop\n        /* \"#utility.yul\":13902:14789   */\n    tag_351:\n      pop\n        /* \"#utility.yul\":13492:14795   */\n      pop\n      pop\n      pop\n        /* \"#utility.yul\":13400:14795   */\n      pop\n      pop\n      jump\t// out\n        /* \"#utility.yul\":14801:14981   */\n    tag_85:\n        /* \"#utility.yul\":14849:14926   */\n      0x4e487b7100000000000000000000000000000000000000000000000000000000\n        /* \"#utility.yul\":14846:14847   */\n      0x00\n        /* \"#utility.yul\":14839:14927   */\n      mstore\n        /* \"#utility.yul\":14946:14950   */\n      0x32\n        /* \"#utility.yul\":14943:14944   */\n      0x04\n        /* \"#utility.yul\":14936:14951   */\n      mstore\n        /* \"#utility.yul\":14970:14974   */\n      0x24\n        /* \"#utility.yul\":14967:14968   */\n      0x00\n        /* \"#utility.yul\":14960:14975   */\n      revert\n        /* \"#utility.yul\":14987:15154   */\n    tag_92:\n        /* \"#utility.yul\":15024:15027   */\n      0x00\n        /* \"#utility.yul\":15047:15069   */\n      tag_363\n        /* \"#utility.yul\":15063:15068   */\n      dup3\n        /* \"#utility.yul\":15047:15069   */\n      tag_156\n      jump\t// in\n    tag_363:\n        /* \"#utility.yul\":15038:15069   */\n      swap2\n      pop\n        /* \"#utility.yul\":15091:15095   */\n      0xff\n        /* \"#utility.yul\":15084:15089   */\n      dup3\n        /* \"#utility.yul\":15081:15096   */\n      sub\n        /* \"#utility.yul\":15078:15119   */\n      tag_364\n      jumpi\n        /* \"#utility.yul\":15099:15117   */\n      tag_365\n      tag_167\n      jump\t// in\n    tag_365:\n        /* \"#utility.yul\":15078:15119   */\n    tag_364:\n        /* \"#utility.yul\":15146:15147   */\n      0x01\n        /* \"#utility.yul\":15139:15144   */\n      dup3\n        /* \"#utility.yul\":15135:15148   */\n      add\n        /* \"#utility.yul\":15128:15148   */\n      swap1\n      pop\n        /* \"#utility.yul\":14987:15154   */\n      swap2\n      swap1\n      pop\n      jump\t// out\n        /* \"#utility.yul\":15160:15351   */\n    tag_95:\n        /* \"#utility.yul\":15200:15203   */\n      0x00\n        /* \"#utility.yul\":15219:15239   */\n      tag_367\n        /* \"#utility.yul\":15237:15238   */\n      dup3\n        /* \"#utility.yul\":15219:15239   */\n      tag_133\n      jump\t// in\n    tag_367:\n        /* \"#utility.yul\":15214:15239   */\n      swap2\n      pop\n        /* \"#utility.yul\":15253:15273   */\n      tag_368\n        /* \"#utility.yul\":15271:15272   */\n      dup4\n        /* \"#utility.yul\":15253:15273   */\n      tag_133\n      jump\t// in\n    tag_368:\n        /* \"#utility.yul\":15248:15273   */\n      swap3\n      pop\n        /* \"#utility.yul\":15296:15297   */\n      dup3\n        /* \"#utility.yul\":15293:15294   */\n      dup3\n        /* \"#utility.yul\":15289:15298   */\n      add\n        /* \"#utility.yul\":15282:15298   */\n      swap1\n      pop\n        /* \"#utility.yul\":15317:15320   */\n      dup1\n        /* \"#utility.yul\":15314:15315   */\n      dup3\n        /* \"#utility.yul\":15311:15321   */\n      gt\n        /* \"#utility.yul\":15308:15344   */\n      iszero\n      tag_369\n      jumpi\n        /* \"#utility.yul\":15324:15342   */\n      tag_370\n      tag_167\n      jump\t// in\n    tag_370:\n        /* \"#utility.yul\":15308:15344   */\n    tag_369:\n        /* \"#utility.yul\":15160:15351   */\n      swap3\n      swap2\n      pop\n      pop\n      jump\t// out\n\n    auxdata: 0xa264697066735822122035886120b9f157a966267e3715b9268606d4fa160343cf6388fb7fce3e5627e864736f6c63430008130033\n}\n",
				"bytecode": {
					"linkReferences": {},
					"object": "608060405260008055600060015534801561001957600080fd5b5033600260006101000a81548173ffffffffffffffffffffffffffffffffffffffff021916908373ffffffffffffffffffffffffffffffffffffffff160217905550600260036000600260009054906101000a900473ffffffffffffffffffffffffffffffffffffffff1673ffffffffffffffffffffffffffffffffffffffff1673ffffffffffffffffffffffffffffffffffffffff168152602001908152602001600020600001819055504260036000600260009054906101000a900473ffffffffffffffffffffffffffffffffffffffff1673ffffffffffffffffffffffffffffffffffffffff1673ffffffffffffffffffffffffffffffffffffffff168152602001908152602001600020600201819055506114368061013d6000396000f3fe608060405234801561001057600080fd5b506004361061009e5760003560e01c8063609ff1bd11610066578063609ff1bd1461014957806364f5492e14610167578063a3ec138d14610183578063b3f98adc146101b7578063da35c664146101d35761009e565b8063013cf08b146100a35780632e4176cf146100d55780632e46fb9a146100f35780634420e48614610111578063585cc4c41461012d575b600080fd5b6100bd60048036038101906100b89190610b3f565b6101f1565b6040516100cc93929190610c0b565b60405180910390f35b6100dd6102b3565b6040516100ea9190610c8a565b60405180910390f35b6100fb6102d9565b6040516101089190610ca5565b60405180910390f35b61012b60048036038101906101269190610cec565b6102df565b005b61014760048036038101906101429190610e4e565b610518565b005b6101516105ac565b60405161015e9190610ec6565b60405180910390f35b610181600480360381019061017c9190610cec565b61063d565b005b61019d60048036038101906101989190610cec565b61095c565b6040516101ae959493929190610f73565b60405180910390f35b6101d160048036038101906101cc9190610ff2565b6109b9565b005b6101db610aef565b6040516101e89190610ca5565b60405180910390f35b6004818154811061020157600080fd5b906000526020600020906003020160009150905080600001549080600101805461022a9061104e565b80601f01602080910402602001604051908101604052809291908181526020018280546102569061104e565b80156102a35780601f10610278576101008083540402835291602001916102a3565b820191906000526020600020905b81548152906001019060200180831161028657829003601f168201915b5050505050908060020154905083565b600260009054906101000a900473ffffffffffffffffffffffffffffffffffffffff1681565b60015481565b600260009054906101000a900473ffffffffffffffffffffffffffffffffffffffff1673ffffffffffffffffffffffffffffffffffffffff163373ffffffffffffffffffffffffffffffffffffffff1614158061038f575060011515600360008373ffffffffffffffffffffffffffffffffffffffff1673ffffffffffffffffffffffffffffffffffffffff16815260200190815260200160002060010160009054906101000a900460ff161515145b8061040e5750600060038111156103a9576103a8610efc565b5b600360008373ffffffffffffffffffffffffffffffffffffffff1673ffffffffffffffffffffffffffffffffffffffff16815260200190815260200160002060030160009054906101000a900460ff16600381111561040b5761040a610efc565b5b14155b610515576001600360008373ffffffffffffffffffffffffffffffffffffffff1673ffffffffffffffffffffffffffffffffffffffff168152602001908152602001600020600001819055506000600360008373ffffffffffffffffffffffffffffffffffffffff1673ffffffffffffffffffffffffffffffffffffffff16815260200190815260200160002060010160006101000a81548160ff02191690831515021790555042600360008373ffffffffffffffffffffffffffffffffffffffff1673ffffffffffffffffffffffffffffffffffffffff168152602001908152602001600020600201819055506001600081548092919061050f906110ae565b91905055505b50565b6000604051806060016040528084815260200183815260200160008152509050600481908060018154018082558091505060019003906000526020600020906003020160009091909190915060008201518160000155602082015181600101908161058391906112a2565b506040820151816002015550506000808154809291906105a2906110ae565b9190505550505050565b6000806000905060005b6004805490508160ff161015610638578160048260ff16815481106105de576105dd611374565b5b90600052602060002090600302016002015411156106255760048160ff168154811061060d5761060c611374565b5b90600052602060002090600302016002015491508092505b8080610630906113a3565b9150506105b6565b505090565b600a600360008373ffffffffffffffffffffffffffffffffffffffff1673ffffffffffffffffffffffffffffffffffffffff1681526020019081526020016000206002015461068c91906113cc565b42111561095857600060038111156106a7576106a6610efc565b5b600360008373ffffffffffffffffffffffffffffffffffffffff1673ffffffffffffffffffffffffffffffffffffffff16815260200190815260200160002060030160009054906101000a900460ff16600381111561070957610708610efc565b5b0361077e576001600360008373ffffffffffffffffffffffffffffffffffffffff1673ffffffffffffffffffffffffffffffffffffffff16815260200190815260200160002060030160006101000a81548160ff0219169083600381111561077457610773610efc565b5b0217905550610959565b6001600381111561079257610791610efc565b5b600360008373ffffffffffffffffffffffffffffffffffffffff1673ffffffffffffffffffffffffffffffffffffffff16815260200190815260200160002060030160009054906101000a900460ff1660038111156107f4576107f3610efc565b5b03610869576002600360008373ffffffffffffffffffffffffffffffffffffffff1673ffffffffffffffffffffffffffffffffffffffff16815260200190815260200160002060030160006101000a81548160ff0219169083600381111561085f5761085e610efc565b5b0217905550610959565b6002600381111561087d5761087c610efc565b5b600360008373ffffffffffffffffffffffffffffffffffffffff1673ffffffffffffffffffffffffffffffffffffffff16815260200190815260200160002060030160009054906101000a900460ff1660038111156108df576108de610efc565b5b036109535760038060008373ffffffffffffffffffffffffffffffffffffffff1673ffffffffffffffffffffffffffffffffffffffff16815260200190815260200160002060030160006101000a81548160ff0219169083600381111561094957610948610efc565b5b0217905550610959565b610959565b5b50565b60036020528060005260406000206000915090508060000154908060010160009054906101000a900460ff16908060010160019054906101000a900460ff16908060020154908060030160009054906101000a900460ff16905085565b6000600360003373ffffffffffffffffffffffffffffffffffffffff1673ffffffffffffffffffffffffffffffffffffffff16815260200190815260200160002090508060010160009054906101000a900460ff1680610a2157506004805490508260ff1610155b80610a62575060006003811115610a3b57610a3a610efc565b5b8160030160009054906101000a900460ff166003811115610a5f57610a5e610efc565b5b14155b15610a6d5750610aec565b60018160010160006101000a81548160ff021916908315150217905550818160010160016101000a81548160ff021916908360ff160217905550806000015460048360ff1681548110610ac357610ac2611374565b5b90600052602060002090600302016002016000828254610ae391906113cc565b92505081905550505b50565b60005481565b6000604051905090565b600080fd5b600080fd5b6000819050919050565b610b1c81610b09565b8114610b2757600080fd5b50565b600081359050610b3981610b13565b92915050565b600060208284031215610b5557610b54610aff565b5b6000610b6384828501610b2a565b91505092915050565b610b7581610b09565b82525050565b600081519050919050565b600082825260208201905092915050565b60005b83811015610bb5578082015181840152602081019050610b9a565b60008484015250505050565b6000601f19601f8301169050919050565b6000610bdd82610b7b565b610be78185610b86565b9350610bf7818560208601610b97565b610c0081610bc1565b840191505092915050565b6000606082019050610c206000830186610b6c565b8181036020830152610c328185610bd2565b9050610c416040830184610b6c565b949350505050565b600073ffffffffffffffffffffffffffffffffffffffff82169050919050565b6000610c7482610c49565b9050919050565b610c8481610c69565b82525050565b6000602082019050610c9f6000830184610c7b565b92915050565b6000602082019050610cba6000830184610b6c565b92915050565b610cc981610c69565b8114610cd457600080fd5b50565b600081359050610ce681610cc0565b92915050565b600060208284031215610d0257610d01610aff565b5b6000610d1084828501610cd7565b91505092915050565b600080fd5b600080fd5b7f4e487b7100000000000000000000000000000000000000000000000000000000600052604160045260246000fd5b610d5b82610bc1565b810181811067ffffffffffffffff82111715610d7a57610d79610d23565b5b80604052505050565b6000610d8d610af5565b9050610d998282610d52565b919050565b600067ffffffffffffffff821115610db957610db8610d23565b5b610dc282610bc1565b9050602081019050919050565b82818337600083830152505050565b6000610df1610dec84610d9e565b610d83565b905082815260208101848484011115610e0d57610e0c610d1e565b5b610e18848285610dcf565b509392505050565b600082601f830112610e3557610e34610d19565b5b8135610e45848260208601610dde565b91505092915050565b60008060408385031215610e6557610e64610aff565b5b6000610e7385828601610b2a565b925050602083013567ffffffffffffffff811115610e9457610e93610b04565b5b610ea085828601610e20565b9150509250929050565b600060ff82169050919050565b610ec081610eaa565b82525050565b6000602082019050610edb6000830184610eb7565b92915050565b60008115159050919050565b610ef681610ee1565b82525050565b7f4e487b7100000000000000000000000000000000000000000000000000000000600052602160045260246000fd5b60048110610f3c57610f3b610efc565b5b50565b6000819050610f4d82610f2b565b919050565b6000610f5d82610f3f565b9050919050565b610f6d81610f52565b82525050565b600060a082019050610f886000830188610b6c565b610f956020830187610eed565b610fa26040830186610eb7565b610faf6060830185610b6c565b610fbc6080830184610f64565b9695505050505050565b610fcf81610eaa565b8114610fda57600080fd5b50565b600081359050610fec81610fc6565b92915050565b60006020828403121561100857611007610aff565b5b600061101684828501610fdd565b91505092915050565b7f4e487b7100000000000000000000000000000000000000000000000000000000600052602260045260246000fd5b6000600282049050600182168061106657607f821691505b6020821081036110795761107861101f565b5b50919050565b7f4e487b7100000000000000000000000000000000000000000000000000000000600052601160045260246000fd5b60006110b982610b09565b91507fffffffffffffffffffffffffffffffffffffffffffffffffffffffffffffffff82036110eb576110ea61107f565b5b600182019050919050565b60008190508160005260206000209050919050565b60006020601f8301049050919050565b600082821b905092915050565b6000600883026111587fffffffffffffffffffffffffffffffffffffffffffffffffffffffffffffffff8261111b565b611162868361111b565b95508019841693508086168417925050509392505050565b6000819050919050565b600061119f61119a61119584610b09565b61117a565b610b09565b9050919050565b6000819050919050565b6111b983611184565b6111cd6111c5826111a6565b848454611128565b825550505050565b600090565b6111e26111d5565b6111ed8184846111b0565b505050565b5b81811015611211576112066000826111da565b6001810190506111f3565b5050565b601f82111561125657611227816110f6565b6112308461110b565b8101602085101561123f578190505b61125361124b8561110b565b8301826111f2565b50505b505050565b600082821c905092915050565b60006112796000198460080261125b565b1980831691505092915050565b60006112928383611268565b9150826002028217905092915050565b6112ab82610b7b565b67ffffffffffffffff8111156112c4576112c3610d23565b5b6112ce825461104e565b6112d9828285611215565b600060209050601f83116001811461130c57600084156112fa578287015190505b6113048582611286565b86555061136c565b601f19841661131a866110f6565b60005b828110156113425784890151825560018201915060208501945060208101905061131d565b8683101561135f578489015161135b601f891682611268565b8355505b6001600288020188555050505b505050505050565b7f4e487b7100000000000000000000000000000000000000000000000000000000600052603260045260246000fd5b60006113ae82610eaa565b915060ff82036113c1576113c061107f565b5b600182019050919050565b60006113d782610b09565b91506113e283610b09565b92508282019050808211156113fa576113f961107f565b5b9291505056fea264697066735822122035886120b9f157a966267e3715b9268606d4fa160343cf6388fb7fce3e5627e864736f6c63430008130033",
					"opcodes": "PUSH1 0x80 PUSH1 0x40 MSTORE PUSH1 0x0 DUP1 SSTORE PUSH1 0x0 PUSH1 0x1 SSTORE CALLVALUE DUP1 ISZERO PUSH2 0x19 JUMPI PUSH1 0x0 DUP1 REVERT JUMPDEST POP CALLER PUSH1 0x2 PUSH1 0x0 PUSH2 0x100 EXP DUP2 SLOAD DUP2 PUSH20 0xFFFFFFFFFFFFFFFFFFFFFFFFFFFFFFFFFFFFFFFF MUL NOT AND SWAP1 DUP4 PUSH20 0xFFFFFFFFFFFFFFFFFFFFFFFFFFFFFFFFFFFFFFFF AND MUL OR SWAP1 SSTORE POP PUSH1 0x2 PUSH1 0x3 PUSH1 0x0 PUSH1 0x2 PUSH1 0x0 SWAP1 SLOAD SWAP1 PUSH2 0x100 EXP SWAP1 DIV PUSH20 0xFFFFFFFFFFFFFFFFFFFFFFFFFFFFFFFFFFFFFFFF AND PUSH20 0xFFFFFFFFFFFFFFFFFFFFFFFFFFFFFFFFFFFFFFFF AND PUSH20 0xFFFFFFFFFFFFFFFFFFFFFFFFFFFFFFFFFFFFFFFF AND DUP2 MSTORE PUSH1 0x20 ADD SWAP1 DUP2 MSTORE PUSH1 0x20 ADD PUSH1 0x0 KECCAK256 PUSH1 0x0 ADD DUP2 SWAP1 SSTORE POP TIMESTAMP PUSH1 0x3 PUSH1 0x0 PUSH1 0x2 PUSH1 0x0 SWAP1 SLOAD SWAP1 PUSH2 0x100 EXP SWAP1 DIV PUSH20 0xFFFFFFFFFFFFFFFFFFFFFFFFFFFFFFFFFFFFFFFF AND PUSH20 0xFFFFFFFFFFFFFFFFFFFFFFFFFFFFFFFFFFFFFFFF AND PUSH20 0xFFFFFFFFFFFFFFFFFFFFFFFFFFFFFFFFFFFFFFFF AND DUP2 MSTORE PUSH1 0x20 ADD SWAP1 DUP2 MSTORE PUSH1 0x20 ADD PUSH1 0x0 KECCAK256 PUSH1 0x2 ADD DUP2 SWAP1 SSTORE POP PUSH2 0x1436 DUP1 PUSH2 0x13D PUSH1 0x0 CODECOPY PUSH1 0x0 RETURN INVALID PUSH1 0x80 PUSH1 0x40 MSTORE CALLVALUE DUP1 ISZERO PUSH2 0x10 JUMPI PUSH1 0x0 DUP1 REVERT JUMPDEST POP PUSH1 0x4 CALLDATASIZE LT PUSH2 0x9E JUMPI PUSH1 0x0 CALLDATALOAD PUSH1 0xE0 SHR DUP1 PUSH4 0x609FF1BD GT PUSH2 0x66 JUMPI DUP1 PUSH4 0x609FF1BD EQ PUSH2 0x149 JUMPI DUP1 PUSH4 0x64F5492E EQ PUSH2 0x167 JUMPI DUP1 PUSH4 0xA3EC138D EQ PUSH2 0x183 JUMPI DUP1 PUSH4 0xB3F98ADC EQ PUSH2 0x1B7 JUMPI DUP1 PUSH4 0xDA35C664 EQ PUSH2 0x1D3 JUMPI PUSH2 0x9E JUMP JUMPDEST DUP1 PUSH4 0x13CF08B EQ PUSH2 0xA3 JUMPI DUP1 PUSH4 0x2E4176CF EQ PUSH2 0xD5 JUMPI DUP1 PUSH4 0x2E46FB9A EQ PUSH2 0xF3 JUMPI DUP1 PUSH4 0x4420E486 EQ PUSH2 0x111 JUMPI DUP1 PUSH4 0x585CC4C4 EQ PUSH2 0x12D JUMPI JUMPDEST PUSH1 0x0 DUP1 REVERT JUMPDEST PUSH2 0xBD PUSH1 0x4 DUP1 CALLDATASIZE SUB DUP2 ADD SWAP1 PUSH2 0xB8 SWAP2 SWAP1 PUSH2 0xB3F JUMP JUMPDEST PUSH2 0x1F1 JUMP JUMPDEST PUSH1 0x40 MLOAD PUSH2 0xCC SWAP4 SWAP3 SWAP2 SWAP1 PUSH2 0xC0B JUMP JUMPDEST PUSH1 0x40 MLOAD DUP1 SWAP2 SUB SWAP1 RETURN JUMPDEST PUSH2 0xDD PUSH2 0x2B3 JUMP JUMPDEST PUSH1 0x40 MLOAD PUSH2 0xEA SWAP2 SWAP1 PUSH2 0xC8A JUMP JUMPDEST PUSH1 0x40 MLOAD DUP1 SWAP2 SUB SWAP1 RETURN JUMPDEST PUSH2 0xFB PUSH2 0x2D9 JUMP JUMPDEST PUSH1 0x40 MLOAD PUSH2 0x108 SWAP2 SWAP1 PUSH2 0xCA5 JUMP JUMPDEST PUSH1 0x40 MLOAD DUP1 SWAP2 SUB SWAP1 RETURN JUMPDEST PUSH2 0x12B PUSH1 0x4 DUP1 CALLDATASIZE SUB DUP2 ADD SWAP1 PUSH2 0x126 SWAP2 SWAP1 PUSH2 0xCEC JUMP JUMPDEST PUSH2 0x2DF JUMP JUMPDEST STOP JUMPDEST PUSH2 0x147 PUSH1 0x4 DUP1 CALLDATASIZE SUB DUP2 ADD SWAP1 PUSH2 0x142 SWAP2 SWAP1 PUSH2 0xE4E JUMP JUMPDEST PUSH2 0x518 JUMP JUMPDEST STOP JUMPDEST PUSH2 0x151 PUSH2 0x5AC JUMP JUMPDEST PUSH1 0x40 MLOAD PUSH2 0x15E SWAP2 SWAP1 PUSH2 0xEC6 JUMP JUMPDEST PUSH1 0x40 MLOAD DUP1 SWAP2 SUB SWAP1 RETURN JUMPDEST PUSH2 0x181 PUSH1 0x4 DUP1 CALLDATASIZE SUB DUP2 ADD SWAP1 PUSH2 0x17C SWAP2 SWAP1 PUSH2 0xCEC JUMP JUMPDEST PUSH2 0x63D JUMP JUMPDEST STOP JUMPDEST PUSH2 0x19D PUSH1 0x4 DUP1 CALLDATASIZE SUB DUP2 ADD SWAP1 PUSH2 0x198 SWAP2 SWAP1 PUSH2 0xCEC JUMP JUMPDEST PUSH2 0x95C JUMP JUMPDEST PUSH1 0x40 MLOAD PUSH2 0x1AE SWAP6 SWAP5 SWAP4 SWAP3 SWAP2 SWAP1 PUSH2 0xF73 JUMP JUMPDEST PUSH1 0x40 MLOAD DUP1 SWAP2 SUB SWAP1 RETURN JUMPDEST PUSH2 0x1D1 PUSH1 0x4 DUP1 CALLDATASIZE SUB DUP2 ADD SWAP1 PUSH2 0x1CC SWAP2 SWAP1 PUSH2 0xFF2 JUMP JUMPDEST PUSH2 0x9B9 JUMP JUMPDEST STOP JUMPDEST PUSH2 0x1DB PUSH2 0xAEF JUMP JUMPDEST PUSH1 0x40 MLOAD PUSH2 0x1E8 SWAP2 SWAP1 PUSH2 0xCA5 JUMP JUMPDEST PUSH1 0x40 MLOAD DUP1 SWAP2 SUB SWAP1 RETURN JUMPDEST PUSH1 0x4 DUP2 DUP2 SLOAD DUP2 LT PUSH2 0x201 JUMPI PUSH1 0x0 DUP1 REVERT JUMPDEST SWAP1 PUSH1 0x0 MSTORE PUSH1 0x20 PUSH1 0x0 KECCAK256 SWAP1 PUSH1 0x3 MUL ADD PUSH1 0x0 SWAP2 POP SWAP1 POP DUP1 PUSH1 0x0 ADD SLOAD SWAP1 DUP1 PUSH1 0x1 ADD DUP1 SLOAD PUSH2 0x22A SWAP1 PUSH2 0x104E JUMP JUMPDEST DUP1 PUSH1 0x1F ADD PUSH1 0x20 DUP1 SWAP2 DIV MUL PUSH1 0x20 ADD PUSH1 0x40 MLOAD SWAP1 DUP2 ADD PUSH1 0x40 MSTORE DUP1 SWAP3 SWAP2 SWAP1 DUP2 DUP2 MSTORE PUSH1 0x20 ADD DUP3 DUP1 SLOAD PUSH2 0x256 SWAP1 PUSH2 0x104E JUMP JUMPDEST DUP1 ISZERO PUSH2 0x2A3 JUMPI DUP1 PUSH1 0x1F LT PUSH2 0x278 JUMPI PUSH2 0x100 DUP1 DUP4 SLOAD DIV MUL DUP4 MSTORE SWAP2 PUSH1 0x20 ADD SWAP2 PUSH2 0x2A3 JUMP JUMPDEST DUP3 ADD SWAP2 SWAP1 PUSH1 0x0 MSTORE PUSH1 0x20 PUSH1 0x0 KECCAK256 SWAP1 JUMPDEST DUP2 SLOAD DUP2 MSTORE SWAP1 PUSH1 0x1 ADD SWAP1 PUSH1 0x20 ADD DUP1 DUP4 GT PUSH2 0x286 JUMPI DUP3 SWAP1 SUB PUSH1 0x1F AND DUP3 ADD SWAP2 JUMPDEST POP POP POP POP POP SWAP1 DUP1 PUSH1 0x2 ADD SLOAD SWAP1 POP DUP4 JUMP JUMPDEST PUSH1 0x2 PUSH1 0x0 SWAP1 SLOAD SWAP1 PUSH2 0x100 EXP SWAP1 DIV PUSH20 0xFFFFFFFFFFFFFFFFFFFFFFFFFFFFFFFFFFFFFFFF AND DUP2 JUMP JUMPDEST PUSH1 0x1 SLOAD DUP2 JUMP JUMPDEST PUSH1 0x2 PUSH1 0x0 SWAP1 SLOAD SWAP1 PUSH2 0x100 EXP SWAP1 DIV PUSH20 0xFFFFFFFFFFFFFFFFFFFFFFFFFFFFFFFFFFFFFFFF AND PUSH20 0xFFFFFFFFFFFFFFFFFFFFFFFFFFFFFFFFFFFFFFFF AND CALLER PUSH20 0xFFFFFFFFFFFFFFFFFFFFFFFFFFFFFFFFFFFFFFFF AND EQ ISZERO DUP1 PUSH2 0x38F JUMPI POP PUSH1 0x1 ISZERO ISZERO PUSH1 0x3 PUSH1 0x0 DUP4 PUSH20 0xFFFFFFFFFFFFFFFFFFFFFFFFFFFFFFFFFFFFFFFF AND PUSH20 0xFFFFFFFFFFFFFFFFFFFFFFFFFFFFFFFFFFFFFFFF AND DUP2 MSTORE PUSH1 0x20 ADD SWAP1 DUP2 MSTORE PUSH1 0x20 ADD PUSH1 0x0 KECCAK256 PUSH1 0x1 ADD PUSH1 0x0 SWAP1 SLOAD SWAP1 PUSH2 0x100 EXP SWAP1 DIV PUSH1 0xFF AND ISZERO ISZERO EQ JUMPDEST DUP1 PUSH2 0x40E JUMPI POP PUSH1 0x0 PUSH1 0x3 DUP2 GT ISZERO PUSH2 0x3A9 JUMPI PUSH2 0x3A8 PUSH2 0xEFC JUMP JUMPDEST JUMPDEST PUSH1 0x3 PUSH1 0x0 DUP4 PUSH20 0xFFFFFFFFFFFFFFFFFFFFFFFFFFFFFFFFFFFFFFFF AND PUSH20 0xFFFFFFFFFFFFFFFFFFFFFFFFFFFFFFFFFFFFFFFF AND DUP2 MSTORE PUSH1 0x20 ADD SWAP1 DUP2 MSTORE PUSH1 0x20 ADD PUSH1 0x0 KECCAK256 PUSH1 0x3 ADD PUSH1 0x0 SWAP1 SLOAD SWAP1 PUSH2 0x100 EXP SWAP1 DIV PUSH1 0xFF AND PUSH1 0x3 DUP2 GT ISZERO PUSH2 0x40B JUMPI PUSH2 0x40A PUSH2 0xEFC JUMP JUMPDEST JUMPDEST EQ ISZERO JUMPDEST PUSH2 0x515 JUMPI PUSH1 0x1 PUSH1 0x3 PUSH1 0x0 DUP4 PUSH20 0xFFFFFFFFFFFFFFFFFFFFFFFFFFFFFFFFFFFFFFFF AND PUSH20 0xFFFFFFFFFFFFFFFFFFFFFFFFFFFFFFFFFFFFFFFF AND DUP2 MSTORE PUSH1 0x20 ADD SWAP1 DUP2 MSTORE PUSH1 0x20 ADD PUSH1 0x0 KECCAK256 PUSH1 0x0 ADD DUP2 SWAP1 SSTORE POP PUSH1 0x0 PUSH1 0x3 PUSH1 0x0 DUP4 PUSH20 0xFFFFFFFFFFFFFFFFFFFFFFFFFFFFFFFFFFFFFFFF AND PUSH20 0xFFFFFFFFFFFFFFFFFFFFFFFFFFFFFFFFFFFFFFFF AND DUP2 MSTORE PUSH1 0x20 ADD SWAP1 DUP2 MSTORE PUSH1 0x20 ADD PUSH1 0x0 KECCAK256 PUSH1 0x1 ADD PUSH1 0x0 PUSH2 0x100 EXP DUP2 SLOAD DUP2 PUSH1 0xFF MUL NOT AND SWAP1 DUP4 ISZERO ISZERO MUL OR SWAP1 SSTORE POP TIMESTAMP PUSH1 0x3 PUSH1 0x0 DUP4 PUSH20 0xFFFFFFFFFFFFFFFFFFFFFFFFFFFFFFFFFFFFFFFF AND PUSH20 0xFFFFFFFFFFFFFFFFFFFFFFFFFFFFFFFFFFFFFFFF AND DUP2 MSTORE PUSH1 0x20 ADD SWAP1 DUP2 MSTORE PUSH1 0x20 ADD PUSH1 0x0 KECCAK256 PUSH1 0x2 ADD DUP2 SWAP1 SSTORE POP PUSH1 0x1 PUSH1 0x0 DUP2 SLOAD DUP1 SWAP3 SWAP2 SWAP1 PUSH2 0x50F SWAP1 PUSH2 0x10AE JUMP JUMPDEST SWAP2 SWAP1 POP SSTORE POP JUMPDEST POP JUMP JUMPDEST PUSH1 0x0 PUSH1 0x40 MLOAD DUP1 PUSH1 0x60 ADD PUSH1 0x40 MSTORE DUP1 DUP5 DUP2 MSTORE PUSH1 0x20 ADD DUP4 DUP2 MSTORE PUSH1 0x20 ADD PUSH1 0x0 DUP2 MSTORE POP SWAP1 POP PUSH1 0x4 DUP2 SWAP1 DUP1 PUSH1 0x1 DUP2 SLOAD ADD DUP1 DUP3 SSTORE DUP1 SWAP2 POP POP PUSH1 0x1 SWAP1 SUB SWAP1 PUSH1 0x0 MSTORE PUSH1 0x20 PUSH1 0x0 KECCAK256 SWAP1 PUSH1 0x3 MUL ADD PUSH1 0x0 SWAP1 SWAP2 SWAP1 SWAP2 SWAP1 SWAP2 POP PUSH1 0x0 DUP3 ADD MLOAD DUP2 PUSH1 0x0 ADD SSTORE PUSH1 0x20 DUP3 ADD MLOAD DUP2 PUSH1 0x1 ADD SWAP1 DUP2 PUSH2 0x583 SWAP2 SWAP1 PUSH2 0x12A2 JUMP JUMPDEST POP PUSH1 0x40 DUP3 ADD MLOAD DUP2 PUSH1 0x2 ADD SSTORE POP POP PUSH1 0x0 DUP1 DUP2 SLOAD DUP1 SWAP3 SWAP2 SWAP1 PUSH2 0x5A2 SWAP1 PUSH2 0x10AE JUMP JUMPDEST SWAP2 SWAP1 POP SSTORE POP POP POP POP JUMP JUMPDEST PUSH1 0x0 DUP1 PUSH1 0x0 SWAP1 POP PUSH1 0x0 JUMPDEST PUSH1 0x4 DUP1 SLOAD SWAP1 POP DUP2 PUSH1 0xFF AND LT ISZERO PUSH2 0x638 JUMPI DUP2 PUSH1 0x4 DUP3 PUSH1 0xFF AND DUP2 SLOAD DUP2 LT PUSH2 0x5DE JUMPI PUSH2 0x5DD PUSH2 0x1374 JUMP JUMPDEST JUMPDEST SWAP1 PUSH1 0x0 MSTORE PUSH1 0x20 PUSH1 0x0 KECCAK256 SWAP1 PUSH1 0x3 MUL ADD PUSH1 0x2 ADD SLOAD GT ISZERO PUSH2 0x625 JUMPI PUSH1 0x4 DUP2 PUSH1 0xFF AND DUP2 SLOAD DUP2 LT PUSH2 0x60D JUMPI PUSH2 0x60C PUSH2 0x1374 JUMP JUMPDEST JUMPDEST SWAP1 PUSH1 0x0 MSTORE PUSH1 0x20 PUSH1 0x0 KECCAK256 SWAP1 PUSH1 0x3 MUL ADD PUSH1 0x2 ADD SLOAD SWAP2 POP DUP1 SWAP3 POP JUMPDEST DUP1 DUP1 PUSH2 0x630 SWAP1 PUSH2 0x13A3 JUMP JUMPDEST SWAP2 POP POP PUSH2 0x5B6 JUMP JUMPDEST POP POP SWAP1 JUMP JUMPDEST PUSH1 0xA PUSH1 0x3 PUSH1 0x0 DUP4 PUSH20 0xFFFFFFFFFFFFFFFFFFFFFFFFFFFFFFFFFFFFFFFF AND PUSH20 0xFFFFFFFFFFFFFFFFFFFFFFFFFFFFFFFFFFFFFFFF AND DUP2 MSTORE PUSH1 0x20 ADD SWAP1 DUP2 MSTORE PUSH1 0x20 ADD PUSH1 0x0 KECCAK256 PUSH1 0x2 ADD SLOAD PUSH2 0x68C SWAP2 SWAP1 PUSH2 0x13CC JUMP JUMPDEST TIMESTAMP GT ISZERO PUSH2 0x958 JUMPI PUSH1 0x0 PUSH1 0x3 DUP2 GT ISZERO PUSH2 0x6A7 JUMPI PUSH2 0x6A6 PUSH2 0xEFC JUMP JUMPDEST JUMPDEST PUSH1 0x3 PUSH1 0x0 DUP4 PUSH20 0xFFFFFFFFFFFFFFFFFFFFFFFFFFFFFFFFFFFFFFFF AND PUSH20 0xFFFFFFFFFFFFFFFFFFFFFFFFFFFFFFFFFFFFFFFF AND DUP2 MSTORE PUSH1 0x20 ADD SWAP1 DUP2 MSTORE PUSH1 0x20 ADD PUSH1 0x0 KECCAK256 PUSH1 0x3 ADD PUSH1 0x0 SWAP1 SLOAD SWAP1 PUSH2 0x100 EXP SWAP1 DIV PUSH1 0xFF AND PUSH1 0x3 DUP2 GT ISZERO PUSH2 0x709 JUMPI PUSH2 0x708 PUSH2 0xEFC JUMP JUMPDEST JUMPDEST SUB PUSH2 0x77E JUMPI PUSH1 0x1 PUSH1 0x3 PUSH1 0x0 DUP4 PUSH20 0xFFFFFFFFFFFFFFFFFFFFFFFFFFFFFFFFFFFFFFFF AND PUSH20 0xFFFFFFFFFFFFFFFFFFFFFFFFFFFFFFFFFFFFFFFF AND DUP2 MSTORE PUSH1 0x20 ADD SWAP1 DUP2 MSTORE PUSH1 0x20 ADD PUSH1 0x0 KECCAK256 PUSH1 0x3 ADD PUSH1 0x0 PUSH2 0x100 EXP DUP2 SLOAD DUP2 PUSH1 0xFF MUL NOT AND SWAP1 DUP4 PUSH1 0x3 DUP2 GT ISZERO PUSH2 0x774 JUMPI PUSH2 0x773 PUSH2 0xEFC JUMP JUMPDEST JUMPDEST MUL OR SWAP1 SSTORE POP PUSH2 0x959 JUMP JUMPDEST PUSH1 0x1 PUSH1 0x3 DUP2 GT ISZERO PUSH2 0x792 JUMPI PUSH2 0x791 PUSH2 0xEFC JUMP JUMPDEST JUMPDEST PUSH1 0x3 PUSH1 0x0 DUP4 PUSH20 0xFFFFFFFFFFFFFFFFFFFFFFFFFFFFFFFFFFFFFFFF AND PUSH20 0xFFFFFFFFFFFFFFFFFFFFFFFFFFFFFFFFFFFFFFFF AND DUP2 MSTORE PUSH1 0x20 ADD SWAP1 DUP2 MSTORE PUSH1 0x20 ADD PUSH1 0x0 KECCAK256 PUSH1 0x3 ADD PUSH1 0x0 SWAP1 SLOAD SWAP1 PUSH2 0x100 EXP SWAP1 DIV PUSH1 0xFF AND PUSH1 0x3 DUP2 GT ISZERO PUSH2 0x7F4 JUMPI PUSH2 0x7F3 PUSH2 0xEFC JUMP JUMPDEST JUMPDEST SUB PUSH2 0x869 JUMPI PUSH1 0x2 PUSH1 0x3 PUSH1 0x0 DUP4 PUSH20 0xFFFFFFFFFFFFFFFFFFFFFFFFFFFFFFFFFFFFFFFF AND PUSH20 0xFFFFFFFFFFFFFFFFFFFFFFFFFFFFFFFFFFFFFFFF AND DUP2 MSTORE PUSH1 0x20 ADD SWAP1 DUP2 MSTORE PUSH1 0x20 ADD PUSH1 0x0 KECCAK256 PUSH1 0x3 ADD PUSH1 0x0 PUSH2 0x100 EXP DUP2 SLOAD DUP2 PUSH1 0xFF MUL NOT AND SWAP1 DUP4 PUSH1 0x3 DUP2 GT ISZERO PUSH2 0x85F JUMPI PUSH2 0x85E PUSH2 0xEFC JUMP JUMPDEST JUMPDEST MUL OR SWAP1 SSTORE POP PUSH2 0x959 JUMP JUMPDEST PUSH1 0x2 PUSH1 0x3 DUP2 GT ISZERO PUSH2 0x87D JUMPI PUSH2 0x87C PUSH2 0xEFC JUMP JUMPDEST JUMPDEST PUSH1 0x3 PUSH1 0x0 DUP4 PUSH20 0xFFFFFFFFFFFFFFFFFFFFFFFFFFFFFFFFFFFFFFFF AND PUSH20 0xFFFFFFFFFFFFFFFFFFFFFFFFFFFFFFFFFFFFFFFF AND DUP2 MSTORE PUSH1 0x20 ADD SWAP1 DUP2 MSTORE PUSH1 0x20 ADD PUSH1 0x0 KECCAK256 PUSH1 0x3 ADD PUSH1 0x0 SWAP1 SLOAD SWAP1 PUSH2 0x100 EXP SWAP1 DIV PUSH1 0xFF AND PUSH1 0x3 DUP2 GT ISZERO PUSH2 0x8DF JUMPI PUSH2 0x8DE PUSH2 0xEFC JUMP JUMPDEST JUMPDEST SUB PUSH2 0x953 JUMPI PUSH1 0x3 DUP1 PUSH1 0x0 DUP4 PUSH20 0xFFFFFFFFFFFFFFFFFFFFFFFFFFFFFFFFFFFFFFFF AND PUSH20 0xFFFFFFFFFFFFFFFFFFFFFFFFFFFFFFFFFFFFFFFF AND DUP2 MSTORE PUSH1 0x20 ADD SWAP1 DUP2 MSTORE PUSH1 0x20 ADD PUSH1 0x0 KECCAK256 PUSH1 0x3 ADD PUSH1 0x0 PUSH2 0x100 EXP DUP2 SLOAD DUP2 PUSH1 0xFF MUL NOT AND SWAP1 DUP4 PUSH1 0x3 DUP2 GT ISZERO PUSH2 0x949 JUMPI PUSH2 0x948 PUSH2 0xEFC JUMP JUMPDEST JUMPDEST MUL OR SWAP1 SSTORE POP PUSH2 0x959 JUMP JUMPDEST PUSH2 0x959 JUMP JUMPDEST JUMPDEST POP JUMP JUMPDEST PUSH1 0x3 PUSH1 0x20 MSTORE DUP1 PUSH1 0x0 MSTORE PUSH1 0x40 PUSH1 0x0 KECCAK256 PUSH1 0x0 SWAP2 POP SWAP1 POP DUP1 PUSH1 0x0 ADD SLOAD SWAP1 DUP1 PUSH1 0x1 ADD PUSH1 0x0 SWAP1 SLOAD SWAP1 PUSH2 0x100 EXP SWAP1 DIV PUSH1 0xFF AND SWAP1 DUP1 PUSH1 0x1 ADD PUSH1 0x1 SWAP1 SLOAD SWAP1 PUSH2 0x100 EXP SWAP1 DIV PUSH1 0xFF AND SWAP1 DUP1 PUSH1 0x2 ADD SLOAD SWAP1 DUP1 PUSH1 0x3 ADD PUSH1 0x0 SWAP1 SLOAD SWAP1 PUSH2 0x100 EXP SWAP1 DIV PUSH1 0xFF AND SWAP1 POP DUP6 JUMP JUMPDEST PUSH1 0x0 PUSH1 0x3 PUSH1 0x0 CALLER PUSH20 0xFFFFFFFFFFFFFFFFFFFFFFFFFFFFFFFFFFFFFFFF AND PUSH20 0xFFFFFFFFFFFFFFFFFFFFFFFFFFFFFFFFFFFFFFFF AND DUP2 MSTORE PUSH1 0x20 ADD SWAP1 DUP2 MSTORE PUSH1 0x20 ADD PUSH1 0x0 KECCAK256 SWAP1 POP DUP1 PUSH1 0x1 ADD PUSH1 0x0 SWAP1 SLOAD SWAP1 PUSH2 0x100 EXP SWAP1 DIV PUSH1 0xFF AND DUP1 PUSH2 0xA21 JUMPI POP PUSH1 0x4 DUP1 SLOAD SWAP1 POP DUP3 PUSH1 0xFF AND LT ISZERO JUMPDEST DUP1 PUSH2 0xA62 JUMPI POP PUSH1 0x0 PUSH1 0x3 DUP2 GT ISZERO PUSH2 0xA3B JUMPI PUSH2 0xA3A PUSH2 0xEFC JUMP JUMPDEST JUMPDEST DUP2 PUSH1 0x3 ADD PUSH1 0x0 SWAP1 SLOAD SWAP1 PUSH2 0x100 EXP SWAP1 DIV PUSH1 0xFF AND PUSH1 0x3 DUP2 GT ISZERO PUSH2 0xA5F JUMPI PUSH2 0xA5E PUSH2 0xEFC JUMP JUMPDEST JUMPDEST EQ ISZERO JUMPDEST ISZERO PUSH2 0xA6D JUMPI POP PUSH2 0xAEC JUMP JUMPDEST PUSH1 0x1 DUP2 PUSH1 0x1 ADD PUSH1 0x0 PUSH2 0x100 EXP DUP2 SLOAD DUP2 PUSH1 0xFF MUL NOT AND SWAP1 DUP4 ISZERO ISZERO MUL OR SWAP1 SSTORE POP DUP2 DUP2 PUSH1 0x1 ADD PUSH1 0x1 PUSH2 0x100 EXP DUP2 SLOAD DUP2 PUSH1 0xFF MUL NOT AND SWAP1 DUP4 PUSH1 0xFF AND MUL OR SWAP1 SSTORE POP DUP1 PUSH1 0x0 ADD SLOAD PUSH1 0x4 DUP4 PUSH1 0xFF AND DUP2 SLOAD DUP2 LT PUSH2 0xAC3 JUMPI PUSH2 0xAC2 PUSH2 0x1374 JUMP JUMPDEST JUMPDEST SWAP1 PUSH1 0x0 MSTORE PUSH1 0x20 PUSH1 0x0 KECCAK256 SWAP1 PUSH1 0x3 MUL ADD PUSH1 0x2 ADD PUSH1 0x0 DUP3 DUP3 SLOAD PUSH2 0xAE3 SWAP2 SWAP1 PUSH2 0x13CC JUMP JUMPDEST SWAP3 POP POP DUP2 SWAP1 SSTORE POP POP JUMPDEST POP JUMP JUMPDEST PUSH1 0x0 SLOAD DUP2 JUMP JUMPDEST PUSH1 0x0 PUSH1 0x40 MLOAD SWAP1 POP SWAP1 JUMP JUMPDEST PUSH1 0x0 DUP1 REVERT JUMPDEST PUSH1 0x0 DUP1 REVERT JUMPDEST PUSH1 0x0 DUP2 SWAP1 POP SWAP2 SWAP1 POP JUMP JUMPDEST PUSH2 0xB1C DUP2 PUSH2 0xB09 JUMP JUMPDEST DUP2 EQ PUSH2 0xB27 JUMPI PUSH1 0x0 DUP1 REVERT JUMPDEST POP JUMP JUMPDEST PUSH1 0x0 DUP2 CALLDATALOAD SWAP1 POP PUSH2 0xB39 DUP2 PUSH2 0xB13 JUMP JUMPDEST SWAP3 SWAP2 POP POP JUMP JUMPDEST PUSH1 0x0 PUSH1 0x20 DUP3 DUP5 SUB SLT ISZERO PUSH2 0xB55 JUMPI PUSH2 0xB54 PUSH2 0xAFF JUMP JUMPDEST JUMPDEST PUSH1 0x0 PUSH2 0xB63 DUP5 DUP3 DUP6 ADD PUSH2 0xB2A JUMP JUMPDEST SWAP2 POP POP SWAP3 SWAP2 POP POP JUMP JUMPDEST PUSH2 0xB75 DUP2 PUSH2 0xB09 JUMP JUMPDEST DUP3 MSTORE POP POP JUMP JUMPDEST PUSH1 0x0 DUP2 MLOAD SWAP1 POP SWAP2 SWAP1 POP JUMP JUMPDEST PUSH1 0x0 DUP3 DUP3 MSTORE PUSH1 0x20 DUP3 ADD SWAP1 POP SWAP3 SWAP2 POP POP JUMP JUMPDEST PUSH1 0x0 JUMPDEST DUP4 DUP2 LT ISZERO PUSH2 0xBB5 JUMPI DUP1 DUP3 ADD MLOAD DUP2 DUP5 ADD MSTORE PUSH1 0x20 DUP2 ADD SWAP1 POP PUSH2 0xB9A JUMP JUMPDEST PUSH1 0x0 DUP5 DUP5 ADD MSTORE POP POP POP POP JUMP JUMPDEST PUSH1 0x0 PUSH1 0x1F NOT PUSH1 0x1F DUP4 ADD AND SWAP1 POP SWAP2 SWAP1 POP JUMP JUMPDEST PUSH1 0x0 PUSH2 0xBDD DUP3 PUSH2 0xB7B JUMP JUMPDEST PUSH2 0xBE7 DUP2 DUP6 PUSH2 0xB86 JUMP JUMPDEST SWAP4 POP PUSH2 0xBF7 DUP2 DUP6 PUSH1 0x20 DUP7 ADD PUSH2 0xB97 JUMP JUMPDEST PUSH2 0xC00 DUP2 PUSH2 0xBC1 JUMP JUMPDEST DUP5 ADD SWAP2 POP POP SWAP3 SWAP2 POP POP JUMP JUMPDEST PUSH1 0x0 PUSH1 0x60 DUP3 ADD SWAP1 POP PUSH2 0xC20 PUSH1 0x0 DUP4 ADD DUP7 PUSH2 0xB6C JUMP JUMPDEST DUP2 DUP2 SUB PUSH1 0x20 DUP4 ADD MSTORE PUSH2 0xC32 DUP2 DUP6 PUSH2 0xBD2 JUMP JUMPDEST SWAP1 POP PUSH2 0xC41 PUSH1 0x40 DUP4 ADD DUP5 PUSH2 0xB6C JUMP JUMPDEST SWAP5 SWAP4 POP POP POP POP JUMP JUMPDEST PUSH1 0x0 PUSH20 0xFFFFFFFFFFFFFFFFFFFFFFFFFFFFFFFFFFFFFFFF DUP3 AND SWAP1 POP SWAP2 SWAP1 POP JUMP JUMPDEST PUSH1 0x0 PUSH2 0xC74 DUP3 PUSH2 0xC49 JUMP JUMPDEST SWAP1 POP SWAP2 SWAP1 POP JUMP JUMPDEST PUSH2 0xC84 DUP2 PUSH2 0xC69 JUMP JUMPDEST DUP3 MSTORE POP POP JUMP JUMPDEST PUSH1 0x0 PUSH1 0x20 DUP3 ADD SWAP1 POP PUSH2 0xC9F PUSH1 0x0 DUP4 ADD DUP5 PUSH2 0xC7B JUMP JUMPDEST SWAP3 SWAP2 POP POP JUMP JUMPDEST PUSH1 0x0 PUSH1 0x20 DUP3 ADD SWAP1 POP PUSH2 0xCBA PUSH1 0x0 DUP4 ADD DUP5 PUSH2 0xB6C JUMP JUMPDEST SWAP3 SWAP2 POP POP JUMP JUMPDEST PUSH2 0xCC9 DUP2 PUSH2 0xC69 JUMP JUMPDEST DUP2 EQ PUSH2 0xCD4 JUMPI PUSH1 0x0 DUP1 REVERT JUMPDEST POP JUMP JUMPDEST PUSH1 0x0 DUP2 CALLDATALOAD SWAP1 POP PUSH2 0xCE6 DUP2 PUSH2 0xCC0 JUMP JUMPDEST SWAP3 SWAP2 POP POP JUMP JUMPDEST PUSH1 0x0 PUSH1 0x20 DUP3 DUP5 SUB SLT ISZERO PUSH2 0xD02 JUMPI PUSH2 0xD01 PUSH2 0xAFF JUMP JUMPDEST JUMPDEST PUSH1 0x0 PUSH2 0xD10 DUP5 DUP3 DUP6 ADD PUSH2 0xCD7 JUMP JUMPDEST SWAP2 POP POP SWAP3 SWAP2 POP POP JUMP JUMPDEST PUSH1 0x0 DUP1 REVERT JUMPDEST PUSH1 0x0 DUP1 REVERT JUMPDEST PUSH32 0x4E487B7100000000000000000000000000000000000000000000000000000000 PUSH1 0x0 MSTORE PUSH1 0x41 PUSH1 0x4 MSTORE PUSH1 0x24 PUSH1 0x0 REVERT JUMPDEST PUSH2 0xD5B DUP3 PUSH2 0xBC1 JUMP JUMPDEST DUP2 ADD DUP2 DUP2 LT PUSH8 0xFFFFFFFFFFFFFFFF DUP3 GT OR ISZERO PUSH2 0xD7A JUMPI PUSH2 0xD79 PUSH2 0xD23 JUMP JUMPDEST JUMPDEST DUP1 PUSH1 0x40 MSTORE POP POP POP JUMP JUMPDEST PUSH1 0x0 PUSH2 0xD8D PUSH2 0xAF5 JUMP JUMPDEST SWAP1 POP PUSH2 0xD99 DUP3 DUP3 PUSH2 0xD52 JUMP JUMPDEST SWAP2 SWAP1 POP JUMP JUMPDEST PUSH1 0x0 PUSH8 0xFFFFFFFFFFFFFFFF DUP3 GT ISZERO PUSH2 0xDB9 JUMPI PUSH2 0xDB8 PUSH2 0xD23 JUMP JUMPDEST JUMPDEST PUSH2 0xDC2 DUP3 PUSH2 0xBC1 JUMP JUMPDEST SWAP1 POP PUSH1 0x20 DUP2 ADD SWAP1 POP SWAP2 SWAP1 POP JUMP JUMPDEST DUP3 DUP2 DUP4 CALLDATACOPY PUSH1 0x0 DUP4 DUP4 ADD MSTORE POP POP POP JUMP JUMPDEST PUSH1 0x0 PUSH2 0xDF1 PUSH2 0xDEC DUP5 PUSH2 0xD9E JUMP JUMPDEST PUSH2 0xD83 JUMP JUMPDEST SWAP1 POP DUP3 DUP2 MSTORE PUSH1 0x20 DUP2 ADD DUP5 DUP5 DUP5 ADD GT ISZERO PUSH2 0xE0D JUMPI PUSH2 0xE0C PUSH2 0xD1E JUMP JUMPDEST JUMPDEST PUSH2 0xE18 DUP5 DUP3 DUP6 PUSH2 0xDCF JUMP JUMPDEST POP SWAP4 SWAP3 POP POP POP JUMP JUMPDEST PUSH1 0x0 DUP3 PUSH1 0x1F DUP4 ADD SLT PUSH2 0xE35 JUMPI PUSH2 0xE34 PUSH2 0xD19 JUMP JUMPDEST JUMPDEST DUP2 CALLDATALOAD PUSH2 0xE45 DUP5 DUP3 PUSH1 0x20 DUP7 ADD PUSH2 0xDDE JUMP JUMPDEST SWAP2 POP POP SWAP3 SWAP2 POP POP JUMP JUMPDEST PUSH1 0x0 DUP1 PUSH1 0x40 DUP4 DUP6 SUB SLT ISZERO PUSH2 0xE65 JUMPI PUSH2 0xE64 PUSH2 0xAFF JUMP JUMPDEST JUMPDEST PUSH1 0x0 PUSH2 0xE73 DUP6 DUP3 DUP7 ADD PUSH2 0xB2A JUMP JUMPDEST SWAP3 POP POP PUSH1 0x20 DUP4 ADD CALLDATALOAD PUSH8 0xFFFFFFFFFFFFFFFF DUP2 GT ISZERO PUSH2 0xE94 JUMPI PUSH2 0xE93 PUSH2 0xB04 JUMP JUMPDEST JUMPDEST PUSH2 0xEA0 DUP6 DUP3 DUP7 ADD PUSH2 0xE20 JUMP JUMPDEST SWAP2 POP POP SWAP3 POP SWAP3 SWAP1 POP JUMP JUMPDEST PUSH1 0x0 PUSH1 0xFF DUP3 AND SWAP1 POP SWAP2 SWAP1 POP JUMP JUMPDEST PUSH2 0xEC0 DUP2 PUSH2 0xEAA JUMP JUMPDEST DUP3 MSTORE POP POP JUMP JUMPDEST PUSH1 0x0 PUSH1 0x20 DUP3 ADD SWAP1 POP PUSH2 0xEDB PUSH1 0x0 DUP4 ADD DUP5 PUSH2 0xEB7 JUMP JUMPDEST SWAP3 SWAP2 POP POP JUMP JUMPDEST PUSH1 0x0 DUP2 ISZERO ISZERO SWAP1 POP SWAP2 SWAP1 POP JUMP JUMPDEST PUSH2 0xEF6 DUP2 PUSH2 0xEE1 JUMP JUMPDEST DUP3 MSTORE POP POP JUMP JUMPDEST PUSH32 0x4E487B7100000000000000000000000000000000000000000000000000000000 PUSH1 0x0 MSTORE PUSH1 0x21 PUSH1 0x4 MSTORE PUSH1 0x24 PUSH1 0x0 REVERT JUMPDEST PUSH1 0x4 DUP2 LT PUSH2 0xF3C JUMPI PUSH2 0xF3B PUSH2 0xEFC JUMP JUMPDEST JUMPDEST POP JUMP JUMPDEST PUSH1 0x0 DUP2 SWAP1 POP PUSH2 0xF4D DUP3 PUSH2 0xF2B JUMP JUMPDEST SWAP2 SWAP1 POP JUMP JUMPDEST PUSH1 0x0 PUSH2 0xF5D DUP3 PUSH2 0xF3F JUMP JUMPDEST SWAP1 POP SWAP2 SWAP1 POP JUMP JUMPDEST PUSH2 0xF6D DUP2 PUSH2 0xF52 JUMP JUMPDEST DUP3 MSTORE POP POP JUMP JUMPDEST PUSH1 0x0 PUSH1 0xA0 DUP3 ADD SWAP1 POP PUSH2 0xF88 PUSH1 0x0 DUP4 ADD DUP9 PUSH2 0xB6C JUMP JUMPDEST PUSH2 0xF95 PUSH1 0x20 DUP4 ADD DUP8 PUSH2 0xEED JUMP JUMPDEST PUSH2 0xFA2 PUSH1 0x40 DUP4 ADD DUP7 PUSH2 0xEB7 JUMP JUMPDEST PUSH2 0xFAF PUSH1 0x60 DUP4 ADD DUP6 PUSH2 0xB6C JUMP JUMPDEST PUSH2 0xFBC PUSH1 0x80 DUP4 ADD DUP5 PUSH2 0xF64 JUMP JUMPDEST SWAP7 SWAP6 POP POP POP POP POP POP JUMP JUMPDEST PUSH2 0xFCF DUP2 PUSH2 0xEAA JUMP JUMPDEST DUP2 EQ PUSH2 0xFDA JUMPI PUSH1 0x0 DUP1 REVERT JUMPDEST POP JUMP JUMPDEST PUSH1 0x0 DUP2 CALLDATALOAD SWAP1 POP PUSH2 0xFEC DUP2 PUSH2 0xFC6 JUMP JUMPDEST SWAP3 SWAP2 POP POP JUMP JUMPDEST PUSH1 0x0 PUSH1 0x20 DUP3 DUP5 SUB SLT ISZERO PUSH2 0x1008 JUMPI PUSH2 0x1007 PUSH2 0xAFF JUMP JUMPDEST JUMPDEST PUSH1 0x0 PUSH2 0x1016 DUP5 DUP3 DUP6 ADD PUSH2 0xFDD JUMP JUMPDEST SWAP2 POP POP SWAP3 SWAP2 POP POP JUMP JUMPDEST PUSH32 0x4E487B7100000000000000000000000000000000000000000000000000000000 PUSH1 0x0 MSTORE PUSH1 0x22 PUSH1 0x4 MSTORE PUSH1 0x24 PUSH1 0x0 REVERT JUMPDEST PUSH1 0x0 PUSH1 0x2 DUP3 DIV SWAP1 POP PUSH1 0x1 DUP3 AND DUP1 PUSH2 0x1066 JUMPI PUSH1 0x7F DUP3 AND SWAP2 POP JUMPDEST PUSH1 0x20 DUP3 LT DUP2 SUB PUSH2 0x1079 JUMPI PUSH2 0x1078 PUSH2 0x101F JUMP JUMPDEST JUMPDEST POP SWAP2 SWAP1 POP JUMP JUMPDEST PUSH32 0x4E487B7100000000000000000000000000000000000000000000000000000000 PUSH1 0x0 MSTORE PUSH1 0x11 PUSH1 0x4 MSTORE PUSH1 0x24 PUSH1 0x0 REVERT JUMPDEST PUSH1 0x0 PUSH2 0x10B9 DUP3 PUSH2 0xB09 JUMP JUMPDEST SWAP2 POP PUSH32 0xFFFFFFFFFFFFFFFFFFFFFFFFFFFFFFFFFFFFFFFFFFFFFFFFFFFFFFFFFFFFFFFF DUP3 SUB PUSH2 0x10EB JUMPI PUSH2 0x10EA PUSH2 0x107F JUMP JUMPDEST JUMPDEST PUSH1 0x1 DUP3 ADD SWAP1 POP SWAP2 SWAP1 POP JUMP JUMPDEST PUSH1 0x0 DUP2 SWAP1 POP DUP2 PUSH1 0x0 MSTORE PUSH1 0x20 PUSH1 0x0 KECCAK256 SWAP1 POP SWAP2 SWAP1 POP JUMP JUMPDEST PUSH1 0x0 PUSH1 0x20 PUSH1 0x1F DUP4 ADD DIV SWAP1 POP SWAP2 SWAP1 POP JUMP JUMPDEST PUSH1 0x0 DUP3 DUP3 SHL SWAP1 POP SWAP3 SWAP2 POP POP JUMP JUMPDEST PUSH1 0x0 PUSH1 0x8 DUP4 MUL PUSH2 0x1158 PUSH32 0xFFFFFFFFFFFFFFFFFFFFFFFFFFFFFFFFFFFFFFFFFFFFFFFFFFFFFFFFFFFFFFFF DUP3 PUSH2 0x111B JUMP JUMPDEST PUSH2 0x1162 DUP7 DUP4 PUSH2 0x111B JUMP JUMPDEST SWAP6 POP DUP1 NOT DUP5 AND SWAP4 POP DUP1 DUP7 AND DUP5 OR SWAP3 POP POP POP SWAP4 SWAP3 POP POP POP JUMP JUMPDEST PUSH1 0x0 DUP2 SWAP1 POP SWAP2 SWAP1 POP JUMP JUMPDEST PUSH1 0x0 PUSH2 0x119F PUSH2 0x119A PUSH2 0x1195 DUP5 PUSH2 0xB09 JUMP JUMPDEST PUSH2 0x117A JUMP JUMPDEST PUSH2 0xB09 JUMP JUMPDEST SWAP1 POP SWAP2 SWAP1 POP JUMP JUMPDEST PUSH1 0x0 DUP2 SWAP1 POP SWAP2 SWAP1 POP JUMP JUMPDEST PUSH2 0x11B9 DUP4 PUSH2 0x1184 JUMP JUMPDEST PUSH2 0x11CD PUSH2 0x11C5 DUP3 PUSH2 0x11A6 JUMP JUMPDEST DUP5 DUP5 SLOAD PUSH2 0x1128 JUMP JUMPDEST DUP3 SSTORE POP POP POP POP JUMP JUMPDEST PUSH1 0x0 SWAP1 JUMP JUMPDEST PUSH2 0x11E2 PUSH2 0x11D5 JUMP JUMPDEST PUSH2 0x11ED DUP2 DUP5 DUP5 PUSH2 0x11B0 JUMP JUMPDEST POP POP POP JUMP JUMPDEST JUMPDEST DUP2 DUP2 LT ISZERO PUSH2 0x1211 JUMPI PUSH2 0x1206 PUSH1 0x0 DUP3 PUSH2 0x11DA JUMP JUMPDEST PUSH1 0x1 DUP2 ADD SWAP1 POP PUSH2 0x11F3 JUMP JUMPDEST POP POP JUMP JUMPDEST PUSH1 0x1F DUP3 GT ISZERO PUSH2 0x1256 JUMPI PUSH2 0x1227 DUP2 PUSH2 0x10F6 JUMP JUMPDEST PUSH2 0x1230 DUP5 PUSH2 0x110B JUMP JUMPDEST DUP2 ADD PUSH1 0x20 DUP6 LT ISZERO PUSH2 0x123F JUMPI DUP2 SWAP1 POP JUMPDEST PUSH2 0x1253 PUSH2 0x124B DUP6 PUSH2 0x110B JUMP JUMPDEST DUP4 ADD DUP3 PUSH2 0x11F2 JUMP JUMPDEST POP POP JUMPDEST POP POP POP JUMP JUMPDEST PUSH1 0x0 DUP3 DUP3 SHR SWAP1 POP SWAP3 SWAP2 POP POP JUMP JUMPDEST PUSH1 0x0 PUSH2 0x1279 PUSH1 0x0 NOT DUP5 PUSH1 0x8 MUL PUSH2 0x125B JUMP JUMPDEST NOT DUP1 DUP4 AND SWAP2 POP POP SWAP3 SWAP2 POP POP JUMP JUMPDEST PUSH1 0x0 PUSH2 0x1292 DUP4 DUP4 PUSH2 0x1268 JUMP JUMPDEST SWAP2 POP DUP3 PUSH1 0x2 MUL DUP3 OR SWAP1 POP SWAP3 SWAP2 POP POP JUMP JUMPDEST PUSH2 0x12AB DUP3 PUSH2 0xB7B JUMP JUMPDEST PUSH8 0xFFFFFFFFFFFFFFFF DUP2 GT ISZERO PUSH2 0x12C4 JUMPI PUSH2 0x12C3 PUSH2 0xD23 JUMP JUMPDEST JUMPDEST PUSH2 0x12CE DUP3 SLOAD PUSH2 0x104E JUMP JUMPDEST PUSH2 0x12D9 DUP3 DUP3 DUP6 PUSH2 0x1215 JUMP JUMPDEST PUSH1 0x0 PUSH1 0x20 SWAP1 POP PUSH1 0x1F DUP4 GT PUSH1 0x1 DUP2 EQ PUSH2 0x130C JUMPI PUSH1 0x0 DUP5 ISZERO PUSH2 0x12FA JUMPI DUP3 DUP8 ADD MLOAD SWAP1 POP JUMPDEST PUSH2 0x1304 DUP6 DUP3 PUSH2 0x1286 JUMP JUMPDEST DUP7 SSTORE POP PUSH2 0x136C JUMP JUMPDEST PUSH1 0x1F NOT DUP5 AND PUSH2 0x131A DUP7 PUSH2 0x10F6 JUMP JUMPDEST PUSH1 0x0 JUMPDEST DUP3 DUP2 LT ISZERO PUSH2 0x1342 JUMPI DUP5 DUP10 ADD MLOAD DUP3 SSTORE PUSH1 0x1 DUP3 ADD SWAP2 POP PUSH1 0x20 DUP6 ADD SWAP5 POP PUSH1 0x20 DUP2 ADD SWAP1 POP PUSH2 0x131D JUMP JUMPDEST DUP7 DUP4 LT ISZERO PUSH2 0x135F JUMPI DUP5 DUP10 ADD MLOAD PUSH2 0x135B PUSH1 0x1F DUP10 AND DUP3 PUSH2 0x1268 JUMP JUMPDEST DUP4 SSTORE POP JUMPDEST PUSH1 0x1 PUSH1 0x2 DUP9 MUL ADD DUP9 SSTORE POP POP POP JUMPDEST POP POP POP POP POP POP JUMP JUMPDEST PUSH32 0x4E487B7100000000000000000000000000000000000000000000000000000000 PUSH1 0x0 MSTORE PUSH1 0x32 PUSH1 0x4 MSTORE PUSH1 0x24 PUSH1 0x0 REVERT JUMPDEST PUSH1 0x0 PUSH2 0x13AE DUP3 PUSH2 0xEAA JUMP JUMPDEST SWAP2 POP PUSH1 0xFF DUP3 SUB PUSH2 0x13C1 JUMPI PUSH2 0x13C0 PUSH2 0x107F JUMP JUMPDEST JUMPDEST PUSH1 0x1 DUP3 ADD SWAP1 POP SWAP2 SWAP1 POP JUMP JUMPDEST PUSH1 0x0 PUSH2 0x13D7 DUP3 PUSH2 0xB09 JUMP JUMPDEST SWAP2 POP PUSH2 0x13E2 DUP4 PUSH2 0xB09 JUMP JUMPDEST SWAP3 POP DUP3 DUP3 ADD SWAP1 POP DUP1 DUP3 GT ISZERO PUSH2 0x13FA JUMPI PUSH2 0x13F9 PUSH2 0x107F JUMP JUMPDEST JUMPDEST SWAP3 SWAP2 POP POP JUMP INVALID LOG2 PUSH5 0x6970667358 0x22 SLT KECCAK256 CALLDATALOAD DUP9 PUSH2 0x20B9 CALL JUMPI 0xA9 PUSH7 0x267E3715B92686 MOD 0xD4 STATICCALL AND SUB NUMBER 0xCF PUSH4 0x88FB7FCE RETURNDATACOPY JUMP 0x27 0xE8 PUSH5 0x736F6C6343 STOP ADDMOD SGT STOP CALLER "
				},
				"gasEstimates": {
					"creation": {
						"codeDepositCost": "1034800",
						"executionCost": "84043",
						"totalCost": "1118843"
					},
					"external": {
						"VoterCount()": "2474",
						"addProposalDetail(uint256,string)": "infinite",
						"advanceState(address)": "infinite",
						"chairperson()": "2537",
						"proposalCount()": "2517",
						"proposals(uint256)": "infinite",
						"register(address)": "100421",
						"vote(uint8)": "infinite",
						"voters(address)": "infinite",
						"winningProposal()": "infinite"
					}
				},
				"methodIdentifiers": {
					"VoterCount()": "2e46fb9a",
					"addProposalDetail(uint256,string)": "585cc4c4",
					"advanceState(address)": "64f5492e",
					"chairperson()": "2e4176cf",
					"proposalCount()": "da35c664",
					"proposals(uint256)": "013cf08b",
					"register(address)": "4420e486",
					"vote(uint8)": "b3f98adc",
					"voters(address)": "a3ec138d",
					"winningProposal()": "609ff1bd"
				}
			},
			"storageLayout": {
				"storage": [
					{
						"astId": 28,
						"contract": "Lab7/Ballot.sol:Ballot",
						"label": "proposalCount",
						"offset": 0,
						"slot": "0",
						"type": "t_uint256"
					},
					{
						"astId": 31,
						"contract": "Lab7/Ballot.sol:Ballot",
						"label": "VoterCount",
						"offset": 0,
						"slot": "1",
						"type": "t_uint256"
					},
					{
						"astId": 33,
						"contract": "Lab7/Ballot.sol:Ballot",
						"label": "chairperson",
						"offset": 0,
						"slot": "2",
						"type": "t_address"
					},
					{
						"astId": 38,
						"contract": "Lab7/Ballot.sol:Ballot",
						"label": "voters",
						"offset": 0,
						"slot": "3",
						"type": "t_mapping(t_address,t_struct(Voter)13_storage)"
					},
					{
						"astId": 42,
						"contract": "Lab7/Ballot.sol:Ballot",
						"label": "proposals",
						"offset": 0,
						"slot": "4",
						"type": "t_array(t_struct(Proposal)20_storage)dyn_storage"
					}
				],
				"types": {
					"t_address": {
						"encoding": "inplace",
						"label": "address",
						"numberOfBytes": "20"
					},
					"t_array(t_struct(Proposal)20_storage)dyn_storage": {
						"base": "t_struct(Proposal)20_storage",
						"encoding": "dynamic_array",
						"label": "struct Ballot.Proposal[]",
						"numberOfBytes": "32"
					},
					"t_bool": {
						"encoding": "inplace",
						"label": "bool",
						"numberOfBytes": "1"
					},
					"t_enum(Stage)25": {
						"encoding": "inplace",
						"label": "enum Ballot.Stage",
						"numberOfBytes": "1"
					},
					"t_mapping(t_address,t_struct(Voter)13_storage)": {
						"encoding": "mapping",
						"key": "t_address",
						"label": "mapping(address => struct Ballot.Voter)",
						"numberOfBytes": "32",
						"value": "t_struct(Voter)13_storage"
					},
					"t_string_storage": {
						"encoding": "bytes",
						"label": "string",
						"numberOfBytes": "32"
					},
					"t_struct(Proposal)20_storage": {
						"encoding": "inplace",
						"label": "struct Ballot.Proposal",
						"members": [
							{
								"astId": 15,
								"contract": "Lab7/Ballot.sol:Ballot",
								"label": "proposalID",
								"offset": 0,
								"slot": "0",
								"type": "t_uint256"
							},
							{
								"astId": 17,
								"contract": "Lab7/Ballot.sol:Ballot",
								"label": "topic",
								"offset": 0,
								"slot": "1",
								"type": "t_string_storage"
							},
							{
								"astId": 19,
								"contract": "Lab7/Ballot.sol:Ballot",
								"label": "voteCount",
								"offset": 0,
								"slot": "2",
								"type": "t_uint256"
							}
						],
						"numberOfBytes": "96"
					},
					"t_struct(Voter)13_storage": {
						"encoding": "inplace",
						"label": "struct Ballot.Voter",
						"members": [
							{
								"astId": 3,
								"contract": "Lab7/Ballot.sol:Ballot",
								"label": "weight",
								"offset": 0,
								"slot": "0",
								"type": "t_uint256"
							},
							{
								"astId": 5,
								"contract": "Lab7/Ballot.sol:Ballot",
								"label": "voted",
								"offset": 0,
								"slot": "1",
								"type": "t_bool"
							},
							{
								"astId": 7,
								"contract": "Lab7/Ballot.sol:Ballot",
								"label": "vote",
								"offset": 1,
								"slot": "1",
								"type": "t_uint8"
							},
							{
								"astId": 9,
								"contract": "Lab7/Ballot.sol:Ballot",
								"label": "createTime",
								"offset": 0,
								"slot": "2",
								"type": "t_uint256"
							},
							{
								"astId": 12,
								"contract": "Lab7/Ballot.sol:Ballot",
								"label": "stage",
								"offset": 0,
								"slot": "3",
								"type": "t_enum(Stage)25"
							}
						],
						"numberOfBytes": "128"
					},
					"t_uint256": {
						"encoding": "inplace",
						"label": "uint256",
						"numberOfBytes": "32"
					},
					"t_uint8": {
						"encoding": "inplace",
						"label": "uint8",
						"numberOfBytes": "1"
					}
				}
			},
			"userdoc": {
				"kind": "user",
				"methods": {
					"vote(uint8)": {
						"notice": "Give a single vote to proposal $(toProposal)."
					}
				},
				"version": 1
			}
		}
	}
}